{
  "_format": "hh-sol-artifact-1",
  "contractName": "StrategyToken",
  "sourceName": "contracts/StrategyToken.sol",
  "abi": [
    {
      "inputs": [
        {
          "internalType": "string",
          "name": "name",
          "type": "string"
        },
        {
          "internalType": "string",
          "name": "symbol",
          "type": "string"
        }
      ],
      "stateMutability": "nonpayable",
      "type": "constructor"
    },
    {
      "anonymous": false,
      "inputs": [
        {
          "indexed": true,
          "internalType": "address",
          "name": "owner",
          "type": "address"
        },
        {
          "indexed": true,
          "internalType": "address",
          "name": "spender",
          "type": "address"
        },
        {
          "indexed": false,
          "internalType": "uint256",
          "name": "value",
          "type": "uint256"
        }
      ],
      "name": "Approval",
      "type": "event"
    },
    {
      "anonymous": false,
      "inputs": [
        {
          "indexed": true,
          "internalType": "address",
          "name": "from",
          "type": "address"
        },
        {
          "indexed": true,
          "internalType": "address",
          "name": "to",
          "type": "address"
        },
        {
          "indexed": false,
          "internalType": "uint256",
          "name": "value",
          "type": "uint256"
        }
      ],
      "name": "Transfer",
      "type": "event"
    },
    {
      "inputs": [
        {
          "internalType": "address",
          "name": "owner",
          "type": "address"
        },
        {
          "internalType": "address",
          "name": "spender",
          "type": "address"
        }
      ],
      "name": "allowance",
      "outputs": [
        {
          "internalType": "uint256",
          "name": "",
          "type": "uint256"
        }
      ],
      "stateMutability": "view",
      "type": "function"
    },
    {
      "inputs": [
        {
          "internalType": "address",
          "name": "spender",
          "type": "address"
        },
        {
          "internalType": "uint256",
          "name": "amount",
          "type": "uint256"
        }
      ],
      "name": "approve",
      "outputs": [
        {
          "internalType": "bool",
          "name": "",
          "type": "bool"
        }
      ],
      "stateMutability": "nonpayable",
      "type": "function"
    },
    {
      "inputs": [
        {
          "internalType": "address",
          "name": "account",
          "type": "address"
        }
      ],
      "name": "balanceOf",
      "outputs": [
        {
          "internalType": "uint256",
          "name": "",
          "type": "uint256"
        }
      ],
      "stateMutability": "view",
      "type": "function"
    },
    {
      "inputs": [
        {
          "internalType": "uint256",
          "name": "amount",
          "type": "uint256"
        }
      ],
      "name": "burn",
      "outputs": [],
      "stateMutability": "nonpayable",
      "type": "function"
    },
    {
      "inputs": [
        {
          "internalType": "address",
          "name": "account",
          "type": "address"
        },
        {
          "internalType": "uint256",
          "name": "amount",
          "type": "uint256"
        }
      ],
      "name": "burnFrom",
      "outputs": [],
      "stateMutability": "nonpayable",
      "type": "function"
    },
    {
      "inputs": [],
      "name": "decimals",
      "outputs": [
        {
          "internalType": "uint8",
          "name": "",
          "type": "uint8"
        }
      ],
      "stateMutability": "view",
      "type": "function"
    },
    {
      "inputs": [
        {
          "internalType": "address",
          "name": "spender",
          "type": "address"
        },
        {
          "internalType": "uint256",
          "name": "subtractedValue",
          "type": "uint256"
        }
      ],
      "name": "decreaseAllowance",
      "outputs": [
        {
          "internalType": "bool",
          "name": "",
          "type": "bool"
        }
      ],
      "stateMutability": "nonpayable",
      "type": "function"
    },
    {
      "inputs": [
        {
          "internalType": "address",
          "name": "spender",
          "type": "address"
        },
        {
          "internalType": "uint256",
          "name": "addedValue",
          "type": "uint256"
        }
      ],
      "name": "increaseAllowance",
      "outputs": [
        {
          "internalType": "bool",
          "name": "",
          "type": "bool"
        }
      ],
      "stateMutability": "nonpayable",
      "type": "function"
    },
    {
      "inputs": [
        {
          "internalType": "address",
          "name": "_recipient",
          "type": "address"
        },
        {
          "internalType": "uint256",
          "name": "_amount",
          "type": "uint256"
        }
      ],
      "name": "mint",
      "outputs": [],
      "stateMutability": "nonpayable",
      "type": "function"
    },
    {
      "inputs": [],
      "name": "name",
      "outputs": [
        {
          "internalType": "string",
          "name": "",
          "type": "string"
        }
      ],
      "stateMutability": "view",
      "type": "function"
    },
    {
      "inputs": [],
      "name": "symbol",
      "outputs": [
        {
          "internalType": "string",
          "name": "",
          "type": "string"
        }
      ],
      "stateMutability": "view",
      "type": "function"
    },
    {
      "inputs": [],
      "name": "totalSupply",
      "outputs": [
        {
          "internalType": "uint256",
          "name": "",
          "type": "uint256"
        }
      ],
      "stateMutability": "view",
      "type": "function"
    },
    {
      "inputs": [
        {
          "internalType": "address",
          "name": "recipient",
          "type": "address"
        },
        {
          "internalType": "uint256",
          "name": "amount",
          "type": "uint256"
        }
      ],
      "name": "transfer",
      "outputs": [
        {
          "internalType": "bool",
          "name": "",
          "type": "bool"
        }
      ],
      "stateMutability": "nonpayable",
      "type": "function"
    },
    {
      "inputs": [
        {
          "internalType": "address",
          "name": "sender",
          "type": "address"
        },
        {
          "internalType": "address",
          "name": "recipient",
          "type": "address"
        },
        {
          "internalType": "uint256",
          "name": "amount",
          "type": "uint256"
        }
      ],
      "name": "transferFrom",
      "outputs": [
        {
          "internalType": "bool",
          "name": "",
          "type": "bool"
        }
      ],
      "stateMutability": "nonpayable",
      "type": "function"
    }
  ],
  "bytecode": "0x60806040523480156200001157600080fd5b506040516200110d3803806200110d8339810160408190526200003491620003df565b62000040828262000048565b505062000499565b600054610100900460ff168062000062575060005460ff16155b620000ba5760405162461bcd60e51b815260206004820152602e6024820152600080516020620010ed83398151915260448201526d191e481a5b9a5d1a585b1a5e995960921b60648201526084015b60405180910390fd5b600054610100900460ff16158015620000dd576000805461ffff19166101011790555b620000e76200010b565b620000f38383620001b2565b801562000106576000805461ff00191690555b505050565b600054610100900460ff168062000125575060005460ff16155b620001795760405162461bcd60e51b815260206004820152602e6024820152600080516020620010ed83398151915260448201526d191e481a5b9a5d1a585b1a5e995960921b6064820152608401620000b1565b600054610100900460ff161580156200019c576000805461ffff19166101011790555b8015620001af576000805461ff00191690555b50565b600054610100900460ff1680620001cc575060005460ff16155b620002205760405162461bcd60e51b815260206004820152602e6024820152600080516020620010ed83398151915260448201526d191e481a5b9a5d1a585b1a5e995960921b6064820152608401620000b1565b600054610100900460ff1615801562000243576000805461ffff19166101011790555b82516200025890603690602086019062000286565b5081516200026e90603790602085019062000286565b50801562000106576000805461ff0019169055505050565b828054620002949062000446565b90600052602060002090601f016020900481019282620002b8576000855562000303565b82601f10620002d357805160ff191683800117855562000303565b8280016001018555821562000303579182015b8281111562000303578251825591602001919060010190620002e6565b506200031192915062000315565b5090565b5b8082111562000311576000815560010162000316565b600082601f8301126200033d578081fd5b81516001600160401b03808211156200035a576200035a62000483565b604051601f8301601f19908116603f0116810190828211818310171562000385576200038562000483565b81604052838152602092508683858801011115620003a1578485fd5b8491505b83821015620003c45785820183015181830184015290820190620003a5565b83821115620003d557848385830101525b9695505050505050565b60008060408385031215620003f2578182fd5b82516001600160401b038082111562000409578384fd5b62000417868387016200032c565b935060208501519150808211156200042d578283fd5b506200043c858286016200032c565b9150509250929050565b600181811c908216806200045b57607f821691505b602082108114156200047d57634e487b7160e01b600052602260045260246000fd5b50919050565b634e487b7160e01b600052604160045260246000fd5b610c4480620004a96000396000f3fe608060405234801561001057600080fd5b50600436106100ea5760003560e01c806342966c681161008c57806395d89b411161006657806395d89b41146101c5578063a457c2d7146101cd578063a9059cbb146101e0578063dd62ed3e146101f3576100ea565b806342966c681461018c57806370a082311461019f57806379cc6790146101b2576100ea565b806323b872dd116100c857806323b872dd14610142578063313ce56714610155578063395093511461016457806340c10f1914610177576100ea565b806306fdde03146100ef578063095ea7b31461010d57806318160ddd14610130575b600080fd5b6100f761022c565b6040516101049190610b3b565b60405180910390f35b61012061011b366004610afa565b6102be565b6040519015158152602001610104565b6035545b604051908152602001610104565b610120610150366004610abf565b6102d4565b60405160128152602001610104565b610120610172366004610afa565b610383565b61018a610185366004610afa565b6103bf565b005b61018a61019a366004610b23565b6103cd565b6101346101ad366004610a6c565b6103da565b61018a6101c0366004610afa565b6103f9565b6100f761047f565b6101206101db366004610afa565b61048e565b6101206101ee366004610afa565b610527565b610134610201366004610a8d565b6001600160a01b03918216600090815260346020908152604080832093909416825291909152205490565b60606036805461023b90610bbd565b80601f016020809104026020016040519081016040528092919081815260200182805461026790610bbd565b80156102b45780601f10610289576101008083540402835291602001916102b4565b820191906000526020600020905b81548152906001019060200180831161029757829003601f168201915b5050505050905090565b60006102cb338484610534565b50600192915050565b60006102e1848484610658565b6001600160a01b03841660009081526034602090815260408083203384529091529020548281101561036b5760405162461bcd60e51b815260206004820152602860248201527f45524332303a207472616e7366657220616d6f756e74206578636565647320616044820152676c6c6f77616e636560c01b60648201526084015b60405180910390fd5b6103788533858403610534565b506001949350505050565b3360008181526034602090815260408083206001600160a01b038716845290915281205490916102cb9185906103ba908690610b8e565b610534565b6103c98282610827565b5050565b6103d73382610907565b50565b6001600160a01b0381166000908152603360205260409020545b919050565b60006104058333610201565b9050818110156104635760405162461bcd60e51b8152602060048201526024808201527f45524332303a206275726e20616d6f756e74206578636565647320616c6c6f77604482015263616e636560e01b6064820152608401610362565b6104708333848403610534565b61047a8383610907565b505050565b60606037805461023b90610bbd565b3360009081526034602090815260408083206001600160a01b0386168452909152812054828110156105105760405162461bcd60e51b815260206004820152602560248201527f45524332303a2064656372656173656420616c6c6f77616e63652062656c6f77604482015264207a65726f60d81b6064820152608401610362565b61051d3385858403610534565b5060019392505050565b60006102cb338484610658565b6001600160a01b0383166105965760405162461bcd60e51b8152602060048201526024808201527f45524332303a20617070726f76652066726f6d20746865207a65726f206164646044820152637265737360e01b6064820152608401610362565b6001600160a01b0382166105f75760405162461bcd60e51b815260206004820152602260248201527f45524332303a20617070726f766520746f20746865207a65726f206164647265604482015261737360f01b6064820152608401610362565b6001600160a01b0383811660008181526034602090815260408083209487168084529482529182902085905590518481527f8c5be1e5ebec7d5bd14f71427d1e84f3dd0314c0f7b2291e5b200ac8c7c3b925910160405180910390a3505050565b6001600160a01b0383166106bc5760405162461bcd60e51b815260206004820152602560248201527f45524332303a207472616e736665722066726f6d20746865207a65726f206164604482015264647265737360d81b6064820152608401610362565b6001600160a01b03821661071e5760405162461bcd60e51b815260206004820152602360248201527f45524332303a207472616e7366657220746f20746865207a65726f206164647260448201526265737360e81b6064820152608401610362565b6001600160a01b038316600090815260336020526040902054818110156107965760405162461bcd60e51b815260206004820152602660248201527f45524332303a207472616e7366657220616d6f756e7420657863656564732062604482015265616c616e636560d01b6064820152608401610362565b6001600160a01b038085166000908152603360205260408082208585039055918516815290812080548492906107cd908490610b8e565b92505081905550826001600160a01b0316846001600160a01b03167fddf252ad1be2c89b69c2b068fc378daa952ba7f163c4a11628f55a4df523b3ef8460405161081991815260200190565b60405180910390a350505050565b6001600160a01b03821661087d5760405162461bcd60e51b815260206004820152601f60248201527f45524332303a206d696e7420746f20746865207a65726f2061646472657373006044820152606401610362565b806035600082825461088f9190610b8e565b90915550506001600160a01b038216600090815260336020526040812080548392906108bc908490610b8e565b90915550506040518181526001600160a01b038316906000907fddf252ad1be2c89b69c2b068fc378daa952ba7f163c4a11628f55a4df523b3ef9060200160405180910390a36103c9565b6001600160a01b0382166109675760405162461bcd60e51b815260206004820152602160248201527f45524332303a206275726e2066726f6d20746865207a65726f206164647265736044820152607360f81b6064820152608401610362565b6001600160a01b038216600090815260336020526040902054818110156109db5760405162461bcd60e51b815260206004820152602260248201527f45524332303a206275726e20616d6f756e7420657863656564732062616c616e604482015261636560f01b6064820152608401610362565b6001600160a01b0383166000908152603360205260408120838303905560358054849290610a0a908490610ba6565b90915550506040518281526000906001600160a01b038516907fddf252ad1be2c89b69c2b068fc378daa952ba7f163c4a11628f55a4df523b3ef9060200160405180910390a361047a565b80356001600160a01b03811681146103f457600080fd5b600060208284031215610a7d578081fd5b610a8682610a55565b9392505050565b60008060408385031215610a9f578081fd5b610aa883610a55565b9150610ab660208401610a55565b90509250929050565b600080600060608486031215610ad3578081fd5b610adc84610a55565b9250610aea60208501610a55565b9150604084013590509250925092565b60008060408385031215610b0c578182fd5b610b1583610a55565b946020939093013593505050565b600060208284031215610b34578081fd5b5035919050565b6000602080835283518082850152825b81811015610b6757858101830151858201604001528201610b4b565b81811115610b785783604083870101525b50601f01601f1916929092016040019392505050565b60008219821115610ba157610ba1610bf8565b500190565b600082821015610bb857610bb8610bf8565b500390565b600181811c90821680610bd157607f821691505b60208210811415610bf257634e487b7160e01b600052602260045260246000fd5b50919050565b634e487b7160e01b600052601160045260246000fdfea2646970667358221220ec0b2e0f75493b46407afe9bd85460358a03c69edc7c04529b94270be81ce91964736f6c63430008030033496e697469616c697a61626c653a20636f6e747261637420697320616c726561",
  "linkReferences": {},
  "deployedLinkReferences": {}
}