{
  "_format": "hh-sol-artifact-1",
  "contractName": "KeeperExperiment",
  "sourceName": "contracts/KeeperExperiment.sol",
  "abi": [
    {
      "anonymous": false,
      "inputs": [
        {
          "indexed": false,
          "internalType": "address",
          "name": "previousAdmin",
          "type": "address"
        },
        {
          "indexed": false,
          "internalType": "address",
          "name": "newAdmin",
          "type": "address"
        }
      ],
      "name": "AdminChanged",
      "type": "event"
    },
    {
      "anonymous": false,
      "inputs": [
        {
          "indexed": true,
          "internalType": "address",
          "name": "beacon",
          "type": "address"
        }
      ],
      "name": "BeaconUpgraded",
      "type": "event"
    },
    {
      "anonymous": false,
      "inputs": [
        {
          "indexed": true,
          "internalType": "bytes32",
          "name": "role",
          "type": "bytes32"
        },
        {
          "indexed": true,
          "internalType": "bytes32",
          "name": "previousAdminRole",
          "type": "bytes32"
        },
        {
          "indexed": true,
          "internalType": "bytes32",
          "name": "newAdminRole",
          "type": "bytes32"
        }
      ],
      "name": "RoleAdminChanged",
      "type": "event"
    },
    {
      "anonymous": false,
      "inputs": [
        {
          "indexed": true,
          "internalType": "bytes32",
          "name": "role",
          "type": "bytes32"
        },
        {
          "indexed": true,
          "internalType": "address",
          "name": "account",
          "type": "address"
        },
        {
          "indexed": true,
          "internalType": "address",
          "name": "sender",
          "type": "address"
        }
      ],
      "name": "RoleGranted",
      "type": "event"
    },
    {
      "anonymous": false,
      "inputs": [
        {
          "indexed": true,
          "internalType": "bytes32",
          "name": "role",
          "type": "bytes32"
        },
        {
          "indexed": true,
          "internalType": "address",
          "name": "account",
          "type": "address"
        },
        {
          "indexed": true,
          "internalType": "address",
          "name": "sender",
          "type": "address"
        }
      ],
      "name": "RoleRevoked",
      "type": "event"
    },
    {
      "anonymous": false,
      "inputs": [
        {
          "indexed": true,
          "internalType": "address",
          "name": "implementation",
          "type": "address"
        }
      ],
      "name": "Upgraded",
      "type": "event"
    },
    {
      "inputs": [],
      "name": "ADMIN_ROLE",
      "outputs": [
        {
          "internalType": "bytes32",
          "name": "",
          "type": "bytes32"
        }
      ],
      "stateMutability": "view",
      "type": "function"
    },
    {
      "inputs": [],
      "name": "DEFAULT_ADMIN_ROLE",
      "outputs": [
        {
          "internalType": "bytes32",
          "name": "",
          "type": "bytes32"
        }
      ],
      "stateMutability": "view",
      "type": "function"
    },
    {
      "inputs": [],
      "name": "UPGRADER_ROLE",
      "outputs": [
        {
          "internalType": "bytes32",
          "name": "",
          "type": "bytes32"
        }
      ],
      "stateMutability": "view",
      "type": "function"
    },
    {
      "inputs": [
        {
          "internalType": "uint32",
          "name": "marketIndex",
          "type": "uint32"
        }
      ],
      "name": "areTherePendingNextPriceActions",
      "outputs": [
        {
          "internalType": "bool",
          "name": "",
          "type": "bool"
        }
      ],
      "stateMutability": "view",
      "type": "function"
    },
    {
      "inputs": [
        {
          "internalType": "bytes32",
          "name": "role",
          "type": "bytes32"
        }
      ],
      "name": "getRoleAdmin",
      "outputs": [
        {
          "internalType": "bytes32",
          "name": "",
          "type": "bytes32"
        }
      ],
      "stateMutability": "view",
      "type": "function"
    },
    {
      "inputs": [
        {
          "internalType": "bytes32",
          "name": "role",
          "type": "bytes32"
        },
        {
          "internalType": "address",
          "name": "account",
          "type": "address"
        }
      ],
      "name": "grantRole",
      "outputs": [],
      "stateMutability": "nonpayable",
      "type": "function"
    },
    {
      "inputs": [
        {
          "internalType": "bytes32",
          "name": "role",
          "type": "bytes32"
        },
        {
          "internalType": "address",
          "name": "account",
          "type": "address"
        }
      ],
      "name": "hasRole",
      "outputs": [
        {
          "internalType": "bool",
          "name": "",
          "type": "bool"
        }
      ],
      "stateMutability": "view",
      "type": "function"
    },
    {
      "inputs": [
        {
          "internalType": "address",
          "name": "_admin",
          "type": "address"
        },
        {
          "internalType": "address",
          "name": "_longShort",
          "type": "address"
        },
        {
          "internalType": "address",
          "name": "_staker",
          "type": "address"
        }
      ],
      "name": "initialize",
      "outputs": [],
      "stateMutability": "nonpayable",
      "type": "function"
    },
    {
      "inputs": [
        {
          "internalType": "uint32",
          "name": "marketIndex",
          "type": "uint32"
        }
      ],
      "name": "isPriceChangeOverThreshold",
      "outputs": [
        {
          "internalType": "bool",
          "name": "",
          "type": "bool"
        }
      ],
      "stateMutability": "view",
      "type": "function"
    },
    {
      "inputs": [
        {
          "internalType": "uint32",
          "name": "marketIndex",
          "type": "uint32"
        }
      ],
      "name": "isPriceChangeOverThresholdNotView",
      "outputs": [
        {
          "internalType": "bool",
          "name": "",
          "type": "bool"
        },
        {
          "internalType": "int256",
          "name": "",
          "type": "int256"
        }
      ],
      "stateMutability": "nonpayable",
      "type": "function"
    },
    {
      "inputs": [],
      "name": "longShortAddress",
      "outputs": [
        {
          "internalType": "address",
          "name": "",
          "type": "address"
        }
      ],
      "stateMutability": "view",
      "type": "function"
    },
    {
      "inputs": [
        {
          "internalType": "uint32",
          "name": "marketIndex",
          "type": "uint32"
        }
      ],
      "name": "pendingNextPriceActionsBreakdown",
      "outputs": [
        {
          "internalType": "uint256",
          "name": "",
          "type": "uint256"
        },
        {
          "internalType": "uint256",
          "name": "",
          "type": "uint256"
        },
        {
          "internalType": "uint256",
          "name": "",
          "type": "uint256"
        },
        {
          "internalType": "uint256",
          "name": "",
          "type": "uint256"
        },
        {
          "internalType": "uint256",
          "name": "",
          "type": "uint256"
        },
        {
          "internalType": "uint256",
          "name": "",
          "type": "uint256"
        }
      ],
      "stateMutability": "view",
      "type": "function"
    },
    {
      "inputs": [
        {
          "internalType": "uint32",
          "name": "marketIndex",
          "type": "uint32"
        }
      ],
      "name": "pendingNextPriceActionsBreakdownCall",
      "outputs": [],
      "stateMutability": "nonpayable",
      "type": "function"
    },
    {
      "inputs": [
        {
          "internalType": "uint32",
          "name": "",
          "type": "uint32"
        }
      ],
      "name": "percentChangeThreshold",
      "outputs": [
        {
          "internalType": "uint256",
          "name": "",
          "type": "uint256"
        }
      ],
      "stateMutability": "view",
      "type": "function"
    },
    {
      "inputs": [
        {
          "internalType": "bytes32",
          "name": "role",
          "type": "bytes32"
        },
        {
          "internalType": "address",
          "name": "account",
          "type": "address"
        }
      ],
      "name": "renounceRole",
      "outputs": [],
      "stateMutability": "nonpayable",
      "type": "function"
    },
    {
      "inputs": [
        {
          "internalType": "bytes32",
          "name": "role",
          "type": "bytes32"
        },
        {
          "internalType": "address",
          "name": "account",
          "type": "address"
        }
      ],
      "name": "revokeRole",
      "outputs": [],
      "stateMutability": "nonpayable",
      "type": "function"
    },
    {
      "inputs": [
        {
          "internalType": "uint32",
          "name": "marketIndex",
          "type": "uint32"
        }
      ],
      "name": "shouldUpdateOracle",
      "outputs": [
        {
          "internalType": "bool",
          "name": "",
          "type": "bool"
        }
      ],
      "stateMutability": "view",
      "type": "function"
    },
    {
      "inputs": [
        {
          "internalType": "uint32",
          "name": "marketIndex",
          "type": "uint32"
        }
      ],
      "name": "shouldUpdateOracleNotView",
      "outputs": [
        {
          "internalType": "bool",
          "name": "",
          "type": "bool"
        }
      ],
      "stateMutability": "nonpayable",
      "type": "function"
    },
    {
      "inputs": [
        {
          "internalType": "uint32",
          "name": "marketIndex",
          "type": "uint32"
        }
      ],
      "name": "shouldUpdateOracleNotViewBreakdown",
      "outputs": [
        {
          "internalType": "bool",
          "name": "",
          "type": "bool"
        },
        {
          "internalType": "bool",
          "name": "",
          "type": "bool"
        },
        {
          "internalType": "int256",
          "name": "",
          "type": "int256"
        },
        {
          "internalType": "bool",
          "name": "",
          "type": "bool"
        }
      ],
      "stateMutability": "nonpayable",
      "type": "function"
    },
    {
      "inputs": [],
      "name": "stakerAddress",
      "outputs": [
        {
          "internalType": "address",
          "name": "",
          "type": "address"
        }
      ],
      "stateMutability": "view",
      "type": "function"
    },
    {
      "inputs": [
        {
          "internalType": "bytes4",
          "name": "interfaceId",
          "type": "bytes4"
        }
      ],
      "name": "supportsInterface",
      "outputs": [
        {
          "internalType": "bool",
          "name": "",
          "type": "bool"
        }
      ],
      "stateMutability": "view",
      "type": "function"
    },
    {
      "inputs": [
        {
          "internalType": "uint32",
          "name": "marketIndex",
          "type": "uint32"
        },
        {
          "internalType": "uint256",
          "name": "heartbeatInSeconds",
          "type": "uint256"
        }
      ],
      "name": "updateHeartbeatThresholdForMarket",
      "outputs": [],
      "stateMutability": "nonpayable",
      "type": "function"
    },
    {
      "inputs": [
        {
          "internalType": "uint32",
          "name": "marketIndex",
          "type": "uint32"
        },
        {
          "internalType": "uint256",
          "name": "_percentChangeThreshold",
          "type": "uint256"
        }
      ],
      "name": "updatePercentChangeThresholdForMarket",
      "outputs": [],
      "stateMutability": "nonpayable",
      "type": "function"
    },
    {
      "inputs": [
        {
          "internalType": "uint32",
          "name": "",
          "type": "uint32"
        }
      ],
      "name": "updateTimeThresholdInSeconds",
      "outputs": [
        {
          "internalType": "uint256",
          "name": "",
          "type": "uint256"
        }
      ],
      "stateMutability": "view",
      "type": "function"
    },
    {
      "inputs": [
        {
          "internalType": "address",
          "name": "newImplementation",
          "type": "address"
        }
      ],
      "name": "upgradeTo",
      "outputs": [],
      "stateMutability": "nonpayable",
      "type": "function"
    },
    {
      "inputs": [
        {
          "internalType": "address",
          "name": "newImplementation",
          "type": "address"
        },
        {
          "internalType": "bytes",
          "name": "data",
          "type": "bytes"
        }
      ],
      "name": "upgradeToAndCall",
      "outputs": [],
      "stateMutability": "payable",
      "type": "function"
    },
    {
      "inputs": [
        {
          "internalType": "uint32",
          "name": "marketIndex",
          "type": "uint32"
        }
      ],
      "name": "wasLastUpdateOlderThanThreshold",
      "outputs": [
        {
          "internalType": "bool",
          "name": "",
          "type": "bool"
        }
      ],
      "stateMutability": "view",
      "type": "function"
    }
  ],
  "bytecode": "0x60a06040523060601b60805234801561001757600080fd5b5060805160601c61260161004b60003960008181610a2201528181610a6201528181610aeb0152610b2b01526126016000f3fe60806040526004361061019c5760003560e01c80639d34fa44116100ec578063c0d6c1801161008a578063d547741f11610064578063d547741f1461052d578063ec0e81451461054d578063f72c0d8b1461056d578063fb21062e146105a15761019c565b8063c0d6c180146104cd578063c3fc3fec146104ed578063d470316b1461050d5761019c565b8063b3b4bfc3116100c6578063b3b4bfc3146103fb578063b777453a14610448578063b8e42ae314610480578063c0c53b8b146104ad5761019c565b80639d34fa4414610382578063a217fddf146103a2578063a95d4baa146103b75761019c565b806336568abe1161015957806375b238fc1161013357806375b238fc146103005780637d2dcbbc146103225780637f53e9401461034257806391d14854146103625761019c565b806336568abe146102ad5780633659cfe6146102cd5780634f1ef286146102ed5761019c565b806301ffc9a7146101a157806319c6dd71146101d6578063248a9ca31461020d5780632510723e1461024b5780632862f1b21461026d5780632f2ff15d1461028d575b600080fd5b3480156101ad57600080fd5b506101c16101bc366004612159565b6105ce565b60405190151581526020015b60405180910390f35b3480156101e257600080fd5b506101f66101f13660046121c6565b610607565b6040805192151583526020830191909152016101cd565b34801561021957600080fd5b5061023d610228366004612112565b60009081526065602052604090206001015490565b6040519081526020016101cd565b34801561025757600080fd5b5061026b6102663660046121e0565b6107f1565b005b34801561027957600080fd5b506101c16102883660046121c6565b610825565b34801561029957600080fd5b5061026b6102a836600461212a565b610969565b3480156102b957600080fd5b5061026b6102c836600461212a565b610994565b3480156102d957600080fd5b5061026b6102e8366004611fd1565b610a17565b61026b6102fb366004612053565b610ae0565b34801561030c57600080fd5b5061023d6000805160206125ac83398151915281565b34801561032e57600080fd5b506101c161033d3660046121c6565b610b96565b34801561034e57600080fd5b5061026b61035d3660046121e0565b610bda565b34801561036e57600080fd5b506101c161037d36600461212a565b610c0d565b34801561038e57600080fd5b506101c161039d3660046121c6565b610c38565b3480156103ae57600080fd5b5061023d600081565b3480156103c357600080fd5b506103d76103d23660046121c6565b610c8c565b604080519415158552921515602085015291830152151560608201526080016101cd565b34801561040757600080fd5b5061041b6104163660046121c6565b610cc7565b604080519687526020870195909552938501929092526060840152608083015260a082015260c0016101cd565b34801561045457600080fd5b5060fb54610468906001600160a01b031681565b6040516001600160a01b0390911681526020016101cd565b34801561048c57600080fd5b5061023d61049b3660046121c6565b60fd6020526000908152604090205481565b3480156104b957600080fd5b5061026b6104c8366004612009565b611018565b3480156104d957600080fd5b506101c16104e83660046121c6565b6110c0565b3480156104f957600080fd5b506101c16105083660046121c6565b611428565b34801561051957600080fd5b5060fc54610468906001600160a01b031681565b34801561053957600080fd5b5061026b61054836600461212a565b61160d565b34801561055957600080fd5b5061026b6105683660046121c6565b611633565b34801561057957600080fd5b5061023d7f189ab7a9244df0848122154315af71fe140f3db0fe014031783b0946b8c9d2e381565b3480156105ad57600080fd5b5061023d6105bc3660046121c6565b60fe6020526000908152604090205481565b60006001600160e01b03198216637965db0b60e01b14806105ff57506301ffc9a760e01b6001600160e01b03198316145b90505b919050565b60fb546040516344805efd60e11b815263ffffffff83166004820152600091829182916001600160a01b031690638900bdfa9060240160206040518083038186803b15801561065557600080fd5b505afa158015610669573d6000803e3d6000fd5b505050506040513d601f19601f8201168201806040525081019061068d9190612181565b60fb54604051626eb7d760e61b815263ffffffff871660048201529192506000916001600160a01b0390911690631badf5c09060240160206040518083038186803b1580156106db57600080fd5b505afa1580156106ef573d6000803e3d6000fd5b505050506040513d601f19601f820116820180604052508101906107139190611fed565b90506000816001600160a01b031663673a7e286040518163ffffffff1660e01b8152600401602060405180830381600087803b15801561075257600080fd5b505af1158015610766573d6000803e3d6000fd5b505050506040513d601f19601f8201168201806040525081019061078a9190612181565b905060008361079983826124a7565b6107ab90670de0b6b3a7640000612405565b6107b591906123cb565b63ffffffff8816600090815260fe6020526040902054909150808213806107e35750806107e183612529565b135b965090945050505050915091565b6000805160206125ac83398151915261080b81335b611645565b5063ffffffff909116600090815260fe6020526040902055565b60fc546040516338e6b01160e21b815263ffffffff8316600482015260009182916001600160a01b039091169063e39ac0449060240160206040518083038186803b15801561087357600080fd5b505afa158015610887573d6000803e3d6000fd5b505050506040513d601f19601f820116820180604052508101906108ab9190612181565b60fc54604051633ebff44f60e01b815263ffffffff86166004820152602481018390529192506000916001600160a01b0390911690633ebff44f9060440160606040518083038186803b15801561090157600080fd5b505afa158015610915573d6000803e3d6000fd5b505050506040513d601f19601f820116820180604052508101906109399190612199565b505063ffffffff8516600090815260fd6020526040902054909150429061096090836123b3565b10949350505050565b6000828152606560205260409020600101546109858133610806565b61098f83836116a9565b505050565b6001600160a01b0381163314610a095760405162461bcd60e51b815260206004820152602f60248201527f416363657373436f6e74726f6c3a2063616e206f6e6c792072656e6f756e636560448201526e103937b632b9903337b91039b2b63360891b60648201526084015b60405180910390fd5b610a13828261172f565b5050565b306001600160a01b037f0000000000000000000000000000000000000000000000000000000000000000161415610a605760405162461bcd60e51b8152600401610a00906122cd565b7f00000000000000000000000000000000000000000000000000000000000000006001600160a01b0316610a92611796565b6001600160a01b031614610ab85760405162461bcd60e51b8152600401610a0090612319565b610ac1816117c4565b60408051600080825260208201909252610add918391906117ef565b50565b306001600160a01b037f0000000000000000000000000000000000000000000000000000000000000000161415610b295760405162461bcd60e51b8152600401610a00906122cd565b7f00000000000000000000000000000000000000000000000000000000000000006001600160a01b0316610b5b611796565b6001600160a01b031614610b815760405162461bcd60e51b8152600401610a0090612319565b610b8a826117c4565b610a13828260016117ef565b6000610ba182610825565b15610bae57506001610602565b610bb782611428565b15610bc457506001610602565b610bcd826110c0565b1561060257506001610602565b6000805160206125ac833981519152610bf38133610806565b5063ffffffff909116600090815260fd6020526040902055565b60009182526065602090815260408084206001600160a01b0393909316845291905290205460ff1690565b6000610c4382610825565b15610c5057506001610602565b6000610c5b83610607565b5090508015610c6e576001915050610602565b610c77836110c0565b15610c86576001915050610602565b50919050565b600080600080600080610c9e87610607565b91509150610cab87610825565b8282610cb68a6110c0565b955095509550955050509193509193565b60fb546040516364e4a81d60e01b815263ffffffff8316600482015260016024820152600091829182918291829182916001600160a01b03909116906364e4a81d9060440160206040518083038186803b158015610d2457600080fd5b505afa158015610d38573d6000803e3d6000fd5b505050506040513d601f19601f82011682018060405250810190610d5c9190612181565b60fb546040516334daaa2560e01b815263ffffffff8a166004820152600160248201526001600160a01b03909116906334daaa259060440160206040518083038186803b158015610dac57600080fd5b505afa158015610dc0573d6000803e3d6000fd5b505050506040513d601f19601f82011682018060405250810190610de49190612181565b60fb54604051637c064dc960e11b815263ffffffff8b166004820152600160248201526001600160a01b039091169063f80c9b929060440160206040518083038186803b158015610e3457600080fd5b505afa158015610e48573d6000803e3d6000fd5b505050506040513d601f19601f82011682018060405250810190610e6c9190612181565b60fb546040516364e4a81d60e01b815263ffffffff8c166004820152600060248201526001600160a01b03909116906364e4a81d9060440160206040518083038186803b158015610ebc57600080fd5b505afa158015610ed0573d6000803e3d6000fd5b505050506040513d601f19601f82011682018060405250810190610ef49190612181565b60fb546040516334daaa2560e01b815263ffffffff8d166004820152600060248201526001600160a01b03909116906334daaa259060440160206040518083038186803b158015610f4457600080fd5b505afa158015610f58573d6000803e3d6000fd5b505050506040513d601f19601f82011682018060405250810190610f7c9190612181565b60fb54604051637c064dc960e11b815263ffffffff8e166004820152600060248201526001600160a01b039091169063f80c9b929060440160206040518083038186803b158015610fcc57600080fd5b505afa158015610fe0573d6000803e3d6000fd5b505050506040513d601f19601f820116820180604052508101906110049190612181565b949c939b5091995097509550909350915050565b600054610100900460ff1680611031575060005460ff16155b61104d5760405162461bcd60e51b8152600401610a0090612365565b600054610100900460ff1615801561106f576000805461ffff19166101011790555b60fb80546001600160a01b038086166001600160a01b03199283161790925560fc8054928516929091169190911790556110a88461193a565b80156110ba576000805461ff00191690555b50505050565b60fb546040516364e4a81d60e01b815263ffffffff831660048201526001602482015260009182916001600160a01b03909116906364e4a81d9060440160206040518083038186803b15801561111557600080fd5b505afa158015611129573d6000803e3d6000fd5b505050506040513d601f19601f8201168201806040525081019061114d9190612181565b11806111df575060fb546040516334daaa2560e01b815263ffffffff84166004820152600160248201526000916001600160a01b0316906334daaa259060440160206040518083038186803b1580156111a557600080fd5b505afa1580156111b9573d6000803e3d6000fd5b505050506040513d601f19601f820116820180604052508101906111dd9190612181565b115b80611270575060fb54604051637c064dc960e11b815263ffffffff84166004820152600160248201526000916001600160a01b03169063f80c9b929060440160206040518083038186803b15801561123657600080fd5b505afa15801561124a573d6000803e3d6000fd5b505050506040513d601f19601f8201168201806040525081019061126e9190612181565b115b80611301575060fb546040516364e4a81d60e01b815263ffffffff84166004820152600060248201819052916001600160a01b0316906364e4a81d9060440160206040518083038186803b1580156112c757600080fd5b505afa1580156112db573d6000803e3d6000fd5b505050506040513d601f19601f820116820180604052508101906112ff9190612181565b115b80611392575060fb546040516334daaa2560e01b815263ffffffff84166004820152600060248201819052916001600160a01b0316906334daaa259060440160206040518083038186803b15801561135857600080fd5b505afa15801561136c573d6000803e3d6000fd5b505050506040513d601f19601f820116820180604052508101906113909190612181565b115b806105ff575060fb54604051637c064dc960e11b815263ffffffff84166004820152600060248201819052916001600160a01b03169063f80c9b929060440160206040518083038186803b1580156113e957600080fd5b505afa1580156113fd573d6000803e3d6000fd5b505050506040513d601f19601f820116820180604052508101906114219190612181565b1192915050565b60fb546040516344805efd60e11b815263ffffffff8316600482015260009182916001600160a01b0390911690638900bdfa9060240160206040518083038186803b15801561147657600080fd5b505afa15801561148a573d6000803e3d6000fd5b505050506040513d601f19601f820116820180604052508101906114ae9190612181565b60fb54604051626eb7d760e61b815263ffffffff861660048201529192506000916001600160a01b0390911690631badf5c09060240160206040518083038186803b1580156114fc57600080fd5b505afa158015611510573d6000803e3d6000fd5b505050506040513d601f19601f820116820180604052508101906115349190611fed565b90506000816001600160a01b0316638e15f4736040518163ffffffff1660e01b815260040160206040518083038186803b15801561157157600080fd5b505afa158015611585573d6000803e3d6000fd5b505050506040513d601f19601f820116820180604052508101906115a99190612181565b90506000836115b883826124a7565b6115ca90670de0b6b3a7640000612405565b6115d491906123cb565b63ffffffff8716600090815260fe60205260409020549091508082138061160257508061160083612529565b135b979650505050505050565b6000828152606560205260409020600101546116298133610806565b61098f838361172f565b61163c81610cc7565b50505050505050565b61164f8282610c0d565b610a1357611667816001600160a01b031660146119bf565b6116728360206119bf565b604051602001611683929190612225565b60408051601f198184030181529082905262461bcd60e51b8252610a009160040161229a565b6116b38282610c0d565b610a135760008281526065602090815260408083206001600160a01b03851684529091529020805460ff191660011790556116eb3390565b6001600160a01b0316816001600160a01b0316837f2f8788117e7eff1d82e926ec794901d17c78024a50270940304540a733656f0d60405160405180910390a45050565b6117398282610c0d565b15610a135760008281526065602090815260408083206001600160a01b0385168085529252808320805460ff1916905551339285917ff6391f5c32d9c69d2a47ea670b442974b53935d1edc7fd64eb21e047a839171b9190a45050565b7f360894a13ba1a3210667c828492db98dca3e2076cc3735a920a3ca505d382bbc546001600160a01b031690565b7f189ab7a9244df0848122154315af71fe140f3db0fe014031783b0946b8c9d2e3610a138133610806565b60006117f9611796565b905061180484611ba8565b6000835111806118115750815b15611822576118208484611c4d565b505b7f4910fdfa16fed3260ed0e7147f7cc6da11a60208b5b9406d12a635614ffd9143805460ff1661193357805460ff191660011781556040516001600160a01b03831660248201526118a190869060440160408051601f198184030181529190526020810180516001600160e01b0316631b2ce7f360e11b179052611c4d565b50805460ff191681556118b2611796565b6001600160a01b0316826001600160a01b03161461192a5760405162461bcd60e51b815260206004820152602f60248201527f45524331393637557067726164653a207570677261646520627265616b73206660448201526e75727468657220757067726164657360881b6064820152608401610a00565b61193385611d38565b5050505050565b600054610100900460ff1680611953575060005460ff16155b61196f5760405162461bcd60e51b8152600401610a0090612365565b600054610100900460ff16158015611991576000805461ffff19166101011790555b611999611d78565b6119a1611dfb565b6119aa82611e59565b8015610a13576000805461ff00191690555050565b606060006119ce836002612488565b6119d99060026123b3565b67ffffffffffffffff8111156119ff57634e487b7160e01b600052604160045260246000fd5b6040519080825280601f01601f191660200182016040528015611a29576020820181803683370190505b509050600360fc1b81600081518110611a5257634e487b7160e01b600052603260045260246000fd5b60200101906001600160f81b031916908160001a905350600f60fb1b81600181518110611a8f57634e487b7160e01b600052603260045260246000fd5b60200101906001600160f81b031916908160001a9053506000611ab3846002612488565b611abe9060016123b3565b90505b6001811115611b52576f181899199a1a9b1b9c1cb0b131b232b360811b85600f1660108110611b0057634e487b7160e01b600052603260045260246000fd5b1a60f81b828281518110611b2457634e487b7160e01b600052603260045260246000fd5b60200101906001600160f81b031916908160001a90535060049490941c93611b4b81612512565b9050611ac1565b508315611ba15760405162461bcd60e51b815260206004820181905260248201527f537472696e67733a20686578206c656e67746820696e73756666696369656e746044820152606401610a00565b9392505050565b803b611c0c5760405162461bcd60e51b815260206004820152602d60248201527f455243313936373a206e657720696d706c656d656e746174696f6e206973206e60448201526c1bdd08184818dbdb9d1c9858dd609a1b6064820152608401610a00565b7f360894a13ba1a3210667c828492db98dca3e2076cc3735a920a3ca505d382bbc80546001600160a01b0319166001600160a01b0392909216919091179055565b6060823b611cac5760405162461bcd60e51b815260206004820152602660248201527f416464726573733a2064656c65676174652063616c6c20746f206e6f6e2d636f6044820152651b9d1c9858dd60d21b6064820152608401610a00565b600080846001600160a01b031684604051611cc79190612209565b600060405180830381855af49150503d8060008114611d02576040519150601f19603f3d011682016040523d82523d6000602084013e611d07565b606091505b5091509150611d2f828260405180606001604052806027815260200161258560279139611f10565b95945050505050565b611d4181611ba8565b6040516001600160a01b038216907fbc7cd75a20ee27fd9adebab32041f755214dbc6bffa90cc0225b39da2e5c2d3b90600090a250565b600054610100900460ff1680611d91575060005460ff16155b611dad5760405162461bcd60e51b8152600401610a0090612365565b600054610100900460ff16158015611dcf576000805461ffff19166101011790555b611dd7611f49565b611ddf611f49565b611de7611f49565b8015610add576000805461ff001916905550565b600054610100900460ff1680611e14575060005460ff16155b611e305760405162461bcd60e51b8152600401610a0090612365565b600054610100900460ff16158015611dd7576000805461ffff1916610101179055611ddf611f49565b600054610100900460ff1680611e72575060005460ff16155b611e8e5760405162461bcd60e51b8152600401610a0090612365565b600054610100900460ff16158015611eb0576000805461ffff19166101011790555b6001600160a01b038216611ec357600080fd5b611ece600083611fb3565b611ee66000805160206125ac83398151915283611fb3565b6119aa7f189ab7a9244df0848122154315af71fe140f3db0fe014031783b0946b8c9d2e383611fb3565b60608315611f1f575081611ba1565b825115611f2f5782518084602001fd5b8160405162461bcd60e51b8152600401610a00919061229a565b600054610100900460ff1680611f62575060005460ff16155b611f7e5760405162461bcd60e51b8152600401610a0090612365565b600054610100900460ff16158015611de7576000805461ffff19166101011790558015610add576000805461ff001916905550565b610a1382826116a9565b803563ffffffff8116811461060257600080fd5b600060208284031215611fe2578081fd5b8135611ba18161256f565b600060208284031215611ffe578081fd5b8151611ba18161256f565b60008060006060848603121561201d578182fd5b83356120288161256f565b925060208401356120388161256f565b915060408401356120488161256f565b809150509250925092565b60008060408385031215612065578182fd5b82356120708161256f565b9150602083013567ffffffffffffffff8082111561208c578283fd5b818501915085601f83011261209f578283fd5b8135818111156120b1576120b1612559565b604051601f8201601f19908116603f011681019083821181831017156120d9576120d9612559565b816040528281528860208487010111156120f1578586fd5b82602086016020830137856020848301015280955050505050509250929050565b600060208284031215612123578081fd5b5035919050565b6000806040838503121561213c578182fd5b82359150602083013561214e8161256f565b809150509250929050565b60006020828403121561216a578081fd5b81356001600160e01b031981168114611ba1578182fd5b600060208284031215612192578081fd5b5051919050565b6000806000606084860312156121ad578283fd5b8351925060208401519150604084015190509250925092565b6000602082840312156121d7578081fd5b611ba182611fbd565b600080604083850312156121f2578182fd5b6121fb83611fbd565b946020939093013593505050565b6000825161221b8184602087016124e6565b9190910192915050565b60007f416363657373436f6e74726f6c3a206163636f756e74200000000000000000008252835161225d8160178501602088016124e6565b7001034b99036b4b9b9b4b733903937b6329607d1b601791840191820152835161228e8160288401602088016124e6565b01602801949350505050565b60006020825282518060208401526122b98160408501602087016124e6565b601f01601f19169190910160400192915050565b6020808252602c908201527f46756e6374696f6e206d7573742062652063616c6c6564207468726f7567682060408201526b19195b1959d85d1958d85b1b60a21b606082015260800190565b6020808252602c908201527f46756e6374696f6e206d7573742062652063616c6c6564207468726f7567682060408201526b6163746976652070726f787960a01b606082015260800190565b6020808252602e908201527f496e697469616c697a61626c653a20636f6e747261637420697320616c72656160408201526d191e481a5b9a5d1a585b1a5e995960921b606082015260800190565b600082198211156123c6576123c6612543565b500190565b6000826123e657634e487b7160e01b81526012600452602481fd5b600160ff1b82146000198414161561240057612400612543565b500590565b60006001600160ff1b038184138284138082168684048611161561242b5761242b612543565b600160ff1b8487128281168783058912161561244957612449612543565b85871292508782058712848416161561246457612464612543565b8785058712818416161561247a5761247a612543565b505050929093029392505050565b60008160001904831182151516156124a2576124a2612543565b500290565b60008083128015600160ff1b8501841216156124c5576124c5612543565b6001600160ff1b03840183138116156124e0576124e0612543565b50500390565b60005b838110156125015781810151838201526020016124e9565b838111156110ba5750506000910152565b60008161252157612521612543565b506000190190565b6000600160ff1b82141561253f5761253f612543565b0390565b634e487b7160e01b600052601160045260246000fd5b634e487b7160e01b600052604160045260246000fd5b6001600160a01b0381168114610add57600080fdfe416464726573733a206c6f772d6c6576656c2064656c65676174652063616c6c206661696c6564a49807205ce4d355092ef5a8a18f56e8913cf4a201fbe287825b095693c21775a2646970667358221220e7e65c3f83cab222cfa564177b679928e7d4a7a1dab6eb48f5f2d1c9877fe93364736f6c63430008030033",
  "linkReferences": {},
  "deployedLinkReferences": {}
}