{
  "_format": "hh-sol-artifact-1",
  "contractName": "AlphaTestFLT",
  "sourceName": "contracts/AlphaTestFLT.sol",
  "abi": [
    {
      "anonymous": false,
      "inputs": [
        {
          "indexed": false,
          "internalType": "address",
          "name": "previousAdmin",
          "type": "address"
        },
        {
          "indexed": false,
          "internalType": "address",
          "name": "newAdmin",
          "type": "address"
        }
      ],
      "name": "AdminChanged",
      "type": "event"
    },
    {
      "anonymous": false,
      "inputs": [
        {
          "indexed": true,
          "internalType": "address",
          "name": "owner",
          "type": "address"
        },
        {
          "indexed": true,
          "internalType": "address",
          "name": "spender",
          "type": "address"
        },
        {
          "indexed": false,
          "internalType": "uint256",
          "name": "value",
          "type": "uint256"
        }
      ],
      "name": "Approval",
      "type": "event"
    },
    {
      "anonymous": false,
      "inputs": [
        {
          "indexed": true,
          "internalType": "address",
          "name": "beacon",
          "type": "address"
        }
      ],
      "name": "BeaconUpgraded",
      "type": "event"
    },
    {
      "anonymous": false,
      "inputs": [
        {
          "indexed": true,
          "internalType": "address",
          "name": "delegator",
          "type": "address"
        },
        {
          "indexed": true,
          "internalType": "address",
          "name": "fromDelegate",
          "type": "address"
        },
        {
          "indexed": true,
          "internalType": "address",
          "name": "toDelegate",
          "type": "address"
        }
      ],
      "name": "DelegateChanged",
      "type": "event"
    },
    {
      "anonymous": false,
      "inputs": [
        {
          "indexed": true,
          "internalType": "address",
          "name": "delegate",
          "type": "address"
        },
        {
          "indexed": false,
          "internalType": "uint256",
          "name": "previousBalance",
          "type": "uint256"
        },
        {
          "indexed": false,
          "internalType": "uint256",
          "name": "newBalance",
          "type": "uint256"
        }
      ],
      "name": "DelegateVotesChanged",
      "type": "event"
    },
    {
      "anonymous": false,
      "inputs": [
        {
          "indexed": false,
          "internalType": "address",
          "name": "account",
          "type": "address"
        }
      ],
      "name": "Paused",
      "type": "event"
    },
    {
      "anonymous": false,
      "inputs": [
        {
          "indexed": true,
          "internalType": "bytes32",
          "name": "role",
          "type": "bytes32"
        },
        {
          "indexed": true,
          "internalType": "bytes32",
          "name": "previousAdminRole",
          "type": "bytes32"
        },
        {
          "indexed": true,
          "internalType": "bytes32",
          "name": "newAdminRole",
          "type": "bytes32"
        }
      ],
      "name": "RoleAdminChanged",
      "type": "event"
    },
    {
      "anonymous": false,
      "inputs": [
        {
          "indexed": true,
          "internalType": "bytes32",
          "name": "role",
          "type": "bytes32"
        },
        {
          "indexed": true,
          "internalType": "address",
          "name": "account",
          "type": "address"
        },
        {
          "indexed": true,
          "internalType": "address",
          "name": "sender",
          "type": "address"
        }
      ],
      "name": "RoleGranted",
      "type": "event"
    },
    {
      "anonymous": false,
      "inputs": [
        {
          "indexed": true,
          "internalType": "bytes32",
          "name": "role",
          "type": "bytes32"
        },
        {
          "indexed": true,
          "internalType": "address",
          "name": "account",
          "type": "address"
        },
        {
          "indexed": true,
          "internalType": "address",
          "name": "sender",
          "type": "address"
        }
      ],
      "name": "RoleRevoked",
      "type": "event"
    },
    {
      "anonymous": false,
      "inputs": [
        {
          "indexed": true,
          "internalType": "address",
          "name": "from",
          "type": "address"
        },
        {
          "indexed": true,
          "internalType": "address",
          "name": "to",
          "type": "address"
        },
        {
          "indexed": false,
          "internalType": "uint256",
          "name": "value",
          "type": "uint256"
        }
      ],
      "name": "Transfer",
      "type": "event"
    },
    {
      "anonymous": false,
      "inputs": [
        {
          "indexed": false,
          "internalType": "address",
          "name": "account",
          "type": "address"
        }
      ],
      "name": "Unpaused",
      "type": "event"
    },
    {
      "anonymous": false,
      "inputs": [
        {
          "indexed": true,
          "internalType": "address",
          "name": "implementation",
          "type": "address"
        }
      ],
      "name": "Upgraded",
      "type": "event"
    },
    {
      "inputs": [],
      "name": "DEFAULT_ADMIN_ROLE",
      "outputs": [
        {
          "internalType": "bytes32",
          "name": "",
          "type": "bytes32"
        }
      ],
      "stateMutability": "view",
      "type": "function"
    },
    {
      "inputs": [],
      "name": "DOMAIN_SEPARATOR",
      "outputs": [
        {
          "internalType": "bytes32",
          "name": "",
          "type": "bytes32"
        }
      ],
      "stateMutability": "view",
      "type": "function"
    },
    {
      "inputs": [],
      "name": "MINTER_ROLE",
      "outputs": [
        {
          "internalType": "bytes32",
          "name": "",
          "type": "bytes32"
        }
      ],
      "stateMutability": "view",
      "type": "function"
    },
    {
      "inputs": [],
      "name": "PAUSER_ROLE",
      "outputs": [
        {
          "internalType": "bytes32",
          "name": "",
          "type": "bytes32"
        }
      ],
      "stateMutability": "view",
      "type": "function"
    },
    {
      "inputs": [],
      "name": "UPGRADER_ROLE",
      "outputs": [
        {
          "internalType": "bytes32",
          "name": "",
          "type": "bytes32"
        }
      ],
      "stateMutability": "view",
      "type": "function"
    },
    {
      "inputs": [
        {
          "internalType": "address",
          "name": "owner",
          "type": "address"
        },
        {
          "internalType": "address",
          "name": "spender",
          "type": "address"
        }
      ],
      "name": "allowance",
      "outputs": [
        {
          "internalType": "uint256",
          "name": "",
          "type": "uint256"
        }
      ],
      "stateMutability": "view",
      "type": "function"
    },
    {
      "inputs": [
        {
          "internalType": "address",
          "name": "spender",
          "type": "address"
        },
        {
          "internalType": "uint256",
          "name": "amount",
          "type": "uint256"
        }
      ],
      "name": "approve",
      "outputs": [
        {
          "internalType": "bool",
          "name": "",
          "type": "bool"
        }
      ],
      "stateMutability": "nonpayable",
      "type": "function"
    },
    {
      "inputs": [
        {
          "internalType": "address",
          "name": "account",
          "type": "address"
        }
      ],
      "name": "balanceOf",
      "outputs": [
        {
          "internalType": "uint256",
          "name": "",
          "type": "uint256"
        }
      ],
      "stateMutability": "view",
      "type": "function"
    },
    {
      "inputs": [
        {
          "internalType": "uint256",
          "name": "amount",
          "type": "uint256"
        }
      ],
      "name": "burn",
      "outputs": [],
      "stateMutability": "nonpayable",
      "type": "function"
    },
    {
      "inputs": [
        {
          "internalType": "address",
          "name": "account",
          "type": "address"
        },
        {
          "internalType": "uint256",
          "name": "amount",
          "type": "uint256"
        }
      ],
      "name": "burnFrom",
      "outputs": [],
      "stateMutability": "nonpayable",
      "type": "function"
    },
    {
      "inputs": [
        {
          "internalType": "address",
          "name": "account",
          "type": "address"
        },
        {
          "internalType": "uint32",
          "name": "pos",
          "type": "uint32"
        }
      ],
      "name": "checkpoints",
      "outputs": [
        {
          "components": [
            {
              "internalType": "uint32",
              "name": "fromBlock",
              "type": "uint32"
            },
            {
              "internalType": "uint224",
              "name": "votes",
              "type": "uint224"
            }
          ],
          "internalType": "struct ERC20VotesUpgradeable.Checkpoint",
          "name": "",
          "type": "tuple"
        }
      ],
      "stateMutability": "view",
      "type": "function"
    },
    {
      "inputs": [],
      "name": "decimals",
      "outputs": [
        {
          "internalType": "uint8",
          "name": "",
          "type": "uint8"
        }
      ],
      "stateMutability": "view",
      "type": "function"
    },
    {
      "inputs": [
        {
          "internalType": "address",
          "name": "spender",
          "type": "address"
        },
        {
          "internalType": "uint256",
          "name": "subtractedValue",
          "type": "uint256"
        }
      ],
      "name": "decreaseAllowance",
      "outputs": [
        {
          "internalType": "bool",
          "name": "",
          "type": "bool"
        }
      ],
      "stateMutability": "nonpayable",
      "type": "function"
    },
    {
      "inputs": [
        {
          "internalType": "address",
          "name": "delegatee",
          "type": "address"
        }
      ],
      "name": "delegate",
      "outputs": [],
      "stateMutability": "nonpayable",
      "type": "function"
    },
    {
      "inputs": [
        {
          "internalType": "address",
          "name": "delegatee",
          "type": "address"
        },
        {
          "internalType": "uint256",
          "name": "nonce",
          "type": "uint256"
        },
        {
          "internalType": "uint256",
          "name": "expiry",
          "type": "uint256"
        },
        {
          "internalType": "uint8",
          "name": "v",
          "type": "uint8"
        },
        {
          "internalType": "bytes32",
          "name": "r",
          "type": "bytes32"
        },
        {
          "internalType": "bytes32",
          "name": "s",
          "type": "bytes32"
        }
      ],
      "name": "delegateBySig",
      "outputs": [],
      "stateMutability": "nonpayable",
      "type": "function"
    },
    {
      "inputs": [
        {
          "internalType": "address",
          "name": "account",
          "type": "address"
        }
      ],
      "name": "delegates",
      "outputs": [
        {
          "internalType": "address",
          "name": "",
          "type": "address"
        }
      ],
      "stateMutability": "view",
      "type": "function"
    },
    {
      "inputs": [
        {
          "internalType": "uint256",
          "name": "blockNumber",
          "type": "uint256"
        }
      ],
      "name": "getPastTotalSupply",
      "outputs": [
        {
          "internalType": "uint256",
          "name": "",
          "type": "uint256"
        }
      ],
      "stateMutability": "view",
      "type": "function"
    },
    {
      "inputs": [
        {
          "internalType": "address",
          "name": "account",
          "type": "address"
        },
        {
          "internalType": "uint256",
          "name": "blockNumber",
          "type": "uint256"
        }
      ],
      "name": "getPastVotes",
      "outputs": [
        {
          "internalType": "uint256",
          "name": "",
          "type": "uint256"
        }
      ],
      "stateMutability": "view",
      "type": "function"
    },
    {
      "inputs": [
        {
          "internalType": "bytes32",
          "name": "role",
          "type": "bytes32"
        }
      ],
      "name": "getRoleAdmin",
      "outputs": [
        {
          "internalType": "bytes32",
          "name": "",
          "type": "bytes32"
        }
      ],
      "stateMutability": "view",
      "type": "function"
    },
    {
      "inputs": [
        {
          "internalType": "address",
          "name": "account",
          "type": "address"
        }
      ],
      "name": "getVotes",
      "outputs": [
        {
          "internalType": "uint256",
          "name": "",
          "type": "uint256"
        }
      ],
      "stateMutability": "view",
      "type": "function"
    },
    {
      "inputs": [
        {
          "internalType": "bytes32",
          "name": "role",
          "type": "bytes32"
        },
        {
          "internalType": "address",
          "name": "account",
          "type": "address"
        }
      ],
      "name": "grantRole",
      "outputs": [],
      "stateMutability": "nonpayable",
      "type": "function"
    },
    {
      "inputs": [
        {
          "internalType": "bytes32",
          "name": "role",
          "type": "bytes32"
        },
        {
          "internalType": "address",
          "name": "account",
          "type": "address"
        }
      ],
      "name": "hasRole",
      "outputs": [
        {
          "internalType": "bool",
          "name": "",
          "type": "bool"
        }
      ],
      "stateMutability": "view",
      "type": "function"
    },
    {
      "inputs": [
        {
          "internalType": "address",
          "name": "spender",
          "type": "address"
        },
        {
          "internalType": "uint256",
          "name": "addedValue",
          "type": "uint256"
        }
      ],
      "name": "increaseAllowance",
      "outputs": [
        {
          "internalType": "bool",
          "name": "",
          "type": "bool"
        }
      ],
      "stateMutability": "nonpayable",
      "type": "function"
    },
    {
      "inputs": [
        {
          "internalType": "string",
          "name": "name",
          "type": "string"
        },
        {
          "internalType": "string",
          "name": "symbol",
          "type": "string"
        },
        {
          "internalType": "address",
          "name": "stakerAddress",
          "type": "address"
        },
        {
          "internalType": "address",
          "name": "treasuryAddress",
          "type": "address"
        }
      ],
      "name": "initialize",
      "outputs": [],
      "stateMutability": "nonpayable",
      "type": "function"
    },
    {
      "inputs": [
        {
          "internalType": "address",
          "name": "to",
          "type": "address"
        },
        {
          "internalType": "uint256",
          "name": "amount",
          "type": "uint256"
        }
      ],
      "name": "mint",
      "outputs": [],
      "stateMutability": "nonpayable",
      "type": "function"
    },
    {
      "inputs": [],
      "name": "name",
      "outputs": [
        {
          "internalType": "string",
          "name": "",
          "type": "string"
        }
      ],
      "stateMutability": "view",
      "type": "function"
    },
    {
      "inputs": [
        {
          "internalType": "address",
          "name": "owner",
          "type": "address"
        }
      ],
      "name": "nonces",
      "outputs": [
        {
          "internalType": "uint256",
          "name": "",
          "type": "uint256"
        }
      ],
      "stateMutability": "view",
      "type": "function"
    },
    {
      "inputs": [
        {
          "internalType": "address",
          "name": "account",
          "type": "address"
        }
      ],
      "name": "numCheckpoints",
      "outputs": [
        {
          "internalType": "uint32",
          "name": "",
          "type": "uint32"
        }
      ],
      "stateMutability": "view",
      "type": "function"
    },
    {
      "inputs": [],
      "name": "pause",
      "outputs": [],
      "stateMutability": "nonpayable",
      "type": "function"
    },
    {
      "inputs": [],
      "name": "paused",
      "outputs": [
        {
          "internalType": "bool",
          "name": "",
          "type": "bool"
        }
      ],
      "stateMutability": "view",
      "type": "function"
    },
    {
      "inputs": [
        {
          "internalType": "address",
          "name": "owner",
          "type": "address"
        },
        {
          "internalType": "address",
          "name": "spender",
          "type": "address"
        },
        {
          "internalType": "uint256",
          "name": "value",
          "type": "uint256"
        },
        {
          "internalType": "uint256",
          "name": "deadline",
          "type": "uint256"
        },
        {
          "internalType": "uint8",
          "name": "v",
          "type": "uint8"
        },
        {
          "internalType": "bytes32",
          "name": "r",
          "type": "bytes32"
        },
        {
          "internalType": "bytes32",
          "name": "s",
          "type": "bytes32"
        }
      ],
      "name": "permit",
      "outputs": [],
      "stateMutability": "nonpayable",
      "type": "function"
    },
    {
      "inputs": [
        {
          "internalType": "bytes32",
          "name": "role",
          "type": "bytes32"
        },
        {
          "internalType": "address",
          "name": "account",
          "type": "address"
        }
      ],
      "name": "renounceRole",
      "outputs": [],
      "stateMutability": "nonpayable",
      "type": "function"
    },
    {
      "inputs": [
        {
          "internalType": "bytes32",
          "name": "role",
          "type": "bytes32"
        },
        {
          "internalType": "address",
          "name": "account",
          "type": "address"
        }
      ],
      "name": "revokeRole",
      "outputs": [],
      "stateMutability": "nonpayable",
      "type": "function"
    },
    {
      "inputs": [
        {
          "internalType": "bytes4",
          "name": "interfaceId",
          "type": "bytes4"
        }
      ],
      "name": "supportsInterface",
      "outputs": [
        {
          "internalType": "bool",
          "name": "",
          "type": "bool"
        }
      ],
      "stateMutability": "view",
      "type": "function"
    },
    {
      "inputs": [],
      "name": "symbol",
      "outputs": [
        {
          "internalType": "string",
          "name": "",
          "type": "string"
        }
      ],
      "stateMutability": "view",
      "type": "function"
    },
    {
      "inputs": [],
      "name": "totalSupply",
      "outputs": [
        {
          "internalType": "uint256",
          "name": "",
          "type": "uint256"
        }
      ],
      "stateMutability": "view",
      "type": "function"
    },
    {
      "inputs": [
        {
          "internalType": "address",
          "name": "recipient",
          "type": "address"
        },
        {
          "internalType": "uint256",
          "name": "amount",
          "type": "uint256"
        }
      ],
      "name": "transfer",
      "outputs": [
        {
          "internalType": "bool",
          "name": "",
          "type": "bool"
        }
      ],
      "stateMutability": "nonpayable",
      "type": "function"
    },
    {
      "inputs": [
        {
          "internalType": "address",
          "name": "sender",
          "type": "address"
        },
        {
          "internalType": "address",
          "name": "recipient",
          "type": "address"
        },
        {
          "internalType": "uint256",
          "name": "amount",
          "type": "uint256"
        }
      ],
      "name": "transferFrom",
      "outputs": [
        {
          "internalType": "bool",
          "name": "",
          "type": "bool"
        }
      ],
      "stateMutability": "nonpayable",
      "type": "function"
    },
    {
      "inputs": [],
      "name": "treasury",
      "outputs": [
        {
          "internalType": "address",
          "name": "",
          "type": "address"
        }
      ],
      "stateMutability": "view",
      "type": "function"
    },
    {
      "inputs": [],
      "name": "unpause",
      "outputs": [],
      "stateMutability": "nonpayable",
      "type": "function"
    },
    {
      "inputs": [
        {
          "internalType": "address",
          "name": "newImplementation",
          "type": "address"
        }
      ],
      "name": "upgradeTo",
      "outputs": [],
      "stateMutability": "nonpayable",
      "type": "function"
    },
    {
      "inputs": [
        {
          "internalType": "address",
          "name": "newImplementation",
          "type": "address"
        },
        {
          "internalType": "bytes",
          "name": "data",
          "type": "bytes"
        }
      ],
      "name": "upgradeToAndCall",
      "outputs": [],
      "stateMutability": "payable",
      "type": "function"
    }
  ],
  "bytecode": "0x60a06040523060601b60805234801561001757600080fd5b5060805160601c61391161004b60003960008181610a9901528181610ad901528181610c600152610ca001526139116000f3fe6080604052600436106102515760003560e01c80636fcfff4511610139578063a217fddf116100b6578063d53913931161007a578063d539139314610710578063d547741f14610732578063dd62ed3e14610752578063e63ab1e914610798578063f1127ed8146107ba578063f72c0d8b1461080457610251565b8063a217fddf1461067b578063a457c2d714610690578063a9059cbb146106b0578063c3cda520146106d0578063d505accf146106f057610251565b80638e539e8c116100fd5780638e539e8c146105e65780638f15b4141461060657806391d148541461062657806395d89b41146106465780639ab24eb01461065b57610251565b80636fcfff451461052657806370a082311461055b57806379cc6790146105915780637ecebe00146105b15780638456cb59146105d157610251565b80633659cfe6116101d257806342966c681161019657806342966c68146104485780634f1ef28614610468578063587cde1e1461047b5780635c19a95c146104cd5780635c975abb146104ed57806361d027b31461050557610251565b80633659cfe6146103b357806339509351146103d35780633a46b1a8146103f35780633f4ba83a1461041357806340c10f191461042857610251565b8063248a9ca311610219578063248a9ca3146103105780632f2ff15d14610340578063313ce567146103625780633644e5151461037e57806336568abe1461039357610251565b806301ffc9a71461025657806306fdde031461028b578063095ea7b3146102ad57806318160ddd146102cd57806323b872dd146102f0575b600080fd5b34801561026257600080fd5b5061027661027136600461350e565b610838565b60405190151581526020015b60405180910390f35b34801561029757600080fd5b506102a0610871565b6040516102829190613649565b3480156102b957600080fd5b506102766102c8366004613416565b610903565b3480156102d957600080fd5b506102e2610919565b604051908152602001610282565b3480156102fc57600080fd5b5061027661030b366004613313565b610929565b34801561031c57600080fd5b506102e261032b3660046134d4565b600090815260fb602052604090206001015490565b34801561034c57600080fd5b5061036061035b3660046134ec565b6109da565b005b34801561036e57600080fd5b5060405160128152602001610282565b34801561038a57600080fd5b506102e2610a06565b34801561039f57600080fd5b506103606103ae3660046134ec565b610a10565b3480156103bf57600080fd5b506103606103ce3660046132c7565b610a8e565b3480156103df57600080fd5b506102766103ee366004613416565b610b57565b3480156103ff57600080fd5b506102e261040e366004613416565b610b93565b34801561041f57600080fd5b50610360610c07565b34801561043457600080fd5b50610360610443366004613416565b610c28565b34801561045457600080fd5b506103606104633660046134d4565b610c4b565b6103606104763660046133b7565b610c55565b34801561048757600080fd5b506104b56104963660046132c7565b6001600160a01b03908116600090815261019460205260409020541690565b6040516001600160a01b039091168152602001610282565b3480156104d957600080fd5b506103606104e83660046132c7565b610d0b565b3480156104f957600080fd5b5060975460ff16610276565b34801561051157600080fd5b5061022a546104b5906001600160a01b031681565b34801561053257600080fd5b506105466105413660046132c7565b610d15565b60405163ffffffff9091168152602001610282565b34801561056757600080fd5b506102e26105763660046132c7565b6001600160a01b031660009081526033602052604090205490565b34801561059d57600080fd5b506103606105ac366004613416565b610d38565b3480156105bd57600080fd5b506102e26105cc3660046132c7565b610d65565b3480156105dd57600080fd5b50610360610d84565b3480156105f257600080fd5b506102e26106013660046134d4565b610da5565b34801561061257600080fd5b50610360610621366004613536565b610e02565b34801561063257600080fd5b506102766106413660046134ec565b610f51565b34801561065257600080fd5b506102a0610f7c565b34801561066757600080fd5b506102e26106763660046132c7565b610f8b565b34801561068757600080fd5b506102e2600081565b34801561069c57600080fd5b506102766106ab366004613416565b611022565b3480156106bc57600080fd5b506102766106cb366004613416565b6110bb565b3480156106dc57600080fd5b506103606106eb36600461343f565b6110c7565b3480156106fc57600080fd5b5061036061070b36600461334e565b6111fd565b34801561071c57600080fd5b506102e26000805160206138bc83398151915281565b34801561073e57600080fd5b5061036061074d3660046134ec565b611344565b34801561075e57600080fd5b506102e261076d3660046132e1565b6001600160a01b03918216600090815260346020908152604080832093909416825291909152205490565b3480156107a457600080fd5b506102e260008051602061387583398151915281565b3480156107c657600080fd5b506107da6107d5366004613496565b61136a565b60408051825163ffffffff1681526020928301516001600160e01b03169281019290925201610282565b34801561081057600080fd5b506102e27f189ab7a9244df0848122154315af71fe140f3db0fe014031783b0946b8c9d2e381565b60006001600160e01b03198216637965db0b60e01b148061086957506301ffc9a760e01b6001600160e01b03198316145b90505b919050565b60606036805461088090613813565b80601f01602080910402602001604051908101604052809291908181526020018280546108ac90613813565b80156108f95780601f106108ce576101008083540402835291602001916108f9565b820191906000526020600020905b8154815290600101906020018083116108dc57829003601f168201915b5050505050905090565b60006109103384846113fd565b50600192915050565b600061092460355490565b905090565b6000610936848484611521565b6001600160a01b0384166000908152603460209081526040808320338452909152902054828110156109c05760405162461bcd60e51b815260206004820152602860248201527f45524332303a207472616e7366657220616d6f756e74206578636565647320616044820152676c6c6f77616e636560c01b60648201526084015b60405180910390fd5b6109cd85338584036113fd565b60019150505b9392505050565b600082815260fb60205260409020600101546109f781335b611706565b610a01838361176a565b505050565b60006109246117f0565b6001600160a01b0381163314610a805760405162461bcd60e51b815260206004820152602f60248201527f416363657373436f6e74726f6c3a2063616e206f6e6c792072656e6f756e636560448201526e103937b632b9903337b91039b2b63360891b60648201526084016109b7565b610a8a828261186d565b5050565b306001600160a01b037f0000000000000000000000000000000000000000000000000000000000000000161415610ad75760405162461bcd60e51b81526004016109b79061367c565b7f00000000000000000000000000000000000000000000000000000000000000006001600160a01b0316610b096118d4565b6001600160a01b031614610b2f5760405162461bcd60e51b81526004016109b7906136c8565b610b3881611902565b60408051600080825260208201909252610b549183919061192d565b50565b3360008181526034602090815260408083206001600160a01b03871684529091528120549091610910918590610b8e908690613762565b6113fd565b6000438210610be45760405162461bcd60e51b815260206004820152601f60248201527f4552433230566f7465733a20626c6f636b206e6f7420796574206d696e65640060448201526064016109b7565b6001600160a01b0383166000908152610195602052604090206109d39083611a71565b600080516020613875833981519152610c2081336109f2565b610b54611b4a565b6000805160206138bc833981519152610c4181336109f2565b610a018383611bdd565b610b543382611be7565b306001600160a01b037f0000000000000000000000000000000000000000000000000000000000000000161415610c9e5760405162461bcd60e51b81526004016109b79061367c565b7f00000000000000000000000000000000000000000000000000000000000000006001600160a01b0316610cd06118d4565b6001600160a01b031614610cf65760405162461bcd60e51b81526004016109b7906136c8565b610cff82611902565b610a8a8282600161192d565b610b543382611bf1565b6001600160a01b0381166000908152610195602052604081205461086990611c6c565b61022a546001600160a01b0316331415610d5b57610d568282611be7565b610a8a565b610a8a8282611cd5565b6001600160a01b03811660009081526101616020526040812054610869565b600080516020613875833981519152610d9d81336109f2565b610b54611d56565b6000438210610df65760405162461bcd60e51b815260206004820152601f60248201527f4552433230566f7465733a20626c6f636b206e6f7420796574206d696e65640060448201526064016109b7565b61086961019683611a71565b600054610100900460ff1680610e1b575060005460ff16155b610e375760405162461bcd60e51b81526004016109b790613714565b600054610100900460ff16158015610e59576000805461ffff19166101011790555b610e638585611dd1565b610e6b611e50565b610e73611ecb565b610e7b611f32565b610e8485611f91565b610e8c611e50565b61022a80546001600160a01b0319166001600160a01b038416179055610eb3600033610a10565b610ecb6000805160206138bc83398151915233610a10565b610ed6600084612031565b610eee6000805160206138bc83398151915284612031565b610f0660008051602061387583398151915233612031565b610f307f189ab7a9244df0848122154315af71fe140f3db0fe014031783b0946b8c9d2e333612031565b610f38611d56565b8015610f4a576000805461ff00191690555b5050505050565b600091825260fb602090815260408084206001600160a01b0393909316845291905290205460ff1690565b60606037805461088090613813565b6001600160a01b03811660009081526101956020526040812054801561100f576001600160a01b038316600090815261019560205260409020610fcf6001836137b9565b81548110610fed57634e487b7160e01b600052603260045260246000fd5b60009182526020909120015464010000000090046001600160e01b0316611012565b60005b6001600160e01b03169392505050565b3360009081526034602090815260408083206001600160a01b0386168452909152812054828110156110a45760405162461bcd60e51b815260206004820152602560248201527f45524332303a2064656372656173656420616c6c6f77616e63652062656c6f77604482015264207a65726f60d81b60648201526084016109b7565b6110b133858584036113fd565b5060019392505050565b60006109d3838361203b565b834211156111175760405162461bcd60e51b815260206004820152601d60248201527f4552433230566f7465733a207369676e6174757265206578706972656400000060448201526064016109b7565b604080517fe48329057bfd03d55e49b547132e39cffd9c1820ad7b9d4c5307691425d15adf60208201526001600160a01b038816918101919091526060810186905260808101859052600090611191906111899060a00160405160208183030381529060405280519060200120612048565b858585612096565b905061119c816120be565b86146111ea5760405162461bcd60e51b815260206004820152601960248201527f4552433230566f7465733a20696e76616c6964206e6f6e63650000000000000060448201526064016109b7565b6111f48188611bf1565b50505050505050565b8342111561124d5760405162461bcd60e51b815260206004820152601d60248201527f45524332305065726d69743a206578706972656420646561646c696e6500000060448201526064016109b7565b60006101625488888861125f8c6120be565b6040805160208101969096526001600160a01b0394851690860152929091166060840152608083015260a082015260c0810186905260e00160405160208183030381529060405280519060200120905060006112ba82612048565b905060006112ca82878787612096565b9050896001600160a01b0316816001600160a01b03161461132d5760405162461bcd60e51b815260206004820152601e60248201527f45524332305065726d69743a20696e76616c6964207369676e6174757265000060448201526064016109b7565b6113388a8a8a6113fd565b50505050505050505050565b600082815260fb602052604090206001015461136081336109f2565b610a01838361186d565b60408051808201909152600080825260208201526001600160a01b038316600090815261019560205260409020805463ffffffff84169081106113bd57634e487b7160e01b600052603260045260246000fd5b60009182526020918290206040805180820190915291015463ffffffff8116825264010000000090046001600160e01b0316918101919091529392505050565b6001600160a01b03831661145f5760405162461bcd60e51b8152602060048201526024808201527f45524332303a20617070726f76652066726f6d20746865207a65726f206164646044820152637265737360e01b60648201526084016109b7565b6001600160a01b0382166114c05760405162461bcd60e51b815260206004820152602260248201527f45524332303a20617070726f766520746f20746865207a65726f206164647265604482015261737360f01b60648201526084016109b7565b6001600160a01b0383811660008181526034602090815260408083209487168084529482529182902085905590518481527f8c5be1e5ebec7d5bd14f71427d1e84f3dd0314c0f7b2291e5b200ac8c7c3b925910160405180910390a3505050565b6001600160a01b0383166115855760405162461bcd60e51b815260206004820152602560248201527f45524332303a207472616e736665722066726f6d20746865207a65726f206164604482015264647265737360d81b60648201526084016109b7565b6001600160a01b0382166115e75760405162461bcd60e51b815260206004820152602360248201527f45524332303a207472616e7366657220746f20746865207a65726f206164647260448201526265737360e81b60648201526084016109b7565b6115f28383836120e7565b6001600160a01b0383166000908152603360205260409020548181101561166a5760405162461bcd60e51b815260206004820152602660248201527f45524332303a207472616e7366657220616d6f756e7420657863656564732062604482015265616c616e636560d01b60648201526084016109b7565b6001600160a01b038085166000908152603360205260408082208585039055918516815290812080548492906116a1908490613762565b92505081905550826001600160a01b0316846001600160a01b03167fddf252ad1be2c89b69c2b068fc378daa952ba7f163c4a11628f55a4df523b3ef846040516116ed91815260200190565b60405180910390a3611700848484612155565b50505050565b6117108282610f51565b610a8a57611728816001600160a01b03166014612160565b611733836020612160565b6040516020016117449291906135d4565b60408051601f198184030181529082905262461bcd60e51b82526109b791600401613649565b6117748282610f51565b610a8a57600082815260fb602090815260408083206001600160a01b03851684529091529020805460ff191660011790556117ac3390565b6001600160a01b0316816001600160a01b0316837f2f8788117e7eff1d82e926ec794901d17c78024a50270940304540a733656f0d60405160405180910390a45050565b60006109247f8b73c3c69bb8fe3d512ecc4cf759cc79239f7b179b0ffacaa9a75d522b39400f61182061012d5490565b61012e546040805160208101859052908101839052606081018290524660808201523060a082015260009060c0016040516020818303038152906040528051906020012090509392505050565b6118778282610f51565b15610a8a57600082815260fb602090815260408083206001600160a01b0385168085529252808320805460ff1916905551339285917ff6391f5c32d9c69d2a47ea670b442974b53935d1edc7fd64eb21e047a839171b9190a45050565b7f360894a13ba1a3210667c828492db98dca3e2076cc3735a920a3ca505d382bbc546001600160a01b031690565b7f189ab7a9244df0848122154315af71fe140f3db0fe014031783b0946b8c9d2e3610a8a81336109f2565b60006119376118d4565b905061194284612342565b60008351118061194f5750815b156119605761195e84846123e7565b505b7f4910fdfa16fed3260ed0e7147f7cc6da11a60208b5b9406d12a635614ffd9143805460ff16610f4a57805460ff191660011781556040516001600160a01b03831660248201526119df90869060440160408051601f198184030181529190526020810180516001600160e01b0316631b2ce7f360e11b1790526123e7565b50805460ff191681556119f06118d4565b6001600160a01b0316826001600160a01b031614611a685760405162461bcd60e51b815260206004820152602f60248201527f45524331393637557067726164653a207570677261646520627265616b73206660448201526e75727468657220757067726164657360881b60648201526084016109b7565b610f4a856124d2565b8154600090815b81811015611ae3576000611a8c8284612512565b905084868281548110611aaf57634e487b7160e01b600052603260045260246000fd5b60009182526020909120015463ffffffff161115611acf57809250611add565b611ada816001613762565b91505b50611a78565b8115611b355784611af56001846137b9565b81548110611b1357634e487b7160e01b600052603260045260246000fd5b60009182526020909120015464010000000090046001600160e01b0316611b38565b60005b6001600160e01b031695945050505050565b60975460ff16611b935760405162461bcd60e51b815260206004820152601460248201527314185d5cd8589b194e881b9bdd081c185d5cd95960621b60448201526064016109b7565b6097805460ff191690557f5db9ee0a495bf2e6ff9c91a7834c1ba4fdd244a5e8aa4e537bd38aeae4b073aa335b6040516001600160a01b03909116815260200160405180910390a1565b610a8a828261252d565b610a8a82826125bd565b6001600160a01b0382811660008181526101946020818152604080842080546033845282862054949093528787166001600160a01b03198416811790915590519190951694919391928592917f3134e8a2e6d97e929a7e54011ea5485d7d196dd5f0ba4d4ef95803e8e3fc257f9190a46117008284836125d6565b600063ffffffff821115611cd15760405162461bcd60e51b815260206004820152602660248201527f53616665436173743a2076616c756520646f65736e27742066697420696e203360448201526532206269747360d01b60648201526084016109b7565b5090565b6000611ce1833361076d565b905081811015611d3f5760405162461bcd60e51b8152602060048201526024808201527f45524332303a206275726e20616d6f756e74206578636565647320616c6c6f77604482015263616e636560e01b60648201526084016109b7565b611d4c83338484036113fd565b610a018383611be7565b60975460ff1615611d9c5760405162461bcd60e51b815260206004820152601060248201526f14185d5cd8589b194e881c185d5cd95960821b60448201526064016109b7565b6097805460ff191660011790557f62e78cea01bee320cd4e420270b5ea74000d11b0c9f74754ebdbfc544b05a258611bc03390565b600054610100900460ff1680611dea575060005460ff16155b611e065760405162461bcd60e51b81526004016109b790613714565b600054610100900460ff16158015611e28576000805461ffff19166101011790555b611e30612715565b611e3a838361277f565b8015610a01576000805461ff0019169055505050565b600054610100900460ff1680611e69575060005460ff16155b611e855760405162461bcd60e51b81526004016109b790613714565b600054610100900460ff16158015611ea7576000805461ffff19166101011790555b611eaf612715565b611eb7612715565b8015610b54576000805461ff001916905550565b600054610100900460ff1680611ee4575060005460ff16155b611f005760405162461bcd60e51b81526004016109b790613714565b600054610100900460ff16158015611f22576000805461ffff19166101011790555b611f2a612715565b611eb7612814565b600054610100900460ff1680611f4b575060005460ff16155b611f675760405162461bcd60e51b81526004016109b790613714565b600054610100900460ff16158015611f89576000805461ffff19166101011790555b611ea7612715565b600054610100900460ff1680611faa575060005460ff16155b611fc65760405162461bcd60e51b81526004016109b790613714565b600054610100900460ff16158015611fe8576000805461ffff19166101011790555b611ff0612715565b61201382604051806040016040528060018152602001603160f81b815250612889565b61201c82612915565b8015610a8a576000805461ff00191690555050565b610a8a828261176a565b6000610910338484611521565b60006108696120556117f0565b8360405161190160f01b6020820152602281018390526042810182905260009060620160405160208183030381529060405280519060200120905092915050565b60008060006120a7878787876129a6565b915091506120b481612a93565b5095945050505050565b6001600160a01b0381166000908152610161602052604090208054600181018255905b50919050565b60975460ff16158061210c575061210c6000805160206138bc83398151915233610641565b6121505760405162461bcd60e51b81526020600482015260156024820152742830bab9b2b21030b732103737ba1036b4b73a32b960591b60448201526064016109b7565b610a01565b610a01838383612c96565b6060600061216f83600261379a565b61217a906002613762565b67ffffffffffffffff8111156121a057634e487b7160e01b600052604160045260246000fd5b6040519080825280601f01601f1916602001820160405280156121ca576020820181803683370190505b509050600360fc1b816000815181106121f357634e487b7160e01b600052603260045260246000fd5b60200101906001600160f81b031916908160001a905350600f60fb1b8160018151811061223057634e487b7160e01b600052603260045260246000fd5b60200101906001600160f81b031916908160001a905350600061225484600261379a565b61225f906001613762565b90505b60018111156122f3576f181899199a1a9b1b9c1cb0b131b232b360811b85600f16601081106122a157634e487b7160e01b600052603260045260246000fd5b1a60f81b8282815181106122c557634e487b7160e01b600052603260045260246000fd5b60200101906001600160f81b031916908160001a90535060049490941c936122ec816137fc565b9050612262565b5083156109d35760405162461bcd60e51b815260206004820181905260248201527f537472696e67733a20686578206c656e67746820696e73756666696369656e7460448201526064016109b7565b803b6123a65760405162461bcd60e51b815260206004820152602d60248201527f455243313936373a206e657720696d706c656d656e746174696f6e206973206e60448201526c1bdd08184818dbdb9d1c9858dd609a1b60648201526084016109b7565b7f360894a13ba1a3210667c828492db98dca3e2076cc3735a920a3ca505d382bbc80546001600160a01b0319166001600160a01b0392909216919091179055565b6060823b6124465760405162461bcd60e51b815260206004820152602660248201527f416464726573733a2064656c65676174652063616c6c20746f206e6f6e2d636f6044820152651b9d1c9858dd60d21b60648201526084016109b7565b600080846001600160a01b03168460405161246191906135b8565b600060405180830381855af49150503d806000811461249c576040519150601f19603f3d011682016040523d82523d6000602084013e6124a1565b606091505b50915091506124c9828260405180606001604052806027815260200161389560279139612cc9565b95945050505050565b6124db81612342565b6040516001600160a01b038216907fbc7cd75a20ee27fd9adebab32041f755214dbc6bffa90cc0225b39da2e5c2d3b90600090a250565b6000612521600284841861377a565b6109d390848416613762565b6125378282612d02565b6001600160e01b03612547610919565b11156125ae5760405162461bcd60e51b815260206004820152603060248201527f4552433230566f7465733a20746f74616c20737570706c79207269736b73206f60448201526f766572666c6f77696e6720766f74657360801b60648201526084016109b7565b611700610196612df583612e01565b6125c78282612fa4565b61170061019661310583612e01565b816001600160a01b0316836001600160a01b0316141580156125f85750600081115b15610a01576001600160a01b03831615612687576001600160a01b03831660009081526101956020526040812081906126349061310585612e01565b91509150846001600160a01b03167fdec2bacdd2f05b59de34da9b523dff8be42e5e38e818c82fdb0bae774387a724838360405161267c929190918252602082015260400190565b60405180910390a250505b6001600160a01b03821615610a01576001600160a01b03821660009081526101956020526040812081906126be90612df585612e01565b91509150836001600160a01b03167fdec2bacdd2f05b59de34da9b523dff8be42e5e38e818c82fdb0bae774387a7248383604051612706929190918252602082015260400190565b60405180910390a25050505050565b600054610100900460ff168061272e575060005460ff16155b61274a5760405162461bcd60e51b81526004016109b790613714565b600054610100900460ff16158015611eb7576000805461ffff19166101011790558015610b54576000805461ff001916905550565b600054610100900460ff1680612798575060005460ff16155b6127b45760405162461bcd60e51b81526004016109b790613714565b600054610100900460ff161580156127d6576000805461ffff19166101011790555b82516127e990603690602086019061317a565b5081516127fd90603790602085019061317a565b508015610a01576000805461ff0019169055505050565b600054610100900460ff168061282d575060005460ff16155b6128495760405162461bcd60e51b81526004016109b790613714565b600054610100900460ff1615801561286b576000805461ffff19166101011790555b6097805460ff191690558015610b54576000805461ff001916905550565b600054610100900460ff16806128a2575060005460ff16155b6128be5760405162461bcd60e51b81526004016109b790613714565b600054610100900460ff161580156128e0576000805461ffff19166101011790555b825160208085019190912083519184019190912061012d9190915561012e558015610a01576000805461ff0019169055505050565b600054610100900460ff168061292e575060005460ff16155b61294a5760405162461bcd60e51b81526004016109b790613714565b600054610100900460ff1615801561296c576000805461ffff19166101011790555b7f6e71edae12b1b97f4d1f60370fef10105fa2faae0126114a169c64845d6126c9610162558015610a8a576000805461ff00191690555050565b6000807f7fffffffffffffffffffffffffffffff5d576e7357a4501ddfe92f46681b20a08311156129dd5750600090506003612a8a565b8460ff16601b141580156129f557508460ff16601c14155b15612a065750600090506004612a8a565b6040805160008082526020820180845289905260ff881692820192909252606081018690526080810185905260019060a0016020604051602081039080840390855afa158015612a5a573d6000803e3d6000fd5b5050604051601f1901519150506001600160a01b038116612a8357600060019250925050612a8a565b9150600090505b94509492505050565b6000816004811115612ab557634e487b7160e01b600052602160045260246000fd5b1415612ac057610b54565b6001816004811115612ae257634e487b7160e01b600052602160045260246000fd5b1415612b305760405162461bcd60e51b815260206004820152601860248201527f45434453413a20696e76616c6964207369676e6174757265000000000000000060448201526064016109b7565b6002816004811115612b5257634e487b7160e01b600052602160045260246000fd5b1415612ba05760405162461bcd60e51b815260206004820152601f60248201527f45434453413a20696e76616c6964207369676e6174757265206c656e6774680060448201526064016109b7565b6003816004811115612bc257634e487b7160e01b600052602160045260246000fd5b1415612c1b5760405162461bcd60e51b815260206004820152602260248201527f45434453413a20696e76616c6964207369676e6174757265202773272076616c604482015261756560f01b60648201526084016109b7565b6004816004811115612c3d57634e487b7160e01b600052602160045260246000fd5b1415610b545760405162461bcd60e51b815260206004820152602260248201527f45434453413a20696e76616c6964207369676e6174757265202776272076616c604482015261756560f01b60648201526084016109b7565b6001600160a01b0383811660009081526101946020526040808220548584168352912054610a01929182169116836125d6565b60608315612cd85750816109d3565b825115612ce85782518084602001fd5b8160405162461bcd60e51b81526004016109b79190613649565b6001600160a01b038216612d585760405162461bcd60e51b815260206004820152601f60248201527f45524332303a206d696e7420746f20746865207a65726f20616464726573730060448201526064016109b7565b612d64600083836120e7565b8060356000828254612d769190613762565b90915550506001600160a01b03821660009081526033602052604081208054839290612da3908490613762565b90915550506040518181526001600160a01b038316906000907fddf252ad1be2c89b69c2b068fc378daa952ba7f163c4a11628f55a4df523b3ef9060200160405180910390a3610a8a60008383612155565b60006109d38284613762565b825460009081908015612e5a5785612e1a6001836137b9565b81548110612e3857634e487b7160e01b600052603260045260246000fd5b60009182526020909120015464010000000090046001600160e01b0316612e5d565b60005b6001600160e01b03169250612e7683858763ffffffff16565b9150600081118015612ec257504386612e906001846137b9565b81548110612eae57634e487b7160e01b600052603260045260246000fd5b60009182526020909120015463ffffffff16145b15612f3057612ed082613111565b86612edc6001846137b9565b81548110612efa57634e487b7160e01b600052603260045260246000fd5b9060005260206000200160000160046101000a8154816001600160e01b0302191690836001600160e01b03160217905550612f9b565b856040518060400160405280612f4543611c6c565b63ffffffff168152602001612f5985613111565b6001600160e01b0390811690915282546001810184556000938452602093849020835194909301519091166401000000000263ffffffff909316929092179101555b50935093915050565b6001600160a01b0382166130045760405162461bcd60e51b815260206004820152602160248201527f45524332303a206275726e2066726f6d20746865207a65726f206164647265736044820152607360f81b60648201526084016109b7565b613010826000836120e7565b6001600160a01b038216600090815260336020526040902054818110156130845760405162461bcd60e51b815260206004820152602260248201527f45524332303a206275726e20616d6f756e7420657863656564732062616c616e604482015261636560f01b60648201526084016109b7565b6001600160a01b03831660009081526033602052604081208383039055603580548492906130b39084906137b9565b90915550506040518281526000906001600160a01b038516907fddf252ad1be2c89b69c2b068fc378daa952ba7f163c4a11628f55a4df523b3ef9060200160405180910390a3610a0183600084612155565b60006109d382846137b9565b60006001600160e01b03821115611cd15760405162461bcd60e51b815260206004820152602760248201527f53616665436173743a2076616c756520646f65736e27742066697420696e20326044820152663234206269747360c81b60648201526084016109b7565b82805461318690613813565b90600052602060002090601f0160209004810192826131a857600085556131ee565b82601f106131c157805160ff19168380011785556131ee565b828001600101855582156131ee579182015b828111156131ee5782518255916020019190600101906131d3565b50611cd19291505b80821115611cd157600081556001016131f6565b600067ffffffffffffffff808411156132255761322561385e565b604051601f8501601f19908116603f0116810190828211818310171561324d5761324d61385e565b8160405280935085815286868601111561326657600080fd5b858560208301376000602087830101525050509392505050565b80356001600160a01b038116811461086c57600080fd5b600082601f8301126132a7578081fd5b6109d38383356020850161320a565b803560ff8116811461086c57600080fd5b6000602082840312156132d8578081fd5b6109d382613280565b600080604083850312156132f3578081fd5b6132fc83613280565b915061330a60208401613280565b90509250929050565b600080600060608486031215613327578081fd5b61333084613280565b925061333e60208501613280565b9150604084013590509250925092565b600080600080600080600060e0888a031215613368578283fd5b61337188613280565b965061337f60208901613280565b9550604088013594506060880135935061339b608089016132b6565b925060a0880135915060c0880135905092959891949750929550565b600080604083850312156133c9578182fd5b6133d283613280565b9150602083013567ffffffffffffffff8111156133ed578182fd5b8301601f810185136133fd578182fd5b61340c8582356020840161320a565b9150509250929050565b60008060408385031215613428578182fd5b61343183613280565b946020939093013593505050565b60008060008060008060c08789031215613457578182fd5b61346087613280565b9550602087013594506040870135935061347c606088016132b6565b92506080870135915060a087013590509295509295509295565b600080604083850312156134a8578182fd5b6134b183613280565b9150602083013563ffffffff811681146134c9578182fd5b809150509250929050565b6000602082840312156134e5578081fd5b5035919050565b600080604083850312156134fe578182fd5b8235915061330a60208401613280565b60006020828403121561351f578081fd5b81356001600160e01b0319811681146109d3578182fd5b6000806000806080858703121561354b578182fd5b843567ffffffffffffffff80821115613562578384fd5b61356e88838901613297565b95506020870135915080821115613583578384fd5b5061359087828801613297565b93505061359f60408601613280565b91506135ad60608601613280565b905092959194509250565b600082516135ca8184602087016137d0565b9190910192915050565b60007f416363657373436f6e74726f6c3a206163636f756e74200000000000000000008252835161360c8160178501602088016137d0565b7001034b99036b4b9b9b4b733903937b6329607d1b601791840191820152835161363d8160288401602088016137d0565b01602801949350505050565b60006020825282518060208401526136688160408501602087016137d0565b601f01601f19169190910160400192915050565b6020808252602c908201527f46756e6374696f6e206d7573742062652063616c6c6564207468726f7567682060408201526b19195b1959d85d1958d85b1b60a21b606082015260800190565b6020808252602c908201527f46756e6374696f6e206d7573742062652063616c6c6564207468726f7567682060408201526b6163746976652070726f787960a01b606082015260800190565b6020808252602e908201527f496e697469616c697a61626c653a20636f6e747261637420697320616c72656160408201526d191e481a5b9a5d1a585b1a5e995960921b606082015260800190565b6000821982111561377557613775613848565b500190565b60008261379557634e487b7160e01b81526012600452602481fd5b500490565b60008160001904831182151516156137b4576137b4613848565b500290565b6000828210156137cb576137cb613848565b500390565b60005b838110156137eb5781810151838201526020016137d3565b838111156117005750506000910152565b60008161380b5761380b613848565b506000190190565b600181811c9082168061382757607f821691505b602082108114156120e157634e487b7160e01b600052602260045260246000fd5b634e487b7160e01b600052601160045260246000fd5b634e487b7160e01b600052604160045260246000fdfe65d7a28e3265b37a6474929f336521b332c1681b933f6cb9f3376673440d862a416464726573733a206c6f772d6c6576656c2064656c65676174652063616c6c206661696c65649f2df0fed2c77648de5860a4cc508cd0818c85b8b8a1ab4ceeef8d981c8956a6a264697066735822122066bc34279a15ef49d8f0102058415bdea692f96037e4fd6b6cec252f61a7ad2664736f6c63430008030033",
  "linkReferences": {},
  "deployedLinkReferences": {}
}