{
  "_format": "hh-sol-artifact-1",
  "contractName": "Staker",
  "sourceName": "contracts/Staker.sol",
  "abi": [
    {
      "anonymous": false,
      "inputs": [
        {
          "indexed": false,
          "internalType": "uint32",
          "name": "marketIndex",
          "type": "uint32"
        },
        {
          "indexed": false,
          "internalType": "uint256",
          "name": "accumulativeFloatIssuanceSnapshotIndex",
          "type": "uint256"
        },
        {
          "indexed": false,
          "internalType": "uint256",
          "name": "accumulativeLong",
          "type": "uint256"
        },
        {
          "indexed": false,
          "internalType": "uint256",
          "name": "accumulativeShort",
          "type": "uint256"
        }
      ],
      "name": "AccumulativeIssuancePerStakedSynthSnapshotCreated",
      "type": "event"
    },
    {
      "anonymous": false,
      "inputs": [
        {
          "indexed": false,
          "internalType": "address",
          "name": "previousAdmin",
          "type": "address"
        },
        {
          "indexed": false,
          "internalType": "address",
          "name": "newAdmin",
          "type": "address"
        }
      ],
      "name": "AdminChanged",
      "type": "event"
    },
    {
      "anonymous": false,
      "inputs": [
        {
          "indexed": false,
          "internalType": "uint32",
          "name": "marketIndex",
          "type": "uint32"
        },
        {
          "indexed": false,
          "internalType": "uint256",
          "name": "balanceIncentiveExponent",
          "type": "uint256"
        },
        {
          "indexed": false,
          "internalType": "int256",
          "name": "balanceIncentiveCurve_equilibriumOffset",
          "type": "int256"
        },
        {
          "indexed": false,
          "internalType": "uint256",
          "name": "safeExponentBitShifting",
          "type": "uint256"
        }
      ],
      "name": "BalanceIncentiveParamsUpdated",
      "type": "event"
    },
    {
      "anonymous": false,
      "inputs": [
        {
          "indexed": true,
          "internalType": "address",
          "name": "beacon",
          "type": "address"
        }
      ],
      "name": "BeaconUpgraded",
      "type": "event"
    },
    {
      "anonymous": false,
      "inputs": [
        {
          "indexed": false,
          "internalType": "address",
          "name": "user",
          "type": "address"
        },
        {
          "indexed": false,
          "internalType": "uint32",
          "name": "marketIndex",
          "type": "uint32"
        },
        {
          "indexed": false,
          "internalType": "uint256",
          "name": "amountFloatMinted",
          "type": "uint256"
        }
      ],
      "name": "FloatMinted",
      "type": "event"
    },
    {
      "anonymous": false,
      "inputs": [
        {
          "indexed": false,
          "internalType": "uint256",
          "name": "floatPercentage",
          "type": "uint256"
        }
      ],
      "name": "FloatPercentageUpdated",
      "type": "event"
    },
    {
      "anonymous": false,
      "inputs": [
        {
          "indexed": false,
          "internalType": "uint32",
          "name": "marketIndex",
          "type": "uint32"
        },
        {
          "indexed": false,
          "internalType": "uint256",
          "name": "exitFee_e18",
          "type": "uint256"
        },
        {
          "indexed": false,
          "internalType": "uint256",
          "name": "period",
          "type": "uint256"
        },
        {
          "indexed": false,
          "internalType": "uint256",
          "name": "multiplier",
          "type": "uint256"
        },
        {
          "indexed": false,
          "internalType": "uint256",
          "name": "balanceIncentiveExponent",
          "type": "uint256"
        },
        {
          "indexed": false,
          "internalType": "int256",
          "name": "balanceIncentiveEquilibriumOffset",
          "type": "int256"
        },
        {
          "indexed": false,
          "internalType": "uint256",
          "name": "safeExponentBitShifting",
          "type": "uint256"
        }
      ],
      "name": "MarketAddedToStaker",
      "type": "event"
    },
    {
      "anonymous": false,
      "inputs": [
        {
          "indexed": false,
          "internalType": "uint32",
          "name": "marketIndex",
          "type": "uint32"
        },
        {
          "indexed": false,
          "internalType": "uint256",
          "name": "period",
          "type": "uint256"
        },
        {
          "indexed": false,
          "internalType": "uint256",
          "name": "multiplier",
          "type": "uint256"
        }
      ],
      "name": "MarketLaunchIncentiveParametersChanges",
      "type": "event"
    },
    {
      "anonymous": false,
      "inputs": [
        {
          "indexed": false,
          "internalType": "address",
          "name": "user",
          "type": "address"
        },
        {
          "indexed": false,
          "internalType": "uint32",
          "name": "marketIndex",
          "type": "uint32"
        },
        {
          "indexed": false,
          "internalType": "uint256",
          "name": "amount",
          "type": "uint256"
        },
        {
          "indexed": false,
          "internalType": "bool",
          "name": "isShiftFromLong",
          "type": "bool"
        },
        {
          "indexed": false,
          "internalType": "uint256",
          "name": "userShiftIndex",
          "type": "uint256"
        }
      ],
      "name": "NextPriceStakeShift",
      "type": "event"
    },
    {
      "anonymous": false,
      "inputs": [
        {
          "indexed": true,
          "internalType": "bytes32",
          "name": "role",
          "type": "bytes32"
        },
        {
          "indexed": true,
          "internalType": "bytes32",
          "name": "previousAdminRole",
          "type": "bytes32"
        },
        {
          "indexed": true,
          "internalType": "bytes32",
          "name": "newAdminRole",
          "type": "bytes32"
        }
      ],
      "name": "RoleAdminChanged",
      "type": "event"
    },
    {
      "anonymous": false,
      "inputs": [
        {
          "indexed": true,
          "internalType": "bytes32",
          "name": "role",
          "type": "bytes32"
        },
        {
          "indexed": true,
          "internalType": "address",
          "name": "account",
          "type": "address"
        },
        {
          "indexed": true,
          "internalType": "address",
          "name": "sender",
          "type": "address"
        }
      ],
      "name": "RoleGranted",
      "type": "event"
    },
    {
      "anonymous": false,
      "inputs": [
        {
          "indexed": true,
          "internalType": "bytes32",
          "name": "role",
          "type": "bytes32"
        },
        {
          "indexed": true,
          "internalType": "address",
          "name": "account",
          "type": "address"
        },
        {
          "indexed": true,
          "internalType": "address",
          "name": "sender",
          "type": "address"
        }
      ],
      "name": "RoleRevoked",
      "type": "event"
    },
    {
      "anonymous": false,
      "inputs": [
        {
          "indexed": false,
          "internalType": "address",
          "name": "user",
          "type": "address"
        },
        {
          "indexed": false,
          "internalType": "address",
          "name": "token",
          "type": "address"
        },
        {
          "indexed": false,
          "internalType": "uint256",
          "name": "amount",
          "type": "uint256"
        },
        {
          "indexed": false,
          "internalType": "uint256",
          "name": "lastMintIndex",
          "type": "uint256"
        }
      ],
      "name": "StakeAdded",
      "type": "event"
    },
    {
      "anonymous": false,
      "inputs": [
        {
          "indexed": false,
          "internalType": "address",
          "name": "user",
          "type": "address"
        },
        {
          "indexed": false,
          "internalType": "uint32",
          "name": "marketIndex",
          "type": "uint32"
        },
        {
          "indexed": false,
          "internalType": "uint256",
          "name": "newAmountStakedLong",
          "type": "uint256"
        },
        {
          "indexed": false,
          "internalType": "uint256",
          "name": "newAmountStakedShort",
          "type": "uint256"
        }
      ],
      "name": "StakeShifted",
      "type": "event"
    },
    {
      "anonymous": false,
      "inputs": [
        {
          "indexed": false,
          "internalType": "uint32",
          "name": "marketIndex",
          "type": "uint32"
        },
        {
          "indexed": false,
          "internalType": "uint256",
          "name": "stakeWithdralFee",
          "type": "uint256"
        }
      ],
      "name": "StakeWithdrawalFeeUpdated",
      "type": "event"
    },
    {
      "anonymous": false,
      "inputs": [
        {
          "indexed": false,
          "internalType": "address",
          "name": "user",
          "type": "address"
        },
        {
          "indexed": false,
          "internalType": "address",
          "name": "token",
          "type": "address"
        },
        {
          "indexed": false,
          "internalType": "uint256",
          "name": "amount",
          "type": "uint256"
        }
      ],
      "name": "StakeWithdrawn",
      "type": "event"
    },
    {
      "anonymous": false,
      "inputs": [
        {
          "indexed": false,
          "internalType": "address",
          "name": "admin",
          "type": "address"
        },
        {
          "indexed": false,
          "internalType": "address",
          "name": "floatTreasury",
          "type": "address"
        },
        {
          "indexed": false,
          "internalType": "address",
          "name": "floatCapital",
          "type": "address"
        },
        {
          "indexed": false,
          "internalType": "address",
          "name": "floatToken",
          "type": "address"
        },
        {
          "indexed": false,
          "internalType": "uint256",
          "name": "floatPercentage",
          "type": "uint256"
        }
      ],
      "name": "StakerV1",
      "type": "event"
    },
    {
      "anonymous": false,
      "inputs": [
        {
          "indexed": true,
          "internalType": "address",
          "name": "implementation",
          "type": "address"
        }
      ],
      "name": "Upgraded",
      "type": "event"
    },
    {
      "inputs": [],
      "name": "ADMIN_ROLE",
      "outputs": [
        {
          "internalType": "bytes32",
          "name": "",
          "type": "bytes32"
        }
      ],
      "stateMutability": "view",
      "type": "function"
    },
    {
      "inputs": [],
      "name": "DEFAULT_ADMIN_ROLE",
      "outputs": [
        {
          "internalType": "bytes32",
          "name": "",
          "type": "bytes32"
        }
      ],
      "stateMutability": "view",
      "type": "function"
    },
    {
      "inputs": [],
      "name": "DISCOUNT_ROLE",
      "outputs": [
        {
          "internalType": "bytes32",
          "name": "",
          "type": "bytes32"
        }
      ],
      "stateMutability": "view",
      "type": "function"
    },
    {
      "inputs": [],
      "name": "FLOAT_ISSUANCE_FIXED_DECIMAL",
      "outputs": [
        {
          "internalType": "uint256",
          "name": "",
          "type": "uint256"
        }
      ],
      "stateMutability": "view",
      "type": "function"
    },
    {
      "inputs": [],
      "name": "UPGRADER_ROLE",
      "outputs": [
        {
          "internalType": "bytes32",
          "name": "",
          "type": "bytes32"
        }
      ],
      "stateMutability": "view",
      "type": "function"
    },
    {
      "inputs": [
        {
          "internalType": "uint32",
          "name": "",
          "type": "uint32"
        },
        {
          "internalType": "uint256",
          "name": "",
          "type": "uint256"
        }
      ],
      "name": "accumulativeFloatPerSyntheticTokenSnapshots",
      "outputs": [
        {
          "internalType": "uint256",
          "name": "timestamp",
          "type": "uint256"
        },
        {
          "internalType": "uint256",
          "name": "accumulativeFloatPerSyntheticToken_long",
          "type": "uint256"
        },
        {
          "internalType": "uint256",
          "name": "accumulativeFloatPerSyntheticToken_short",
          "type": "uint256"
        }
      ],
      "stateMutability": "view",
      "type": "function"
    },
    {
      "inputs": [
        {
          "internalType": "uint32",
          "name": "marketIndex",
          "type": "uint32"
        },
        {
          "internalType": "address",
          "name": "longToken",
          "type": "address"
        },
        {
          "internalType": "address",
          "name": "shortToken",
          "type": "address"
        },
        {
          "internalType": "uint256",
          "name": "kInitialMultiplier",
          "type": "uint256"
        },
        {
          "internalType": "uint256",
          "name": "kPeriod",
          "type": "uint256"
        },
        {
          "internalType": "uint256",
          "name": "unstakeFee_e18",
          "type": "uint256"
        },
        {
          "internalType": "uint256",
          "name": "_balanceIncentiveCurve_exponent",
          "type": "uint256"
        },
        {
          "internalType": "int256",
          "name": "_balanceIncentiveCurve_equilibriumOffset",
          "type": "int256"
        }
      ],
      "name": "addNewStakingFund",
      "outputs": [],
      "stateMutability": "nonpayable",
      "type": "function"
    },
    {
      "inputs": [
        {
          "internalType": "uint32",
          "name": "",
          "type": "uint32"
        }
      ],
      "name": "balanceIncentiveCurve_equilibriumOffset",
      "outputs": [
        {
          "internalType": "int256",
          "name": "",
          "type": "int256"
        }
      ],
      "stateMutability": "view",
      "type": "function"
    },
    {
      "inputs": [
        {
          "internalType": "uint32",
          "name": "",
          "type": "uint32"
        }
      ],
      "name": "balanceIncentiveCurve_exponent",
      "outputs": [
        {
          "internalType": "uint256",
          "name": "",
          "type": "uint256"
        }
      ],
      "stateMutability": "view",
      "type": "function"
    },
    {
      "inputs": [
        {
          "internalType": "uint32",
          "name": "marketIndex",
          "type": "uint32"
        },
        {
          "internalType": "uint256",
          "name": "_balanceIncentiveCurve_exponent",
          "type": "uint256"
        },
        {
          "internalType": "int256",
          "name": "_balanceIncentiveCurve_equilibriumOffset",
          "type": "int256"
        },
        {
          "internalType": "uint256",
          "name": "_safeExponentBitShifting",
          "type": "uint256"
        }
      ],
      "name": "changeBalanceIncentiveParameters",
      "outputs": [],
      "stateMutability": "nonpayable",
      "type": "function"
    },
    {
      "inputs": [
        {
          "internalType": "uint256",
          "name": "newFloatPercentage",
          "type": "uint256"
        }
      ],
      "name": "changeFloatPercentage",
      "outputs": [],
      "stateMutability": "nonpayable",
      "type": "function"
    },
    {
      "inputs": [
        {
          "internalType": "uint32",
          "name": "marketIndex",
          "type": "uint32"
        },
        {
          "internalType": "uint256",
          "name": "newMarketUnstakeFee_e18",
          "type": "uint256"
        }
      ],
      "name": "changeUnstakeFee",
      "outputs": [],
      "stateMutability": "nonpayable",
      "type": "function"
    },
    {
      "inputs": [
        {
          "internalType": "uint32[]",
          "name": "marketIndexes",
          "type": "uint32[]"
        }
      ],
      "name": "claimFloatCustom",
      "outputs": [],
      "stateMutability": "nonpayable",
      "type": "function"
    },
    {
      "inputs": [
        {
          "internalType": "uint32[]",
          "name": "marketIndexes",
          "type": "uint32[]"
        },
        {
          "internalType": "address",
          "name": "user",
          "type": "address"
        }
      ],
      "name": "claimFloatCustomFor",
      "outputs": [],
      "stateMutability": "nonpayable",
      "type": "function"
    },
    {
      "inputs": [],
      "name": "floatCapital",
      "outputs": [
        {
          "internalType": "address",
          "name": "",
          "type": "address"
        }
      ],
      "stateMutability": "view",
      "type": "function"
    },
    {
      "inputs": [],
      "name": "floatPercentage",
      "outputs": [
        {
          "internalType": "uint256",
          "name": "",
          "type": "uint256"
        }
      ],
      "stateMutability": "view",
      "type": "function"
    },
    {
      "inputs": [],
      "name": "floatToken",
      "outputs": [
        {
          "internalType": "address",
          "name": "",
          "type": "address"
        }
      ],
      "stateMutability": "view",
      "type": "function"
    },
    {
      "inputs": [],
      "name": "floatTreasury",
      "outputs": [
        {
          "internalType": "address",
          "name": "",
          "type": "address"
        }
      ],
      "stateMutability": "view",
      "type": "function"
    },
    {
      "inputs": [],
      "name": "gems",
      "outputs": [
        {
          "internalType": "address",
          "name": "",
          "type": "address"
        }
      ],
      "stateMutability": "view",
      "type": "function"
    },
    {
      "inputs": [
        {
          "internalType": "bytes32",
          "name": "role",
          "type": "bytes32"
        }
      ],
      "name": "getRoleAdmin",
      "outputs": [
        {
          "internalType": "bytes32",
          "name": "",
          "type": "bytes32"
        }
      ],
      "stateMutability": "view",
      "type": "function"
    },
    {
      "inputs": [
        {
          "internalType": "bytes32",
          "name": "role",
          "type": "bytes32"
        },
        {
          "internalType": "address",
          "name": "account",
          "type": "address"
        }
      ],
      "name": "grantRole",
      "outputs": [],
      "stateMutability": "nonpayable",
      "type": "function"
    },
    {
      "inputs": [
        {
          "internalType": "bytes32",
          "name": "role",
          "type": "bytes32"
        },
        {
          "internalType": "address",
          "name": "account",
          "type": "address"
        }
      ],
      "name": "hasRole",
      "outputs": [
        {
          "internalType": "bool",
          "name": "",
          "type": "bool"
        }
      ],
      "stateMutability": "view",
      "type": "function"
    },
    {
      "inputs": [
        {
          "internalType": "address",
          "name": "_admin",
          "type": "address"
        },
        {
          "internalType": "address",
          "name": "_longShort",
          "type": "address"
        },
        {
          "internalType": "address",
          "name": "_floatToken",
          "type": "address"
        },
        {
          "internalType": "address",
          "name": "_floatTreasury",
          "type": "address"
        },
        {
          "internalType": "address",
          "name": "_floatCapital",
          "type": "address"
        },
        {
          "internalType": "address",
          "name": "_discountSigner",
          "type": "address"
        },
        {
          "internalType": "uint256",
          "name": "_floatPercentage",
          "type": "uint256"
        },
        {
          "internalType": "address",
          "name": "_gems",
          "type": "address"
        }
      ],
      "name": "initialize",
      "outputs": [],
      "stateMutability": "nonpayable",
      "type": "function"
    },
    {
      "inputs": [
        {
          "internalType": "uint32",
          "name": "",
          "type": "uint32"
        }
      ],
      "name": "latestRewardIndex",
      "outputs": [
        {
          "internalType": "uint256",
          "name": "",
          "type": "uint256"
        }
      ],
      "stateMutability": "view",
      "type": "function"
    },
    {
      "inputs": [],
      "name": "longShort",
      "outputs": [
        {
          "internalType": "address",
          "name": "",
          "type": "address"
        }
      ],
      "stateMutability": "view",
      "type": "function"
    },
    {
      "inputs": [
        {
          "internalType": "address",
          "name": "",
          "type": "address"
        }
      ],
      "name": "marketIndexOfToken",
      "outputs": [
        {
          "internalType": "uint32",
          "name": "",
          "type": "uint32"
        }
      ],
      "stateMutability": "view",
      "type": "function"
    },
    {
      "inputs": [
        {
          "internalType": "uint32",
          "name": "",
          "type": "uint32"
        }
      ],
      "name": "marketLaunchIncentive_multipliers",
      "outputs": [
        {
          "internalType": "uint256",
          "name": "",
          "type": "uint256"
        }
      ],
      "stateMutability": "view",
      "type": "function"
    },
    {
      "inputs": [
        {
          "internalType": "uint32",
          "name": "",
          "type": "uint32"
        }
      ],
      "name": "marketLaunchIncentive_period",
      "outputs": [
        {
          "internalType": "uint256",
          "name": "",
          "type": "uint256"
        }
      ],
      "stateMutability": "view",
      "type": "function"
    },
    {
      "inputs": [
        {
          "internalType": "uint32",
          "name": "",
          "type": "uint32"
        }
      ],
      "name": "marketUnstakeFee_e18",
      "outputs": [
        {
          "internalType": "uint256",
          "name": "",
          "type": "uint256"
        }
      ],
      "stateMutability": "view",
      "type": "function"
    },
    {
      "inputs": [
        {
          "internalType": "uint32",
          "name": "marketIndex",
          "type": "uint32"
        },
        {
          "internalType": "uint256",
          "name": "marketUpdateIndex",
          "type": "uint256"
        },
        {
          "internalType": "uint256",
          "name": "longPrice",
          "type": "uint256"
        },
        {
          "internalType": "uint256",
          "name": "shortPrice",
          "type": "uint256"
        },
        {
          "internalType": "uint256",
          "name": "longValue",
          "type": "uint256"
        },
        {
          "internalType": "uint256",
          "name": "shortValue",
          "type": "uint256"
        }
      ],
      "name": "pushUpdatedMarketPricesToUpdateFloatIssuanceCalculations",
      "outputs": [],
      "stateMutability": "nonpayable",
      "type": "function"
    },
    {
      "inputs": [
        {
          "internalType": "bytes32",
          "name": "role",
          "type": "bytes32"
        },
        {
          "internalType": "address",
          "name": "account",
          "type": "address"
        }
      ],
      "name": "renounceRole",
      "outputs": [],
      "stateMutability": "nonpayable",
      "type": "function"
    },
    {
      "inputs": [
        {
          "internalType": "bytes32",
          "name": "role",
          "type": "bytes32"
        },
        {
          "internalType": "address",
          "name": "account",
          "type": "address"
        }
      ],
      "name": "revokeRole",
      "outputs": [],
      "stateMutability": "nonpayable",
      "type": "function"
    },
    {
      "inputs": [
        {
          "internalType": "uint32",
          "name": "",
          "type": "uint32"
        }
      ],
      "name": "safeExponentBitShifting",
      "outputs": [
        {
          "internalType": "uint256",
          "name": "",
          "type": "uint256"
        }
      ],
      "stateMutability": "view",
      "type": "function"
    },
    {
      "inputs": [
        {
          "internalType": "uint256",
          "name": "amountSyntheticTokensToShift",
          "type": "uint256"
        },
        {
          "internalType": "uint32",
          "name": "marketIndex",
          "type": "uint32"
        },
        {
          "internalType": "bool",
          "name": "isShiftFromLong",
          "type": "bool"
        }
      ],
      "name": "shiftTokens",
      "outputs": [],
      "stateMutability": "nonpayable",
      "type": "function"
    },
    {
      "inputs": [
        {
          "internalType": "address",
          "name": "from",
          "type": "address"
        },
        {
          "internalType": "uint256",
          "name": "amount",
          "type": "uint256"
        }
      ],
      "name": "stakeFromUser",
      "outputs": [],
      "stateMutability": "nonpayable",
      "type": "function"
    },
    {
      "inputs": [
        {
          "internalType": "bytes4",
          "name": "interfaceId",
          "type": "bytes4"
        }
      ],
      "name": "supportsInterface",
      "outputs": [
        {
          "internalType": "bool",
          "name": "",
          "type": "bool"
        }
      ],
      "stateMutability": "view",
      "type": "function"
    },
    {
      "inputs": [
        {
          "internalType": "uint32",
          "name": "",
          "type": "uint32"
        },
        {
          "internalType": "bool",
          "name": "",
          "type": "bool"
        }
      ],
      "name": "syntheticTokens",
      "outputs": [
        {
          "internalType": "address",
          "name": "",
          "type": "address"
        }
      ],
      "stateMutability": "view",
      "type": "function"
    },
    {
      "inputs": [
        {
          "internalType": "address",
          "name": "newImplementation",
          "type": "address"
        }
      ],
      "name": "upgradeTo",
      "outputs": [],
      "stateMutability": "nonpayable",
      "type": "function"
    },
    {
      "inputs": [
        {
          "internalType": "address",
          "name": "newImplementation",
          "type": "address"
        },
        {
          "internalType": "bytes",
          "name": "data",
          "type": "bytes"
        }
      ],
      "name": "upgradeToAndCall",
      "outputs": [],
      "stateMutability": "payable",
      "type": "function"
    },
    {
      "inputs": [
        {
          "internalType": "address",
          "name": "",
          "type": "address"
        },
        {
          "internalType": "address",
          "name": "",
          "type": "address"
        }
      ],
      "name": "userAmountStaked",
      "outputs": [
        {
          "internalType": "uint256",
          "name": "",
          "type": "uint256"
        }
      ],
      "stateMutability": "view",
      "type": "function"
    },
    {
      "inputs": [
        {
          "internalType": "uint32",
          "name": "",
          "type": "uint32"
        },
        {
          "internalType": "address",
          "name": "",
          "type": "address"
        }
      ],
      "name": "userIndexOfLastClaimedReward",
      "outputs": [
        {
          "internalType": "uint256",
          "name": "",
          "type": "uint256"
        }
      ],
      "stateMutability": "view",
      "type": "function"
    },
    {
      "inputs": [
        {
          "internalType": "uint32",
          "name": "",
          "type": "uint32"
        },
        {
          "internalType": "bool",
          "name": "",
          "type": "bool"
        },
        {
          "internalType": "address",
          "name": "",
          "type": "address"
        }
      ],
      "name": "userNextPrice_amountStakedSyntheticToken_toShiftAwayFrom",
      "outputs": [
        {
          "internalType": "uint256",
          "name": "",
          "type": "uint256"
        }
      ],
      "stateMutability": "view",
      "type": "function"
    },
    {
      "inputs": [
        {
          "internalType": "uint32",
          "name": "",
          "type": "uint32"
        },
        {
          "internalType": "bool",
          "name": "",
          "type": "bool"
        },
        {
          "internalType": "address",
          "name": "",
          "type": "address"
        }
      ],
      "name": "userNextPrice_paymentToken_depositAmount",
      "outputs": [
        {
          "internalType": "uint256",
          "name": "",
          "type": "uint256"
        }
      ],
      "stateMutability": "view",
      "type": "function"
    },
    {
      "inputs": [
        {
          "internalType": "uint32",
          "name": "",
          "type": "uint32"
        },
        {
          "internalType": "address",
          "name": "",
          "type": "address"
        }
      ],
      "name": "userNextPrice_stakedActionIndex",
      "outputs": [
        {
          "internalType": "uint256",
          "name": "",
          "type": "uint256"
        }
      ],
      "stateMutability": "view",
      "type": "function"
    },
    {
      "inputs": [
        {
          "internalType": "address",
          "name": "",
          "type": "address"
        }
      ],
      "name": "userNonce",
      "outputs": [
        {
          "internalType": "uint32",
          "name": "",
          "type": "uint32"
        }
      ],
      "stateMutability": "view",
      "type": "function"
    },
    {
      "inputs": [
        {
          "internalType": "uint32",
          "name": "marketIndex",
          "type": "uint32"
        },
        {
          "internalType": "bool",
          "name": "isWithdrawFromLong",
          "type": "bool"
        },
        {
          "internalType": "uint256",
          "name": "amount",
          "type": "uint256"
        }
      ],
      "name": "withdraw",
      "outputs": [],
      "stateMutability": "nonpayable",
      "type": "function"
    },
    {
      "inputs": [
        {
          "internalType": "uint32",
          "name": "marketIndex",
          "type": "uint32"
        },
        {
          "internalType": "bool",
          "name": "isWithdrawFromLong",
          "type": "bool"
        }
      ],
      "name": "withdrawAll",
      "outputs": [],
      "stateMutability": "nonpayable",
      "type": "function"
    },
    {
      "inputs": [
        {
          "internalType": "uint32",
          "name": "marketIndex",
          "type": "uint32"
        },
        {
          "internalType": "bool",
          "name": "isWithdrawFromLong",
          "type": "bool"
        },
        {
          "internalType": "uint256",
          "name": "withdrawAmount",
          "type": "uint256"
        },
        {
          "internalType": "uint256",
          "name": "expiry",
          "type": "uint256"
        },
        {
          "internalType": "uint256",
          "name": "nonce",
          "type": "uint256"
        },
        {
          "internalType": "uint256",
          "name": "discountWithdrawFee",
          "type": "uint256"
        },
        {
          "internalType": "uint8",
          "name": "v",
          "type": "uint8"
        },
        {
          "internalType": "bytes32",
          "name": "r",
          "type": "bytes32"
        },
        {
          "internalType": "bytes32",
          "name": "s",
          "type": "bytes32"
        }
      ],
      "name": "withdrawWithVoucher",
      "outputs": [],
      "stateMutability": "nonpayable",
      "type": "function"
    }
  ],
  "bytecode": "0x60a06040523060601b60805234801561001757600080fd5b5060805160601c6148ad61004b60003960008181610bd901528181610c1901528181610ca20152610ce201526148ad6000f3fe6080604052600436106102935760003560e01c80639441752f1161015a578063c2b80072116100c1578063eae5a8d91161007a578063eae5a8d9146109a1578063edb010d7146109c1578063ef9c3052146109e1578063f344acc914610a0f578063f72c0d8b14610a2f578063f9fe734e14610a6357610293565b8063c2b80072146108a6578063d547741f146108e5578063dc86fe5014610905578063e39ac04414610933578063e68f3dbe14610961578063e955a3481461098157610293565b8063b45e86cf11610113578063b45e86cf146107b4578063ba89f7b8146107ed578063bda69fd81461080d578063be751cb71461082d578063c16199e31461084d578063c17f8ce91461086d57610293565b80639441752f146106be5780639e59fd0f146106fd578063a217fddf1461071d578063a538415c14610732578063b054c4a114610752578063b0956b5f1461079457610293565b80634f1ef286116101fe578063738f4b8e116101b7578063738f4b8e146105d857806375b238fc146105f857806385fcb8e31461062c57806386cbde1f1461065a5780638e659c081461067e57806391d148541461069e57610293565b80634f1ef286146105075780635892457d1461051a5780635ac76ce1146105305780636a5304df146105695780636c3050551461059757806372b124da146105b857610293565b80632e04b8e7116102505780632e04b8e7146103dc5780632f2ff15d1461041057806336568abe146104305780633659cfe6146104505780633733cf49146104705780633ebff44f146104a457610293565b806301ffc9a7146102985780630ca5a052146102cd57806313e8868a146102ef57806315f2081d1461032b578063248a9ca31461037457806329949872146103a4575b600080fd5b3480156102a457600080fd5b506102b86102b3366004613fcf565b610a91565b60405190151581526020015b60405180910390f35b3480156102d957600080fd5b506102ed6102e836600461422a565b610aca565b005b3480156102fb57600080fd5b5061031d61030a36600461404e565b6101306020526000908152604090205481565b6040519081526020016102c4565b34801561033757600080fd5b5061035f610346366004613d26565b6101626020526000908152604090205463ffffffff1681565b60405163ffffffff90911681526020016102c4565b34801561038057600080fd5b5061031d61038f366004613f95565b60009081526065602052604090206001015490565b3480156103b057600080fd5b5060fe546103c4906001600160a01b031681565b6040516001600160a01b0390911681526020016102c4565b3480156103e857600080fd5b5061035f6103f7366004613d26565b6101636020526000908152604090205463ffffffff1681565b34801561041c57600080fd5b506102ed61042b366004613fad565b610b1f565b34801561043c57600080fd5b506102ed61044b366004613fad565b610b4b565b34801561045c57600080fd5b506102ed61046b366004613d26565b610bce565b34801561047c57600080fd5b5061031d7fce9a6d3180818296cf6add4d55c45a6cd9e315597ee1da1e2313c503391736cd81565b3480156104b057600080fd5b506104ec6104bf36600461422a565b61019260209081526000928352604080842090915290825290208054600182015460029092015490919083565b604080519384526020840192909252908201526060016102c4565b6102ed610515366004613e01565b610c97565b34801561052657600080fd5b5061031d60fd5481565b34801561053c57600080fd5b5061031d61054b366004614068565b6101c060209081526000928352604080842090915290825290205481565b34801561057557600080fd5b5061031d61058436600461404e565b61012e6020526000908152604090205481565b3480156105a357600080fd5b50610100546103c4906001600160a01b031681565b3480156105c457600080fd5b506102ed6105d33660046141a2565b610d4d565b3480156105e457600080fd5b506102ed6105f3366004613ee7565b6111ea565b34801561060457600080fd5b5061031d7fa49807205ce4d355092ef5a8a18f56e8913cf4a201fbe287825b095693c2177581565b34801561063857600080fd5b5061031d61064736600461404e565b6101336020526000908152604090205481565b34801561066657600080fd5b5061031d6cd73d4c35b9df8aa7d6c3003573602c1b81565b34801561068a57600080fd5b506102ed610699366004613d72565b611259565b3480156106aa57600080fd5b506102b86106b9366004613fad565b61143e565b3480156106ca57600080fd5b5061031d6106d9366004614129565b6101f060209081526000938452604080852082529284528284209052825290205481565b34801561070957600080fd5b506102ed610718366004613f95565b61146b565b34801561072957600080fd5b5061031d600081565b34801561073e57600080fd5b506102ed61074d3660046140f3565b6114b2565b34801561075e57600080fd5b506103c461076d3660046140f3565b6101346020908152600092835260408084209091529082529020546001600160a01b031681565b3480156107a057600080fd5b506102ed6107af366004614083565b6115a9565b3480156107c057600080fd5b5061031d6107cf366004614068565b6101ef60209081526000928352604080842090915290825290205481565b3480156107f957600080fd5b5060fb546103c4906001600160a01b031681565b34801561081957600080fd5b506102ed61082836600461427d565b6117a9565b34801561083957600080fd5b506102ed610848366004614245565b611854565b34801561085957600080fd5b5060fc546103c4906001600160a01b031681565b34801561087957600080fd5b5061031d610888366004613d40565b6101c160209081526000928352604080842090915290825290205481565b3480156108b257600080fd5b5061031d6108c1366004614129565b6101f160209081526000938452604080852082529284528284209052825290205481565b3480156108f157600080fd5b506102ed610900366004613fad565b6118bc565b34801561091157600080fd5b5061031d61092036600461404e565b6101326020526000908152604090205481565b34801561093f57600080fd5b5061031d61094e36600461404e565b6101916020526000908152604090205481565b34801561096d57600080fd5b506102ed61097c366004613ebe565b6118e2565b34801561098d57600080fd5b506102ed61099c366004614164565b611ad1565b3480156109ad57600080fd5b5060ff546103c4906001600160a01b031681565b3480156109cd57600080fd5b506102ed6109dc36600461400f565b611b1b565b3480156109ed57600080fd5b5061031d6109fc36600461404e565b61012f6020526000908152604090205481565b348015610a1b57600080fd5b506102ed610a2a366004613f27565b611dce565b348015610a3b57600080fd5b5061031d7f189ab7a9244df0848122154315af71fe140f3db0fe014031783b0946b8c9d2e381565b348015610a6f57600080fd5b5061031d610a7e36600461404e565b6101316020526000908152604090205481565b60006001600160e01b03198216637965db0b60e01b1480610ac257506301ffc9a760e01b6001600160e01b03198316145b90505b919050565b610ad2611e3d565b610adc8282611e69565b6040805163ffffffff84168152602081018390527feb76801ec75076256b8590fd7c621c2541531e6b9ac568389fa5cdf72e664844910160405180910390a15050565b600082815260656020526040902060010154610b3c81335b611e97565b610b468383611efb565b505050565b6001600160a01b0381163314610bc05760405162461bcd60e51b815260206004820152602f60248201527f416363657373436f6e74726f6c3a2063616e206f6e6c792072656e6f756e636560448201526e103937b632b9903337b91039b2b63360891b60648201526084015b60405180910390fd5b610bca8282611f81565b5050565b306001600160a01b037f0000000000000000000000000000000000000000000000000000000000000000161415610c175760405162461bcd60e51b8152600401610bb7906143d3565b7f00000000000000000000000000000000000000000000000000000000000000006001600160a01b0316610c49611fe8565b6001600160a01b031614610c6f5760405162461bcd60e51b8152600401610bb79061441f565b610c7881612016565b60408051600080825260208201909252610c9491839190612041565b50565b306001600160a01b037f0000000000000000000000000000000000000000000000000000000000000000161415610ce05760405162461bcd60e51b8152600401610bb7906143d3565b7f00000000000000000000000000000000000000000000000000000000000000006001600160a01b0316610d12611fe8565b6001600160a01b031614610d385760405162461bcd60e51b8152600401610bb79061441f565b610d4182612016565b610bca82826001612041565b610100546040516324b4085360e21b81523360048201819052916001600160a01b0316906392d0214c90602401600060405180830381600087803b158015610d9457600080fd5b505af1158015610da8573d6000803e3d6000fd5b5050604080516001600160e01b031960e08f901b166020808301919091528d151560f81b60248301526bffffffffffffffffffffffff193360601b166025830152603982018d9052605982018c9052607982018b905260998083018b90528351808403909101815260b9830184528051908201207f19457468657265756d205369676e6564204d6573736167653a0a33320000000060d984015260f58084019190915283518084039091018152610115909201909252805191012060009250600191506040805160008152602081018083529290925260ff881690820152606081018690526080810185905260a0016020604051602081039080840390855afa158015610eb9573d6000803e3d6000fd5b505050602060405103519050610eef7fce9a6d3180818296cf6add4d55c45a6cd9e315597ee1da1e2313c503391736cd8261143e565b50874210610f305760405162461bcd60e51b815260206004820152600e60248201526d18dbdd5c1bdb88195e1c1a5c995960921b6044820152606401610bb7565b336000908152610163602052604090205463ffffffff168714610f855760405162461bcd60e51b815260206004820152600d60248201526c696e76616c6964206e6f6e636560981b6044820152606401610bb7565b63ffffffff8b16600090815261013060205260409020548610610fdd5760405162461bcd60e51b815260206004820152601060248201526f62616420646973636f756e742066656560801b6044820152606401610bb7565b3360009081526101636020526040902054610fff9063ffffffff166001614512565b33600090815261016360209081526040808320805463ffffffff191663ffffffff958616179055928e16825261013481528282208d15158352905220546001600160a01b03166110518c8c8c84612185565b6000670de0b6b3a7640000611066898d614713565b6110709190614568565b60fc5460405163a9059cbb60e01b81526001600160a01b0391821660048201526024810183905291925083169063a9059cbb90604401602060405180830381600087803b1580156110c057600080fd5b505af11580156110d4573d6000803e3d6000fd5b505050506040513d601f19601f820116820180604052508101906110f89190613f79565b506001600160a01b03821663a9059cbb33611113848f614771565b6040516001600160e01b031960e085901b1681526001600160a01b0390921660048301526024820152604401602060405180830381600087803b15801561115957600080fd5b505af115801561116d573d6000803e3d6000fd5b505050506040513d601f19601f820116820180604052508101906111919190613f79565b50604080513381526001600160a01b03841660208201529081018c90527fb7c918e0e249f999e965cafeb6c664271b3f4317d296461500e71da39f0cbda39060600160405180910390a150505050505050505050505050565b60fe54604051636c8d2b9760e01b81526001600160a01b0390911690636c8d2b979061121c9085908590600401614357565b600060405180830381600087803b15801561123657600080fd5b505af115801561124a573d6000803e3d6000fd5b50505050610bca8282336122b7565b600054610100900460ff1680611272575060005460ff16155b61128e5760405162461bcd60e51b8152600401610bb79061446b565b600054610100900460ff161580156112b0576000805461ffff19166101011790555b6001600160a01b038916158015906112d057506001600160a01b03881615155b80156112e457506001600160a01b03871615155b80156112f857506001600160a01b03861615155b801561130c57506001600160a01b03851615155b801561132057506001600160a01b03821615155b801561132b57508215155b61133457600080fd5b60fb80546001600160a01b03199081166001600160a01b038881169190911790925560fc8054821689841617905560fe805482168b841617905560ff805482168a841617905561010080549091169184169190911790556113948961247e565b6113be7fce9a6d3180818296cf6add4d55c45a6cd9e315597ee1da1e2313c503391736cd85612503565b6113c78361250d565b604080516001600160a01b038b81168252888116602083015287811682840152891660608201526080810185905290517faf92ca815edd9a90dc4aa1dfc722fb1624d5b5f914b25ae3cf979ce6600f0a969181900360a00190a18015611433576000805461ff00191690555b505050505050505050565b60008281526065602090815260408083206001600160a01b038516845290915290205460ff165b92915050565b611473611e3d565b61147c8161250d565b6040518181527f062ffcd555faf2b2c81f26010ee6db2e23106941bfed5ae979abd111975d815d9060200160405180910390a150565b60fe546040516305c8146f60e01b815263ffffffff841660048201526001600160a01b03909116906305c8146f90602401600060405180830381600087803b1580156114fd57600080fd5b505af1158015611511573d6000803e3d6000fd5b5050505061151f8233612533565b63ffffffff8216600081815261013460209081526040808320851515808552908352818420546001600160a01b03168085526101c184528285203380875281865284872080549888526101f087528588209488529386528487209087528552929094205491909252908190559091906115a2858461159d8486614771565b6125da565b5050505050565b6115b16127e0565b670de0b6b3a76400008510156116145760405162461bcd60e51b815260206004820152602260248201527f6b496e697469616c4d756c7469706c696572206d757374206265203e3d203165604482015261062760f31b6064820152608401610bb7565b6001600160a01b03808816600081815261016260209081526040808320805463ffffffff8f1663ffffffff199182168117909255958c168085528285208054909716821790965580845261019283528184208480528352818420429055835261013482528083206001845280835281842080546001600160a01b0319908116909617905583805290915290208054909116909117905560326116b88984848461282a565b63ffffffff8916600090815261012e6020908152604080832088905561012f90915290208690556116e98985611e69565b6040805163ffffffff8b16815260208101869052908101869052606081018790526080810184905260a0810183905260c081018290527fe0bc2edbe91b35919ee6608af52675476a1cb964af5d671c9e2c018d3cae98919060e00160405180910390a16040805163ffffffff8b16815260006020820181905291810182905260608101919091527f65663e89e16ccfe470dd659bacdf6fddae8185e108d00bc980d34be7e86466d0906080015b60405180910390a1505050505050505050565b6117b16127e0565b6000806117cc886117c360018a614771565b88888888612b44565b63ffffffff8a166000818152610192602090815260408083208d8452825280832060018101879055600281018690554281558484526101918352928190208d905580519384529083018c90528201849052606082018390529294509092507f65663e89e16ccfe470dd659bacdf6fddae8185e108d00bc980d34be7e86466d090608001611796565b61185c611e3d565b6118688484848461282a565b6040805163ffffffff8616815260208101859052908101839052606081018290527f940844064f9f8938ffe6a879f6143788f9f7e81daf872fee4fe2387b7cf9448d9060800160405180910390a150505050565b6000828152606560205260409020600101546118d88133610b37565b610b468383611f81565b336118ec81612bed565b610100546040516324b4085360e21b81526001600160a01b038086166004830152859216906392d0214c90602401600060405180830381600087803b15801561193457600080fd5b505af1158015611948573d6000803e3d6000fd5b50503360009081526101626020526040908190205460fe5491516305c8146f60e01b815263ffffffff9091166004820181905293506001600160a01b0390911691506305c8146f90602401600060405180830381600087803b1580156119ad57600080fd5b505af11580156119c1573d6000803e3d6000fd5b5050505063ffffffff811660008181526101c0602090815260408083206001600160a01b038a1684528252808320549383526101919091529020548115801590611a0a57508082105b15611a1957611a198388612533565b3360009081526101c1602090815260408083206001600160a01b038b16845290915281208054889290611a4d9084906144fa565b909155505063ffffffff831660009081526101c0602090815260408083206001600160a01b038b1680855290835292819020849055805192835233918301919091528101879052606081018290527fef7c8dfef14cbefdf829b8f066b068b677992411137321d64b3ed4538c2b36379060800160405180910390a150505050505050565b63ffffffff831660009081526101346020908152604080832085151584529091529020546001600160a01b0316611b0a84848484612185565b611b158482846125da565b50505050565b81611b2581612c4b565b610100546040516324b4085360e21b81523360048201819052916001600160a01b0316906392d0214c90602401600060405180830381600087803b158015611b6c57600080fd5b505af1158015611b80573d6000803e3d6000fd5b5050505060008511611bc65760405162461bcd60e51b815260206004820152600f60248201526e2737903d32b9379039b434b33a399760891b6044820152606401610bb7565b63ffffffff8416600081815261013460209081526040808320871515808552908352818420549484526101f0835281842090845282528083203384529091528120546001600160a01b0390921691611c1e90886144fa565b6001600160a01b03831660009081526101c160209081526040808320338452909152902054909150811115611c955760405162461bcd60e51b815260206004820152601a60248201527f4e6f7420656e6f75676820746f6b656e7320746f2073686966740000000000006044820152606401610bb7565b60fe546040516371fd962360e01b815263ffffffff881660048201526024810189905286151560448201526001600160a01b03909116906371fd962390606401600060405180830381600087803b158015611cef57600080fd5b505af1158015611d03573d6000803e3d6000fd5b5050505063ffffffff861660008181526101f060209081526040808320891515845282528083203384528252808320859055928252610191905290812054611d4c9060016144fa565b63ffffffff881660008181526101ef6020908152604080832033808552908352928190208590558051928352908201929092529081018a90528715156060820152608081018290529091507f1393b60b20fc61ac59730bbda202288e21de9c963502cfe81fcb843b427d46e29060a00160405180910390a15050505050505050565b60fe54604051636c8d2b9760e01b81526001600160a01b0390911690636c8d2b9790611e009086908690600401614357565b600060405180830381600087803b158015611e1a57600080fd5b505af1158015611e2e573d6000803e3d6000fd5b50505050610b468383836122b7565b611e677fa49807205ce4d355092ef5a8a18f56e8913cf4a201fbe287825b095693c2177533611e97565b565b66b1a2bc2ec50000811115611e7d57600080fd5b63ffffffff90911660009081526101306020526040902055565b611ea1828261143e565b610bca57611eb9816001600160a01b03166014612cb4565b611ec4836020612cb4565b604051602001611ed59291906142e2565b60408051601f198184030181529082905262461bcd60e51b8252610bb7916004016143a0565b611f05828261143e565b610bca5760008281526065602090815260408083206001600160a01b03851684529091529020805460ff19166001179055611f3d3390565b6001600160a01b0316816001600160a01b0316837f2f8788117e7eff1d82e926ec794901d17c78024a50270940304540a733656f0d60405160405180910390a45050565b611f8b828261143e565b15610bca5760008281526065602090815260408083206001600160a01b0385168085529252808320805460ff1916905551339285917ff6391f5c32d9c69d2a47ea670b442974b53935d1edc7fd64eb21e047a839171b9190a45050565b7f360894a13ba1a3210667c828492db98dca3e2076cc3735a920a3ca505d382bbc546001600160a01b031690565b7f189ab7a9244df0848122154315af71fe140f3db0fe014031783b0946b8c9d2e3610bca8133610b37565b600061204b611fe8565b905061205684612e9d565b6000835111806120635750815b15612074576120728484612f42565b505b7f4910fdfa16fed3260ed0e7147f7cc6da11a60208b5b9406d12a635614ffd9143805460ff166115a257805460ff191660011781556040516001600160a01b03831660248201526120f390869060440160408051601f198184030181529190526020810180516001600160e01b0316631b2ce7f360e11b179052612f42565b50805460ff19168155612104611fe8565b6001600160a01b0316826001600160a01b03161461217c5760405162461bcd60e51b815260206004820152602f60248201527f45524331393637557067726164653a207570677261646520627265616b73206660448201526e75727468657220757067726164657360881b6064820152608401610bb7565b6115a28561302d565b60fe546040516305c8146f60e01b815263ffffffff861660048201526001600160a01b03909116906305c8146f90602401600060405180830381600087803b1580156121d057600080fd5b505af11580156121e4573d6000803e3d6000fd5b505050506121f28433612533565b6001600160a01b03811660009081526101c160209081526040808320338085529083528184205463ffffffff891685526101f08452828520881515865284528285209185529252909120548381018210156122885760405162461bcd60e51b81526020600482015260166024820152756e6f7420656e6f75676820746f20776974686472617760501b6044820152606401610bb7565b506001600160a01b0390911660009081526101c160209081526040808320338452909152902091900390555050565b600082815b8181101561246d5760006123048787848181106122e957634e487b7160e01b600052603260045260246000fd5b90506020020160208101906122fe919061404e565b8661306d565b9050801561245a57610191600088888581811061233157634e487b7160e01b600052603260045260246000fd5b9050602002016020810190612346919061404e565b63ffffffff1663ffffffff168152602001908152602001600020546101c0600089898681811061238657634e487b7160e01b600052603260045260246000fd5b905060200201602081019061239b919061404e565b63ffffffff168152602080820192909252604090810160009081206001600160a01b038a1682529092529020556123d281856144fa565b93507f2f0b57f663333228518fca119813fe0f6daeb5f19d087965f56b45fecf2d52058588888581811061241657634e487b7160e01b600052603260045260246000fd5b905060200201602081019061242b919061404e565b604080516001600160a01b03909316835263ffffffff9091166020830152810183905260600160405180910390a15b5080612465816147cb565b9150506122bc565b5081156115a2576115a28383613491565b600054610100900460ff1680612497575060005460ff16155b6124b35760405162461bcd60e51b8152600401610bb79061446b565b600054610100900460ff161580156124d5576000805461ffff19166101011790555b6124dd613595565b6124e5613618565b6124ee82613676565b8015610bca576000805461ff00191690555050565b610bca8282611efb565b670de0b6b3a764000081111580156125255750600081115b61252e57600080fd5b60fd55565b600061253f838361306d565b90508015610b465763ffffffff8316600090815261019160209081526040808320546101c083528184206001600160a01b0387168552909252909120556125868282613491565b604080516001600160a01b038416815263ffffffff851660208201529081018290527f2f0b57f663333228518fca119813fe0f6daeb5f19d087965f56b45fecf2d52059060600160405180910390a1505050565b610100546040516324b4085360e21b81523360048201819052916001600160a01b0316906392d0214c90602401600060405180830381600087803b15801561262157600080fd5b505af1158015612635573d6000803e3d6000fd5b5050505063ffffffff841660009081526101306020526040812054670de0b6b3a7640000906126649085614713565b61266e9190614568565b60fc5460405163a9059cbb60e01b81526001600160a01b0391821660048201526024810183905291925085169063a9059cbb90604401602060405180830381600087803b1580156126be57600080fd5b505af11580156126d2573d6000803e3d6000fd5b505050506040513d601f19601f820116820180604052508101906126f69190613f79565b506001600160a01b03841663a9059cbb336127118487614771565b6040516001600160e01b031960e085901b1681526001600160a01b0390921660048301526024820152604401602060405180830381600087803b15801561275757600080fd5b505af115801561276b573d6000803e3d6000fd5b505050506040513d601f19601f8201168201806040525081019061278f9190613f79565b50604080513381526001600160a01b03861660208201529081018490527fb7c918e0e249f999e965cafeb6c664271b3f4317d296461500e71da39f0cbda39060600160405180910390a15050505050565b60fe546001600160a01b03163314611e675760405162461bcd60e51b815260206004820152600d60248201526c1b9bdd08131bdb99d4da1bdc9d609a1b6044820152606401610bb7565b670c7d713b49d9ffff19821380156128495750670c7d713b49da000082125b6128b35760405162461bcd60e51b815260206004820152603560248201527f62616c616e6365496e63656e7469766543757276655f657175696c69627269756044820152746d4f6666736574206f7574206f6620626f756e647360581b6064820152608401610bb7565b600083116129185760405162461bcd60e51b815260206004820152602c60248201527f62616c616e6365496e63656e7469766543757276655f6578706f6e656e74206f60448201526b7574206f6620626f756e647360a01b6064820152608401610bb7565b606481106129765760405162461bcd60e51b815260206004820152602560248201527f736166654578706f6e656e744269745368696674696e67206f7574206f6620626044820152646f756e647360d81b6064820152608401610bb7565b60fe54604051631678fc4360e31b815263ffffffff86166004820152600060248201819052916001600160a01b03169063b3c7e2189060440160206040518083038186803b1580156129c757600080fd5b505afa1580156129db573d6000803e3d6000fd5b505050506040513d601f19601f820116820180604052508101906129ff9190613ff7565b60fe54604051631678fc4360e31b815263ffffffff88166004820152600160248201526001600160a01b039091169063b3c7e2189060440160206040518083038186803b158015612a4f57600080fd5b505afa158015612a63573d6000803e3d6000fd5b505050506040513d601f19601f82011682018060405250810190612a879190613ff7565b612a9191906144fa565b90508382612aa1836101f4614713565b612aac92911c6145c2565b50606481831c11612b0f5760405162461bcd60e51b815260206004820152602760248201527f626974207368696674696e6720746f6f206c6172676520666f7220746f74616c604482015266081b1bd8dad95960ca1b6064820152608401610bb7565b5063ffffffff909316600090815261013160209081526040808320949094556101328152838220929092556101339091522055565b600080600080612b578a8989898961373f565b915091506000612b678b8b6139e8565b9050612b738382614713565b63ffffffff8c166000908152610192602090815260408083208e8452909152902060010154612ba291906144fa565b612bac8383614713565b63ffffffff8d166000908152610192602090815260408083208f8452909152902060020154612bdb91906144fa565b94509450505050965096945050505050565b6001600160a01b0381166000908152610162602052604090205463ffffffff16610c945760405162461bcd60e51b815260206004820152600f60248201526e0dcdee840ecc2d8d2c840e6f2dce8d608b1b6044820152606401610bb7565b63ffffffff811660009081526101ef6020908152604080832033845290915290205415801590612ca5575063ffffffff8116600090815261019160209081526040808320546101ef83528184203385529092529091205411155b15610c9457610c948133612533565b60606000612cc3836002614713565b612cce9060026144fa565b67ffffffffffffffff811115612cf457634e487b7160e01b600052604160045260246000fd5b6040519080825280601f01601f191660200182016040528015612d1e576020820181803683370190505b509050600360fc1b81600081518110612d4757634e487b7160e01b600052603260045260246000fd5b60200101906001600160f81b031916908160001a905350600f60fb1b81600181518110612d8457634e487b7160e01b600052603260045260246000fd5b60200101906001600160f81b031916908160001a9053506000612da8846002614713565b612db39060016144fa565b90505b6001811115612e47576f181899199a1a9b1b9c1cb0b131b232b360811b85600f1660108110612df557634e487b7160e01b600052603260045260246000fd5b1a60f81b828281518110612e1957634e487b7160e01b600052603260045260246000fd5b60200101906001600160f81b031916908160001a90535060049490941c93612e40816147b4565b9050612db6565b508315612e965760405162461bcd60e51b815260206004820181905260248201527f537472696e67733a20686578206c656e67746820696e73756666696369656e746044820152606401610bb7565b9392505050565b803b612f015760405162461bcd60e51b815260206004820152602d60248201527f455243313936373a206e657720696d706c656d656e746174696f6e206973206e60448201526c1bdd08184818dbdb9d1c9858dd609a1b6064820152608401610bb7565b7f360894a13ba1a3210667c828492db98dca3e2076cc3735a920a3ca505d382bbc80546001600160a01b0319166001600160a01b0392909216919091179055565b6060823b612fa15760405162461bcd60e51b815260206004820152602660248201527f416464726573733a2064656c65676174652063616c6c20746f206e6f6e2d636f6044820152651b9d1c9858dd60d21b6064820152608401610bb7565b600080846001600160a01b031684604051612fbc91906142c6565b600060405180830381855af49150503d8060008114612ff7576040519150601f19603f3d011682016040523d82523d6000602084013e612ffc565b606091505b5091509150613024828260405180606001604052806027815260200161485160279139613a14565b95945050505050565b61303681612e9d565b6040516001600160a01b038216907fbc7cd75a20ee27fd9adebab32041f755214dbc6bffa90cc0225b39da2e5c2d3b90600090a250565b63ffffffff821660008181526101346020908152604080832060018452825280832054838052818420546001600160a01b039182168086526101c180865284872089851680895290875285882054949093168088529086528487208388528652848720548888526101c0875285882093885292865284872054978752610191909552928520549495929491929091808214156131125760009650505050505050611465565b63ffffffff891660009081526101ef602090815260408083206001600160a01b038c168452909152902054801580159061314c5750818111155b156134745761315e8a86868685613a4d565b63ffffffff8b1660009081526101f0602090815260408083206001845282528083206001600160a01b038e168452909152902054909850801561327e5760fe54604051630125edfd60e71b815263ffffffff8d1660048201526024810183905260016044820152606481018490526001600160a01b03909116906392f6fe809060840160206040518083038186803b1580156131f957600080fd5b505afa15801561320d573d6000803e3d6000fd5b505050506040513d601f19601f820116820180604052508101906132319190613ff7565b61323b90866144fa565b94506132478187614771565b63ffffffff8c1660009081526101f0602090815260408083206001845282528083206001600160a01b038f16845290915281205595505b5063ffffffff8a1660009081526101f06020908152604080832083805282528083206001600160a01b038d168452909152902054801561339a5760fe54604051630125edfd60e71b815263ffffffff8d1660048201526024810183905260006044820152606481018490526001600160a01b03909116906392f6fe809060840160206040518083038186803b15801561331657600080fd5b505afa15801561332a573d6000803e3d6000fd5b505050506040513d601f19601f8201168201806040525081019061334e9190613ff7565b61335890876144fa565b95506133648186614771565b63ffffffff8c1660009081526101f06020908152604080832083805282528083206001600160a01b038f16845290915281205594505b6001600160a01b0388811660009081526101c1602081815260408084208f86168086529083528185208c9055948c168452918152818320848452815291819020889055805192835263ffffffff8e16918301919091528101879052606081018690527fea2b4628943d2a0a2c85f85b60007fb6f8273d91c0eaff6f8b140a5007637b359060800160405180910390a16134368b87878587613a4d565b613440908a6144fa565b63ffffffff8c1660009081526101ef602090815260408083206001600160a01b038f16845290915281205598506134849050565b6134818a86868686613a4d565b97505b5050505050505092915050565b60ff546040516340c10f1960e01b81526001600160a01b03848116600483015260248201849052909116906340c10f1990604401600060405180830381600087803b1580156134df57600080fd5b505af11580156134f3573d6000803e3d6000fd5b505060ff5460fb5460fd546001600160a01b0392831694506340c10f199350911690670de0b6b3a7640000906135299086614713565b6135339190614568565b6040516001600160e01b031960e085901b1681526001600160a01b0390921660048301526024820152604401600060405180830381600087803b15801561357957600080fd5b505af115801561358d573d6000803e3d6000fd5b505050505050565b600054610100900460ff16806135ae575060005460ff16155b6135ca5760405162461bcd60e51b8152600401610bb79061446b565b600054610100900460ff161580156135ec576000805461ffff19166101011790555b6135f4613b40565b6135fc613b40565b613604613b40565b8015610c94576000805461ff001916905550565b600054610100900460ff1680613631575060005460ff16155b61364d5760405162461bcd60e51b8152600401610bb79061446b565b600054610100900460ff161580156135f4576000805461ffff19166101011790556135fc613b40565b600054610100900460ff168061368f575060005460ff16155b6136ab5760405162461bcd60e51b8152600401610bb79061446b565b600054610100900460ff161580156136cd576000805461ffff19166101011790555b6001600160a01b0382166136e057600080fd5b6136eb600083612503565b6137157fa49807205ce4d355092ef5a8a18f56e8913cf4a201fbe287825b095693c2177583612503565b6124ee7f189ab7a9244df0848122154315af71fe140f3db0fe014031783b0946b8c9d2e383612503565b600080600061374d88613baa565b9050600061375b85876144fa565b63ffffffff8a166000908152610132602052604081205491925090671bc16d674ec800009061378b908490614690565b613795919061453a565b63ffffffff8b1660009081526101336020526040902054909150876137bb836002614690565b6137c59089614732565b12156138e3578682126137eb5760006137de8a86614713565b95509550505050506139de565b63ffffffff8b166000908152610131602052604081205461380d600184614771565b613817858b614732565b61382292911c6145c2565b63ffffffff8d1660009081526101316020526040812054919250906138499086851c6145c2565b9050600081613860846706f05b59d3b20000614713565b61386a9190614568565b9050600061388082670de0b6b3a7640000614771565b9050670de0b6b3a76400008e6138968a85614713565b6138a09190614713565b6138aa9190614568565b670de0b6b3a76400008e6138be8b85614713565b6138c89190614713565b6138d29190614568565b9950995050505050505050506139de565b876138ed836147e6565b1261390b576138fc8a85614713565b600095509550505050506139de565b63ffffffff8b166000908152610131602052604081205461392d600184614771565b613937858c6144b9565b61394292911c6145c2565b63ffffffff8d1660009081526101316020526040812054919250906139699086851c6145c2565b9050600081613980846706f05b59d3b20000614713565b61398a9190614568565b905060006139a082670de0b6b3a7640000614771565b9050670de0b6b3a76400008e6139b68a84614713565b6139c09190614713565b6139ca9190614568565b670de0b6b3a76400008e6138be8b86614713565b9550959350505050565b63ffffffff8216600090815261019260209081526040808320848452909152812054612e969042614771565b60608315613a23575081612e96565b825115613a335782518084602001fd5b8160405162461bcd60e51b8152600401610bb791906143a0565b60008415613ac45763ffffffff86166000908152610192602090815260408083208684529091528082206001908101548584529183200154613a8f9190614771565b90506cd73d4c35b9df8aa7d6c3003573602c1b613aac8783614713565b613ab69190614568565b613ac090836144fa565b9150505b83156130245763ffffffff86166000908152610192602090815260408083208684529091528082206002908101548584529183200154613b049190614771565b90506cd73d4c35b9df8aa7d6c3003573602c1b613b218683614713565b613b2b9190614568565b613b3590836144fa565b979650505050505050565b600054610100900460ff1680613b59575060005460ff16155b613b755760405162461bcd60e51b8152600401610bb79061446b565b600054610100900460ff16158015613604576000805461ffff19166101011790558015610c94576000805461ff001916905550565b6000806000613bb884613c6d565b91509150670de0b6b3a7640000811015613be257634e487b7160e01b600052600160045260246000fd5b63ffffffff841660009081526101926020908152604080832083805290915290205482613c0f8242614771565b1015613c5a5782613c208242614771565b613c32670de0b6b3a764000085614771565b613c3c9190614713565b613c469190614568565b613c509083614771565b9350505050610ac5565b670de0b6b3a76400009350505050610ac5565b63ffffffff8116600090815261012e602090815260408083205461012f90925290912054670de0b6b3a7640000811015613cac5750670de0b6b3a76400005b915091565b80356001600160a01b0381168114610ac557600080fd5b60008083601f840112613cd9578081fd5b50813567ffffffffffffffff811115613cf0578182fd5b6020830191508360208260051b8501011115613d0b57600080fd5b9250929050565b803563ffffffff81168114610ac557600080fd5b600060208284031215613d37578081fd5b612e9682613cb1565b60008060408385031215613d52578081fd5b613d5b83613cb1565b9150613d6960208401613cb1565b90509250929050565b600080600080600080600080610100898b031215613d8e578384fd5b613d9789613cb1565b9750613da560208a01613cb1565b9650613db360408a01613cb1565b9550613dc160608a01613cb1565b9450613dcf60808a01613cb1565b9350613ddd60a08a01613cb1565b925060c08901359150613df260e08a01613cb1565b90509295985092959890939650565b60008060408385031215613e13578182fd5b613e1c83613cb1565b9150602083013567ffffffffffffffff80821115613e38578283fd5b818501915085601f830112613e4b578283fd5b813581811115613e5d57613e5d61482c565b604051601f8201601f19908116603f01168101908382118183101715613e8557613e8561482c565b81604052828152886020848701011115613e9d578586fd5b82602086016020830137856020848301015280955050505050509250929050565b60008060408385031215613ed0578182fd5b613ed983613cb1565b946020939093013593505050565b60008060208385031215613ef9578182fd5b823567ffffffffffffffff811115613f0f578283fd5b613f1b85828601613cc8565b90969095509350505050565b600080600060408486031215613f3b578283fd5b833567ffffffffffffffff811115613f51578384fd5b613f5d86828701613cc8565b9094509250613f70905060208501613cb1565b90509250925092565b600060208284031215613f8a578081fd5b8151612e9681614842565b600060208284031215613fa6578081fd5b5035919050565b60008060408385031215613fbf578182fd5b82359150613d6960208401613cb1565b600060208284031215613fe0578081fd5b81356001600160e01b031981168114612e96578182fd5b600060208284031215614008578081fd5b5051919050565b600080600060608486031215614023578081fd5b8335925061403360208501613d12565b9150604084013561404381614842565b809150509250925092565b60006020828403121561405f578081fd5b612e9682613d12565b6000806040838503121561407a578182fd5b613d5b83613d12565b600080600080600080600080610100898b03121561409f578182fd5b6140a889613d12565b97506140b660208a01613cb1565b96506140c460408a01613cb1565b979a96995096976060810135975060808101359660a0820135965060c0820135955060e0909101359350915050565b60008060408385031215614105578182fd5b61410e83613d12565b9150602083013561411e81614842565b809150509250929050565b60008060006060848603121561413d578081fd5b61414684613d12565b9250602084013561415681614842565b9150613f7060408501613cb1565b600080600060608486031215614178578081fd5b61418184613d12565b9250602084013561419181614842565b929592945050506040919091013590565b60008060008060008060008060006101208a8c0312156141c0578283fd5b6141c98a613d12565b985060208a01356141d981614842565b975060408a0135965060608a0135955060808a0135945060a08a0135935060c08a013560ff8116811461420a578384fd5b8093505060e08a013591506101008a013590509295985092959850929598565b6000806040838503121561423c578182fd5b613ed983613d12565b6000806000806080858703121561425a578182fd5b61426385613d12565b966020860135965060408601359560600135945092505050565b60008060008060008060c08789031215614295578384fd5b61429e87613d12565b9860208801359850604088013597606081013597506080810135965060a00135945092505050565b600082516142d8818460208701614788565b9190910192915050565b60007f416363657373436f6e74726f6c3a206163636f756e74200000000000000000008252835161431a816017850160208801614788565b7001034b99036b4b9b9b4b733903937b6329607d1b601791840191820152835161434b816028840160208801614788565b01602801949350505050565b60208082528181018390526000908460408401835b868110156143955763ffffffff61438284613d12565b168252918301919083019060010161436c565b509695505050505050565b60006020825282518060208401526143bf816040850160208701614788565b601f01601f19169190910160400192915050565b6020808252602c908201527f46756e6374696f6e206d7573742062652063616c6c6564207468726f7567682060408201526b19195b1959d85d1958d85b1b60a21b606082015260800190565b6020808252602c908201527f46756e6374696f6e206d7573742062652063616c6c6564207468726f7567682060408201526b6163746976652070726f787960a01b606082015260800190565b6020808252602e908201527f496e697469616c697a61626c653a20636f6e747261637420697320616c72656160408201526d191e481a5b9a5d1a585b1a5e995960921b606082015260800190565b600080821280156001600160ff1b03849003851316156144db576144db614800565b600160ff1b83900384128116156144f4576144f4614800565b50500190565b6000821982111561450d5761450d614800565b500190565b600063ffffffff80831681851680830382111561453157614531614800565b01949350505050565b60008261454957614549614816565b600160ff1b82146000198414161561456357614563614800565b500590565b60008261457757614577614816565b500490565b80825b600180861161458e57506145b9565b8187048211156145a0576145a0614800565b808616156145ad57918102915b9490941c93800261457f565b94509492505050565b6000612e9660001984846000826145db57506001612e96565b816145e857506000612e96565b81600181146145fe576002811461460857614635565b6001915050612e96565b60ff84111561461957614619614800565b6001841b91508482111561462f5761462f614800565b50612e96565b5060208310610133831016604e8410600b8410161715614668575081810a8381111561466357614663614800565b612e96565b614675848484600161457c565b80860482111561468757614687614800565b02949350505050565b60006001600160ff1b03818413828413808216868404861116156146b6576146b6614800565b600160ff1b848712828116878305891216156146d4576146d4614800565b8587129250878205871284841616156146ef576146ef614800565b8785058712818416161561470557614705614800565b505050929093029392505050565b600081600019048311821515161561472d5761472d614800565b500290565b60008083128015600160ff1b85018412161561475057614750614800565b6001600160ff1b038401831381161561476b5761476b614800565b50500390565b60008282101561478357614783614800565b500390565b60005b838110156147a357818101518382015260200161478b565b83811115611b155750506000910152565b6000816147c3576147c3614800565b506000190190565b60006000198214156147df576147df614800565b5060010190565b6000600160ff1b8214156147fc576147fc614800565b0390565b634e487b7160e01b600052601160045260246000fd5b634e487b7160e01b600052601260045260246000fd5b634e487b7160e01b600052604160045260246000fd5b8015158114610c9457600080fdfe416464726573733a206c6f772d6c6576656c2064656c65676174652063616c6c206661696c6564a2646970667358221220f761a463332d6136ffa4859fb54ea6441346e2cfa556f0918505b7e0ba1b368164736f6c63430008030033",
  "linkReferences": {},
  "deployedLinkReferences": {}
}