{
  "_format": "hh-sol-artifact-1",
  "contractName": "LongShortInternalStateSetters",
  "sourceName": "contracts/testing/LongShortInternalStateSetters.sol",
  "abi": [
    {
      "anonymous": false,
      "inputs": [
        {
          "indexed": false,
          "internalType": "address",
          "name": "previousAdmin",
          "type": "address"
        },
        {
          "indexed": false,
          "internalType": "address",
          "name": "newAdmin",
          "type": "address"
        }
      ],
      "name": "AdminChanged",
      "type": "event"
    },
    {
      "anonymous": false,
      "inputs": [
        {
          "indexed": true,
          "internalType": "address",
          "name": "beacon",
          "type": "address"
        }
      ],
      "name": "BeaconUpgraded",
      "type": "event"
    },
    {
      "anonymous": false,
      "inputs": [
        {
          "indexed": false,
          "internalType": "address",
          "name": "user",
          "type": "address"
        },
        {
          "indexed": false,
          "internalType": "uint32",
          "name": "marketIndex",
          "type": "uint32"
        }
      ],
      "name": "ExecuteNextPriceSettlementsUser",
      "type": "event"
    },
    {
      "anonymous": false,
      "inputs": [
        {
          "indexed": false,
          "internalType": "address",
          "name": "admin",
          "type": "address"
        },
        {
          "indexed": false,
          "internalType": "address",
          "name": "tokenFactory",
          "type": "address"
        },
        {
          "indexed": false,
          "internalType": "address",
          "name": "staker",
          "type": "address"
        }
      ],
      "name": "LongShortV1",
      "type": "event"
    },
    {
      "anonymous": false,
      "inputs": [
        {
          "indexed": false,
          "internalType": "uint32",
          "name": "marketIndex",
          "type": "uint32"
        },
        {
          "indexed": false,
          "internalType": "uint256",
          "name": "initialSeed",
          "type": "uint256"
        },
        {
          "indexed": false,
          "internalType": "uint256",
          "name": "marketLeverage",
          "type": "uint256"
        }
      ],
      "name": "NewMarketLaunchedAndSeeded",
      "type": "event"
    },
    {
      "anonymous": false,
      "inputs": [
        {
          "indexed": false,
          "internalType": "uint32",
          "name": "marketIndex",
          "type": "uint32"
        },
        {
          "indexed": false,
          "internalType": "bool",
          "name": "isLong",
          "type": "bool"
        },
        {
          "indexed": false,
          "internalType": "uint256",
          "name": "depositAdded",
          "type": "uint256"
        },
        {
          "indexed": false,
          "internalType": "address",
          "name": "user",
          "type": "address"
        },
        {
          "indexed": false,
          "internalType": "uint256",
          "name": "oracleUpdateIndex",
          "type": "uint256"
        }
      ],
      "name": "NextPriceDeposit",
      "type": "event"
    },
    {
      "anonymous": false,
      "inputs": [
        {
          "indexed": false,
          "internalType": "uint32",
          "name": "marketIndex",
          "type": "uint32"
        },
        {
          "indexed": false,
          "internalType": "bool",
          "name": "isLong",
          "type": "bool"
        },
        {
          "indexed": false,
          "internalType": "uint256",
          "name": "synthRedeemed",
          "type": "uint256"
        },
        {
          "indexed": false,
          "internalType": "address",
          "name": "user",
          "type": "address"
        },
        {
          "indexed": false,
          "internalType": "uint256",
          "name": "oracleUpdateIndex",
          "type": "uint256"
        }
      ],
      "name": "NextPriceRedeem",
      "type": "event"
    },
    {
      "anonymous": false,
      "inputs": [
        {
          "indexed": false,
          "internalType": "uint32",
          "name": "marketIndex",
          "type": "uint32"
        },
        {
          "indexed": false,
          "internalType": "bool",
          "name": "isShiftFromLong",
          "type": "bool"
        },
        {
          "indexed": false,
          "internalType": "uint256",
          "name": "synthShifted",
          "type": "uint256"
        },
        {
          "indexed": false,
          "internalType": "address",
          "name": "user",
          "type": "address"
        },
        {
          "indexed": false,
          "internalType": "uint256",
          "name": "oracleUpdateIndex",
          "type": "uint256"
        }
      ],
      "name": "NextPriceSyntheticPositionShift",
      "type": "event"
    },
    {
      "anonymous": false,
      "inputs": [
        {
          "indexed": false,
          "internalType": "uint32",
          "name": "marketIndex",
          "type": "uint32"
        },
        {
          "indexed": false,
          "internalType": "address",
          "name": "oldOracleAddress",
          "type": "address"
        },
        {
          "indexed": false,
          "internalType": "address",
          "name": "newOracleAddress",
          "type": "address"
        }
      ],
      "name": "OracleUpdated",
      "type": "event"
    },
    {
      "anonymous": false,
      "inputs": [
        {
          "indexed": true,
          "internalType": "bytes32",
          "name": "role",
          "type": "bytes32"
        },
        {
          "indexed": true,
          "internalType": "bytes32",
          "name": "previousAdminRole",
          "type": "bytes32"
        },
        {
          "indexed": true,
          "internalType": "bytes32",
          "name": "newAdminRole",
          "type": "bytes32"
        }
      ],
      "name": "RoleAdminChanged",
      "type": "event"
    },
    {
      "anonymous": false,
      "inputs": [
        {
          "indexed": true,
          "internalType": "bytes32",
          "name": "role",
          "type": "bytes32"
        },
        {
          "indexed": true,
          "internalType": "address",
          "name": "account",
          "type": "address"
        },
        {
          "indexed": true,
          "internalType": "address",
          "name": "sender",
          "type": "address"
        }
      ],
      "name": "RoleGranted",
      "type": "event"
    },
    {
      "anonymous": false,
      "inputs": [
        {
          "indexed": true,
          "internalType": "bytes32",
          "name": "role",
          "type": "bytes32"
        },
        {
          "indexed": true,
          "internalType": "address",
          "name": "account",
          "type": "address"
        },
        {
          "indexed": true,
          "internalType": "address",
          "name": "sender",
          "type": "address"
        }
      ],
      "name": "RoleRevoked",
      "type": "event"
    },
    {
      "anonymous": false,
      "inputs": [
        {
          "indexed": false,
          "internalType": "uint32",
          "name": "marketIndex",
          "type": "uint32"
        },
        {
          "indexed": false,
          "internalType": "address",
          "name": "longTokenAddress",
          "type": "address"
        },
        {
          "indexed": false,
          "internalType": "address",
          "name": "shortTokenAddress",
          "type": "address"
        },
        {
          "indexed": false,
          "internalType": "address",
          "name": "paymentToken",
          "type": "address"
        },
        {
          "indexed": false,
          "internalType": "int256",
          "name": "initialAssetPrice",
          "type": "int256"
        },
        {
          "indexed": false,
          "internalType": "string",
          "name": "name",
          "type": "string"
        },
        {
          "indexed": false,
          "internalType": "string",
          "name": "symbol",
          "type": "string"
        },
        {
          "indexed": false,
          "internalType": "address",
          "name": "oracleAddress",
          "type": "address"
        },
        {
          "indexed": false,
          "internalType": "address",
          "name": "yieldManagerAddress",
          "type": "address"
        }
      ],
      "name": "SyntheticMarketCreated",
      "type": "event"
    },
    {
      "anonymous": false,
      "inputs": [
        {
          "indexed": false,
          "internalType": "uint32",
          "name": "marketIndex",
          "type": "uint32"
        },
        {
          "indexed": false,
          "internalType": "uint256",
          "name": "updateIndex",
          "type": "uint256"
        },
        {
          "indexed": false,
          "internalType": "int256",
          "name": "underlyingAssetPrice",
          "type": "int256"
        },
        {
          "indexed": false,
          "internalType": "uint256",
          "name": "longValue",
          "type": "uint256"
        },
        {
          "indexed": false,
          "internalType": "uint256",
          "name": "shortValue",
          "type": "uint256"
        },
        {
          "indexed": false,
          "internalType": "uint256",
          "name": "longPrice",
          "type": "uint256"
        },
        {
          "indexed": false,
          "internalType": "uint256",
          "name": "shortPrice",
          "type": "uint256"
        }
      ],
      "name": "SystemStateUpdated",
      "type": "event"
    },
    {
      "anonymous": false,
      "inputs": [
        {
          "indexed": true,
          "internalType": "address",
          "name": "implementation",
          "type": "address"
        }
      ],
      "name": "Upgraded",
      "type": "event"
    },
    {
      "inputs": [],
      "name": "ADMIN_ROLE",
      "outputs": [
        {
          "internalType": "bytes32",
          "name": "",
          "type": "bytes32"
        }
      ],
      "stateMutability": "view",
      "type": "function"
    },
    {
      "inputs": [],
      "name": "DEFAULT_ADMIN_ROLE",
      "outputs": [
        {
          "internalType": "bytes32",
          "name": "",
          "type": "bytes32"
        }
      ],
      "stateMutability": "view",
      "type": "function"
    },
    {
      "inputs": [],
      "name": "PERMANENT_INITIAL_LIQUIDITY_HOLDER",
      "outputs": [
        {
          "internalType": "address",
          "name": "",
          "type": "address"
        }
      ],
      "stateMutability": "view",
      "type": "function"
    },
    {
      "inputs": [],
      "name": "UPGRADER_ROLE",
      "outputs": [
        {
          "internalType": "bytes32",
          "name": "",
          "type": "bytes32"
        }
      ],
      "stateMutability": "view",
      "type": "function"
    },
    {
      "inputs": [
        {
          "internalType": "uint32",
          "name": "",
          "type": "uint32"
        }
      ],
      "name": "assetPrice",
      "outputs": [
        {
          "internalType": "int256",
          "name": "",
          "type": "int256"
        }
      ],
      "stateMutability": "view",
      "type": "function"
    },
    {
      "inputs": [
        {
          "internalType": "uint32",
          "name": "",
          "type": "uint32"
        },
        {
          "internalType": "bool",
          "name": "",
          "type": "bool"
        }
      ],
      "name": "batched_amountPaymentToken_deposit",
      "outputs": [
        {
          "internalType": "uint256",
          "name": "",
          "type": "uint256"
        }
      ],
      "stateMutability": "view",
      "type": "function"
    },
    {
      "inputs": [
        {
          "internalType": "uint32",
          "name": "",
          "type": "uint32"
        },
        {
          "internalType": "bool",
          "name": "",
          "type": "bool"
        }
      ],
      "name": "batched_amountSyntheticToken_redeem",
      "outputs": [
        {
          "internalType": "uint256",
          "name": "",
          "type": "uint256"
        }
      ],
      "stateMutability": "view",
      "type": "function"
    },
    {
      "inputs": [
        {
          "internalType": "uint32",
          "name": "",
          "type": "uint32"
        },
        {
          "internalType": "bool",
          "name": "",
          "type": "bool"
        }
      ],
      "name": "batched_amountSyntheticToken_toShiftAwayFrom_marketSide",
      "outputs": [
        {
          "internalType": "uint256",
          "name": "",
          "type": "uint256"
        }
      ],
      "stateMutability": "view",
      "type": "function"
    },
    {
      "inputs": [
        {
          "internalType": "uint32",
          "name": "marketIndex",
          "type": "uint32"
        },
        {
          "internalType": "uint256",
          "name": "_marketTreasurySplitGradient_e18",
          "type": "uint256"
        }
      ],
      "name": "changeMarketTreasurySplitGradient",
      "outputs": [],
      "stateMutability": "nonpayable",
      "type": "function"
    },
    {
      "inputs": [
        {
          "internalType": "string",
          "name": "syntheticName",
          "type": "string"
        },
        {
          "internalType": "string",
          "name": "syntheticSymbol",
          "type": "string"
        },
        {
          "internalType": "address",
          "name": "_paymentToken",
          "type": "address"
        },
        {
          "internalType": "address",
          "name": "_oracleManager",
          "type": "address"
        },
        {
          "internalType": "address",
          "name": "_yieldManager",
          "type": "address"
        }
      ],
      "name": "createNewSyntheticMarket",
      "outputs": [],
      "stateMutability": "nonpayable",
      "type": "function"
    },
    {
      "inputs": [
        {
          "internalType": "string",
          "name": "syntheticName",
          "type": "string"
        },
        {
          "internalType": "string",
          "name": "syntheticSymbol",
          "type": "string"
        },
        {
          "internalType": "address",
          "name": "_longToken",
          "type": "address"
        },
        {
          "internalType": "address",
          "name": "_shortToken",
          "type": "address"
        },
        {
          "internalType": "address",
          "name": "_paymentToken",
          "type": "address"
        },
        {
          "internalType": "address",
          "name": "_oracleManager",
          "type": "address"
        },
        {
          "internalType": "address",
          "name": "_yieldManager",
          "type": "address"
        }
      ],
      "name": "createNewSyntheticMarketExternalSyntheticTokens",
      "outputs": [],
      "stateMutability": "nonpayable",
      "type": "function"
    },
    {
      "inputs": [
        {
          "internalType": "address",
          "name": "user",
          "type": "address"
        },
        {
          "internalType": "uint32",
          "name": "marketIndex",
          "type": "uint32"
        }
      ],
      "name": "executeOutstandingNextPriceSettlementsUser",
      "outputs": [],
      "stateMutability": "nonpayable",
      "type": "function"
    },
    {
      "inputs": [
        {
          "internalType": "address",
          "name": "user",
          "type": "address"
        },
        {
          "internalType": "uint32[]",
          "name": "marketIndexes",
          "type": "uint32[]"
        }
      ],
      "name": "executeOutstandingNextPriceSettlementsUserMulti",
      "outputs": [],
      "stateMutability": "nonpayable",
      "type": "function"
    },
    {
      "inputs": [],
      "name": "gems",
      "outputs": [
        {
          "internalType": "address",
          "name": "",
          "type": "address"
        }
      ],
      "stateMutability": "view",
      "type": "function"
    },
    {
      "inputs": [
        {
          "internalType": "uint32",
          "name": "marketIndex",
          "type": "uint32"
        },
        {
          "internalType": "uint256",
          "name": "amountSyntheticToken_redeemOnOriginSide",
          "type": "uint256"
        },
        {
          "internalType": "bool",
          "name": "isShiftFromLong",
          "type": "bool"
        },
        {
          "internalType": "uint256",
          "name": "priceSnapshotIndex",
          "type": "uint256"
        }
      ],
      "name": "getAmountSyntheticTokenToMintOnTargetSide",
      "outputs": [
        {
          "internalType": "uint256",
          "name": "amountSyntheticTokensToMintOnTargetSide",
          "type": "uint256"
        }
      ],
      "stateMutability": "view",
      "type": "function"
    },
    {
      "inputs": [
        {
          "internalType": "bytes32",
          "name": "role",
          "type": "bytes32"
        }
      ],
      "name": "getRoleAdmin",
      "outputs": [
        {
          "internalType": "bytes32",
          "name": "",
          "type": "bytes32"
        }
      ],
      "stateMutability": "view",
      "type": "function"
    },
    {
      "inputs": [
        {
          "internalType": "address",
          "name": "user",
          "type": "address"
        },
        {
          "internalType": "uint32",
          "name": "marketIndex",
          "type": "uint32"
        },
        {
          "internalType": "bool",
          "name": "isLong",
          "type": "bool"
        }
      ],
      "name": "getUsersConfirmedButNotSettledSynthBalance",
      "outputs": [
        {
          "internalType": "uint256",
          "name": "confirmedButNotSettledBalance",
          "type": "uint256"
        }
      ],
      "stateMutability": "view",
      "type": "function"
    },
    {
      "inputs": [
        {
          "internalType": "bytes32",
          "name": "role",
          "type": "bytes32"
        },
        {
          "internalType": "address",
          "name": "account",
          "type": "address"
        }
      ],
      "name": "grantRole",
      "outputs": [],
      "stateMutability": "nonpayable",
      "type": "function"
    },
    {
      "inputs": [
        {
          "internalType": "bytes32",
          "name": "role",
          "type": "bytes32"
        },
        {
          "internalType": "address",
          "name": "account",
          "type": "address"
        }
      ],
      "name": "hasRole",
      "outputs": [
        {
          "internalType": "bool",
          "name": "",
          "type": "bool"
        }
      ],
      "stateMutability": "view",
      "type": "function"
    },
    {
      "inputs": [
        {
          "internalType": "address",
          "name": "_admin",
          "type": "address"
        },
        {
          "internalType": "address",
          "name": "_tokenFactory",
          "type": "address"
        },
        {
          "internalType": "address",
          "name": "_staker",
          "type": "address"
        },
        {
          "internalType": "address",
          "name": "_gems",
          "type": "address"
        }
      ],
      "name": "initialize",
      "outputs": [],
      "stateMutability": "nonpayable",
      "type": "function"
    },
    {
      "inputs": [
        {
          "internalType": "uint32",
          "name": "marketIndex",
          "type": "uint32"
        },
        {
          "internalType": "uint256",
          "name": "kInitialMultiplier",
          "type": "uint256"
        },
        {
          "internalType": "uint256",
          "name": "kPeriod",
          "type": "uint256"
        },
        {
          "internalType": "uint256",
          "name": "unstakeFee_e18",
          "type": "uint256"
        },
        {
          "internalType": "uint256",
          "name": "initialMarketSeedForEachMarketSide",
          "type": "uint256"
        },
        {
          "internalType": "uint256",
          "name": "balanceIncentiveCurve_exponent",
          "type": "uint256"
        },
        {
          "internalType": "int256",
          "name": "balanceIncentiveCurve_equilibriumOffset",
          "type": "int256"
        },
        {
          "internalType": "uint256",
          "name": "_marketTreasurySplitGradient_e18",
          "type": "uint256"
        },
        {
          "internalType": "uint256",
          "name": "marketLeverage",
          "type": "uint256"
        }
      ],
      "name": "initializeMarket",
      "outputs": [],
      "stateMutability": "nonpayable",
      "type": "function"
    },
    {
      "inputs": [],
      "name": "latestMarket",
      "outputs": [
        {
          "internalType": "uint32",
          "name": "",
          "type": "uint32"
        }
      ],
      "stateMutability": "view",
      "type": "function"
    },
    {
      "inputs": [
        {
          "internalType": "uint32",
          "name": "",
          "type": "uint32"
        }
      ],
      "name": "marketExists",
      "outputs": [
        {
          "internalType": "bool",
          "name": "",
          "type": "bool"
        }
      ],
      "stateMutability": "view",
      "type": "function"
    },
    {
      "inputs": [
        {
          "internalType": "uint32",
          "name": "",
          "type": "uint32"
        }
      ],
      "name": "marketLeverage_e18",
      "outputs": [
        {
          "internalType": "uint256",
          "name": "",
          "type": "uint256"
        }
      ],
      "stateMutability": "view",
      "type": "function"
    },
    {
      "inputs": [
        {
          "internalType": "uint32",
          "name": "",
          "type": "uint32"
        },
        {
          "internalType": "bool",
          "name": "",
          "type": "bool"
        }
      ],
      "name": "marketSideValueInPaymentToken",
      "outputs": [
        {
          "internalType": "uint256",
          "name": "",
          "type": "uint256"
        }
      ],
      "stateMutability": "view",
      "type": "function"
    },
    {
      "inputs": [
        {
          "internalType": "uint32",
          "name": "",
          "type": "uint32"
        }
      ],
      "name": "marketTreasurySplitGradient_e18",
      "outputs": [
        {
          "internalType": "uint256",
          "name": "",
          "type": "uint256"
        }
      ],
      "stateMutability": "view",
      "type": "function"
    },
    {
      "inputs": [
        {
          "internalType": "uint32",
          "name": "",
          "type": "uint32"
        }
      ],
      "name": "marketUpdateIndex",
      "outputs": [
        {
          "internalType": "uint256",
          "name": "",
          "type": "uint256"
        }
      ],
      "stateMutability": "view",
      "type": "function"
    },
    {
      "inputs": [
        {
          "internalType": "uint32",
          "name": "marketIndex",
          "type": "uint32"
        },
        {
          "internalType": "uint256",
          "name": "amount",
          "type": "uint256"
        }
      ],
      "name": "mintLongNextPrice",
      "outputs": [],
      "stateMutability": "nonpayable",
      "type": "function"
    },
    {
      "inputs": [
        {
          "internalType": "uint32",
          "name": "marketIndex",
          "type": "uint32"
        },
        {
          "internalType": "uint256",
          "name": "amount",
          "type": "uint256"
        }
      ],
      "name": "mintShortNextPrice",
      "outputs": [],
      "stateMutability": "nonpayable",
      "type": "function"
    },
    {
      "inputs": [
        {
          "internalType": "uint32",
          "name": "",
          "type": "uint32"
        }
      ],
      "name": "oracleManagers",
      "outputs": [
        {
          "internalType": "address",
          "name": "",
          "type": "address"
        }
      ],
      "stateMutability": "view",
      "type": "function"
    },
    {
      "inputs": [
        {
          "internalType": "uint32",
          "name": "",
          "type": "uint32"
        }
      ],
      "name": "paymentTokens",
      "outputs": [
        {
          "internalType": "address",
          "name": "",
          "type": "address"
        }
      ],
      "stateMutability": "view",
      "type": "function"
    },
    {
      "inputs": [
        {
          "internalType": "uint32",
          "name": "marketIndex",
          "type": "uint32"
        },
        {
          "internalType": "uint256",
          "name": "tokens_redeem",
          "type": "uint256"
        }
      ],
      "name": "redeemLongNextPrice",
      "outputs": [],
      "stateMutability": "nonpayable",
      "type": "function"
    },
    {
      "inputs": [
        {
          "internalType": "uint32",
          "name": "marketIndex",
          "type": "uint32"
        },
        {
          "internalType": "uint256",
          "name": "tokens_redeem",
          "type": "uint256"
        }
      ],
      "name": "redeemShortNextPrice",
      "outputs": [],
      "stateMutability": "nonpayable",
      "type": "function"
    },
    {
      "inputs": [
        {
          "internalType": "bytes32",
          "name": "role",
          "type": "bytes32"
        },
        {
          "internalType": "address",
          "name": "account",
          "type": "address"
        }
      ],
      "name": "renounceRole",
      "outputs": [],
      "stateMutability": "nonpayable",
      "type": "function"
    },
    {
      "inputs": [
        {
          "internalType": "bytes32",
          "name": "role",
          "type": "bytes32"
        },
        {
          "internalType": "address",
          "name": "account",
          "type": "address"
        }
      ],
      "name": "revokeRole",
      "outputs": [],
      "stateMutability": "nonpayable",
      "type": "function"
    },
    {
      "inputs": [
        {
          "internalType": "uint32",
          "name": "marketIndex",
          "type": "uint32"
        },
        {
          "internalType": "uint256",
          "name": "_marketSideValueInPaymentTokenLong",
          "type": "uint256"
        },
        {
          "internalType": "uint256",
          "name": "_marketSideValueInPaymentTokenShort",
          "type": "uint256"
        },
        {
          "internalType": "address",
          "name": "yieldManager",
          "type": "address"
        }
      ],
      "name": "setClaimAndDistributeYieldThenRebalanceMarketGlobals",
      "outputs": [],
      "stateMutability": "nonpayable",
      "type": "function"
    },
    {
      "inputs": [
        {
          "internalType": "uint32",
          "name": "marketIndex",
          "type": "uint32"
        },
        {
          "internalType": "address",
          "name": "paymentToken",
          "type": "address"
        },
        {
          "internalType": "address",
          "name": "yieldManager",
          "type": "address"
        }
      ],
      "name": "setDepositFundsGlobals",
      "outputs": [],
      "stateMutability": "nonpayable",
      "type": "function"
    },
    {
      "inputs": [
        {
          "internalType": "uint32",
          "name": "marketIndex",
          "type": "uint32"
        },
        {
          "internalType": "address",
          "name": "user",
          "type": "address"
        },
        {
          "internalType": "bool",
          "name": "isLong",
          "type": "bool"
        },
        {
          "internalType": "address",
          "name": "syntheticToken",
          "type": "address"
        },
        {
          "internalType": "uint256",
          "name": "_userNextPrice_syntheticToken_redeemAmount",
          "type": "uint256"
        },
        {
          "internalType": "uint256",
          "name": "_userNextPrice_currentUpdateIndex",
          "type": "uint256"
        },
        {
          "internalType": "uint256",
          "name": "_syntheticToken_priceSnapshot",
          "type": "uint256"
        }
      ],
      "name": "setExecuteOutstandingNextPriceMintsGlobals",
      "outputs": [],
      "stateMutability": "nonpayable",
      "type": "function"
    },
    {
      "inputs": [
        {
          "internalType": "uint32",
          "name": "marketIndex",
          "type": "uint32"
        },
        {
          "internalType": "address",
          "name": "user",
          "type": "address"
        },
        {
          "internalType": "bool",
          "name": "isLong",
          "type": "bool"
        },
        {
          "internalType": "address",
          "name": "yieldManager",
          "type": "address"
        },
        {
          "internalType": "uint256",
          "name": "_userNextPrice_syntheticToken_redeemAmount",
          "type": "uint256"
        },
        {
          "internalType": "uint256",
          "name": "_userNextPrice_currentUpdateIndex",
          "type": "uint256"
        },
        {
          "internalType": "uint256",
          "name": "_syntheticToken_priceSnapshot",
          "type": "uint256"
        }
      ],
      "name": "setExecuteOutstandingNextPriceRedeemsGlobals",
      "outputs": [],
      "stateMutability": "nonpayable",
      "type": "function"
    },
    {
      "inputs": [
        {
          "internalType": "uint32",
          "name": "marketIndex",
          "type": "uint32"
        },
        {
          "internalType": "address",
          "name": "user",
          "type": "address"
        },
        {
          "internalType": "uint256",
          "name": "_userNextPrice_currentUpdateIndex",
          "type": "uint256"
        },
        {
          "internalType": "uint256",
          "name": "_marketUpdateIndex",
          "type": "uint256"
        }
      ],
      "name": "setExecuteOutstandingNextPriceSettlementsGlobals",
      "outputs": [],
      "stateMutability": "nonpayable",
      "type": "function"
    },
    {
      "inputs": [
        {
          "internalType": "uint32",
          "name": "marketIndex",
          "type": "uint32"
        },
        {
          "internalType": "address",
          "name": "user",
          "type": "address"
        },
        {
          "internalType": "bool",
          "name": "isShiftFromLong",
          "type": "bool"
        },
        {
          "internalType": "address",
          "name": "syntheticTokenShiftedTo",
          "type": "address"
        },
        {
          "internalType": "uint256",
          "name": "_userNextPrice_syntheticToken_toShiftAwayFrom_marketSide",
          "type": "uint256"
        },
        {
          "internalType": "uint256",
          "name": "_userNextPrice_currentUpdateIndex",
          "type": "uint256"
        },
        {
          "internalType": "uint256",
          "name": "_syntheticToken_priceSnapshotShiftedFrom",
          "type": "uint256"
        },
        {
          "internalType": "uint256",
          "name": "_syntheticToken_priceSnapshotShiftedTo",
          "type": "uint256"
        }
      ],
      "name": "setExecuteOutstandingNextPriceTokenShiftsGlobals",
      "outputs": [],
      "stateMutability": "nonpayable",
      "type": "function"
    },
    {
      "inputs": [
        {
          "internalType": "uint32",
          "name": "marketIndex",
          "type": "uint32"
        },
        {
          "internalType": "address",
          "name": "user",
          "type": "address"
        },
        {
          "internalType": "bool",
          "name": "isLong",
          "type": "bool"
        },
        {
          "internalType": "uint256",
          "name": "_userNextPrice_currentUpdateIndex",
          "type": "uint256"
        },
        {
          "internalType": "uint256",
          "name": "_marketUpdateIndex",
          "type": "uint256"
        },
        {
          "internalType": "uint256",
          "name": "_userNextPrice_paymentToken_depositAmount_isLong",
          "type": "uint256"
        },
        {
          "internalType": "uint256",
          "name": "_syntheticToken_priceSnapshot_isLong",
          "type": "uint256"
        },
        {
          "internalType": "uint256",
          "name": "_syntheticToken_priceSnapshot_notIsLong",
          "type": "uint256"
        },
        {
          "internalType": "uint256",
          "name": "_userNextPrice_syntheticToken_toShiftAwayFrom_marketSide_notIsLong",
          "type": "uint256"
        }
      ],
      "name": "setGetUsersConfirmedButNotSettledBalanceGlobals",
      "outputs": [],
      "stateMutability": "nonpayable",
      "type": "function"
    },
    {
      "inputs": [
        {
          "internalType": "uint32",
          "name": "marketIndex",
          "type": "uint32"
        },
        {
          "internalType": "address",
          "name": "longSyntheticToken",
          "type": "address"
        },
        {
          "internalType": "address",
          "name": "shortSyntheticToken",
          "type": "address"
        }
      ],
      "name": "setHandleChangeInSyntheticTokensTotalSupplyGlobals",
      "outputs": [],
      "stateMutability": "nonpayable",
      "type": "function"
    },
    {
      "inputs": [
        {
          "internalType": "uint32",
          "name": "marketIndex",
          "type": "uint32"
        },
        {
          "internalType": "bool",
          "name": "marketIndexValue",
          "type": "bool"
        },
        {
          "internalType": "uint32",
          "name": "_latestMarket",
          "type": "uint32"
        },
        {
          "internalType": "address",
          "name": "_staker",
          "type": "address"
        },
        {
          "internalType": "address",
          "name": "longAddress",
          "type": "address"
        },
        {
          "internalType": "address",
          "name": "shortAddress",
          "type": "address"
        }
      ],
      "name": "setInitializeMarketParams",
      "outputs": [],
      "stateMutability": "nonpayable",
      "type": "function"
    },
    {
      "inputs": [
        {
          "internalType": "uint32[]",
          "name": "marketIndexes",
          "type": "uint32[]"
        }
      ],
      "name": "setMarketExistsMulti",
      "outputs": [],
      "stateMutability": "nonpayable",
      "type": "function"
    },
    {
      "inputs": [
        {
          "internalType": "uint32",
          "name": "marketIndex",
          "type": "uint32"
        },
        {
          "internalType": "uint256",
          "name": "batched_amountPaymentToken_depositLong",
          "type": "uint256"
        },
        {
          "internalType": "uint256",
          "name": "batched_amountPaymentToken_depositShort",
          "type": "uint256"
        },
        {
          "internalType": "uint256",
          "name": "batched_amountSyntheticToken_redeemLong",
          "type": "uint256"
        },
        {
          "internalType": "uint256",
          "name": "batched_amountSyntheticToken_redeemShort",
          "type": "uint256"
        },
        {
          "internalType": "uint256",
          "name": "batchedAmountSyntheticTokenToShiftFromLong",
          "type": "uint256"
        },
        {
          "internalType": "uint256",
          "name": "batchedAmountSyntheticTokenToShiftFromShort",
          "type": "uint256"
        }
      ],
      "name": "setPerformOutstandingBatchedSettlementsGlobals",
      "outputs": [],
      "stateMutability": "nonpayable",
      "type": "function"
    },
    {
      "inputs": [
        {
          "internalType": "uint32",
          "name": "marketIndex",
          "type": "uint32"
        },
        {
          "internalType": "uint256",
          "name": "_marketUpdateIndex",
          "type": "uint256"
        },
        {
          "internalType": "address",
          "name": "syntheticToken",
          "type": "address"
        },
        {
          "internalType": "bool",
          "name": "isLong",
          "type": "bool"
        }
      ],
      "name": "setRedeemNextPriceGlobals",
      "outputs": [],
      "stateMutability": "nonpayable",
      "type": "function"
    },
    {
      "inputs": [
        {
          "internalType": "uint32",
          "name": "marketIndex",
          "type": "uint32"
        },
        {
          "internalType": "uint256",
          "name": "_marketUpdateIndex",
          "type": "uint256"
        },
        {
          "internalType": "address",
          "name": "syntheticTokenShiftedFrom",
          "type": "address"
        },
        {
          "internalType": "bool",
          "name": "isShiftFromLong",
          "type": "bool"
        }
      ],
      "name": "setShiftNextPriceGlobals",
      "outputs": [],
      "stateMutability": "nonpayable",
      "type": "function"
    },
    {
      "inputs": [
        {
          "internalType": "uint32",
          "name": "marketIndex",
          "type": "uint32"
        },
        {
          "internalType": "uint256",
          "name": "_latestUpdateIndexForMarket",
          "type": "uint256"
        },
        {
          "internalType": "uint256",
          "name": "syntheticTokenPrice_inPaymentTokens_long",
          "type": "uint256"
        },
        {
          "internalType": "uint256",
          "name": "syntheticTokenPrice_inPaymentTokens_short",
          "type": "uint256"
        },
        {
          "internalType": "int256",
          "name": "_assetPrice",
          "type": "int256"
        },
        {
          "internalType": "uint256",
          "name": "longValue",
          "type": "uint256"
        },
        {
          "internalType": "uint256",
          "name": "shortValue",
          "type": "uint256"
        },
        {
          "internalType": "address",
          "name": "oracleManager",
          "type": "address"
        },
        {
          "internalType": "address",
          "name": "_staker",
          "type": "address"
        },
        {
          "internalType": "address",
          "name": "synthLong",
          "type": "address"
        },
        {
          "internalType": "address",
          "name": "synthShort",
          "type": "address"
        },
        {
          "internalType": "uint256",
          "name": "stakerNextPrice_currentUpdateIndex",
          "type": "uint256"
        }
      ],
      "name": "set_updateSystemStateInternalGlobals",
      "outputs": [],
      "stateMutability": "nonpayable",
      "type": "function"
    },
    {
      "inputs": [
        {
          "internalType": "uint32",
          "name": "marketIndex",
          "type": "uint32"
        },
        {
          "internalType": "uint256",
          "name": "amountSyntheticTokensToShift",
          "type": "uint256"
        }
      ],
      "name": "shiftPositionFromLongNextPrice",
      "outputs": [],
      "stateMutability": "nonpayable",
      "type": "function"
    },
    {
      "inputs": [
        {
          "internalType": "uint32",
          "name": "marketIndex",
          "type": "uint32"
        },
        {
          "internalType": "uint256",
          "name": "amountSyntheticTokensToShift",
          "type": "uint256"
        }
      ],
      "name": "shiftPositionFromShortNextPrice",
      "outputs": [],
      "stateMutability": "nonpayable",
      "type": "function"
    },
    {
      "inputs": [
        {
          "internalType": "uint32",
          "name": "marketIndex",
          "type": "uint32"
        },
        {
          "internalType": "uint256",
          "name": "amountSyntheticTokensToShift",
          "type": "uint256"
        },
        {
          "internalType": "bool",
          "name": "isShiftFromLong",
          "type": "bool"
        }
      ],
      "name": "shiftPositionNextPrice",
      "outputs": [],
      "stateMutability": "nonpayable",
      "type": "function"
    },
    {
      "inputs": [],
      "name": "staker",
      "outputs": [
        {
          "internalType": "address",
          "name": "",
          "type": "address"
        }
      ],
      "stateMutability": "view",
      "type": "function"
    },
    {
      "inputs": [
        {
          "internalType": "bytes4",
          "name": "interfaceId",
          "type": "bytes4"
        }
      ],
      "name": "supportsInterface",
      "outputs": [
        {
          "internalType": "bool",
          "name": "",
          "type": "bool"
        }
      ],
      "stateMutability": "view",
      "type": "function"
    },
    {
      "inputs": [
        {
          "internalType": "uint32",
          "name": "",
          "type": "uint32"
        },
        {
          "internalType": "bool",
          "name": "",
          "type": "bool"
        },
        {
          "internalType": "uint256",
          "name": "",
          "type": "uint256"
        }
      ],
      "name": "syntheticToken_priceSnapshot",
      "outputs": [
        {
          "internalType": "uint256",
          "name": "",
          "type": "uint256"
        }
      ],
      "stateMutability": "view",
      "type": "function"
    },
    {
      "inputs": [
        {
          "internalType": "uint32",
          "name": "",
          "type": "uint32"
        },
        {
          "internalType": "bool",
          "name": "",
          "type": "bool"
        }
      ],
      "name": "syntheticTokens",
      "outputs": [
        {
          "internalType": "address",
          "name": "",
          "type": "address"
        }
      ],
      "stateMutability": "view",
      "type": "function"
    },
    {
      "inputs": [],
      "name": "tokenFactory",
      "outputs": [
        {
          "internalType": "address",
          "name": "",
          "type": "address"
        }
      ],
      "stateMutability": "view",
      "type": "function"
    },
    {
      "inputs": [
        {
          "internalType": "uint32",
          "name": "marketIndex",
          "type": "uint32"
        },
        {
          "internalType": "address",
          "name": "_newOracleManager",
          "type": "address"
        }
      ],
      "name": "updateMarketOracle",
      "outputs": [],
      "stateMutability": "nonpayable",
      "type": "function"
    },
    {
      "inputs": [
        {
          "internalType": "uint32",
          "name": "marketIndex",
          "type": "uint32"
        }
      ],
      "name": "updateSystemState",
      "outputs": [],
      "stateMutability": "nonpayable",
      "type": "function"
    },
    {
      "inputs": [
        {
          "internalType": "uint32[]",
          "name": "marketIndexes",
          "type": "uint32[]"
        }
      ],
      "name": "updateSystemStateMulti",
      "outputs": [],
      "stateMutability": "nonpayable",
      "type": "function"
    },
    {
      "inputs": [
        {
          "internalType": "address",
          "name": "newImplementation",
          "type": "address"
        }
      ],
      "name": "upgradeTo",
      "outputs": [],
      "stateMutability": "nonpayable",
      "type": "function"
    },
    {
      "inputs": [
        {
          "internalType": "address",
          "name": "newImplementation",
          "type": "address"
        },
        {
          "internalType": "bytes",
          "name": "data",
          "type": "bytes"
        }
      ],
      "name": "upgradeToAndCall",
      "outputs": [],
      "stateMutability": "payable",
      "type": "function"
    },
    {
      "inputs": [
        {
          "internalType": "uint32",
          "name": "",
          "type": "uint32"
        },
        {
          "internalType": "address",
          "name": "",
          "type": "address"
        }
      ],
      "name": "userNextPrice_currentUpdateIndex",
      "outputs": [
        {
          "internalType": "uint256",
          "name": "",
          "type": "uint256"
        }
      ],
      "stateMutability": "view",
      "type": "function"
    },
    {
      "inputs": [
        {
          "internalType": "uint32",
          "name": "",
          "type": "uint32"
        },
        {
          "internalType": "bool",
          "name": "",
          "type": "bool"
        },
        {
          "internalType": "address",
          "name": "",
          "type": "address"
        }
      ],
      "name": "userNextPrice_paymentToken_depositAmount",
      "outputs": [
        {
          "internalType": "uint256",
          "name": "",
          "type": "uint256"
        }
      ],
      "stateMutability": "view",
      "type": "function"
    },
    {
      "inputs": [
        {
          "internalType": "uint32",
          "name": "",
          "type": "uint32"
        },
        {
          "internalType": "bool",
          "name": "",
          "type": "bool"
        },
        {
          "internalType": "address",
          "name": "",
          "type": "address"
        }
      ],
      "name": "userNextPrice_syntheticToken_redeemAmount",
      "outputs": [
        {
          "internalType": "uint256",
          "name": "",
          "type": "uint256"
        }
      ],
      "stateMutability": "view",
      "type": "function"
    },
    {
      "inputs": [
        {
          "internalType": "uint32",
          "name": "",
          "type": "uint32"
        },
        {
          "internalType": "bool",
          "name": "",
          "type": "bool"
        },
        {
          "internalType": "address",
          "name": "",
          "type": "address"
        }
      ],
      "name": "userNextPrice_syntheticToken_toShiftAwayFrom_marketSide",
      "outputs": [
        {
          "internalType": "uint256",
          "name": "",
          "type": "uint256"
        }
      ],
      "stateMutability": "view",
      "type": "function"
    },
    {
      "inputs": [
        {
          "internalType": "uint32",
          "name": "",
          "type": "uint32"
        }
      ],
      "name": "yieldManagers",
      "outputs": [
        {
          "internalType": "address",
          "name": "",
          "type": "address"
        }
      ],
      "stateMutability": "view",
      "type": "function"
    }
  ],
  "bytecode": "0x60a06040523060601b60805234801561001757600080fd5b5060805160601c615f0c6200004c600039600081816117a5015281816117e501528181611a920152611ad20152615f0c6000f3fe6080604052600436106103e45760003560e01c80637a0e94f011610208578063c2e1247111610118578063eeb02352116100ab578063f72c0d8b1161007a578063f72c0d8b146114ec578063f7cbb68714611520578063f80c9b9214611540578063f8c8765e14611579578063fea5d0e314611599576103e4565b8063eeb023521461141c578063f05575351461143c578063f41cb19514611495578063f68a327f146114cc576103e4565b8063d88905c9116100e7578063d88905c91461139b578063da04ce14146113bb578063e6b604e0146113db578063e77772fe146113fb576103e4565b8063c2e1247114610fc3578063c6c907a414610fe3578063cb6c192814611059578063d547741f1461137b576103e4565b806392f6fe801161019b578063b054c4a11161016a578063b054c4a114610eb0578063b36f537414610ef2578063b3c7e21814610f23578063bb0a452914610f5c578063c2b8007214610f84576103e4565b806392f6fe8014610e0b5780639c5b0ee314610e2b5780639dc39e0f14610e62578063a217fddf14610e9b576103e4565b80638900bdfa116101d75780638900bdfa14610d7d578063897a078614610dab57806391a9fa6114610dcb57806391d1485414610deb576103e4565b80637a0e94f014610c1857806381073f0f14610c3857806384ddb44d14610cf4578063867dfc6d14610d5d576103e4565b80633d6a2b3f1161030357806364d16f53116102965780636c8d2b97116102655780636c8d2b9714610ad55780636f486c5b14610af557806371fd962314610b3457806374108d6314610b5457806375b238fc14610be4576103e4565b806364d16f5314610a3b57806364e4a81d14610a5b578063682ad28614610a945780636c30505514610ab4576103e4565b80635ebaf1db116102d25780635ebaf1db146109b2578063602aabab146109da578063636190c814610a0857806363eddd6814610946576103e4565b80633d6a2b3f146108f35780634f1ef28614610913578063538da5b21461092657806355ed213614610946576103e4565b8063216a56a81161037b578063348986841161034a578063348986841461083b57806334daaa251461087a57806336568abe146108b35780633659cfe6146108d3576103e4565b8063216a56a81461067a578063248a9ca31461073657806326cf3e7d146107665780632f2ff15d1461081b576103e4565b806314c88ffa116103b757806314c88ffa146105605780631badf5c01461058e5780631e44a019146105dd57806321658e481461064c576103e4565b806301ffc9a7146103e957806305c8146f1461041e5780630e5140dc146104405780631347e6ec1461048d575b600080fd5b3480156103f557600080fd5b506104096104043660046150ee565b6116a6565b60405190151581526020015b60405180910390f35b34801561042a57600080fd5b5061043e61043936600461529e565b6116df565b005b34801561044c57600080fd5b5061047f61045b3660046154fd565b6101c360209081526000938452604080852082529284528284209052825290205481565b604051908152602001610415565b34801561049957600080fd5b5061043e6104a8366004615394565b63ffffffff9790971660008181526101c360209081526040808320981580158085529983528184206001600160a01b039b8c16808652908452828520989098558484526101c0835281842097845296825280832086905583835261018f82528083209883528882528083208684528252808320949094558582529687528281209381529286528183209790975595815261018d8452858120918152925292902080546001600160a01b03191692909116919091179055565b34801561056c57600080fd5b5061047f61057b36600461529e565b61015a6020526000908152604090205481565b34801561059a57600080fd5b506105c56105a936600461529e565b61015f602052600090815260409020546001600160a01b031681565b6040516001600160a01b039091168152602001610415565b3480156105e957600080fd5b5061043e6105f83660046152e3565b63ffffffff92909216600090815261018d602090815260408083206001845290915280822080546001600160a01b039485166001600160a01b03199182161790915582805291208054929093169116179055565b34801561065857600080fd5b5061047f61066736600461529e565b61015b6020526000908152604090205481565b34801561068657600080fd5b5061043e610695366004615320565b63ffffffff9690961660008181526101c1602090815260408083209715158084529782528083206001600160a01b03998a16808552908352818420969096558383526101c0825280832095835294815284822084905582825261018f8152848220878352815284822093825292835283812097909755865261018d815281862093865292909252922080546001600160a01b03191692909116919091179055565b34801561074257600080fd5b5061047f6107513660046150a7565b60009081526065602052604090206001015490565b34801561077257600080fd5b5061043e610781366004615320565b63ffffffff9690961660008181526101c2602090815260408083209715158084529782528083206001600160a01b03998a16808552908352818420969096558383526101c0825280832095835294815284822084905582825261018f81528482209682529586528381209281529185528282209690965594855261015e909252922080546001600160a01b03191692909116919091179055565b34801561082757600080fd5b5061043e6108363660046150bf565b6116eb565b34801561084757600080fd5b5061047f6108563660046154fd565b6101c260209081526000938452604080852082529284528284209052825290205481565b34801561088657600080fd5b5061047f6108953660046154d2565b61019160209081526000928352604080842090915290825290205481565b3480156108bf57600080fd5b5061043e6108ce3660046150bf565b611717565b3480156108df57600080fd5b5061043e6108ee366004614da6565b61179a565b3480156108ff57600080fd5b5061043e61090e3660046151d4565b611860565b61043e610921366004614efd565b611a87565b34801561093257600080fd5b5061043e61094136600461501b565b611b3d565b34801561095257600080fd5b5061043e61096136600461560e565b63ffffffff93909316600090815261015a602090815260408083209490945561018d8152838220941515825293909352912080546001600160a01b0319166001600160a01b03909216919091179055565b3480156109be57600080fd5b50610128546105c590600160201b90046001600160a01b031681565b3480156109e657600080fd5b5061047f6109f536600461529e565b61015c6020526000908152604090205481565b348015610a1457600080fd5b5061012854610a269063ffffffff1681565b60405163ffffffff9091168152602001610415565b348015610a4757600080fd5b5061043e610a563660046152b8565b611bc2565b348015610a6757600080fd5b5061047f610a763660046154d2565b61019060209081526000928352604080842090915290825290205481565b348015610aa057600080fd5b5061043e610aaf3660046155e5565b611c48565b348015610ac057600080fd5b5061012a546105c5906001600160a01b031681565b348015610ae157600080fd5b5061043e610af036600461501b565b611c54565b348015610b0157600080fd5b5061047f610b1036600461552a565b61018f60209081526000938452604080852082529284528284209052825290205481565b348015610b4057600080fd5b5061043e610b4f366004615653565b611caf565b348015610b6057600080fd5b5061043e610b6f366004615821565b63ffffffff9690961660008181526101906020908152604080832060018085529083528184209990995582805280832097909755828252610191815286822088835281528682209590955580805285812093909355825261019283528382209482529390915281812092909255818052902055565b348015610bf057600080fd5b5061047f7fa49807205ce4d355092ef5a8a18f56e8913cf4a201fbe287825b095693c2177581565b348015610c2457600080fd5b5061043e610c33366004614e39565b611e76565b348015610c4457600080fd5b5061043e610c53366004615568565b610128805463ffffffff191663ffffffff95861617815595909316600090815261015860209081526040808320805460ff1916971515979097179096558654640100000000600160c01b031916600160201b6001600160a01b03958616021790965561018d86528481206001825290955283852080546001600160a01b03199081169284169290921790558480529290932080549092169216919091179055565b348015610d0057600080fd5b5061043e610d0f3660046152e3565b63ffffffff92909216600090815261015d6020908152604080832080546001600160a01b039586166001600160a01b03199182161790915561015e9092529091208054929093169116179055565b348015610d6957600080fd5b5061043e610d783660046155e5565b611ec6565b348015610d8957600080fd5b5061047f610d9836600461529e565b6101596020526000908152604090205481565b348015610db757600080fd5b5061043e610dc6366004614f9f565b611ed2565b348015610dd757600080fd5b5061043e610de63660046155e5565b611edc565b348015610df757600080fd5b50610409610e063660046150bf565b611ee8565b348015610e1757600080fd5b5061047f610e26366004615687565b611f13565b348015610e3757600080fd5b506105c5610e4636600461529e565b61015e602052600090815260409020546001600160a01b031681565b348015610e6e57600080fd5b5061047f610e7d3660046152b8565b6101c060209081526000928352604080842090915290825290205481565b348015610ea757600080fd5b5061047f600081565b348015610ebc57600080fd5b506105c5610ecb3660046154d2565b61018d6020908152600092835260408084209091529082529020546001600160a01b031681565b348015610efe57600080fd5b50610409610f0d36600461529e565b6101586020526000908152604090205460ff1681565b348015610f2f57600080fd5b5061047f610f3e3660046154d2565b61018e60209081526000928352604080842090915290825290205481565b348015610f6857600080fd5b506105c573f10a7f10a7f10a7f10a7f10a7f10a7f10a7f10a781565b348015610f9057600080fd5b5061047f610f9f3660046154fd565b6101c160209081526000938452604080852082529284528284209052825290205481565b348015610fcf57600080fd5b5061043e610fde3660046155e5565b611f69565b348015610fef57600080fd5b5061043e610ffe3660046156cc565b63ffffffff93909316600081815261018e60209081526040808320600184528252808320959095558180528482209390935590815261015e9091522080546001600160a01b0319166001600160a01b03909216919091179055565b34801561106557600080fd5b5061043e611074366004615708565b600161015860008e63ffffffff1663ffffffff16815260200190815260200160002060006101000a81548160ff0219169083151502179055508a61015a60008e63ffffffff1663ffffffff168152602001908152602001600020819055508961018f60008e63ffffffff1663ffffffff1681526020019081526020016000206000600115151515815260200190815260200160002060008d8152602001908152602001600020819055508861018f60008e63ffffffff1663ffffffff16815260200190815260200160002060008015151515815260200190815260200160002060008d8152602001908152602001600020819055508661018e60008e63ffffffff1663ffffffff16815260200190815260200160002060006001151515158152602001908152602001600020819055508561018e60008e63ffffffff1663ffffffff168152602001908152602001600020600080151515158152602001908152602001600020819055508761015960008e63ffffffff1663ffffffff168152602001908152602001600020819055508461015f60008e63ffffffff1663ffffffff16815260200190815260200160002060006101000a8154816001600160a01b0302191690836001600160a01b031602179055508261018d60008e63ffffffff1663ffffffff1681526020019081526020016000206000600115151515815260200190815260200160002060006101000a8154816001600160a01b0302191690836001600160a01b031602179055508161018d60008e63ffffffff1663ffffffff16815260200190815260200160002060008015151515815260200190815260200160002060006101000a8154816001600160a01b0302191690836001600160a01b031602179055508361012860046101000a8154816001600160a01b0302191690836001600160a01b03160217905550806101c060008e63ffffffff1663ffffffff1681526020019081526020016000206000866001600160a01b03166001600160a01b0316815260200190815260200160002081905550505050505050505050505050565b34801561138757600080fd5b5061043e6113963660046150bf565b611f75565b3480156113a757600080fd5b5061043e6113b636600461512e565b611f9b565b3480156113c757600080fd5b5061043e6113d63660046155e5565b612469565b3480156113e757600080fd5b5061043e6113f63660046155e5565b61248b565b34801561140757600080fd5b50610129546105c5906001600160a01b031681565b34801561142857600080fd5b5061043e6114373660046155e5565b612497565b34801561144857600080fd5b5061043e61145736600461548f565b63ffffffff90931660008181526101c0602090815260408083206001600160a01b0390961683529481528482209390935590815261015a9091522055565b3480156114a157600080fd5b506105c56114b036600461529e565b61015d602052600090815260409020546001600160a01b031681565b3480156114d857600080fd5b5061047f6114e7366004614fd3565b6124a3565b3480156114f857600080fd5b5061047f7f189ab7a9244df0848122154315af71fe140f3db0fe014031783b0946b8c9d2e381565b34801561152c57600080fd5b5061043e61153b3660046157bc565b61260f565b34801561154c57600080fd5b5061047f61155b3660046154d2565b61019260209081526000928352604080842090915290825290205481565b34801561158557600080fd5b5061043e611594366004614dde565b612949565b3480156115a557600080fd5b5061043e6115b4366004615411565b63ffffffff909816600081815261015860209081526040808320805460ff191660011790556101c082528083206001600160a01b03909b168084529a825280832089905583835261015a8252808320979097556101c18152868220981580158084528a83528884208c85528352888420979097558083529881528682208a8352815286822082905582825261018f81528682208683528082528783208984528252878320959095558882529384528581209681529583528486209190915584526101c3815282842094845284815282842086855281528284209690965582529184528181209281529190925290812055565b60006001600160e01b03198216637965db0b60e01b14806116d757506301ffc9a760e01b6001600160e01b03198316145b90505b919050565b6116e881612aaa565b50565b60008281526065602052604090206001015461170881335b612e5b565b6117128383612ebf565b505050565b6001600160a01b038116331461178c5760405162461bcd60e51b815260206004820152602f60248201527f416363657373436f6e74726f6c3a2063616e206f6e6c792072656e6f756e636560448201526e103937b632b9903337b91039b2b63360891b60648201526084015b60405180910390fd5b6117968282612f45565b5050565b306001600160a01b037f00000000000000000000000000000000000000000000000000000000000000001614156117e35760405162461bcd60e51b815260040161178390615a4c565b7f00000000000000000000000000000000000000000000000000000000000000006001600160a01b0316611815612fac565b6001600160a01b03161461183b5760405162461bcd60e51b815260040161178390615a98565b61184481612fda565b604080516000808252602082019092526116e891839190613005565b611868613149565b61012880546000919082906118829063ffffffff16615e0c565b91906101000a81548163ffffffff021916908363ffffffff16021790559050816001600160a01b031663edf565cc6040518163ffffffff1660e01b8152600401600060405180830381600087803b1580156118dc57600080fd5b505af11580156118f0573d6000803e3d6000fd5b5050505063ffffffff8116600081815261018d6020908152604080832060018452825280832080546001600160a01b03199081166001600160a01b038d811691909117909255848052828520805482168c841617905594845261015d8352818420805486168a831617905561015e83528184208054861688831617905561015f835281842080549095169088169081179094558051630ce74fc560e31b8152905163673a7e2893600480840194938390030190829087803b1580156119b457600080fd5b505af11580156119c8573d6000803e3d6000fd5b505050506040513d601f19601f820116820180604052508101906119ec9190615116565b61015960008363ffffffff1663ffffffff168152602001908152602001600020819055507f901e73890694712ca72bdc627d356f05f11be45e7ccf490a8d4924c393bcb5658187878761015960008763ffffffff1663ffffffff168152602001908152602001600020548f8f8f8f8c8c604051611a739b9a99989796959493929190615b32565b60405180910390a150505050505050505050565b306001600160a01b037f0000000000000000000000000000000000000000000000000000000000000000161415611ad05760405162461bcd60e51b815260040161178390615a4c565b7f00000000000000000000000000000000000000000000000000000000000000006001600160a01b0316611b02612fac565b6001600160a01b031614611b285760405162461bcd60e51b815260040161178390615a98565b611b3182612fda565b61179682826001613005565b8060005b81811015611bbc5760016101586000868685818110611b7057634e487b7160e01b600052603260045260246000fd5b9050602002016020810190611b85919061529e565b63ffffffff1681526020810191909152604001600020805460ff191691151591909117905580611bb481615df1565b915050611b41565b50505050565b611bca613149565b63ffffffff8216600081815261015f602090815260409182902080546001600160a01b038681166001600160a01b03198316811790935584519586521691840182905291830191909152907ffc4d69f373858d480cfc3f12e7cc7f9b12201291753ffc3babef0e7a8041979f906060015b60405180910390a1505050565b61179682826000611caf565b8060005b81811015611bbc57611c9d848483818110611c8357634e487b7160e01b600052603260045260246000fd5b9050602002016020810190611c98919061529e565b612aaa565b80611ca781615df1565b915050611c58565b3383611cba81612aaa565b611cc48282613175565b611ccc613276565b63ffffffff8516600090815261018d602090815260408083208615158452909152908190205490516323b872dd60e01b8152336004820152306024820152604481018690526001600160a01b03909116906323b872dd90606401602060405180830381600087803b158015611d4057600080fd5b505af1158015611d54573d6000803e3d6000fd5b505050506040513d601f19601f82011682018060405250810190611d78919061508b565b5063ffffffff851660009081526101c3602090815260408083208615158452825280832033845290915281208054869290611db4908490615c5c565b909155505063ffffffff8516600090815261015a6020526040812054611ddb906001615c5c565b63ffffffff871660008181526101c060209081526040808320338452825280832085905592825261019281528282208815158352905290812080549293508792909190611e29908490615c5c565b90915550506040517fd850f5d8405edb0730cd72e6bb9e228043c91fd591562543ea553efda14970b690611e669088908790899033908790615bb6565b60405180910390a1505050505050565b805160005b81811015611bbc57611eb484848381518110611ea757634e487b7160e01b600052603260045260246000fd5b6020026020010151613175565b80611ebe81615df1565b915050611e7b565b611796828260016132ea565b6117968282613175565b611796828260006132ea565b60009182526065602090815260408084206001600160a01b0393909316845291905290205460ff1690565b63ffffffff8416600090815261018f60209081526040808320851580158552818452828520868652845282852054908552908352818420858552909252822054611f5e868383613409565b979650505050505050565b61179682826001613428565b600082815260656020526040902060010154611f918133611703565b6117128383612f45565b611fa3613149565b6001600160a01b03831615801590611fc357506001600160a01b03821615155b8015611fd757506001600160a01b03811615155b611fe057600080fd5b6101288054600091908290611ffa9063ffffffff16615e0c565b91906101000a81548163ffffffff021916908363ffffffff16021790559050600061012860049054906101000a90046001600160a01b03169050826001600160a01b031663edf565cc6040518163ffffffff1660e01b8152600401600060405180830381600087803b15801561206f57600080fd5b505af1158015612083573d6000803e3d6000fd5b5050610129546040516001600160a01b03909116925063e6d3046791506120b0908c908c906020016159be565b60405160208183030381529060405289896040516020016120d292919061592b565b604051602081830303815290604052848660016040518663ffffffff1660e01b81526004016121059594939291906159f8565b602060405180830381600087803b15801561211f57600080fd5b505af1158015612133573d6000803e3d6000fd5b505050506040513d601f19601f820116820180604052508101906121579190614dc2565b63ffffffff8316600090815261018d602090815260408083206001845282529182902080546001600160a01b0319166001600160a01b03948516179055610129549151919092169163e6d30467916121b3918d918d9101615903565b60405160208183030381529060405289896040516020016121d59291906158e5565b604051602081830303815290604052848660006040518663ffffffff1660e01b81526004016122089594939291906159f8565b602060405180830381600087803b15801561222257600080fd5b505af1158015612236573d6000803e3d6000fd5b505050506040513d601f19601f8201168201806040525081019061225a9190614dc2565b63ffffffff8316600081815261018d60209081526040808320838052825280832080546001600160a01b03199081166001600160a01b039788161790915593835261015d8252808320805485168b871617905561015e82528083208054851689871617905561015f825280832080549094169489169485179093558251630ce74fc560e31b8152925163673a7e2893600480820194918390030190829087803b15801561230657600080fd5b505af115801561231a573d6000803e3d6000fd5b505050506040513d601f19601f8201168201806040525081019061233e9190615116565b61015960008463ffffffff1663ffffffff168152602001908152602001600020819055507f901e73890694712ca72bdc627d356f05f11be45e7ccf490a8d4924c393bcb5658261018d60008563ffffffff1663ffffffff1681526020019081526020016000206000600115151515815260200190815260200160002060009054906101000a90046001600160a01b031661018d60008663ffffffff1663ffffffff16815260200190815260200160002060008015151515815260200190815260200160002060009054906101000a90046001600160a01b03168861015960008863ffffffff1663ffffffff168152602001908152602001600020548e8e8e8e8d8d6040516124569b9a99989796959493929190615b32565b60405180910390a1505050505050505050565b612471613149565b63ffffffff909116600090815261015b6020526040902055565b61179682826000613428565b61179682826001611caf565b6000826124af816135df565b63ffffffff8416600090815261015a60209081526040808320546101c083528184206001600160a01b038a1685529092529091205480158015906124f35750818111155b156126055763ffffffff861660009081526101c160209081526040808320881515845282528083206001600160a01b038b168452909152902054801561256d5763ffffffff8716600090815261018f6020908152604080832089151584528252808320858452909152902054612569828261363c565b9550505b63ffffffff871660009081526101c3602090815260408083208915845282528083206001600160a01b038c16845290915290205480156126025763ffffffff8816600090815261018f602090815260408083208a1580855281845282852088865284528285205490158552908352818420878552909252909120546125f3838383613409565b6125fd9089615c5c565b975050505b50505b5050509392505050565b612617613149565b871580159061262557508515155b801561263057508415155b801561263b57508315155b801561264657508115155b61264f57600080fd5b63ffffffff89166000908152610158602052604090205460ff16156126ac5760405162461bcd60e51b8152602060048201526013602482015272185b1c9958591e481a5b9a5d1a585b1a5e9959606a1b6044820152606401611783565b6101285463ffffffff908116908a1611156126fa5760405162461bcd60e51b815260206004820152600e60248201526d0d2dcc8caf040e8dede40d0d2ced60931b6044820152606401611783565b63ffffffff8916600090815261015860209081526040808320805460ff1916600190811790915561015b835281842086905561015a90925290912055612740858a613662565b6802b5e3af16b18800008111158015612761575067016345785d8a00008110155b6127a25760405162461bcd60e51b8152602060048201526012602482015271496e636f7272656374206c6576657261676560701b6044820152606401611783565b63ffffffff8916600081815261015c602090815260408083208590556101285461018d835281842060018552909252808320548380529281902054905163b0956b5f60e01b815260048101949094526001600160a01b03928316602485015282166044840152606483018b9052608483018a905260a4830189905260c4830187905260e48301869052600160201b9004169063b0956b5f9061010401600060405180830381600087803b15801561285857600080fd5b505af115801561286c573d6000803e3d6000fd5b5050610128546040516317b4d3fb60e31b815263ffffffff8d16600482015260016024820152670de0b6b3a76400006044820181905260648201526084810189905260a48101899052600160201b9091046001600160a01b0316925063bda69fd8915060c401600060405180830381600087803b1580156128ec57600080fd5b505af1158015612900573d6000803e3d6000fd5b50506040805163ffffffff8d168152602081018990529081018490527f95eeb1c33a758f56bd880588063c2f122e39c8885929e5fbbbd57418b97e58d092506060019050612456565b600054610100900460ff1680612962575060005460ff16155b61297e5760405162461bcd60e51b815260040161178390615ae4565b600054610100900460ff161580156129a0576000805461ffff19166101011790555b6001600160a01b038516158015906129c057506001600160a01b03841615155b80156129d457506001600160a01b03831615155b80156129e857506001600160a01b03821615155b6129f157600080fd5b6129fa856138ab565b61012980546001600160a01b03199081166001600160a01b038781169182179093556101288054640100000000600160c01b031916600160201b8886169081029190911790915561012a80549093168685161790925560408051938916845260208401919091528201527f48aa6e6153c5dedbe00925ab3c8e28c6ce0c1a80652b3369f176065e797b45079060600160405180910390a18015612aa3576000805461ff00191690555b5050505050565b80612ab4816135df565b63ffffffff8216600090815261015f60209081526040808320548151630ce74fc560e31b815291516001600160a01b039091169263673a7e28926004808201939182900301818787803b158015612b0a57600080fd5b505af1158015612b1e573d6000803e3d6000fd5b505050506040513d601f19601f82011682018060405250810190612b429190615116565b63ffffffff8416600090815261015a602090815260408083205461015990925290912054919250908214801590612aa357600080612b808786613930565b63ffffffff8916600090815261018d602090815260408083206001845282528083205481516318160ddd60e01b815291519597509395509193612c299387936001600160a01b03909116926318160ddd9260048084019382900301818987803b158015612bec57600080fd5b505af1158015612c00573d6000803e3d6000fd5b505050506040513d601f19601f82011682018060405250810190612c249190615116565b61363c565b63ffffffff8916600090815261018d6020908152604080832083805282528083205481516318160ddd60e01b815291519495509293612c929387936001600160a01b03909116926318160ddd926004808301939282900301818987803b158015612bec57600080fd5b63ffffffff8a16600090815261015960205260409020889055905085612cb781615df1565b63ffffffff8b16600090815261015a6020908152604080832084905561018f825280832060018452808352818420858552835281842088905583805282528083208484529091528120849055909750905080612d148b8585613b57565b9092509050612d238287615c1b565b9550612d2f8186615c1b565b63ffffffff8c16600081815261018e60209081526040808320600184529091528082208a9055818052908190208390556101285490516317b4d3fb60e31b81526004810192909252602482018b905260448201879052606482018690526084820189905260a48201839052919650600160201b9091046001600160a01b03169063bda69fd89060c401600060405180830381600087803b158015612dd257600080fd5b505af1158015612de6573d6000803e3d6000fd5b50506040805163ffffffff8f168152602081018c90529081018c9052606081018990526080810188905260a0810187905260c081018690527f69e662f95898affac086a5bc1177755bdaf7f4a40a3880364c48012170ee57fe925060e001905060405180910390a15050505050505050505050565b612e658282611ee8565b61179657612e7d816001600160a01b03166014613e56565b612e88836020613e56565b604051602001612e99929190615949565b60408051601f198184030181529082905262461bcd60e51b8252611783916004016159e5565b612ec98282611ee8565b6117965760008281526065602090815260408083206001600160a01b03851684529091529020805460ff19166001179055612f013390565b6001600160a01b0316816001600160a01b0316837f2f8788117e7eff1d82e926ec794901d17c78024a50270940304540a733656f0d60405160405180910390a45050565b612f4f8282611ee8565b156117965760008281526065602090815260408083206001600160a01b0385168085529252808320805460ff1916905551339285917ff6391f5c32d9c69d2a47ea670b442974b53935d1edc7fd64eb21e047a839171b9190a45050565b7f360894a13ba1a3210667c828492db98dca3e2076cc3735a920a3ca505d382bbc546001600160a01b031690565b7f189ab7a9244df0848122154315af71fe140f3db0fe014031783b0946b8c9d2e36117968133611703565b600061300f612fac565b905061301a84614038565b6000835111806130275750815b156130385761303684846140dd565b505b7f4910fdfa16fed3260ed0e7147f7cc6da11a60208b5b9406d12a635614ffd9143805460ff16612aa357805460ff191660011781556040516001600160a01b03831660248201526130b790869060440160408051601f198184030181529190526020810180516001600160e01b0316631b2ce7f360e11b1790526140dd565b50805460ff191681556130c8612fac565b6001600160a01b0316826001600160a01b0316146131405760405162461bcd60e51b815260206004820152602f60248201527f45524331393637557067726164653a207570677261646520627265616b73206660448201526e75727468657220757067726164657360881b6064820152608401611783565b612aa3856141c8565b6131737fa49807205ce4d355092ef5a8a18f56e8913cf4a201fbe287825b095693c2177533612e5b565b565b63ffffffff811660009081526101c0602090815260408083206001600160a01b038616845290915290205480158015906131c5575063ffffffff8216600090815261015a60205260409020548111155b15611712576131d682846001614208565b6131e282846000614208565b6131ee8284600161436c565b6131fa8284600061436c565b613206828460016144a2565b613212828460006144a2565b63ffffffff821660008181526101c0602090815260408083206001600160a01b038816808552908352818420939093558051928352908201929092527fe03aa867e2345cc967d98e4c81f6b0707b5ef082d9d20bac3dcf95540acdeae49101611c3b565b61012854600160201b90046001600160a01b031633146131735761012a546040516324b4085360e21b81523360048201526001600160a01b03909116906392d0214c90602401600060405180830381600087803b1580156132d657600080fd5b505af1158015611bbc573d6000803e3d6000fd5b33836132f581612aaa565b6132ff8282613175565b613307613276565b61331185856145ec565b63ffffffff8516600090815261019060209081526040808320861515845290915281208054869290613344908490615c5c565b909155505063ffffffff851660009081526101c1602090815260408083208615158452825280832033845290915281208054869290613384908490615c5c565b909155505063ffffffff8516600090815261015a60205260408120546133ab906001615c5c565b63ffffffff871660009081526101c0602090815260408083203380855292529182902083905590519192507f50b8727b538cf16daeb79894e8bde5c1e975985071be8a8d7620675a5dddfc6b91611e6691899188918a918790615bb6565b6000816134168486615d39565b6134209190615ca2565b949350505050565b338361343381612aaa565b61343d8282613175565b613445613276565b63ffffffff8516600090815261018d602090815260408083208615158452909152908190205490516323b872dd60e01b8152336004820152306024820152604481018690526001600160a01b03909116906323b872dd90606401602060405180830381600087803b1580156134b957600080fd5b505af11580156134cd573d6000803e3d6000fd5b505050506040513d601f19601f820116820180604052508101906134f1919061508b565b5063ffffffff851660009081526101c260209081526040808320861515845282528083203384529091528120805486929061352d908490615c5c565b909155505063ffffffff8516600090815261015a6020526040812054613554906001615c5c565b63ffffffff871660008181526101c0602090815260408083203384528252808320859055928252610191815282822088151583529052908120805492935087929091906135a2908490615c5c565b90915550506040517f191d5f0d51691cdc223884e5321013c9663c6b337a07d550c538d9dcbbd6620390611e669088908790899033908790615bb6565b63ffffffff81166000908152610158602052604090205460ff166116e85760405162461bcd60e51b81526020600482015260146024820152731b585c9ad95d08191bd95cdb89dd08195e1a5cdd60621b6044820152606401611783565b60008161365184670de0b6b3a7640000615d39565b61365b9190615ca2565b9392505050565b670de0b6b3a76400008210156136ba5760405162461bcd60e51b815260206004820152601860248201527f496e73756666696369656e74206d61726b6574207365656400000000000000006044820152606401611783565b60006136c7836002615d39565b90506136d382826145ec565b63ffffffff8216600090815261015e6020526040908190205490516304831f7160e51b8152600481018390526001600160a01b0390911690639063ee2090602401600060405180830381600087803b15801561372e57600080fd5b505af1158015613742573d6000803e3d6000fd5b5050505063ffffffff8216600090815261018d6020908152604080832060018452909152908190205490516340c10f1960e01b815273f10a7f10a7f10a7f10a7f10a7f10a7f10a7f10a76004820152602481018590526001600160a01b03909116906340c10f1990604401600060405180830381600087803b1580156137c757600080fd5b505af11580156137db573d6000803e3d6000fd5b5050505063ffffffff8216600090815261018d60209081526040808320838052909152908190205490516340c10f1960e01b815273f10a7f10a7f10a7f10a7f10a7f10a7f10a7f10a76004820152602481018590526001600160a01b03909116906340c10f1990604401600060405180830381600087803b15801561385f57600080fd5b505af1158015613873573d6000803e3d6000fd5b5050505063ffffffff91909116600090815261018e602090815260408083206001845290915280822084905581805290209190915550565b600054610100900460ff16806138c4575060005460ff16155b6138e05760405162461bcd60e51b815260040161178390615ae4565b600054610100900460ff16158015613902576000805461ffff19166101011790555b61390a61462d565b6139126146b0565b61391b8261470e565b8015611796576000805461ff00191690555050565b63ffffffff82166000908152610159602090815260408083205461018e8352818420600185528084528285205485805293529083205491926139728385615c5c565b9050600080613983888787866147d7565b63ffffffff8a16600090815261015e602052604080822054905163452accd960e11b81526004810188905260248101849052939550919350916001600160a01b0390911690638a5599b290604401602060405180830381600087803b1580156139eb57600080fd5b505af11580156139ff573d6000803e3d6000fd5b505050506040513d601f19601f82011682018060405250810190613a239190615116565b90508015613a4f578215613a4257613a3b8188615c5c565b9650613a4f565b613a4c8187615c5c565b95505b6000613a5b888861484f565b90506000613a7187670de0b6b3a7640000615cb6565b63ffffffff8c16600090815261015c602052604090205483613a938a8e615d58565b613a9d9190615cb6565b613aa79190615cb6565b613ab19190615c74565b90506000811215613b0a57613ac581615e30565b905088811115613aed57620186a0613ae08a6201869f615cb6565b613aea9190615c74565b90505b613af7818a615d97565b9850613b038189615c5c565b9750613b49565b87811115613b3057620186a0613b23896201869f615cb6565b613b2d9190615c74565b90505b613b3a818a615c5c565b9850613b468189615d97565b97505b505050505050509250929050565b63ffffffff8316600090815261019060209081526040808320600184529091528120548190819081908015613bb95763ffffffff881660009081526101906020908152604080832060018452909152812055935083613bb6818861363c565b92505b5063ffffffff87166000908152610190602090815260408083208380529091529020548015613c145763ffffffff8816600090815261019060209081526040808320838052909152812055925082613c11818761363c565b91505b5063ffffffff8716600090815261019260209081526040808320600184529091529020548015613cac576000613c4a8289614865565b9050613c568187615d58565b9550613c628186615c1b565b9450613c6e8285615d58565b9350613c7b828989613409565b613c859084615c1b565b63ffffffff8a16600090815261019260209081526040808320600184529091528120559250505b5063ffffffff87166000908152610192602090815260408083208380529091529020548015613d42576000613ce18288614865565b9050613ced8186615d58565b9450613cf98187615c1b565b9550613d058284615d58565b9250613d1282888a613409565b613d1c9085615c1b565b63ffffffff8a166000908152610192602090815260408083208380529091528120559350505b5063ffffffff8716600090815261019160209081526040808320600184529091529020548015613db257613d768188614865565b613d809086615d58565b9450613d8c8184615d58565b63ffffffff89166000908152610191602090815260408083206001845290915281205592505b5063ffffffff87166000908152610191602090815260408083208380529091529020548015613e2057613de58187614865565b613def9085615d58565b9350613dfb8183615d58565b63ffffffff891660009081526101916020908152604080832083805290915281205591505b613e3388613e2e8688615c1b565b61487a565b613e3f8860018561497e565b613e4b8860008461497e565b505050935093915050565b60606000613e65836002615d39565b613e70906002615c5c565b67ffffffffffffffff811115613e9657634e487b7160e01b600052604160045260246000fd5b6040519080825280601f01601f191660200182016040528015613ec0576020820181803683370190505b509050600360fc1b81600081518110613ee957634e487b7160e01b600052603260045260246000fd5b60200101906001600160f81b031916908160001a905350600f60fb1b81600181518110613f2657634e487b7160e01b600052603260045260246000fd5b60200101906001600160f81b031916908160001a9053506000613f4a846002615d39565b613f55906001615c5c565b90505b6001811115613fe9576f181899199a1a9b1b9c1cb0b131b232b360811b85600f1660108110613f9757634e487b7160e01b600052603260045260246000fd5b1a60f81b828281518110613fbb57634e487b7160e01b600052603260045260246000fd5b60200101906001600160f81b031916908160001a90535060049490941c93613fe281615dda565b9050613f58565b50831561365b5760405162461bcd60e51b815260206004820181905260248201527f537472696e67733a20686578206c656e67746820696e73756666696369656e746044820152606401611783565b803b61409c5760405162461bcd60e51b815260206004820152602d60248201527f455243313936373a206e657720696d706c656d656e746174696f6e206973206e60448201526c1bdd08184818dbdb9d1c9858dd609a1b6064820152608401611783565b7f360894a13ba1a3210667c828492db98dca3e2076cc3735a920a3ca505d382bbc80546001600160a01b0319166001600160a01b0392909216919091179055565b6060823b61413c5760405162461bcd60e51b815260206004820152602660248201527f416464726573733a2064656c65676174652063616c6c20746f206e6f6e2d636f6044820152651b9d1c9858dd60d21b6064820152608401611783565b600080846001600160a01b03168460405161415791906158c9565b600060405180830381855af49150503d8060008114614192576040519150601f19603f3d011682016040523d82523d6000602084013e614197565b606091505b50915091506141bf8282604051806060016040528060278152602001615eb060279139614aab565b95945050505050565b6141d181614038565b6040516001600160a01b038216907fbc7cd75a20ee27fd9adebab32041f755214dbc6bffa90cc0225b39da2e5c2d3b90600090a250565b63ffffffff831660009081526101c160209081526040808320841515845282528083206001600160a01b03861684529091529020548015611bbc5763ffffffff841660008181526101c1602090815260408083208615158085529083528184206001600160a01b03891680865290845282852085905585855261018f84528285209185529083528184209484526101c083528184209084528252808320548352929052908120546142ba90839061363c565b63ffffffff8616600090815261018d6020908152604080832087151584529091529081902054905163a9059cbb60e01b81526001600160a01b0387811660048301526024820184905292935091169063a9059cbb90604401602060405180830381600087803b15801561432c57600080fd5b505af1158015614340573d6000803e3d6000fd5b505050506040513d601f19601f82011682018060405250810190614364919061508b565b505050505050565b63ffffffff831660009081526101c260209081526040808320841515845282528083206001600160a01b03861684529091529020548015611bbc5763ffffffff841660008181526101c2602090815260408083208615158085529083528184206001600160a01b03891680865290845282852085905585855261018f84528285209185529083528184209484526101c0835281842090845282528083205483529290529081205461441e908390614865565b63ffffffff8616600090815261015e6020526040908190205490516375b5ffd160e11b81526001600160a01b0387811660048301526024820184905292935091169063eb6bffa290604401600060405180830381600087803b15801561448357600080fd5b505af1158015614497573d6000803e3d6000fd5b505050505050505050565b63ffffffff831660009081526101c360209081526040808320841515845282528083206001600160a01b03861684529091529020548015611bbc5763ffffffff841660009081526101c0602090815260408083206001600160a01b038716845290915281205461451790869084908690611f13565b63ffffffff861660008181526101c3602090815260408083208815801585529083528184206001600160a01b038b811680875291855283862086905595855261018d845282852091855292529182902054915163a9059cbb60e01b8152600481019190915260248101849052929350169063a9059cbb90604401602060405180830381600087803b1580156145ab57600080fd5b505af11580156145bf573d6000803e3d6000fd5b505050506040513d601f19601f820116820180604052508101906145e3919061508b565b612aa357600080fd5b63ffffffff808316600090815261015e602090815260408083205461015d90925290912054611796926001600160a01b0391821692339216908590614ae416565b600054610100900460ff1680614646575060005460ff16155b6146625760405162461bcd60e51b815260040161178390615ae4565b600054610100900460ff16158015614684576000805461ffff19166101011790555b61468c614b3e565b614694614b3e565b61469c614b3e565b80156116e8576000805461ff001916905550565b600054610100900460ff16806146c9575060005460ff16155b6146e55760405162461bcd60e51b815260040161178390615ae4565b600054610100900460ff1615801561468c576000805461ffff1916610101179055614694614b3e565b600054610100900460ff1680614727575060005460ff16155b6147435760405162461bcd60e51b815260040161178390615ae4565b600054610100900460ff16158015614765576000805461ffff19166101011790555b6001600160a01b03821661477857600080fd5b614783600083614ba8565b6147ad7fa49807205ce4d355092ef5a8a18f56e8913cf4a201fbe287825b095693c2177583614ba8565b61391b7f189ab7a9244df0848122154315af71fe140f3db0fe014031783b0946b8c9d2e383614ba8565b81831060008082156147ec57508484036147f1565b508385035b63ffffffff8716600090815261015b602052604081205485906148149084615d39565b61481e9190615ca2565b9050600061483482670de0b6b3a764000061484f565b905080670de0b6b3a764000003935050505094509492505050565b600081831061485e578161365b565b5090919050565b6000670de0b6b3a76400006136518385615d39565b60008113156148fb5763ffffffff8216600090815261015e6020526040908190205490516304831f7160e51b8152600481018390526001600160a01b0390911690639063ee2090602401600060405180830381600087803b1580156148de57600080fd5b505af11580156148f2573d6000803e3d6000fd5b50505050611796565b60008112156117965763ffffffff8216600090815261015e60205260409020546001600160a01b0316631c499b5561493283615e30565b6040518263ffffffff1660e01b815260040161495091815260200190565b600060405180830381600087803b15801561496a57600080fd5b505af1158015614364573d6000803e3d6000fd5b6000811315614a125763ffffffff8316600090815261018d602090815260408083208515158452909152908190205490516340c10f1960e01b8152306004820152602481018390526001600160a01b03909116906340c10f1990604401600060405180830381600087803b1580156149f557600080fd5b505af1158015614a09573d6000803e3d6000fd5b50505050611712565b60008112156117125763ffffffff8316600090815261018d6020908152604080832085151584529091529020546001600160a01b03166342966c68614a5683615e30565b6040518263ffffffff1660e01b8152600401614a7491815260200190565b600060405180830381600087803b158015614a8e57600080fd5b505af1158015614aa2573d6000803e3d6000fd5b50505050505050565b60608315614aba57508161365b565b825115614aca5782518084602001fd5b8160405162461bcd60e51b815260040161178391906159e5565b604080516001600160a01b0385811660248301528416604482015260648082018490528251808303909101815260849091019091526020810180516001600160e01b03166323b872dd60e01b179052611bbc908590614bb2565b600054610100900460ff1680614b57575060005460ff16155b614b735760405162461bcd60e51b815260040161178390615ae4565b600054610100900460ff1615801561469c576000805461ffff191661010117905580156116e8576000805461ff001916905550565b6117968282612ebf565b6000614c07826040518060400160405280602081526020017f5361666545524332303a206c6f772d6c6576656c2063616c6c206661696c6564815250856001600160a01b0316614c849092919063ffffffff16565b8051909150156117125780806020019051810190614c25919061508b565b6117125760405162461bcd60e51b815260206004820152602a60248201527f5361666545524332303a204552433230206f7065726174696f6e20646964206e6044820152691bdd081cdd58d8d9595960b21b6064820152608401611783565b6060613420848460008585843b614cdd5760405162461bcd60e51b815260206004820152601d60248201527f416464726573733a2063616c6c20746f206e6f6e2d636f6e74726163740000006044820152606401611783565b600080866001600160a01b03168587604051614cf991906158c9565b60006040518083038185875af1925050503d8060008114614d36576040519150601f19603f3d011682016040523d82523d6000602084013e614d3b565b606091505b5091509150611f5e828286614aab565b60008083601f840112614d5c578182fd5b50813567ffffffffffffffff811115614d73578182fd5b602083019150836020828501011115614d8b57600080fd5b9250929050565b803563ffffffff811681146116da57600080fd5b600060208284031215614db7578081fd5b813561365b81615e8c565b600060208284031215614dd3578081fd5b815161365b81615e8c565b60008060008060808587031215614df3578283fd5b8435614dfe81615e8c565b93506020850135614e0e81615e8c565b92506040850135614e1e81615e8c565b91506060850135614e2e81615e8c565b939692955090935050565b60008060408385031215614e4b578182fd5b8235614e5681615e8c565b915060208381013567ffffffffffffffff80821115614e73578384fd5b818601915086601f830112614e86578384fd5b813581811115614e9857614e98615e76565b8060051b9150614ea9848301615bea565b8181528481019084860184860187018b1015614ec3578788fd5b8795505b83861015614eec57614ed881614d92565b835260019590950194918601918601614ec7565b508096505050505050509250929050565b60008060408385031215614f0f578182fd5b8235614f1a81615e8c565b915060208381013567ffffffffffffffff80821115614f37578384fd5b818601915086601f830112614f4a578384fd5b813581811115614f5c57614f5c615e76565b614f6e601f8201601f19168501615bea565b91508082528784828501011115614f83578485fd5b8084840185840137810190920192909252919491935090915050565b60008060408385031215614fb1578182fd5b8235614fbc81615e8c565b9150614fca60208401614d92565b90509250929050565b600080600060608486031215614fe7578283fd5b8335614ff281615e8c565b925061500060208501614d92565b9150604084013561501081615ea1565b809150509250925092565b6000806020838503121561502d578182fd5b823567ffffffffffffffff80821115615044578384fd5b818501915085601f830112615057578384fd5b813581811115615065578485fd5b8660208260051b8501011115615079578485fd5b60209290920196919550909350505050565b60006020828403121561509c578081fd5b815161365b81615ea1565b6000602082840312156150b8578081fd5b5035919050565b600080604083850312156150d1578182fd5b8235915060208301356150e381615e8c565b809150509250929050565b6000602082840312156150ff578081fd5b81356001600160e01b03198116811461365b578182fd5b600060208284031215615127578081fd5b5051919050565b600080600080600080600060a0888a031215615148578485fd5b873567ffffffffffffffff8082111561515f578687fd5b61516b8b838c01614d4b565b909950975060208a0135915080821115615183578687fd5b506151908a828b01614d4b565b90965094505060408801356151a481615e8c565b925060608801356151b481615e8c565b915060808801356151c481615e8c565b8091505092959891949750929550565b600080600080600080600080600060e08a8c0312156151f1578283fd5b893567ffffffffffffffff80821115615208578485fd5b6152148d838e01614d4b565b909b50995060208c013591508082111561522c578485fd5b506152398c828d01614d4b565b90985096505060408a013561524d81615e8c565b945060608a013561525d81615e8c565b935060808a013561526d81615e8c565b925060a08a013561527d81615e8c565b915060c08a013561528d81615e8c565b809150509295985092959850929598565b6000602082840312156152af578081fd5b61365b82614d92565b600080604083850312156152ca578182fd5b6152d383614d92565b915060208301356150e381615e8c565b6000806000606084860312156152f7578081fd5b61530084614d92565b9250602084013561531081615e8c565b9150604084013561501081615e8c565b600080600080600080600060e0888a03121561533a578081fd5b61534388614d92565b9650602088013561535381615e8c565b9550604088013561536381615ea1565b9450606088013561537381615e8c565b9699959850939660808101359560a0820135955060c0909101359350915050565b600080600080600080600080610100898b0312156153b0578182fd5b6153b989614d92565b975060208901356153c981615e8c565b965060408901356153d981615ea1565b955060608901356153e981615e8c565b979a969950949760808101359660a0820135965060c0820135955060e0909101359350915050565b60008060008060008060008060006101208a8c03121561542f578283fd5b6154388a614d92565b985060208a013561544881615e8c565b975060408a013561545881615ea1565b989b979a5097986060810135985060808101359760a0820135975060c0820135965060e08201359550610100909101359350915050565b600080600080608085870312156154a4578182fd5b6154ad85614d92565b935060208501356154bd81615e8c565b93969395505050506040820135916060013590565b600080604083850312156154e4578182fd5b6154ed83614d92565b915060208301356150e381615ea1565b600080600060608486031215615511578081fd5b61551a84614d92565b9250602084013561531081615ea1565b60008060006060848603121561553e578081fd5b61554784614d92565b9250602084013561555781615ea1565b929592945050506040919091013590565b60008060008060008060c08789031215615580578384fd5b61558987614d92565b9550602087013561559981615ea1565b94506155a760408801614d92565b935060608701356155b781615e8c565b925060808701356155c781615e8c565b915060a08701356155d781615e8c565b809150509295509295509295565b600080604083850312156155f7578182fd5b61560083614d92565b946020939093013593505050565b60008060008060808587031215615623578182fd5b61562c85614d92565b935060208501359250604085013561564381615e8c565b91506060850135614e2e81615ea1565b600080600060608486031215615667578081fd5b61567084614d92565b925060208401359150604084013561501081615ea1565b6000806000806080858703121561569c578182fd5b6156a585614d92565b93506020850135925060408501356156bc81615ea1565b9396929550929360600135925050565b600080600080608085870312156156e1578182fd5b6156ea85614d92565b935060208501359250604085013591506060850135614e2e81615e8c565b6000806000806000806000806000806000806101808d8f03121561572a578586fd5b6157338d614d92565b9b5060208d01359a5060408d0135995060608d0135985060808d0135975060a08d0135965060c08d0135955060e08d013561576d81615e8c565b94506101008d013561577e81615e8c565b93506101208d013561578f81615e8c565b92506101408d01356157a081615e8c565b809250506101608d013590509295989b509295989b509295989b565b60008060008060008060008060006101208a8c0312156157da578283fd5b6157e38a614d92565b9b60208b01359b5060408b01359a60608101359a506080810135995060a0810135985060c0810135975060e081013596506101000135945092505050565b600080600080600080600060e0888a03121561583b578081fd5b61584488614d92565b9960208901359950604089013598606081013598506080810135975060a0810135965060c00135945092505050565b60008284528282602086013780602084860101526020601f19601f85011685010190509392505050565b600081518084526158b5816020860160208601615dae565b601f01601f19169290920160200192915050565b600082516158db818460208701615dae565b9190910192915050565b600061667360f01b8252828460028401379101600201908152919050565b60006b0233637b0ba1029b437b93a160a51b82528284600c8401379101600c01908152919050565b600061199b60f21b8252828460028401379101600201908152919050565b60007f416363657373436f6e74726f6c3a206163636f756e742000000000000000000082528351615981816017850160208801615dae565b7001034b99036b4b9b9b4b733903937b6329607d1b60179184019182015283516159b2816028840160208801615dae565b01602801949350505050565b60006a0233637b0ba102637b733960ad1b82528284600b8401379101600b01908152919050565b60006020825261365b602083018461589d565b600060a08252615a0b60a083018861589d565b8281036020840152615a1d818861589d565b6001600160a01b03969096166040840152505063ffffffff929092166060830152151560809091015292915050565b6020808252602c908201527f46756e6374696f6e206d7573742062652063616c6c6564207468726f7567682060408201526b19195b1959d85d1958d85b1b60a21b606082015260800190565b6020808252602c908201527f46756e6374696f6e206d7573742062652063616c6c6564207468726f7567682060408201526b6163746976652070726f787960a01b606082015260800190565b6020808252602e908201527f496e697469616c697a61626c653a20636f6e747261637420697320616c72656160408201526d191e481a5b9a5d1a585b1a5e995960921b606082015260800190565b63ffffffff8c1681526001600160a01b038b811660208301528a8116604083015289811660608301526080820189905261012060a08301819052600091615b7c8483018a8c615873565b915083820360c0850152615b9182888a615873565b925080861660e085015280851661010085015250509c9b505050505050505050505050565b63ffffffff959095168552921515602085015260408401919091526001600160a01b03166060830152608082015260a00190565b604051601f8201601f1916810167ffffffffffffffff81118282101715615c1357615c13615e76565b604052919050565b600080821280156001600160ff1b0384900385131615615c3d57615c3d615e4a565b600160ff1b8390038412811615615c5657615c56615e4a565b50500190565b60008219821115615c6f57615c6f615e4a565b500190565b600082615c8357615c83615e60565b600160ff1b821460001984141615615c9d57615c9d615e4a565b500590565b600082615cb157615cb1615e60565b500490565b60006001600160ff1b0381841382841380821686840486111615615cdc57615cdc615e4a565b600160ff1b84871282811687830589121615615cfa57615cfa615e4a565b858712925087820587128484161615615d1557615d15615e4a565b87850587128184161615615d2b57615d2b615e4a565b505050929093029392505050565b6000816000190483118215151615615d5357615d53615e4a565b500290565b60008083128015600160ff1b850184121615615d7657615d76615e4a565b6001600160ff1b0384018313811615615d9157615d91615e4a565b50500390565b600082821015615da957615da9615e4a565b500390565b60005b83811015615dc9578181015183820152602001615db1565b83811115611bbc5750506000910152565b600081615de957615de9615e4a565b506000190190565b6000600019821415615e0557615e05615e4a565b5060010190565b600063ffffffff80831681811415615e2657615e26615e4a565b6001019392505050565b6000600160ff1b821415615e4657615e46615e4a565b0390565b634e487b7160e01b600052601160045260246000fd5b634e487b7160e01b600052601260045260246000fd5b634e487b7160e01b600052604160045260246000fd5b6001600160a01b03811681146116e857600080fd5b80151581146116e857600080fdfe416464726573733a206c6f772d6c6576656c2064656c65676174652063616c6c206661696c6564a2646970667358221220793ad73d44d6535291538248adec7fca96e5e58ba12aa60901d7b0632050b01a64736f6c63430008030033",
  "linkReferences": {},
  "deployedLinkReferences": {}
}