{
  "_format": "hh-sol-artifact-1",
  "contractName": "LongShortForInternalMocking",
  "sourceName": "contracts/testing/generated/LongShortForInternalMocking.sol",
  "abi": [
    {
      "inputs": [
        {
          "internalType": "uint32",
          "name": "",
          "type": "uint32"
        },
        {
          "internalType": "uint256",
          "name": "",
          "type": "uint256"
        },
        {
          "internalType": "uint256",
          "name": "",
          "type": "uint256"
        }
      ],
      "name": "_batchConfirmOutstandingPendingActionsMock",
      "outputs": [
        {
          "internalType": "int256",
          "name": "long_changeInMarketValue_inPaymentToken",
          "type": "int256"
        },
        {
          "internalType": "int256",
          "name": "short_changeInMarketValue_inPaymentToken",
          "type": "int256"
        }
      ],
      "stateMutability": "pure",
      "type": "function"
    },
    {
      "inputs": [
        {
          "internalType": "uint32",
          "name": "",
          "type": "uint32"
        },
        {
          "internalType": "int256",
          "name": "",
          "type": "int256"
        }
      ],
      "name": "_claimAndDistributeYieldThenRebalanceMarketMock",
      "outputs": [
        {
          "internalType": "uint256",
          "name": "longValue",
          "type": "uint256"
        },
        {
          "internalType": "uint256",
          "name": "shortValue",
          "type": "uint256"
        }
      ],
      "stateMutability": "pure",
      "type": "function"
    },
    {
      "inputs": [
        {
          "internalType": "uint32",
          "name": "",
          "type": "uint32"
        },
        {
          "internalType": "address",
          "name": "",
          "type": "address"
        },
        {
          "internalType": "bool",
          "name": "",
          "type": "bool"
        }
      ],
      "name": "_executeOutstandingNextPriceMintsMock",
      "outputs": [],
      "stateMutability": "pure",
      "type": "function"
    },
    {
      "inputs": [
        {
          "internalType": "uint32",
          "name": "",
          "type": "uint32"
        },
        {
          "internalType": "address",
          "name": "",
          "type": "address"
        },
        {
          "internalType": "bool",
          "name": "",
          "type": "bool"
        }
      ],
      "name": "_executeOutstandingNextPriceRedeemsMock",
      "outputs": [],
      "stateMutability": "pure",
      "type": "function"
    },
    {
      "inputs": [
        {
          "internalType": "address",
          "name": "",
          "type": "address"
        },
        {
          "internalType": "uint32",
          "name": "",
          "type": "uint32"
        }
      ],
      "name": "_executeOutstandingNextPriceSettlementsMock",
      "outputs": [],
      "stateMutability": "pure",
      "type": "function"
    },
    {
      "inputs": [
        {
          "internalType": "uint32",
          "name": "",
          "type": "uint32"
        },
        {
          "internalType": "address",
          "name": "",
          "type": "address"
        },
        {
          "internalType": "bool",
          "name": "",
          "type": "bool"
        }
      ],
      "name": "_executeOutstandingNextPriceTokenShiftsMock",
      "outputs": [],
      "stateMutability": "pure",
      "type": "function"
    },
    {
      "inputs": [
        {
          "internalType": "uint256",
          "name": "",
          "type": "uint256"
        },
        {
          "internalType": "uint256",
          "name": "",
          "type": "uint256"
        }
      ],
      "name": "_getAmountPaymentTokenMock",
      "outputs": [
        {
          "internalType": "uint256",
          "name": "amountPaymentToken",
          "type": "uint256"
        }
      ],
      "stateMutability": "pure",
      "type": "function"
    },
    {
      "inputs": [
        {
          "internalType": "uint256",
          "name": "",
          "type": "uint256"
        },
        {
          "internalType": "uint256",
          "name": "",
          "type": "uint256"
        }
      ],
      "name": "_getAmountSyntheticTokenMock",
      "outputs": [
        {
          "internalType": "uint256",
          "name": "amountSyntheticToken",
          "type": "uint256"
        }
      ],
      "stateMutability": "pure",
      "type": "function"
    },
    {
      "inputs": [
        {
          "internalType": "uint256",
          "name": "",
          "type": "uint256"
        },
        {
          "internalType": "uint256",
          "name": "",
          "type": "uint256"
        },
        {
          "internalType": "uint256",
          "name": "",
          "type": "uint256"
        }
      ],
      "name": "_getEquivalentAmountSyntheticTokensOnTargetSideMock",
      "outputs": [
        {
          "internalType": "uint256",
          "name": "equivalentAmountSyntheticTokensOnTargetSide",
          "type": "uint256"
        }
      ],
      "stateMutability": "pure",
      "type": "function"
    },
    {
      "inputs": [
        {
          "internalType": "uint256",
          "name": "",
          "type": "uint256"
        },
        {
          "internalType": "uint256",
          "name": "",
          "type": "uint256"
        }
      ],
      "name": "_getSyntheticTokenPriceMock",
      "outputs": [
        {
          "internalType": "uint256",
          "name": "syntheticTokenPrice",
          "type": "uint256"
        }
      ],
      "stateMutability": "pure",
      "type": "function"
    },
    {
      "inputs": [
        {
          "internalType": "uint32",
          "name": "",
          "type": "uint32"
        },
        {
          "internalType": "uint256",
          "name": "",
          "type": "uint256"
        },
        {
          "internalType": "uint256",
          "name": "",
          "type": "uint256"
        },
        {
          "internalType": "uint256",
          "name": "",
          "type": "uint256"
        }
      ],
      "name": "_getYieldSplitMock",
      "outputs": [
        {
          "internalType": "bool",
          "name": "isLongSideUnderbalanced",
          "type": "bool"
        },
        {
          "internalType": "uint256",
          "name": "treasuryYieldPercent_e18",
          "type": "uint256"
        }
      ],
      "stateMutability": "pure",
      "type": "function"
    },
    {
      "inputs": [
        {
          "internalType": "uint32",
          "name": "",
          "type": "uint32"
        },
        {
          "internalType": "bool",
          "name": "",
          "type": "bool"
        },
        {
          "internalType": "int256",
          "name": "",
          "type": "int256"
        }
      ],
      "name": "_handleChangeInSyntheticTokensTotalSupplyMock",
      "outputs": [],
      "stateMutability": "pure",
      "type": "function"
    },
    {
      "inputs": [
        {
          "internalType": "uint32",
          "name": "",
          "type": "uint32"
        },
        {
          "internalType": "int256",
          "name": "",
          "type": "int256"
        }
      ],
      "name": "_handleTotalPaymentTokenValueChangeForMarketWithYieldManagerMock",
      "outputs": [],
      "stateMutability": "pure",
      "type": "function"
    },
    {
      "inputs": [
        {
          "internalType": "uint32",
          "name": "",
          "type": "uint32"
        },
        {
          "internalType": "uint256",
          "name": "",
          "type": "uint256"
        },
        {
          "internalType": "bool",
          "name": "",
          "type": "bool"
        }
      ],
      "name": "_mintNextPriceMock",
      "outputs": [],
      "stateMutability": "pure",
      "type": "function"
    },
    {
      "inputs": [
        {
          "internalType": "uint32",
          "name": "",
          "type": "uint32"
        },
        {
          "internalType": "uint256",
          "name": "",
          "type": "uint256"
        },
        {
          "internalType": "bool",
          "name": "",
          "type": "bool"
        }
      ],
      "name": "_redeemNextPriceMock",
      "outputs": [],
      "stateMutability": "pure",
      "type": "function"
    },
    {
      "inputs": [
        {
          "internalType": "uint256",
          "name": "",
          "type": "uint256"
        },
        {
          "internalType": "uint32",
          "name": "",
          "type": "uint32"
        }
      ],
      "name": "_seedMarketInitiallyMock",
      "outputs": [],
      "stateMutability": "pure",
      "type": "function"
    },
    {
      "inputs": [
        {
          "internalType": "uint32",
          "name": "",
          "type": "uint32"
        },
        {
          "internalType": "uint256",
          "name": "",
          "type": "uint256"
        }
      ],
      "name": "_transferPaymentTokensFromUserToYieldManagerMock",
      "outputs": [],
      "stateMutability": "pure",
      "type": "function"
    },
    {
      "inputs": [
        {
          "internalType": "uint32",
          "name": "",
          "type": "uint32"
        }
      ],
      "name": "_updateSystemStateInternalMock",
      "outputs": [],
      "stateMutability": "pure",
      "type": "function"
    },
    {
      "inputs": [],
      "name": "adminOnlyModifierLogicMock",
      "outputs": [],
      "stateMutability": "pure",
      "type": "function"
    },
    {
      "inputs": [],
      "name": "gemCollectingModifierLogicMock",
      "outputs": [],
      "stateMutability": "pure",
      "type": "function"
    },
    {
      "inputs": [
        {
          "internalType": "uint32",
          "name": "",
          "type": "uint32"
        },
        {
          "internalType": "uint256",
          "name": "",
          "type": "uint256"
        },
        {
          "internalType": "bool",
          "name": "",
          "type": "bool"
        },
        {
          "internalType": "uint256",
          "name": "",
          "type": "uint256"
        }
      ],
      "name": "getAmountSyntheticTokenToMintOnTargetSideMock",
      "outputs": [
        {
          "internalType": "uint256",
          "name": "amountSyntheticTokensToMintOnTargetSide",
          "type": "uint256"
        }
      ],
      "stateMutability": "pure",
      "type": "function"
    },
    {
      "inputs": [
        {
          "internalType": "address",
          "name": "",
          "type": "address"
        },
        {
          "internalType": "uint32",
          "name": "",
          "type": "uint32"
        },
        {
          "internalType": "bool",
          "name": "",
          "type": "bool"
        }
      ],
      "name": "getUsersConfirmedButNotSettledSynthBalanceMock",
      "outputs": [
        {
          "internalType": "uint256",
          "name": "confirmedButNotSettledBalance",
          "type": "uint256"
        }
      ],
      "stateMutability": "pure",
      "type": "function"
    },
    {
      "inputs": [
        {
          "internalType": "address",
          "name": "",
          "type": "address"
        },
        {
          "internalType": "address",
          "name": "",
          "type": "address"
        },
        {
          "internalType": "address",
          "name": "",
          "type": "address"
        },
        {
          "internalType": "address",
          "name": "",
          "type": "address"
        }
      ],
      "name": "initializeMock",
      "outputs": [],
      "stateMutability": "pure",
      "type": "function"
    },
    {
      "inputs": [
        {
          "internalType": "uint32",
          "name": "",
          "type": "uint32"
        }
      ],
      "name": "requireMarketExistsModifierLogicMock",
      "outputs": [],
      "stateMutability": "pure",
      "type": "function"
    },
    {
      "inputs": [
        {
          "internalType": "uint32",
          "name": "",
          "type": "uint32"
        },
        {
          "internalType": "uint256",
          "name": "",
          "type": "uint256"
        },
        {
          "internalType": "bool",
          "name": "",
          "type": "bool"
        }
      ],
      "name": "shiftPositionNextPriceMock",
      "outputs": [],
      "stateMutability": "pure",
      "type": "function"
    }
  ],
  "bytecode": "0x608060405234801561001057600080fd5b5061076d806100206000396000f3fe608060405234801561001057600080fd5b50600436106101725760003560e01c8063645b6023116100de5780639de789a111610097578063d822b44f11610071578063d822b44f14610290578063e004571c14610238578063e13773dd146102ac578063e206ea681461024957610172565b80639de789a114610225578063a1a42aed1461029e578063a2434ca41461022557610172565b8063645b6023146102575780636c0a51b7146102695780637588635a1461027d57806387f4dda8146102045780638fc3d64b146102495780639b5a65f71461029057610172565b80635198282811610130578063519828281461022057806353f8d355146102205780635b2a1c47146102255780636208973d14610204578063635e98861461023857806363e207051461024957610172565b806278e592146101775780630eaa05b7146101a6578063106065eb146101ce5780631f0ae56e146101ef5780633afaeef914610204578063509bf54f14610212575b600080fd5b61018a6101853660046106f1565b6102bf565b6040805192151583526020830191909152015b60405180910390f35b6101b96101b43660046106bf565b610305565b6040805192835260208301919091520161019d565b6101e16101dc3660046104b2565b61034a565b60405190815260200161019d565b6102026101fd3660046105df565b505050565b005b6102026101fd366004610646565b6101e16101dc36600461054d565b610202565b6101e161023336600461052c565b61036f565b61020261024636600461059a565b50565b6102026101fd3660046105b4565b610202610265366004610480565b5050565b61020261027736600461042d565b50505050565b6101e161028b36600461067a565b610393565b61020261026536600461061d565b610202610265366004610578565b6101b96102ba36600461061d565b6103b9565b6040805160208101918290526000908190529081906102de90806104f8565b604080516020810191829052600090526102f89080610514565b9150915094509492505050565b6040805160208101918290526000908190529081906103249080610514565b6040805160208101918290526000905261033e9080610514565b91509150935093915050565b604080516020810191829052600090819052906103679080610514565b949350505050565b6040805160208101918290526000908190529061038c9080610514565b9392505050565b604080516020810191829052600090819052906103b09080610514565b95945050505050565b6040805160208101918290526000908190529081906103d89080610514565b604080516020810191829052600090526103f29080610514565b915091509250929050565b80356001600160a01b038116811461041457600080fd5b919050565b803563ffffffff8116811461041457600080fd5b60008060008060808587031215610442578384fd5b61044b856103fd565b9350610459602086016103fd565b9250610467604086016103fd565b9150610475606086016103fd565b905092959194509250565b60008060408385031215610492578182fd5b61049b836103fd565b91506104a960208401610419565b90509250929050565b6000806000606084860312156104c6578283fd5b6104cf846103fd565b92506104dd60208501610419565b915060408401356104ed81610729565b809150509250925092565b600060208284031215610509578081fd5b815161038c81610729565b600060208284031215610525578081fd5b5051919050565b6000806040838503121561053e578182fd5b50508035926020909101359150565b600080600060608486031215610561578283fd5b505081359360208301359350604090920135919050565b6000806040838503121561058a578182fd5b823591506104a960208401610419565b6000602082840312156105ab578081fd5b61038c82610419565b6000806000606084860312156105c8578283fd5b6105d184610419565b92506104dd602085016103fd565b6000806000606084860312156105f3578283fd5b6105fc84610419565b9250602084013561060c81610729565b929592945050506040919091013590565b6000806040838503121561062f578182fd5b61063883610419565b946020939093013593505050565b60008060006060848603121561065a578081fd5b61066384610419565b92506020840135915060408401356104ed81610729565b6000806000806080858703121561068f578182fd5b61069885610419565b93506020850135925060408501356106af81610729565b9396929550929360600135925050565b6000806000606084860312156106d3578081fd5b6106dc84610419565b95602085013595506040909401359392505050565b60008060008060808587031215610706578182fd5b61070f85610419565b966020860135965060408601359560600135945092505050565b801515811461024657600080fdfea26469706673582212206b0acaff3a2fe44f0a6d0cfd054d5860649b470c366500001307884e562c481164736f6c63430008030033",
  "linkReferences": {},
  "deployedLinkReferences": {}
}