{
  "_format": "hh-sol-artifact-1",
  "contractName": "FloatToken_Implementation",
  "sourceName": "contracts/DeployContractImplementations/FloatToken_Implementation.sol",
  "abi": [
    {
      "inputs": [],
      "stateMutability": "nonpayable",
      "type": "constructor"
    },
    {
      "anonymous": false,
      "inputs": [
        {
          "indexed": false,
          "internalType": "address",
          "name": "previousAdmin",
          "type": "address"
        },
        {
          "indexed": false,
          "internalType": "address",
          "name": "newAdmin",
          "type": "address"
        }
      ],
      "name": "AdminChanged",
      "type": "event"
    },
    {
      "anonymous": false,
      "inputs": [
        {
          "indexed": true,
          "internalType": "address",
          "name": "owner",
          "type": "address"
        },
        {
          "indexed": true,
          "internalType": "address",
          "name": "spender",
          "type": "address"
        },
        {
          "indexed": false,
          "internalType": "uint256",
          "name": "value",
          "type": "uint256"
        }
      ],
      "name": "Approval",
      "type": "event"
    },
    {
      "anonymous": false,
      "inputs": [
        {
          "indexed": true,
          "internalType": "address",
          "name": "beacon",
          "type": "address"
        }
      ],
      "name": "BeaconUpgraded",
      "type": "event"
    },
    {
      "anonymous": false,
      "inputs": [
        {
          "indexed": true,
          "internalType": "address",
          "name": "delegator",
          "type": "address"
        },
        {
          "indexed": true,
          "internalType": "address",
          "name": "fromDelegate",
          "type": "address"
        },
        {
          "indexed": true,
          "internalType": "address",
          "name": "toDelegate",
          "type": "address"
        }
      ],
      "name": "DelegateChanged",
      "type": "event"
    },
    {
      "anonymous": false,
      "inputs": [
        {
          "indexed": true,
          "internalType": "address",
          "name": "delegate",
          "type": "address"
        },
        {
          "indexed": false,
          "internalType": "uint256",
          "name": "previousBalance",
          "type": "uint256"
        },
        {
          "indexed": false,
          "internalType": "uint256",
          "name": "newBalance",
          "type": "uint256"
        }
      ],
      "name": "DelegateVotesChanged",
      "type": "event"
    },
    {
      "anonymous": false,
      "inputs": [
        {
          "indexed": false,
          "internalType": "address",
          "name": "account",
          "type": "address"
        }
      ],
      "name": "Paused",
      "type": "event"
    },
    {
      "anonymous": false,
      "inputs": [
        {
          "indexed": true,
          "internalType": "bytes32",
          "name": "role",
          "type": "bytes32"
        },
        {
          "indexed": true,
          "internalType": "bytes32",
          "name": "previousAdminRole",
          "type": "bytes32"
        },
        {
          "indexed": true,
          "internalType": "bytes32",
          "name": "newAdminRole",
          "type": "bytes32"
        }
      ],
      "name": "RoleAdminChanged",
      "type": "event"
    },
    {
      "anonymous": false,
      "inputs": [
        {
          "indexed": true,
          "internalType": "bytes32",
          "name": "role",
          "type": "bytes32"
        },
        {
          "indexed": true,
          "internalType": "address",
          "name": "account",
          "type": "address"
        },
        {
          "indexed": true,
          "internalType": "address",
          "name": "sender",
          "type": "address"
        }
      ],
      "name": "RoleGranted",
      "type": "event"
    },
    {
      "anonymous": false,
      "inputs": [
        {
          "indexed": true,
          "internalType": "bytes32",
          "name": "role",
          "type": "bytes32"
        },
        {
          "indexed": true,
          "internalType": "address",
          "name": "account",
          "type": "address"
        },
        {
          "indexed": true,
          "internalType": "address",
          "name": "sender",
          "type": "address"
        }
      ],
      "name": "RoleRevoked",
      "type": "event"
    },
    {
      "anonymous": false,
      "inputs": [
        {
          "indexed": true,
          "internalType": "address",
          "name": "from",
          "type": "address"
        },
        {
          "indexed": true,
          "internalType": "address",
          "name": "to",
          "type": "address"
        },
        {
          "indexed": false,
          "internalType": "uint256",
          "name": "value",
          "type": "uint256"
        }
      ],
      "name": "Transfer",
      "type": "event"
    },
    {
      "anonymous": false,
      "inputs": [
        {
          "indexed": false,
          "internalType": "address",
          "name": "account",
          "type": "address"
        }
      ],
      "name": "Unpaused",
      "type": "event"
    },
    {
      "anonymous": false,
      "inputs": [
        {
          "indexed": true,
          "internalType": "address",
          "name": "implementation",
          "type": "address"
        }
      ],
      "name": "Upgraded",
      "type": "event"
    },
    {
      "inputs": [],
      "name": "DEFAULT_ADMIN_ROLE",
      "outputs": [
        {
          "internalType": "bytes32",
          "name": "",
          "type": "bytes32"
        }
      ],
      "stateMutability": "view",
      "type": "function"
    },
    {
      "inputs": [],
      "name": "DOMAIN_SEPARATOR",
      "outputs": [
        {
          "internalType": "bytes32",
          "name": "",
          "type": "bytes32"
        }
      ],
      "stateMutability": "view",
      "type": "function"
    },
    {
      "inputs": [],
      "name": "MINTER_ROLE",
      "outputs": [
        {
          "internalType": "bytes32",
          "name": "",
          "type": "bytes32"
        }
      ],
      "stateMutability": "view",
      "type": "function"
    },
    {
      "inputs": [],
      "name": "PAUSER_ROLE",
      "outputs": [
        {
          "internalType": "bytes32",
          "name": "",
          "type": "bytes32"
        }
      ],
      "stateMutability": "view",
      "type": "function"
    },
    {
      "inputs": [],
      "name": "UPGRADER_ROLE",
      "outputs": [
        {
          "internalType": "bytes32",
          "name": "",
          "type": "bytes32"
        }
      ],
      "stateMutability": "view",
      "type": "function"
    },
    {
      "inputs": [
        {
          "internalType": "address",
          "name": "owner",
          "type": "address"
        },
        {
          "internalType": "address",
          "name": "spender",
          "type": "address"
        }
      ],
      "name": "allowance",
      "outputs": [
        {
          "internalType": "uint256",
          "name": "",
          "type": "uint256"
        }
      ],
      "stateMutability": "view",
      "type": "function"
    },
    {
      "inputs": [
        {
          "internalType": "address",
          "name": "spender",
          "type": "address"
        },
        {
          "internalType": "uint256",
          "name": "amount",
          "type": "uint256"
        }
      ],
      "name": "approve",
      "outputs": [
        {
          "internalType": "bool",
          "name": "",
          "type": "bool"
        }
      ],
      "stateMutability": "nonpayable",
      "type": "function"
    },
    {
      "inputs": [
        {
          "internalType": "address",
          "name": "account",
          "type": "address"
        }
      ],
      "name": "balanceOf",
      "outputs": [
        {
          "internalType": "uint256",
          "name": "",
          "type": "uint256"
        }
      ],
      "stateMutability": "view",
      "type": "function"
    },
    {
      "inputs": [
        {
          "internalType": "uint256",
          "name": "amount",
          "type": "uint256"
        }
      ],
      "name": "burn",
      "outputs": [],
      "stateMutability": "nonpayable",
      "type": "function"
    },
    {
      "inputs": [
        {
          "internalType": "address",
          "name": "account",
          "type": "address"
        },
        {
          "internalType": "uint256",
          "name": "amount",
          "type": "uint256"
        }
      ],
      "name": "burnFrom",
      "outputs": [],
      "stateMutability": "nonpayable",
      "type": "function"
    },
    {
      "inputs": [
        {
          "internalType": "address",
          "name": "account",
          "type": "address"
        },
        {
          "internalType": "uint32",
          "name": "pos",
          "type": "uint32"
        }
      ],
      "name": "checkpoints",
      "outputs": [
        {
          "components": [
            {
              "internalType": "uint32",
              "name": "fromBlock",
              "type": "uint32"
            },
            {
              "internalType": "uint224",
              "name": "votes",
              "type": "uint224"
            }
          ],
          "internalType": "struct ERC20VotesUpgradeable.Checkpoint",
          "name": "",
          "type": "tuple"
        }
      ],
      "stateMutability": "view",
      "type": "function"
    },
    {
      "inputs": [],
      "name": "decimals",
      "outputs": [
        {
          "internalType": "uint8",
          "name": "",
          "type": "uint8"
        }
      ],
      "stateMutability": "view",
      "type": "function"
    },
    {
      "inputs": [
        {
          "internalType": "address",
          "name": "spender",
          "type": "address"
        },
        {
          "internalType": "uint256",
          "name": "subtractedValue",
          "type": "uint256"
        }
      ],
      "name": "decreaseAllowance",
      "outputs": [
        {
          "internalType": "bool",
          "name": "",
          "type": "bool"
        }
      ],
      "stateMutability": "nonpayable",
      "type": "function"
    },
    {
      "inputs": [
        {
          "internalType": "address",
          "name": "delegatee",
          "type": "address"
        }
      ],
      "name": "delegate",
      "outputs": [],
      "stateMutability": "nonpayable",
      "type": "function"
    },
    {
      "inputs": [
        {
          "internalType": "address",
          "name": "delegatee",
          "type": "address"
        },
        {
          "internalType": "uint256",
          "name": "nonce",
          "type": "uint256"
        },
        {
          "internalType": "uint256",
          "name": "expiry",
          "type": "uint256"
        },
        {
          "internalType": "uint8",
          "name": "v",
          "type": "uint8"
        },
        {
          "internalType": "bytes32",
          "name": "r",
          "type": "bytes32"
        },
        {
          "internalType": "bytes32",
          "name": "s",
          "type": "bytes32"
        }
      ],
      "name": "delegateBySig",
      "outputs": [],
      "stateMutability": "nonpayable",
      "type": "function"
    },
    {
      "inputs": [
        {
          "internalType": "address",
          "name": "account",
          "type": "address"
        }
      ],
      "name": "delegates",
      "outputs": [
        {
          "internalType": "address",
          "name": "",
          "type": "address"
        }
      ],
      "stateMutability": "view",
      "type": "function"
    },
    {
      "inputs": [
        {
          "internalType": "uint256",
          "name": "blockNumber",
          "type": "uint256"
        }
      ],
      "name": "getPastTotalSupply",
      "outputs": [
        {
          "internalType": "uint256",
          "name": "",
          "type": "uint256"
        }
      ],
      "stateMutability": "view",
      "type": "function"
    },
    {
      "inputs": [
        {
          "internalType": "address",
          "name": "account",
          "type": "address"
        },
        {
          "internalType": "uint256",
          "name": "blockNumber",
          "type": "uint256"
        }
      ],
      "name": "getPastVotes",
      "outputs": [
        {
          "internalType": "uint256",
          "name": "",
          "type": "uint256"
        }
      ],
      "stateMutability": "view",
      "type": "function"
    },
    {
      "inputs": [
        {
          "internalType": "bytes32",
          "name": "role",
          "type": "bytes32"
        }
      ],
      "name": "getRoleAdmin",
      "outputs": [
        {
          "internalType": "bytes32",
          "name": "",
          "type": "bytes32"
        }
      ],
      "stateMutability": "view",
      "type": "function"
    },
    {
      "inputs": [
        {
          "internalType": "address",
          "name": "account",
          "type": "address"
        }
      ],
      "name": "getVotes",
      "outputs": [
        {
          "internalType": "uint256",
          "name": "",
          "type": "uint256"
        }
      ],
      "stateMutability": "view",
      "type": "function"
    },
    {
      "inputs": [
        {
          "internalType": "bytes32",
          "name": "role",
          "type": "bytes32"
        },
        {
          "internalType": "address",
          "name": "account",
          "type": "address"
        }
      ],
      "name": "grantRole",
      "outputs": [],
      "stateMutability": "nonpayable",
      "type": "function"
    },
    {
      "inputs": [
        {
          "internalType": "bytes32",
          "name": "role",
          "type": "bytes32"
        },
        {
          "internalType": "address",
          "name": "account",
          "type": "address"
        }
      ],
      "name": "hasRole",
      "outputs": [
        {
          "internalType": "bool",
          "name": "",
          "type": "bool"
        }
      ],
      "stateMutability": "view",
      "type": "function"
    },
    {
      "inputs": [
        {
          "internalType": "address",
          "name": "spender",
          "type": "address"
        },
        {
          "internalType": "uint256",
          "name": "addedValue",
          "type": "uint256"
        }
      ],
      "name": "increaseAllowance",
      "outputs": [
        {
          "internalType": "bool",
          "name": "",
          "type": "bool"
        }
      ],
      "stateMutability": "nonpayable",
      "type": "function"
    },
    {
      "inputs": [
        {
          "internalType": "string",
          "name": "name",
          "type": "string"
        },
        {
          "internalType": "string",
          "name": "symbol",
          "type": "string"
        },
        {
          "internalType": "address",
          "name": "stakerAddress",
          "type": "address"
        }
      ],
      "name": "initialize",
      "outputs": [],
      "stateMutability": "nonpayable",
      "type": "function"
    },
    {
      "inputs": [
        {
          "internalType": "address",
          "name": "to",
          "type": "address"
        },
        {
          "internalType": "uint256",
          "name": "amount",
          "type": "uint256"
        }
      ],
      "name": "mint",
      "outputs": [],
      "stateMutability": "nonpayable",
      "type": "function"
    },
    {
      "inputs": [],
      "name": "name",
      "outputs": [
        {
          "internalType": "string",
          "name": "",
          "type": "string"
        }
      ],
      "stateMutability": "view",
      "type": "function"
    },
    {
      "inputs": [
        {
          "internalType": "address",
          "name": "owner",
          "type": "address"
        }
      ],
      "name": "nonces",
      "outputs": [
        {
          "internalType": "uint256",
          "name": "",
          "type": "uint256"
        }
      ],
      "stateMutability": "view",
      "type": "function"
    },
    {
      "inputs": [
        {
          "internalType": "address",
          "name": "account",
          "type": "address"
        }
      ],
      "name": "numCheckpoints",
      "outputs": [
        {
          "internalType": "uint32",
          "name": "",
          "type": "uint32"
        }
      ],
      "stateMutability": "view",
      "type": "function"
    },
    {
      "inputs": [],
      "name": "pause",
      "outputs": [],
      "stateMutability": "nonpayable",
      "type": "function"
    },
    {
      "inputs": [],
      "name": "paused",
      "outputs": [
        {
          "internalType": "bool",
          "name": "",
          "type": "bool"
        }
      ],
      "stateMutability": "view",
      "type": "function"
    },
    {
      "inputs": [
        {
          "internalType": "address",
          "name": "owner",
          "type": "address"
        },
        {
          "internalType": "address",
          "name": "spender",
          "type": "address"
        },
        {
          "internalType": "uint256",
          "name": "value",
          "type": "uint256"
        },
        {
          "internalType": "uint256",
          "name": "deadline",
          "type": "uint256"
        },
        {
          "internalType": "uint8",
          "name": "v",
          "type": "uint8"
        },
        {
          "internalType": "bytes32",
          "name": "r",
          "type": "bytes32"
        },
        {
          "internalType": "bytes32",
          "name": "s",
          "type": "bytes32"
        }
      ],
      "name": "permit",
      "outputs": [],
      "stateMutability": "nonpayable",
      "type": "function"
    },
    {
      "inputs": [
        {
          "internalType": "bytes32",
          "name": "role",
          "type": "bytes32"
        },
        {
          "internalType": "address",
          "name": "account",
          "type": "address"
        }
      ],
      "name": "renounceRole",
      "outputs": [],
      "stateMutability": "nonpayable",
      "type": "function"
    },
    {
      "inputs": [
        {
          "internalType": "bytes32",
          "name": "role",
          "type": "bytes32"
        },
        {
          "internalType": "address",
          "name": "account",
          "type": "address"
        }
      ],
      "name": "revokeRole",
      "outputs": [],
      "stateMutability": "nonpayable",
      "type": "function"
    },
    {
      "inputs": [
        {
          "internalType": "bytes4",
          "name": "interfaceId",
          "type": "bytes4"
        }
      ],
      "name": "supportsInterface",
      "outputs": [
        {
          "internalType": "bool",
          "name": "",
          "type": "bool"
        }
      ],
      "stateMutability": "view",
      "type": "function"
    },
    {
      "inputs": [],
      "name": "symbol",
      "outputs": [
        {
          "internalType": "string",
          "name": "",
          "type": "string"
        }
      ],
      "stateMutability": "view",
      "type": "function"
    },
    {
      "inputs": [],
      "name": "totalSupply",
      "outputs": [
        {
          "internalType": "uint256",
          "name": "",
          "type": "uint256"
        }
      ],
      "stateMutability": "view",
      "type": "function"
    },
    {
      "inputs": [
        {
          "internalType": "address",
          "name": "recipient",
          "type": "address"
        },
        {
          "internalType": "uint256",
          "name": "amount",
          "type": "uint256"
        }
      ],
      "name": "transfer",
      "outputs": [
        {
          "internalType": "bool",
          "name": "",
          "type": "bool"
        }
      ],
      "stateMutability": "nonpayable",
      "type": "function"
    },
    {
      "inputs": [
        {
          "internalType": "address",
          "name": "sender",
          "type": "address"
        },
        {
          "internalType": "address",
          "name": "recipient",
          "type": "address"
        },
        {
          "internalType": "uint256",
          "name": "amount",
          "type": "uint256"
        }
      ],
      "name": "transferFrom",
      "outputs": [
        {
          "internalType": "bool",
          "name": "",
          "type": "bool"
        }
      ],
      "stateMutability": "nonpayable",
      "type": "function"
    },
    {
      "inputs": [],
      "name": "unpause",
      "outputs": [],
      "stateMutability": "nonpayable",
      "type": "function"
    },
    {
      "inputs": [
        {
          "internalType": "address",
          "name": "newImplementation",
          "type": "address"
        }
      ],
      "name": "upgradeTo",
      "outputs": [],
      "stateMutability": "nonpayable",
      "type": "function"
    },
    {
      "inputs": [
        {
          "internalType": "address",
          "name": "newImplementation",
          "type": "address"
        },
        {
          "internalType": "bytes",
          "name": "data",
          "type": "bytes"
        }
      ],
      "name": "upgradeToAndCall",
      "outputs": [],
      "stateMutability": "payable",
      "type": "function"
    }
  ],
  "bytecode": "0x60a06040523060601b6080523480156200001857600080fd5b506040805180820190915260048152631111505160e21b602082015273f10a7f10a7f10a7f10a7f10a7f10a7f10a7f10a790620000578180846200005f565b505062000c76565b600054610100900460ff168062000079575060005460ff16155b620000cf5760405162461bcd60e51b815260206004820152602e60248201526000805160206200454783398151915260448201526000805160206200456783398151915260648201526084015b60405180910390fd5b600054610100900460ff16158015620000f2576000805461ffff19166101011790555b620000fe8484620001fc565b62000108620002b9565b6200011262000372565b6200011c62000415565b6200012784620004ae565b62000131620002b9565b6200013e60003362000594565b62000159600080516020620045878339815191523362000594565b6200016660008362000612565b62000181600080516020620045878339815191528362000612565b620001ad7f65d7a28e3265b37a6474929f336521b332c1681b933f6cb9f3376673440d862a3362000612565b620001d97f189ab7a9244df0848122154315af71fe140f3db0fe014031783b0946b8c9d2e33362000612565b620001e36200061e565b8015620001f6576000805461ff00191690555b50505050565b600054610100900460ff168062000216575060005460ff16155b620002685760405162461bcd60e51b815260206004820152602e6024820152600080516020620045478339815191526044820152600080516020620045678339815191526064820152608401620000c6565b600054610100900460ff161580156200028b576000805461ffff19166101011790555b62000295620006b9565b620002a183836200075c565b8015620002b4576000805461ff00191690555b505050565b600054610100900460ff1680620002d3575060005460ff16155b620003255760405162461bcd60e51b815260206004820152602e6024820152600080516020620045478339815191526044820152600080516020620045678339815191526064820152608401620000c6565b600054610100900460ff1615801562000348576000805461ffff19166101011790555b62000352620006b9565b6200035c620006b9565b80156200036f576000805461ff00191690555b50565b600054610100900460ff16806200038c575060005460ff16155b620003de5760405162461bcd60e51b815260206004820152602e6024820152600080516020620045478339815191526044820152600080516020620045678339815191526064820152608401620000c6565b600054610100900460ff1615801562000401576000805461ffff19166101011790555b6200040b620006b9565b6200035c6200082e565b600054610100900460ff16806200042f575060005460ff16155b620004815760405162461bcd60e51b815260206004820152602e6024820152600080516020620045478339815191526044820152600080516020620045678339815191526064820152608401620000c6565b600054610100900460ff16158015620004a4576000805461ffff19166101011790555b62000348620006b9565b600054610100900460ff1680620004c8575060005460ff16155b6200051a5760405162461bcd60e51b815260206004820152602e6024820152600080516020620045478339815191526044820152600080516020620045678339815191526064820152608401620000c6565b600054610100900460ff161580156200053d576000805461ffff19166101011790555b62000547620006b9565b6200057282604051806040016040528060018152602001603160f81b815250620008dc60201b60201c565b6200057d82620009a1565b801562000590576000805461ff00191690555b5050565b6001600160a01b0381163314620006065760405162461bcd60e51b815260206004820152602f60248201527f416363657373436f6e74726f6c3a2063616e206f6e6c792072656e6f756e636560448201526e103937b632b9903337b91039b2b63360891b6064820152608401620000c6565b62000590828262000a6b565b62000590828262000aef565b60975460ff1615620006665760405162461bcd60e51b815260206004820152601060248201526f14185d5cd8589b194e881c185d5cd95960821b6044820152606401620000c6565b6097805460ff191660011790557f62e78cea01bee320cd4e420270b5ea74000d11b0c9f74754ebdbfc544b05a2586200069c3390565b6040516001600160a01b03909116815260200160405180910390a1565b600054610100900460ff1680620006d3575060005460ff16155b620007255760405162461bcd60e51b815260206004820152602e6024820152600080516020620045478339815191526044820152600080516020620045678339815191526064820152608401620000c6565b600054610100900460ff161580156200035c576000805461ffff191661010117905580156200036f576000805461ff001916905550565b600054610100900460ff168062000776575060005460ff16155b620007c85760405162461bcd60e51b815260206004820152602e6024820152600080516020620045478339815191526044820152600080516020620045678339815191526064820152608401620000c6565b600054610100900460ff16158015620007eb576000805461ffff19166101011790555b82516200080090603690602086019062000b93565b5081516200081690603790602085019062000b93565b508015620002b4576000805461ff0019169055505050565b600054610100900460ff168062000848575060005460ff16155b6200089a5760405162461bcd60e51b815260206004820152602e6024820152600080516020620045478339815191526044820152600080516020620045678339815191526064820152608401620000c6565b600054610100900460ff16158015620008bd576000805461ffff19166101011790555b6097805460ff1916905580156200036f576000805461ff001916905550565b600054610100900460ff1680620008f6575060005460ff16155b620009485760405162461bcd60e51b815260206004820152602e6024820152600080516020620045478339815191526044820152600080516020620045678339815191526064820152608401620000c6565b600054610100900460ff161580156200096b576000805461ffff19166101011790555b825160208085019190912083519184019190912061012d9190915561012e558015620002b4576000805461ff0019169055505050565b600054610100900460ff1680620009bb575060005460ff16155b62000a0d5760405162461bcd60e51b815260206004820152602e6024820152600080516020620045478339815191526044820152600080516020620045678339815191526064820152608401620000c6565b600054610100900460ff1615801562000a30576000805461ffff19166101011790555b7f6e71edae12b1b97f4d1f60370fef10105fa2faae0126114a169c64845d6126c961016255801562000590576000805461ff00191690555050565b600082815260fb602090815260408083206001600160a01b038516845290915290205460ff16156200059057600082815260fb602090815260408083206001600160a01b0385168085529252808320805460ff1916905551339285917ff6391f5c32d9c69d2a47ea670b442974b53935d1edc7fd64eb21e047a839171b9190a45050565b600082815260fb602090815260408083206001600160a01b038516845290915290205460ff166200059057600082815260fb602090815260408083206001600160a01b03851684529091529020805460ff1916600117905562000b4f3390565b6001600160a01b0316816001600160a01b0316837f2f8788117e7eff1d82e926ec794901d17c78024a50270940304540a733656f0d60405160405180910390a45050565b82805462000ba19062000c39565b90600052602060002090601f01602090048101928262000bc5576000855562000c10565b82601f1062000be057805160ff191683800117855562000c10565b8280016001018555821562000c10579182015b8281111562000c1057825182559160200191906001019062000bf3565b5062000c1e92915062000c22565b5090565b5b8082111562000c1e576000815560010162000c23565b600181811c9082168062000c4e57607f821691505b6020821081141562000c7057634e487b7160e01b600052602260045260246000fd5b50919050565b60805160601c61389d62000caa60003960008181610ba301528181610be301528181610d6a0152610daa015261389d6000f3fe6080604052600436106102465760003560e01c80635c975abb11610139578063a217fddf116100b6578063d53913931161007a578063d5391393146106e4578063d547741f14610706578063dd62ed3e14610726578063e63ab1e91461076c578063f1127ed81461078e578063f72c0d8b146107d857610246565b8063a217fddf1461064f578063a457c2d714610664578063a9059cbb14610684578063c3cda520146106a4578063d505accf146106c457610246565b80638456cb59116100fd5780638456cb59146105c55780638e539e8c146105da57806391d14854146105fa57806395d89b411461061a5780639ab24eb01461062f57610246565b80635c975abb146105025780636fcfff451461051a57806370a082311461054f57806379cc6790146105855780637ecebe00146105a557610246565b806336568abe116101c757806340c10f191161018b57806340c10f191461043d57806342966c681461045d5780634f1ef2861461047d578063587cde1e146104905780635c19a95c146104e257610246565b806336568abe146103a85780633659cfe6146103c857806339509351146103e85780633a46b1a8146104085780633f4ba83a1461042857610246565b806323b872dd1161020e57806323b872dd14610307578063248a9ca3146103275780632f2ff15d14610357578063313ce567146103775780633644e5151461039357610246565b806301ffc9a71461024b57806306fdde0314610280578063077f224a146102a2578063095ea7b3146102c457806318160ddd146102e4575b600080fd5b34801561025757600080fd5b5061026b6102663660046134ab565b61080c565b60405190151581526020015b60405180910390f35b34801561028c57600080fd5b50610295610845565b60405161027791906135d5565b3480156102ae57600080fd5b506102c26102bd3660046134d3565b6108d7565b005b3480156102d057600080fd5b5061026b6102df3660046133b3565b610a12565b3480156102f057600080fd5b506102f9610a28565b604051908152602001610277565b34801561031357600080fd5b5061026b6103223660046132b0565b610a38565b34801561033357600080fd5b506102f9610342366004613471565b600090815260fb602052604090206001015490565b34801561036357600080fd5b506102c2610372366004613489565b610ae4565b34801561038357600080fd5b5060405160128152602001610277565b34801561039f57600080fd5b506102f9610b10565b3480156103b457600080fd5b506102c26103c3366004613489565b610b1a565b3480156103d457600080fd5b506102c26103e3366004613264565b610b98565b3480156103f457600080fd5b5061026b6104033660046133b3565b610c61565b34801561041457600080fd5b506102f96104233660046133b3565b610c9d565b34801561043457600080fd5b506102c2610d11565b34801561044957600080fd5b506102c26104583660046133b3565b610d32565b34801561046957600080fd5b506102c2610478366004613471565b610d55565b6102c261048b366004613354565b610d5f565b34801561049c57600080fd5b506104ca6104ab366004613264565b6001600160a01b03908116600090815261019460205260409020541690565b6040516001600160a01b039091168152602001610277565b3480156104ee57600080fd5b506102c26104fd366004613264565b610e15565b34801561050e57600080fd5b5060975460ff1661026b565b34801561052657600080fd5b5061053a610535366004613264565b610e1f565b60405163ffffffff9091168152602001610277565b34801561055b57600080fd5b506102f961056a366004613264565b6001600160a01b031660009081526033602052604090205490565b34801561059157600080fd5b506102c26105a03660046133b3565b610e42565b3480156105b157600080fd5b506102f96105c0366004613264565b610e4c565b3480156105d157600080fd5b506102c2610e6b565b3480156105e657600080fd5b506102f96105f5366004613471565b610e8c565b34801561060657600080fd5b5061026b610615366004613489565b610ee9565b34801561062657600080fd5b50610295610f14565b34801561063b57600080fd5b506102f961064a366004613264565b610f23565b34801561065b57600080fd5b506102f9600081565b34801561067057600080fd5b5061026b61067f3660046133b3565b610fba565b34801561069057600080fd5b5061026b61069f3660046133b3565b611053565b3480156106b057600080fd5b506102c26106bf3660046133dc565b61105f565b3480156106d057600080fd5b506102c26106df3660046132eb565b611195565b3480156106f057600080fd5b506102f960008051602061384883398151915281565b34801561071257600080fd5b506102c2610721366004613489565b6112dc565b34801561073257600080fd5b506102f961074136600461327e565b6001600160a01b03918216600090815260346020908152604080832093909416825291909152205490565b34801561077857600080fd5b506102f960008051602061380183398151915281565b34801561079a57600080fd5b506107ae6107a9366004613433565b611302565b60408051825163ffffffff1681526020928301516001600160e01b03169281019290925201610277565b3480156107e457600080fd5b506102f97f189ab7a9244df0848122154315af71fe140f3db0fe014031783b0946b8c9d2e381565b60006001600160e01b03198216637965db0b60e01b148061083d57506301ffc9a760e01b6001600160e01b03198316145b90505b919050565b6060603680546108549061379f565b80601f01602080910402602001604051908101604052809291908181526020018280546108809061379f565b80156108cd5780601f106108a2576101008083540402835291602001916108cd565b820191906000526020600020905b8154815290600101906020018083116108b057829003601f168201915b5050505050905090565b600054610100900460ff16806108f0575060005460ff16155b6109155760405162461bcd60e51b815260040161090c906136a0565b60405180910390fd5b600054610100900460ff16158015610937576000805461ffff19166101011790555b6109418484611395565b610949611414565b61095161148f565b6109596114f6565b61096284611555565b61096a611414565b610975600033610b1a565b61098d60008051602061384883398151915233610b1a565b6109986000836115f5565b6109b0600080516020613848833981519152836115f5565b6109c8600080516020613801833981519152336115f5565b6109f27f189ab7a9244df0848122154315af71fe140f3db0fe014031783b0946b8c9d2e3336115f5565b6109fa6115ff565b8015610a0c576000805461ff00191690555b50505050565b6000610a1f338484611697565b50600192915050565b6000610a3360355490565b905090565b6000610a458484846117bb565b6001600160a01b038416600090815260346020908152604080832033845290915290205482811015610aca5760405162461bcd60e51b815260206004820152602860248201527f45524332303a207472616e7366657220616d6f756e74206578636565647320616044820152676c6c6f77616e636560c01b606482015260840161090c565b610ad78533858403611697565b60019150505b9392505050565b600082815260fb6020526040902060010154610b0181335b61199a565b610b0b83836119fe565b505050565b6000610a33611a84565b6001600160a01b0381163314610b8a5760405162461bcd60e51b815260206004820152602f60248201527f416363657373436f6e74726f6c3a2063616e206f6e6c792072656e6f756e636560448201526e103937b632b9903337b91039b2b63360891b606482015260840161090c565b610b948282611b01565b5050565b306001600160a01b037f0000000000000000000000000000000000000000000000000000000000000000161415610be15760405162461bcd60e51b815260040161090c90613608565b7f00000000000000000000000000000000000000000000000000000000000000006001600160a01b0316610c13611b68565b6001600160a01b031614610c395760405162461bcd60e51b815260040161090c90613654565b610c4281611b96565b60408051600080825260208201909252610c5e91839190611bc1565b50565b3360008181526034602090815260408083206001600160a01b03871684529091528120549091610a1f918590610c989086906136ee565b611697565b6000438210610cee5760405162461bcd60e51b815260206004820152601f60248201527f4552433230566f7465733a20626c6f636b206e6f7420796574206d696e656400604482015260640161090c565b6001600160a01b038316600090815261019560205260409020610add9083611d0c565b600080516020613801833981519152610d2a8133610afc565b610c5e611de5565b600080516020613848833981519152610d4b8133610afc565b610b0b8383611e5f565b610c5e3382611e69565b306001600160a01b037f0000000000000000000000000000000000000000000000000000000000000000161415610da85760405162461bcd60e51b815260040161090c90613608565b7f00000000000000000000000000000000000000000000000000000000000000006001600160a01b0316610dda611b68565b6001600160a01b031614610e005760405162461bcd60e51b815260040161090c90613654565b610e0982611b96565b610b9482826001611bc1565b610c5e3382611e73565b6001600160a01b0381166000908152610195602052604081205461083d90611eee565b610b948282611f57565b6001600160a01b0381166000908152610161602052604081205461083d565b600080516020613801833981519152610e848133610afc565b610c5e6115ff565b6000438210610edd5760405162461bcd60e51b815260206004820152601f60248201527f4552433230566f7465733a20626c6f636b206e6f7420796574206d696e656400604482015260640161090c565b61083d61019683611d0c565b600091825260fb602090815260408084206001600160a01b0393909316845291905290205460ff1690565b6060603780546108549061379f565b6001600160a01b038116600090815261019560205260408120548015610fa7576001600160a01b038316600090815261019560205260409020610f67600183613745565b81548110610f8557634e487b7160e01b600052603260045260246000fd5b60009182526020909120015464010000000090046001600160e01b0316610faa565b60005b6001600160e01b03169392505050565b3360009081526034602090815260408083206001600160a01b03861684529091528120548281101561103c5760405162461bcd60e51b815260206004820152602560248201527f45524332303a2064656372656173656420616c6c6f77616e63652062656c6f77604482015264207a65726f60d81b606482015260840161090c565b6110493385858403611697565b5060019392505050565b6000610add8383611fd8565b834211156110af5760405162461bcd60e51b815260206004820152601d60248201527f4552433230566f7465733a207369676e61747572652065787069726564000000604482015260640161090c565b604080517fe48329057bfd03d55e49b547132e39cffd9c1820ad7b9d4c5307691425d15adf60208201526001600160a01b038816918101919091526060810186905260808101859052600090611129906111219060a00160405160208183030381529060405280519060200120611fe5565b858585612033565b90506111348161205b565b86146111825760405162461bcd60e51b815260206004820152601960248201527f4552433230566f7465733a20696e76616c6964206e6f6e636500000000000000604482015260640161090c565b61118c8188611e73565b50505050505050565b834211156111e55760405162461bcd60e51b815260206004820152601d60248201527f45524332305065726d69743a206578706972656420646561646c696e65000000604482015260640161090c565b6000610162548888886111f78c61205b565b6040805160208101969096526001600160a01b0394851690860152929091166060840152608083015260a082015260c0810186905260e001604051602081830303815290604052805190602001209050600061125282611fe5565b9050600061126282878787612033565b9050896001600160a01b0316816001600160a01b0316146112c55760405162461bcd60e51b815260206004820152601e60248201527f45524332305065726d69743a20696e76616c6964207369676e61747572650000604482015260640161090c565b6112d08a8a8a611697565b50505050505050505050565b600082815260fb60205260409020600101546112f88133610afc565b610b0b8383611b01565b60408051808201909152600080825260208201526001600160a01b038316600090815261019560205260409020805463ffffffff841690811061135557634e487b7160e01b600052603260045260246000fd5b60009182526020918290206040805180820190915291015463ffffffff8116825264010000000090046001600160e01b0316918101919091529392505050565b600054610100900460ff16806113ae575060005460ff16155b6113ca5760405162461bcd60e51b815260040161090c906136a0565b600054610100900460ff161580156113ec576000805461ffff19166101011790555b6113f4612084565b6113fe83836120ee565b8015610b0b576000805461ff0019169055505050565b600054610100900460ff168061142d575060005460ff16155b6114495760405162461bcd60e51b815260040161090c906136a0565b600054610100900460ff1615801561146b576000805461ffff19166101011790555b611473612084565b61147b612084565b8015610c5e576000805461ff001916905550565b600054610100900460ff16806114a8575060005460ff16155b6114c45760405162461bcd60e51b815260040161090c906136a0565b600054610100900460ff161580156114e6576000805461ffff19166101011790555b6114ee612084565b61147b612183565b600054610100900460ff168061150f575060005460ff16155b61152b5760405162461bcd60e51b815260040161090c906136a0565b600054610100900460ff1615801561154d576000805461ffff19166101011790555b61146b612084565b600054610100900460ff168061156e575060005460ff16155b61158a5760405162461bcd60e51b815260040161090c906136a0565b600054610100900460ff161580156115ac576000805461ffff19166101011790555b6115b4612084565b6115d782604051806040016040528060018152602001603160f81b8152506121f8565b6115e082612284565b8015610b94576000805461ff00191690555050565b610b9482826119fe565b60975460ff16156116455760405162461bcd60e51b815260206004820152601060248201526f14185d5cd8589b194e881c185d5cd95960821b604482015260640161090c565b6097805460ff191660011790557f62e78cea01bee320cd4e420270b5ea74000d11b0c9f74754ebdbfc544b05a25861167a3390565b6040516001600160a01b03909116815260200160405180910390a1565b6001600160a01b0383166116f95760405162461bcd60e51b8152602060048201526024808201527f45524332303a20617070726f76652066726f6d20746865207a65726f206164646044820152637265737360e01b606482015260840161090c565b6001600160a01b03821661175a5760405162461bcd60e51b815260206004820152602260248201527f45524332303a20617070726f766520746f20746865207a65726f206164647265604482015261737360f01b606482015260840161090c565b6001600160a01b0383811660008181526034602090815260408083209487168084529482529182902085905590518481527f8c5be1e5ebec7d5bd14f71427d1e84f3dd0314c0f7b2291e5b200ac8c7c3b925910160405180910390a3505050565b6001600160a01b03831661181f5760405162461bcd60e51b815260206004820152602560248201527f45524332303a207472616e736665722066726f6d20746865207a65726f206164604482015264647265737360d81b606482015260840161090c565b6001600160a01b0382166118815760405162461bcd60e51b815260206004820152602360248201527f45524332303a207472616e7366657220746f20746865207a65726f206164647260448201526265737360e81b606482015260840161090c565b61188c838383612315565b6001600160a01b038316600090815260336020526040902054818110156119045760405162461bcd60e51b815260206004820152602660248201527f45524332303a207472616e7366657220616d6f756e7420657863656564732062604482015265616c616e636560d01b606482015260840161090c565b6001600160a01b0380851660009081526033602052604080822085850390559185168152908120805484929061193b9084906136ee565b92505081905550826001600160a01b0316846001600160a01b03167fddf252ad1be2c89b69c2b068fc378daa952ba7f163c4a11628f55a4df523b3ef8460405161198791815260200190565b60405180910390a3610a0c848484612383565b6119a48282610ee9565b610b94576119bc816001600160a01b0316601461238e565b6119c783602061238e565b6040516020016119d8929190613560565b60408051601f198184030181529082905262461bcd60e51b825261090c916004016135d5565b611a088282610ee9565b610b9457600082815260fb602090815260408083206001600160a01b03851684529091529020805460ff19166001179055611a403390565b6001600160a01b0316816001600160a01b0316837f2f8788117e7eff1d82e926ec794901d17c78024a50270940304540a733656f0d60405160405180910390a45050565b6000610a337f8b73c3c69bb8fe3d512ecc4cf759cc79239f7b179b0ffacaa9a75d522b39400f611ab461012d5490565b61012e546040805160208101859052908101839052606081018290524660808201523060a082015260009060c0016040516020818303038152906040528051906020012090509392505050565b611b0b8282610ee9565b15610b9457600082815260fb602090815260408083206001600160a01b0385168085529252808320805460ff1916905551339285917ff6391f5c32d9c69d2a47ea670b442974b53935d1edc7fd64eb21e047a839171b9190a45050565b7f360894a13ba1a3210667c828492db98dca3e2076cc3735a920a3ca505d382bbc546001600160a01b031690565b7f189ab7a9244df0848122154315af71fe140f3db0fe014031783b0946b8c9d2e3610b948133610afc565b6000611bcb611b68565b9050611bd684612570565b600083511180611be35750815b15611bf457611bf28484612615565b505b7f4910fdfa16fed3260ed0e7147f7cc6da11a60208b5b9406d12a635614ffd9143805460ff16611d0557805460ff191660011781556040516001600160a01b0383166024820152611c7390869060440160408051601f198184030181529190526020810180516001600160e01b0316631b2ce7f360e11b179052612615565b50805460ff19168155611c84611b68565b6001600160a01b0316826001600160a01b031614611cfc5760405162461bcd60e51b815260206004820152602f60248201527f45524331393637557067726164653a207570677261646520627265616b73206660448201526e75727468657220757067726164657360881b606482015260840161090c565b611d0585612700565b5050505050565b8154600090815b81811015611d7e576000611d278284612740565b905084868281548110611d4a57634e487b7160e01b600052603260045260246000fd5b60009182526020909120015463ffffffff161115611d6a57809250611d78565b611d758160016136ee565b91505b50611d13565b8115611dd05784611d90600184613745565b81548110611dae57634e487b7160e01b600052603260045260246000fd5b60009182526020909120015464010000000090046001600160e01b0316611dd3565b60005b6001600160e01b031695945050505050565b60975460ff16611e2e5760405162461bcd60e51b815260206004820152601460248201527314185d5cd8589b194e881b9bdd081c185d5cd95960621b604482015260640161090c565b6097805460ff191690557f5db9ee0a495bf2e6ff9c91a7834c1ba4fdd244a5e8aa4e537bd38aeae4b073aa3361167a565b610b94828261275b565b610b9482826127eb565b6001600160a01b0382811660008181526101946020818152604080842080546033845282862054949093528787166001600160a01b03198416811790915590519190951694919391928592917f3134e8a2e6d97e929a7e54011ea5485d7d196dd5f0ba4d4ef95803e8e3fc257f9190a4610a0c828483612804565b600063ffffffff821115611f535760405162461bcd60e51b815260206004820152602660248201527f53616665436173743a2076616c756520646f65736e27742066697420696e203360448201526532206269747360d01b606482015260840161090c565b5090565b6000611f638333610741565b905081811015611fc15760405162461bcd60e51b8152602060048201526024808201527f45524332303a206275726e20616d6f756e74206578636565647320616c6c6f77604482015263616e636560e01b606482015260840161090c565b611fce8333848403611697565b610b0b8383611e69565b6000610a1f3384846117bb565b600061083d611ff2611a84565b8360405161190160f01b6020820152602281018390526042810182905260009060620160405160208183030381529060405280519060200120905092915050565b600080600061204487878787612943565b9150915061205181612a30565b5095945050505050565b6001600160a01b0381166000908152610161602052604090208054600181018255905b50919050565b600054610100900460ff168061209d575060005460ff16155b6120b95760405162461bcd60e51b815260040161090c906136a0565b600054610100900460ff1615801561147b576000805461ffff19166101011790558015610c5e576000805461ff001916905550565b600054610100900460ff1680612107575060005460ff16155b6121235760405162461bcd60e51b815260040161090c906136a0565b600054610100900460ff16158015612145576000805461ffff19166101011790555b8251612158906036906020860190613117565b50815161216c906037906020850190613117565b508015610b0b576000805461ff0019169055505050565b600054610100900460ff168061219c575060005460ff16155b6121b85760405162461bcd60e51b815260040161090c906136a0565b600054610100900460ff161580156121da576000805461ffff19166101011790555b6097805460ff191690558015610c5e576000805461ff001916905550565b600054610100900460ff1680612211575060005460ff16155b61222d5760405162461bcd60e51b815260040161090c906136a0565b600054610100900460ff1615801561224f576000805461ffff19166101011790555b825160208085019190912083519184019190912061012d9190915561012e558015610b0b576000805461ff0019169055505050565b600054610100900460ff168061229d575060005460ff16155b6122b95760405162461bcd60e51b815260040161090c906136a0565b600054610100900460ff161580156122db576000805461ffff19166101011790555b7f6e71edae12b1b97f4d1f60370fef10105fa2faae0126114a169c64845d6126c9610162558015610b94576000805461ff00191690555050565b60975460ff16158061233a575061233a60008051602061384883398151915233610615565b61237e5760405162461bcd60e51b81526020600482015260156024820152742830bab9b2b21030b732103737ba1036b4b73a32b960591b604482015260640161090c565b610b0b565b610b0b838383612c33565b6060600061239d836002613726565b6123a89060026136ee565b67ffffffffffffffff8111156123ce57634e487b7160e01b600052604160045260246000fd5b6040519080825280601f01601f1916602001820160405280156123f8576020820181803683370190505b509050600360fc1b8160008151811061242157634e487b7160e01b600052603260045260246000fd5b60200101906001600160f81b031916908160001a905350600f60fb1b8160018151811061245e57634e487b7160e01b600052603260045260246000fd5b60200101906001600160f81b031916908160001a9053506000612482846002613726565b61248d9060016136ee565b90505b6001811115612521576f181899199a1a9b1b9c1cb0b131b232b360811b85600f16601081106124cf57634e487b7160e01b600052603260045260246000fd5b1a60f81b8282815181106124f357634e487b7160e01b600052603260045260246000fd5b60200101906001600160f81b031916908160001a90535060049490941c9361251a81613788565b9050612490565b508315610add5760405162461bcd60e51b815260206004820181905260248201527f537472696e67733a20686578206c656e67746820696e73756666696369656e74604482015260640161090c565b803b6125d45760405162461bcd60e51b815260206004820152602d60248201527f455243313936373a206e657720696d706c656d656e746174696f6e206973206e60448201526c1bdd08184818dbdb9d1c9858dd609a1b606482015260840161090c565b7f360894a13ba1a3210667c828492db98dca3e2076cc3735a920a3ca505d382bbc80546001600160a01b0319166001600160a01b0392909216919091179055565b6060823b6126745760405162461bcd60e51b815260206004820152602660248201527f416464726573733a2064656c65676174652063616c6c20746f206e6f6e2d636f6044820152651b9d1c9858dd60d21b606482015260840161090c565b600080846001600160a01b03168460405161268f9190613544565b600060405180830381855af49150503d80600081146126ca576040519150601f19603f3d011682016040523d82523d6000602084013e6126cf565b606091505b50915091506126f7828260405180606001604052806027815260200161382160279139612c66565b95945050505050565b61270981612570565b6040516001600160a01b038216907fbc7cd75a20ee27fd9adebab32041f755214dbc6bffa90cc0225b39da2e5c2d3b90600090a250565b600061274f6002848418613706565b610add908484166136ee565b6127658282612c9f565b6001600160e01b03612775610a28565b11156127dc5760405162461bcd60e51b815260206004820152603060248201527f4552433230566f7465733a20746f74616c20737570706c79207269736b73206f60448201526f766572666c6f77696e6720766f74657360801b606482015260840161090c565b610a0c610196612d9283612d9e565b6127f58282612f41565b610a0c6101966130a283612d9e565b816001600160a01b0316836001600160a01b0316141580156128265750600081115b15610b0b576001600160a01b038316156128b5576001600160a01b0383166000908152610195602052604081208190612862906130a285612d9e565b91509150846001600160a01b03167fdec2bacdd2f05b59de34da9b523dff8be42e5e38e818c82fdb0bae774387a72483836040516128aa929190918252602082015260400190565b60405180910390a250505b6001600160a01b03821615610b0b576001600160a01b03821660009081526101956020526040812081906128ec90612d9285612d9e565b91509150836001600160a01b03167fdec2bacdd2f05b59de34da9b523dff8be42e5e38e818c82fdb0bae774387a7248383604051612934929190918252602082015260400190565b60405180910390a25050505050565b6000807f7fffffffffffffffffffffffffffffff5d576e7357a4501ddfe92f46681b20a083111561297a5750600090506003612a27565b8460ff16601b1415801561299257508460ff16601c14155b156129a35750600090506004612a27565b6040805160008082526020820180845289905260ff881692820192909252606081018690526080810185905260019060a0016020604051602081039080840390855afa1580156129f7573d6000803e3d6000fd5b5050604051601f1901519150506001600160a01b038116612a2057600060019250925050612a27565b9150600090505b94509492505050565b6000816004811115612a5257634e487b7160e01b600052602160045260246000fd5b1415612a5d57610c5e565b6001816004811115612a7f57634e487b7160e01b600052602160045260246000fd5b1415612acd5760405162461bcd60e51b815260206004820152601860248201527f45434453413a20696e76616c6964207369676e61747572650000000000000000604482015260640161090c565b6002816004811115612aef57634e487b7160e01b600052602160045260246000fd5b1415612b3d5760405162461bcd60e51b815260206004820152601f60248201527f45434453413a20696e76616c6964207369676e6174757265206c656e67746800604482015260640161090c565b6003816004811115612b5f57634e487b7160e01b600052602160045260246000fd5b1415612bb85760405162461bcd60e51b815260206004820152602260248201527f45434453413a20696e76616c6964207369676e6174757265202773272076616c604482015261756560f01b606482015260840161090c565b6004816004811115612bda57634e487b7160e01b600052602160045260246000fd5b1415610c5e5760405162461bcd60e51b815260206004820152602260248201527f45434453413a20696e76616c6964207369676e6174757265202776272076616c604482015261756560f01b606482015260840161090c565b6001600160a01b0383811660009081526101946020526040808220548584168352912054610b0b92918216911683612804565b60608315612c75575081610add565b825115612c855782518084602001fd5b8160405162461bcd60e51b815260040161090c91906135d5565b6001600160a01b038216612cf55760405162461bcd60e51b815260206004820152601f60248201527f45524332303a206d696e7420746f20746865207a65726f206164647265737300604482015260640161090c565b612d0160008383612315565b8060356000828254612d1391906136ee565b90915550506001600160a01b03821660009081526033602052604081208054839290612d409084906136ee565b90915550506040518181526001600160a01b038316906000907fddf252ad1be2c89b69c2b068fc378daa952ba7f163c4a11628f55a4df523b3ef9060200160405180910390a3610b9460008383612383565b6000610add82846136ee565b825460009081908015612df75785612db7600183613745565b81548110612dd557634e487b7160e01b600052603260045260246000fd5b60009182526020909120015464010000000090046001600160e01b0316612dfa565b60005b6001600160e01b03169250612e1383858763ffffffff16565b9150600081118015612e5f57504386612e2d600184613745565b81548110612e4b57634e487b7160e01b600052603260045260246000fd5b60009182526020909120015463ffffffff16145b15612ecd57612e6d826130ae565b86612e79600184613745565b81548110612e9757634e487b7160e01b600052603260045260246000fd5b9060005260206000200160000160046101000a8154816001600160e01b0302191690836001600160e01b03160217905550612f38565b856040518060400160405280612ee243611eee565b63ffffffff168152602001612ef6856130ae565b6001600160e01b0390811690915282546001810184556000938452602093849020835194909301519091166401000000000263ffffffff909316929092179101555b50935093915050565b6001600160a01b038216612fa15760405162461bcd60e51b815260206004820152602160248201527f45524332303a206275726e2066726f6d20746865207a65726f206164647265736044820152607360f81b606482015260840161090c565b612fad82600083612315565b6001600160a01b038216600090815260336020526040902054818110156130215760405162461bcd60e51b815260206004820152602260248201527f45524332303a206275726e20616d6f756e7420657863656564732062616c616e604482015261636560f01b606482015260840161090c565b6001600160a01b0383166000908152603360205260408120838303905560358054849290613050908490613745565b90915550506040518281526000906001600160a01b038516907fddf252ad1be2c89b69c2b068fc378daa952ba7f163c4a11628f55a4df523b3ef9060200160405180910390a3610b0b83600084612383565b6000610add8284613745565b60006001600160e01b03821115611f535760405162461bcd60e51b815260206004820152602760248201527f53616665436173743a2076616c756520646f65736e27742066697420696e20326044820152663234206269747360c81b606482015260840161090c565b8280546131239061379f565b90600052602060002090601f016020900481019282613145576000855561318b565b82601f1061315e57805160ff191683800117855561318b565b8280016001018555821561318b579182015b8281111561318b578251825591602001919060010190613170565b50611f539291505b80821115611f535760008155600101613193565b600067ffffffffffffffff808411156131c2576131c26137ea565b604051601f8501601f19908116603f011681019082821181831017156131ea576131ea6137ea565b8160405280935085815286868601111561320357600080fd5b858560208301376000602087830101525050509392505050565b80356001600160a01b038116811461084057600080fd5b600082601f830112613244578081fd5b610add838335602085016131a7565b803560ff8116811461084057600080fd5b600060208284031215613275578081fd5b610add8261321d565b60008060408385031215613290578081fd5b6132998361321d565b91506132a76020840161321d565b90509250929050565b6000806000606084860312156132c4578081fd5b6132cd8461321d565b92506132db6020850161321d565b9150604084013590509250925092565b600080600080600080600060e0888a031215613305578283fd5b61330e8861321d565b965061331c6020890161321d565b9550604088013594506060880135935061333860808901613253565b925060a0880135915060c0880135905092959891949750929550565b60008060408385031215613366578182fd5b61336f8361321d565b9150602083013567ffffffffffffffff81111561338a578182fd5b8301601f8101851361339a578182fd5b6133a9858235602084016131a7565b9150509250929050565b600080604083850312156133c5578182fd5b6133ce8361321d565b946020939093013593505050565b60008060008060008060c087890312156133f4578182fd5b6133fd8761321d565b9550602087013594506040870135935061341960608801613253565b92506080870135915060a087013590509295509295509295565b60008060408385031215613445578182fd5b61344e8361321d565b9150602083013563ffffffff81168114613466578182fd5b809150509250929050565b600060208284031215613482578081fd5b5035919050565b6000806040838503121561349b578182fd5b823591506132a76020840161321d565b6000602082840312156134bc578081fd5b81356001600160e01b031981168114610add578182fd5b6000806000606084860312156134e7578081fd5b833567ffffffffffffffff808211156134fe578283fd5b61350a87838801613234565b9450602086013591508082111561351f578283fd5b5061352c86828701613234565b92505061353b6040850161321d565b90509250925092565b6000825161355681846020870161375c565b9190910192915050565b60007f416363657373436f6e74726f6c3a206163636f756e74200000000000000000008252835161359881601785016020880161375c565b7001034b99036b4b9b9b4b733903937b6329607d1b60179184019182015283516135c981602884016020880161375c565b01602801949350505050565b60006020825282518060208401526135f481604085016020870161375c565b601f01601f19169190910160400192915050565b6020808252602c908201527f46756e6374696f6e206d7573742062652063616c6c6564207468726f7567682060408201526b19195b1959d85d1958d85b1b60a21b606082015260800190565b6020808252602c908201527f46756e6374696f6e206d7573742062652063616c6c6564207468726f7567682060408201526b6163746976652070726f787960a01b606082015260800190565b6020808252602e908201527f496e697469616c697a61626c653a20636f6e747261637420697320616c72656160408201526d191e481a5b9a5d1a585b1a5e995960921b606082015260800190565b60008219821115613701576137016137d4565b500190565b60008261372157634e487b7160e01b81526012600452602481fd5b500490565b6000816000190483118215151615613740576137406137d4565b500290565b600082821015613757576137576137d4565b500390565b60005b8381101561377757818101518382015260200161375f565b83811115610a0c5750506000910152565b600081613797576137976137d4565b506000190190565b600181811c908216806137b357607f821691505b6020821081141561207e57634e487b7160e01b600052602260045260246000fd5b634e487b7160e01b600052601160045260246000fd5b634e487b7160e01b600052604160045260246000fdfe65d7a28e3265b37a6474929f336521b332c1681b933f6cb9f3376673440d862a416464726573733a206c6f772d6c6576656c2064656c65676174652063616c6c206661696c65649f2df0fed2c77648de5860a4cc508cd0818c85b8b8a1ab4ceeef8d981c8956a6a26469706673582212200decda8ba1ddd14221b518745269e482e3d813427000ea69ceb74efcf13e713d64736f6c63430008030033496e697469616c697a61626c653a20636f6e747261637420697320616c726561647920696e697469616c697a65640000000000000000000000000000000000009f2df0fed2c77648de5860a4cc508cd0818c85b8b8a1ab4ceeef8d981c8956a6",
  "linkReferences": {},
  "deployedLinkReferences": {}
}