{
  "_format": "hh-sol-artifact-1",
  "contractName": "SyntheticTokenUpgradeable",
  "sourceName": "contracts/SyntheticTokenUpgradeable.sol",
  "abi": [
    {
      "anonymous": false,
      "inputs": [
        {
          "indexed": false,
          "internalType": "address",
          "name": "previousAdmin",
          "type": "address"
        },
        {
          "indexed": false,
          "internalType": "address",
          "name": "newAdmin",
          "type": "address"
        }
      ],
      "name": "AdminChanged",
      "type": "event"
    },
    {
      "anonymous": false,
      "inputs": [
        {
          "indexed": true,
          "internalType": "address",
          "name": "owner",
          "type": "address"
        },
        {
          "indexed": true,
          "internalType": "address",
          "name": "spender",
          "type": "address"
        },
        {
          "indexed": false,
          "internalType": "uint256",
          "name": "value",
          "type": "uint256"
        }
      ],
      "name": "Approval",
      "type": "event"
    },
    {
      "anonymous": false,
      "inputs": [
        {
          "indexed": true,
          "internalType": "address",
          "name": "beacon",
          "type": "address"
        }
      ],
      "name": "BeaconUpgraded",
      "type": "event"
    },
    {
      "anonymous": false,
      "inputs": [
        {
          "indexed": true,
          "internalType": "bytes32",
          "name": "role",
          "type": "bytes32"
        },
        {
          "indexed": true,
          "internalType": "bytes32",
          "name": "previousAdminRole",
          "type": "bytes32"
        },
        {
          "indexed": true,
          "internalType": "bytes32",
          "name": "newAdminRole",
          "type": "bytes32"
        }
      ],
      "name": "RoleAdminChanged",
      "type": "event"
    },
    {
      "anonymous": false,
      "inputs": [
        {
          "indexed": true,
          "internalType": "bytes32",
          "name": "role",
          "type": "bytes32"
        },
        {
          "indexed": true,
          "internalType": "address",
          "name": "account",
          "type": "address"
        },
        {
          "indexed": true,
          "internalType": "address",
          "name": "sender",
          "type": "address"
        }
      ],
      "name": "RoleGranted",
      "type": "event"
    },
    {
      "anonymous": false,
      "inputs": [
        {
          "indexed": true,
          "internalType": "bytes32",
          "name": "role",
          "type": "bytes32"
        },
        {
          "indexed": true,
          "internalType": "address",
          "name": "account",
          "type": "address"
        },
        {
          "indexed": true,
          "internalType": "address",
          "name": "sender",
          "type": "address"
        }
      ],
      "name": "RoleRevoked",
      "type": "event"
    },
    {
      "anonymous": false,
      "inputs": [
        {
          "indexed": true,
          "internalType": "address",
          "name": "from",
          "type": "address"
        },
        {
          "indexed": true,
          "internalType": "address",
          "name": "to",
          "type": "address"
        },
        {
          "indexed": false,
          "internalType": "uint256",
          "name": "value",
          "type": "uint256"
        }
      ],
      "name": "Transfer",
      "type": "event"
    },
    {
      "anonymous": false,
      "inputs": [
        {
          "indexed": true,
          "internalType": "address",
          "name": "implementation",
          "type": "address"
        }
      ],
      "name": "Upgraded",
      "type": "event"
    },
    {
      "inputs": [],
      "name": "DEFAULT_ADMIN_ROLE",
      "outputs": [
        {
          "internalType": "bytes32",
          "name": "",
          "type": "bytes32"
        }
      ],
      "stateMutability": "view",
      "type": "function"
    },
    {
      "inputs": [],
      "name": "DOMAIN_SEPARATOR",
      "outputs": [
        {
          "internalType": "bytes32",
          "name": "",
          "type": "bytes32"
        }
      ],
      "stateMutability": "view",
      "type": "function"
    },
    {
      "inputs": [],
      "name": "MINTER_ROLE",
      "outputs": [
        {
          "internalType": "bytes32",
          "name": "",
          "type": "bytes32"
        }
      ],
      "stateMutability": "view",
      "type": "function"
    },
    {
      "inputs": [],
      "name": "UPGRADER_ROLE",
      "outputs": [
        {
          "internalType": "bytes32",
          "name": "",
          "type": "bytes32"
        }
      ],
      "stateMutability": "view",
      "type": "function"
    },
    {
      "inputs": [
        {
          "internalType": "address",
          "name": "owner",
          "type": "address"
        },
        {
          "internalType": "address",
          "name": "spender",
          "type": "address"
        }
      ],
      "name": "allowance",
      "outputs": [
        {
          "internalType": "uint256",
          "name": "",
          "type": "uint256"
        }
      ],
      "stateMutability": "view",
      "type": "function"
    },
    {
      "inputs": [
        {
          "internalType": "address",
          "name": "spender",
          "type": "address"
        },
        {
          "internalType": "uint256",
          "name": "amount",
          "type": "uint256"
        }
      ],
      "name": "approve",
      "outputs": [
        {
          "internalType": "bool",
          "name": "",
          "type": "bool"
        }
      ],
      "stateMutability": "nonpayable",
      "type": "function"
    },
    {
      "inputs": [
        {
          "internalType": "address",
          "name": "account",
          "type": "address"
        }
      ],
      "name": "balanceOf",
      "outputs": [
        {
          "internalType": "uint256",
          "name": "",
          "type": "uint256"
        }
      ],
      "stateMutability": "view",
      "type": "function"
    },
    {
      "inputs": [
        {
          "internalType": "uint256",
          "name": "amount",
          "type": "uint256"
        }
      ],
      "name": "burn",
      "outputs": [],
      "stateMutability": "nonpayable",
      "type": "function"
    },
    {
      "inputs": [
        {
          "internalType": "address",
          "name": "account",
          "type": "address"
        },
        {
          "internalType": "uint256",
          "name": "amount",
          "type": "uint256"
        }
      ],
      "name": "burnFrom",
      "outputs": [],
      "stateMutability": "nonpayable",
      "type": "function"
    },
    {
      "inputs": [],
      "name": "decimals",
      "outputs": [
        {
          "internalType": "uint8",
          "name": "",
          "type": "uint8"
        }
      ],
      "stateMutability": "view",
      "type": "function"
    },
    {
      "inputs": [
        {
          "internalType": "address",
          "name": "spender",
          "type": "address"
        },
        {
          "internalType": "uint256",
          "name": "subtractedValue",
          "type": "uint256"
        }
      ],
      "name": "decreaseAllowance",
      "outputs": [
        {
          "internalType": "bool",
          "name": "",
          "type": "bool"
        }
      ],
      "stateMutability": "nonpayable",
      "type": "function"
    },
    {
      "inputs": [
        {
          "internalType": "bytes32",
          "name": "role",
          "type": "bytes32"
        }
      ],
      "name": "getRoleAdmin",
      "outputs": [
        {
          "internalType": "bytes32",
          "name": "",
          "type": "bytes32"
        }
      ],
      "stateMutability": "view",
      "type": "function"
    },
    {
      "inputs": [
        {
          "internalType": "bytes32",
          "name": "role",
          "type": "bytes32"
        },
        {
          "internalType": "address",
          "name": "account",
          "type": "address"
        }
      ],
      "name": "grantRole",
      "outputs": [],
      "stateMutability": "nonpayable",
      "type": "function"
    },
    {
      "inputs": [
        {
          "internalType": "bytes32",
          "name": "role",
          "type": "bytes32"
        },
        {
          "internalType": "address",
          "name": "account",
          "type": "address"
        }
      ],
      "name": "hasRole",
      "outputs": [
        {
          "internalType": "bool",
          "name": "",
          "type": "bool"
        }
      ],
      "stateMutability": "view",
      "type": "function"
    },
    {
      "inputs": [
        {
          "internalType": "address",
          "name": "spender",
          "type": "address"
        },
        {
          "internalType": "uint256",
          "name": "addedValue",
          "type": "uint256"
        }
      ],
      "name": "increaseAllowance",
      "outputs": [
        {
          "internalType": "bool",
          "name": "",
          "type": "bool"
        }
      ],
      "stateMutability": "nonpayable",
      "type": "function"
    },
    {
      "inputs": [
        {
          "internalType": "string",
          "name": "name",
          "type": "string"
        },
        {
          "internalType": "string",
          "name": "symbol",
          "type": "string"
        },
        {
          "internalType": "address",
          "name": "_longShort",
          "type": "address"
        },
        {
          "internalType": "address",
          "name": "_staker",
          "type": "address"
        },
        {
          "internalType": "uint32",
          "name": "_marketIndex",
          "type": "uint32"
        },
        {
          "internalType": "bool",
          "name": "_isLong",
          "type": "bool"
        }
      ],
      "name": "initialize",
      "outputs": [],
      "stateMutability": "nonpayable",
      "type": "function"
    },
    {
      "inputs": [],
      "name": "isLong",
      "outputs": [
        {
          "internalType": "bool",
          "name": "",
          "type": "bool"
        }
      ],
      "stateMutability": "view",
      "type": "function"
    },
    {
      "inputs": [],
      "name": "longShort",
      "outputs": [
        {
          "internalType": "address",
          "name": "",
          "type": "address"
        }
      ],
      "stateMutability": "view",
      "type": "function"
    },
    {
      "inputs": [],
      "name": "marketIndex",
      "outputs": [
        {
          "internalType": "uint32",
          "name": "",
          "type": "uint32"
        }
      ],
      "stateMutability": "view",
      "type": "function"
    },
    {
      "inputs": [
        {
          "internalType": "address",
          "name": "to",
          "type": "address"
        },
        {
          "internalType": "uint256",
          "name": "amount",
          "type": "uint256"
        }
      ],
      "name": "mint",
      "outputs": [],
      "stateMutability": "nonpayable",
      "type": "function"
    },
    {
      "inputs": [],
      "name": "name",
      "outputs": [
        {
          "internalType": "string",
          "name": "",
          "type": "string"
        }
      ],
      "stateMutability": "view",
      "type": "function"
    },
    {
      "inputs": [
        {
          "internalType": "address",
          "name": "owner",
          "type": "address"
        }
      ],
      "name": "nonces",
      "outputs": [
        {
          "internalType": "uint256",
          "name": "",
          "type": "uint256"
        }
      ],
      "stateMutability": "view",
      "type": "function"
    },
    {
      "inputs": [
        {
          "internalType": "address",
          "name": "owner",
          "type": "address"
        },
        {
          "internalType": "address",
          "name": "spender",
          "type": "address"
        },
        {
          "internalType": "uint256",
          "name": "value",
          "type": "uint256"
        },
        {
          "internalType": "uint256",
          "name": "deadline",
          "type": "uint256"
        },
        {
          "internalType": "uint8",
          "name": "v",
          "type": "uint8"
        },
        {
          "internalType": "bytes32",
          "name": "r",
          "type": "bytes32"
        },
        {
          "internalType": "bytes32",
          "name": "s",
          "type": "bytes32"
        }
      ],
      "name": "permit",
      "outputs": [],
      "stateMutability": "nonpayable",
      "type": "function"
    },
    {
      "inputs": [
        {
          "internalType": "bytes32",
          "name": "role",
          "type": "bytes32"
        },
        {
          "internalType": "address",
          "name": "account",
          "type": "address"
        }
      ],
      "name": "renounceRole",
      "outputs": [],
      "stateMutability": "nonpayable",
      "type": "function"
    },
    {
      "inputs": [
        {
          "internalType": "bytes32",
          "name": "role",
          "type": "bytes32"
        },
        {
          "internalType": "address",
          "name": "account",
          "type": "address"
        }
      ],
      "name": "revokeRole",
      "outputs": [],
      "stateMutability": "nonpayable",
      "type": "function"
    },
    {
      "inputs": [
        {
          "internalType": "uint256",
          "name": "amount",
          "type": "uint256"
        }
      ],
      "name": "stake",
      "outputs": [],
      "stateMutability": "nonpayable",
      "type": "function"
    },
    {
      "inputs": [],
      "name": "staker",
      "outputs": [
        {
          "internalType": "address",
          "name": "",
          "type": "address"
        }
      ],
      "stateMutability": "view",
      "type": "function"
    },
    {
      "inputs": [
        {
          "internalType": "bytes4",
          "name": "interfaceId",
          "type": "bytes4"
        }
      ],
      "name": "supportsInterface",
      "outputs": [
        {
          "internalType": "bool",
          "name": "",
          "type": "bool"
        }
      ],
      "stateMutability": "view",
      "type": "function"
    },
    {
      "inputs": [],
      "name": "symbol",
      "outputs": [
        {
          "internalType": "string",
          "name": "",
          "type": "string"
        }
      ],
      "stateMutability": "view",
      "type": "function"
    },
    {
      "inputs": [],
      "name": "totalSupply",
      "outputs": [
        {
          "internalType": "uint256",
          "name": "",
          "type": "uint256"
        }
      ],
      "stateMutability": "view",
      "type": "function"
    },
    {
      "inputs": [
        {
          "internalType": "address",
          "name": "recipient",
          "type": "address"
        },
        {
          "internalType": "uint256",
          "name": "amount",
          "type": "uint256"
        }
      ],
      "name": "transfer",
      "outputs": [
        {
          "internalType": "bool",
          "name": "",
          "type": "bool"
        }
      ],
      "stateMutability": "nonpayable",
      "type": "function"
    },
    {
      "inputs": [
        {
          "internalType": "address",
          "name": "sender",
          "type": "address"
        },
        {
          "internalType": "address",
          "name": "recipient",
          "type": "address"
        },
        {
          "internalType": "uint256",
          "name": "amount",
          "type": "uint256"
        }
      ],
      "name": "transferFrom",
      "outputs": [
        {
          "internalType": "bool",
          "name": "",
          "type": "bool"
        }
      ],
      "stateMutability": "nonpayable",
      "type": "function"
    },
    {
      "inputs": [
        {
          "internalType": "address",
          "name": "newImplementation",
          "type": "address"
        }
      ],
      "name": "upgradeTo",
      "outputs": [],
      "stateMutability": "nonpayable",
      "type": "function"
    },
    {
      "inputs": [
        {
          "internalType": "address",
          "name": "newImplementation",
          "type": "address"
        },
        {
          "internalType": "bytes",
          "name": "data",
          "type": "bytes"
        }
      ],
      "name": "upgradeToAndCall",
      "outputs": [],
      "stateMutability": "payable",
      "type": "function"
    }
  ],
  "bytecode": "0x60a06040523060601b60805234801561001757600080fd5b5060805160601c612d2b61004b600039600081816108b8015281816108f801528181610a450152610a850152612d2b6000f3fe6080604052600436106101f95760003560e01c80635ebaf1db1161010d578063a457c2d7116100a0578063d505accf1161006f578063d505accf146105ce578063d5391393146105ee578063d547741f14610610578063dd62ed3e14610630578063f72c0d8b14610676576101f9565b8063a457c2d71461054e578063a694fc3a1461056e578063a9059cbb1461058e578063aa432dad146105ae576101f9565b80638c7adc15116100dc5780638c7adc15146104ca57806391d148541461050457806395d89b4114610524578063a217fddf14610539576101f9565b80635ebaf1db1461044957806370a082311461046a57806379cc67901461048a5780637ecebe00146104aa576101f9565b80632f2ff15d116101905780633659cfe61161015f5780633659cfe6146103b657806339509351146103d657806340c10f19146103f657806342966c68146104165780634f1ef28614610436576101f9565b80632f2ff15d14610343578063313ce567146103655780633644e5151461038157806336568abe14610396576101f9565b8063202a61a1116101cc578063202a61a11461029857806323b872dd146102ba578063248a9ca3146102da578063299498721461030a576101f9565b806301ffc9a7146101fe57806306fdde0314610233578063095ea7b31461025557806318160ddd14610275575b600080fd5b34801561020a57600080fd5b5061021e61021936600461291e565b6106aa565b60405190151581526020015b60405180910390f35b34801561023f57600080fd5b506102486106e3565b60405161022a9190612aa3565b34801561026157600080fd5b5061021e6102703660046128bb565b610775565b34801561028157600080fd5b5061028a61078b565b60405190815260200161022a565b3480156102a457600080fd5b506101c75461021e90600160c01b900460ff1681565b3480156102c657600080fd5b5061021e6102d53660046127b0565b61079b565b3480156102e657600080fd5b5061028a6102f53660046128e4565b600090815260c9602052604090206001015490565b34801561031657600080fd5b506101c65461032b906001600160a01b031681565b6040516001600160a01b03909116815260200161022a565b34801561034f57600080fd5b5061036361035e3660046128fc565b6107f4565b005b34801561037157600080fd5b506040516012815260200161022a565b34801561038d57600080fd5b5061028a610820565b3480156103a257600080fd5b506103636103b13660046128fc565b61082a565b3480156103c257600080fd5b506103636103d1366004612764565b6108ad565b3480156103e257600080fd5b5061021e6103f13660046128bb565b610976565b34801561040257600080fd5b506103636104113660046128bb565b6109b2565b34801561042257600080fd5b506103636104313660046128e4565b6109d5565b61036361044436600461285c565b610a3a565b34801561045557600080fd5b506101c75461032b906001600160a01b031681565b34801561047657600080fd5b5061028a610485366004612764565b610af0565b34801561049657600080fd5b506103636104a53660046128bb565b610bbd565b3480156104b657600080fd5b5061028a6104c5366004612764565b610c3e565b3480156104d657600080fd5b506101c7546104ef90600160a01b900463ffffffff1681565b60405163ffffffff909116815260200161022a565b34801561051057600080fd5b5061021e61051f3660046128fc565b610c5d565b34801561053057600080fd5b50610248610c88565b34801561054557600080fd5b5061028a600081565b34801561055a57600080fd5b5061021e6105693660046128bb565b610c97565b34801561057a57600080fd5b506103636105893660046128e4565b610d30565b34801561059a57600080fd5b5061021e6105a93660046128bb565b610db1565b3480156105ba57600080fd5b506103636105c9366004612946565b610dbd565b3480156105da57600080fd5b506103636105e93660046127eb565b610f24565b3480156105fa57600080fd5b5061028a600080516020612cd683398151915281565b34801561061c57600080fd5b5061036361062b3660046128fc565b61106b565b34801561063c57600080fd5b5061028a61064b36600461277e565b6001600160a01b03918216600090815260346020908152604080832093909416825291909152205490565b34801561068257600080fd5b5061028a7f189ab7a9244df0848122154315af71fe140f3db0fe014031783b0946b8c9d2e381565b60006001600160e01b03198216637965db0b60e01b14806106db57506301ffc9a760e01b6001600160e01b03198316145b90505b919050565b6060603680546106f290612c4d565b80601f016020809104026020016040519081016040528092919081815260200182805461071e90612c4d565b801561076b5780601f106107405761010080835404028352916020019161076b565b820191906000526020600020905b81548152906001019060200180831161074e57829003601f168201915b5050505050905090565b6000610782338484611091565b50600192915050565b600061079660355490565b905090565b6101c6546000906001600160a01b0384811691161480156107c757506101c6546001600160a01b031633145b156107df576107d78484846111b5565b5060016107ed565b6107ea848484611390565b90505b9392505050565b600082815260c9602052604090206001015461081181335b61143a565b61081b838361149e565b505050565b6000610796611524565b6001600160a01b038116331461089f5760405162461bcd60e51b815260206004820152602f60248201527f416363657373436f6e74726f6c3a2063616e206f6e6c792072656e6f756e636560448201526e103937b632b9903337b91039b2b63360891b60648201526084015b60405180910390fd5b6108a9828261159f565b5050565b306001600160a01b037f00000000000000000000000000000000000000000000000000000000000000001614156108f65760405162461bcd60e51b815260040161089690612ad6565b7f00000000000000000000000000000000000000000000000000000000000000006001600160a01b0316610928611606565b6001600160a01b03161461094e5760405162461bcd60e51b815260040161089690612b22565b61095781611634565b604080516000808252602082019092526109739183919061165f565b50565b3360008181526034602090815260408083206001600160a01b038716845290915281205490916107829185906109ad908690612bbc565b611091565b600080516020612cd68339815191526109cb813361080c565b61081b83836117a3565b6101c6546001600160a01b03163314610a305760405162461bcd60e51b815260206004820152601760248201527f4f6e6c79204c6f6e6753686f727420636f6e74726163740000000000000000006044820152606401610896565b610973338261188f565b306001600160a01b037f0000000000000000000000000000000000000000000000000000000000000000161415610a835760405162461bcd60e51b815260040161089690612ad6565b7f00000000000000000000000000000000000000000000000000000000000000006001600160a01b0316610ab5611606565b6001600160a01b031614610adb5760405162461bcd60e51b815260040161089690612b22565b610ae482611634565b6108a98282600161165f565b6101c6546101c75460405163f68a327f60e01b81526001600160a01b038481166004830152600160a01b830463ffffffff166024830152600160c01b90920460ff1615156044820152600092919091169063f68a327f9060640160206040518083038186803b158015610b6257600080fd5b505afa158015610b76573d6000803e3d6000fd5b505050506040513d601f19601f82011682018060405250810190610b9a91906129fa565b6001600160a01b0383166000908152603360205260409020546106db9190612bbc565b6000610bc9833361064b565b905081811015610c275760405162461bcd60e51b8152602060048201526024808201527f45524332303a206275726e20616d6f756e74206578636565647320616c6c6f77604482015263616e636560e01b6064820152608401610896565b610c348333848403611091565b61081b838361188f565b6001600160a01b038116600090815261012f60205260408120546106db565b600091825260c9602090815260408084206001600160a01b0393909316845291905290205460ff1690565b6060603780546106f290612c4d565b3360009081526034602090815260408083206001600160a01b038616845290915281205482811015610d195760405162461bcd60e51b815260206004820152602560248201527f45524332303a2064656372656173656420616c6c6f77616e63652062656c6f77604482015264207a65726f60d81b6064820152608401610896565b610d263385858403611091565b5060019392505050565b6101c754610d499033906001600160a01b0316836111b5565b6101c7546040516373479edf60e11b8152336004820152602481018390526001600160a01b039091169063e68f3dbe90604401600060405180830381600087803b158015610d9657600080fd5b505af1158015610daa573d6000803e3d6000fd5b5050505050565b60006107ed83836119e9565b600054610100900460ff1680610dd6575060005460ff16155b610df25760405162461bcd60e51b815260040161089690612b6e565b600054610100900460ff16158015610e14576000805461ffff19166101011790555b610e1e87876119f6565b610e26611a75565b610e2e611af0565b610e3787611b4f565b610e3f611a75565b610e4a60003361082a565b610e62600080516020612cd68339815191523361082a565b610e6d600086611bef565b610e85600080516020612cd683398151915286611bef565b610eaf7f189ab7a9244df0848122154315af71fe140f3db0fe014031783b0946b8c9d2e333611bef565b6101c680546001600160a01b0319166001600160a01b03878116919091179091556101c780549186166001600160c01b031990921691909117600160a01b63ffffffff8616021760ff60c01b1916600160c01b841515021790558015610f1b576000805461ff00191690555b50505050505050565b83421115610f745760405162461bcd60e51b815260206004820152601d60248201527f45524332305065726d69743a206578706972656420646561646c696e650000006044820152606401610896565b600061013054888888610f868c611bf9565b6040805160208101969096526001600160a01b0394851690860152929091166060840152608083015260a082015260c0810186905260e0016040516020818303038152906040528051906020012090506000610fe182611c22565b90506000610ff182878787611c70565b9050896001600160a01b0316816001600160a01b0316146110545760405162461bcd60e51b815260206004820152601e60248201527f45524332305065726d69743a20696e76616c6964207369676e617475726500006044820152606401610896565b61105f8a8a8a611091565b50505050505050505050565b600082815260c96020526040902060010154611087813361080c565b61081b838361159f565b6001600160a01b0383166110f35760405162461bcd60e51b8152602060048201526024808201527f45524332303a20617070726f76652066726f6d20746865207a65726f206164646044820152637265737360e01b6064820152608401610896565b6001600160a01b0382166111545760405162461bcd60e51b815260206004820152602260248201527f45524332303a20617070726f766520746f20746865207a65726f206164647265604482015261737360f01b6064820152608401610896565b6001600160a01b0383811660008181526034602090815260408083209487168084529482529182902085905590518481527f8c5be1e5ebec7d5bd14f71427d1e84f3dd0314c0f7b2291e5b200ac8c7c3b925910160405180910390a3505050565b6001600160a01b0383166112195760405162461bcd60e51b815260206004820152602560248201527f45524332303a207472616e736665722066726f6d20746865207a65726f206164604482015264647265737360d81b6064820152608401610896565b6001600160a01b03821661127b5760405162461bcd60e51b815260206004820152602360248201527f45524332303a207472616e7366657220746f20746865207a65726f206164647260448201526265737360e81b6064820152608401610896565b611286838383611c98565b6001600160a01b038316600090815260336020526040902054818110156112fe5760405162461bcd60e51b815260206004820152602660248201527f45524332303a207472616e7366657220616d6f756e7420657863656564732062604482015265616c616e636560d01b6064820152608401610896565b6001600160a01b03808516600090815260336020526040808220858503905591851681529081208054849290611335908490612bbc565b92505081905550826001600160a01b0316846001600160a01b03167fddf252ad1be2c89b69c2b068fc378daa952ba7f163c4a11628f55a4df523b3ef8460405161138191815260200190565b60405180910390a35b50505050565b600061139d8484846111b5565b6001600160a01b0384166000908152603460209081526040808320338452909152902054828110156114225760405162461bcd60e51b815260206004820152602860248201527f45524332303a207472616e7366657220616d6f756e74206578636565647320616044820152676c6c6f77616e636560c01b6064820152608401610896565b61142f8533858403611091565b506001949350505050565b6114448282610c5d565b6108a95761145c816001600160a01b03166014611d2a565b611467836020611d2a565b604051602001611478929190612a2e565b60408051601f198184030181529082905262461bcd60e51b825261089691600401612aa3565b6114a88282610c5d565b6108a957600082815260c9602090815260408083206001600160a01b03851684529091529020805460ff191660011790556114e03390565b6001600160a01b0316816001600160a01b0316837f2f8788117e7eff1d82e926ec794901d17c78024a50270940304540a733656f0d60405160405180910390a45050565b60006107967f8b73c3c69bb8fe3d512ecc4cf759cc79239f7b179b0ffacaa9a75d522b39400f61155360fb5490565b60fc546040805160208101859052908101839052606081018290524660808201523060a082015260009060c0016040516020818303038152906040528051906020012090509392505050565b6115a98282610c5d565b156108a957600082815260c9602090815260408083206001600160a01b0385168085529252808320805460ff1916905551339285917ff6391f5c32d9c69d2a47ea670b442974b53935d1edc7fd64eb21e047a839171b9190a45050565b7f360894a13ba1a3210667c828492db98dca3e2076cc3735a920a3ca505d382bbc546001600160a01b031690565b7f189ab7a9244df0848122154315af71fe140f3db0fe014031783b0946b8c9d2e36108a9813361080c565b6000611669611606565b905061167484611f0c565b6000835111806116815750815b15611692576116908484611fb1565b505b7f4910fdfa16fed3260ed0e7147f7cc6da11a60208b5b9406d12a635614ffd9143805460ff16610daa57805460ff191660011781556040516001600160a01b038316602482015261171190869060440160408051601f198184030181529190526020810180516001600160e01b0316631b2ce7f360e11b179052611fb1565b50805460ff19168155611722611606565b6001600160a01b0316826001600160a01b03161461179a5760405162461bcd60e51b815260206004820152602f60248201527f45524331393637557067726164653a207570677261646520627265616b73206660448201526e75727468657220757067726164657360881b6064820152608401610896565b610daa8561209c565b6001600160a01b0382166117f95760405162461bcd60e51b815260206004820152601f60248201527f45524332303a206d696e7420746f20746865207a65726f2061646472657373006044820152606401610896565b61180560008383611c98565b80603560008282546118179190612bbc565b90915550506001600160a01b03821660009081526033602052604081208054839290611844908490612bbc565b90915550506040518181526001600160a01b038316906000907fddf252ad1be2c89b69c2b068fc378daa952ba7f163c4a11628f55a4df523b3ef9060200160405180910390a36108a9565b6001600160a01b0382166118ef5760405162461bcd60e51b815260206004820152602160248201527f45524332303a206275726e2066726f6d20746865207a65726f206164647265736044820152607360f81b6064820152608401610896565b6118fb82600083611c98565b6001600160a01b0382166000908152603360205260409020548181101561196f5760405162461bcd60e51b815260206004820152602260248201527f45524332303a206275726e20616d6f756e7420657863656564732062616c616e604482015261636560f01b6064820152608401610896565b6001600160a01b038316600090815260336020526040812083830390556035805484929061199e908490612bf3565b90915550506040518281526000906001600160a01b038516907fddf252ad1be2c89b69c2b068fc378daa952ba7f163c4a11628f55a4df523b3ef9060200160405180910390a361081b565b60006107823384846111b5565b600054610100900460ff1680611a0f575060005460ff16155b611a2b5760405162461bcd60e51b815260040161089690612b6e565b600054610100900460ff16158015611a4d576000805461ffff19166101011790555b611a556120dc565b611a5f8383612146565b801561081b576000805461ff0019169055505050565b600054610100900460ff1680611a8e575060005460ff16155b611aaa5760405162461bcd60e51b815260040161089690612b6e565b600054610100900460ff16158015611acc576000805461ffff19166101011790555b611ad46120dc565b611adc6120dc565b8015610973576000805461ff001916905550565b600054610100900460ff1680611b09575060005460ff16155b611b255760405162461bcd60e51b815260040161089690612b6e565b600054610100900460ff16158015611b47576000805461ffff19166101011790555b611acc6120dc565b600054610100900460ff1680611b68575060005460ff16155b611b845760405162461bcd60e51b815260040161089690612b6e565b600054610100900460ff16158015611ba6576000805461ffff19166101011790555b611bae6120dc565b611bd182604051806040016040528060018152602001603160f81b8152506121db565b611bda82612265565b80156108a9576000805461ff00191690555050565b6108a9828261149e565b6001600160a01b038116600090815261012f602052604090208054600181018255905b50919050565b60006106db611c2f611524565b8360405161190160f01b6020820152602281018390526042810182905260009060620160405160208183030381529060405280519060200120905092915050565b6000806000611c81878787876122f6565b91509150611c8e816123e3565b5095945050505050565b6101c6546001600160a01b03848116911614611d25576101c6546101c7546040516344bd03c360e11b81526001600160a01b038681166004830152600160a01b90920463ffffffff16602482015291169063897a078690604401600060405180830381600087803b158015611d0c57600080fd5b505af1158015611d20573d6000803e3d6000fd5b505050505b61081b565b60606000611d39836002612bd4565b611d44906002612bbc565b67ffffffffffffffff811115611d6a57634e487b7160e01b600052604160045260246000fd5b6040519080825280601f01601f191660200182016040528015611d94576020820181803683370190505b509050600360fc1b81600081518110611dbd57634e487b7160e01b600052603260045260246000fd5b60200101906001600160f81b031916908160001a905350600f60fb1b81600181518110611dfa57634e487b7160e01b600052603260045260246000fd5b60200101906001600160f81b031916908160001a9053506000611e1e846002612bd4565b611e29906001612bbc565b90505b6001811115611ebd576f181899199a1a9b1b9c1cb0b131b232b360811b85600f1660108110611e6b57634e487b7160e01b600052603260045260246000fd5b1a60f81b828281518110611e8f57634e487b7160e01b600052603260045260246000fd5b60200101906001600160f81b031916908160001a90535060049490941c93611eb681612c36565b9050611e2c565b5083156107ed5760405162461bcd60e51b815260206004820181905260248201527f537472696e67733a20686578206c656e67746820696e73756666696369656e746044820152606401610896565b803b611f705760405162461bcd60e51b815260206004820152602d60248201527f455243313936373a206e657720696d706c656d656e746174696f6e206973206e60448201526c1bdd08184818dbdb9d1c9858dd609a1b6064820152608401610896565b7f360894a13ba1a3210667c828492db98dca3e2076cc3735a920a3ca505d382bbc80546001600160a01b0319166001600160a01b0392909216919091179055565b6060823b6120105760405162461bcd60e51b815260206004820152602660248201527f416464726573733a2064656c65676174652063616c6c20746f206e6f6e2d636f6044820152651b9d1c9858dd60d21b6064820152608401610896565b600080846001600160a01b03168460405161202b9190612a12565b600060405180830381855af49150503d8060008114612066576040519150601f19603f3d011682016040523d82523d6000602084013e61206b565b606091505b50915091506120938282604051806060016040528060278152602001612caf602791396125e6565b95945050505050565b6120a581611f0c565b6040516001600160a01b038216907fbc7cd75a20ee27fd9adebab32041f755214dbc6bffa90cc0225b39da2e5c2d3b90600090a250565b600054610100900460ff16806120f5575060005460ff16155b6121115760405162461bcd60e51b815260040161089690612b6e565b600054610100900460ff16158015611adc576000805461ffff19166101011790558015610973576000805461ff001916905550565b600054610100900460ff168061215f575060005460ff16155b61217b5760405162461bcd60e51b815260040161089690612b6e565b600054610100900460ff1615801561219d576000805461ffff19166101011790555b82516121b090603690602086019061261f565b5081516121c490603790602085019061261f565b50801561081b576000805461ff0019169055505050565b600054610100900460ff16806121f4575060005460ff16155b6122105760405162461bcd60e51b815260040161089690612b6e565b600054610100900460ff16158015612232576000805461ffff19166101011790555b825160208085019190912083519184019190912060fb9190915560fc55801561081b576000805461ff0019169055505050565b600054610100900460ff168061227e575060005460ff16155b61229a5760405162461bcd60e51b815260040161089690612b6e565b600054610100900460ff161580156122bc576000805461ffff19166101011790555b7f6e71edae12b1b97f4d1f60370fef10105fa2faae0126114a169c64845d6126c96101305580156108a9576000805461ff00191690555050565b6000807f7fffffffffffffffffffffffffffffff5d576e7357a4501ddfe92f46681b20a083111561232d57506000905060036123da565b8460ff16601b1415801561234557508460ff16601c14155b1561235657506000905060046123da565b6040805160008082526020820180845289905260ff881692820192909252606081018690526080810185905260019060a0016020604051602081039080840390855afa1580156123aa573d6000803e3d6000fd5b5050604051601f1901519150506001600160a01b0381166123d3576000600192509250506123da565b9150600090505b94509492505050565b600081600481111561240557634e487b7160e01b600052602160045260246000fd5b141561241057610973565b600181600481111561243257634e487b7160e01b600052602160045260246000fd5b14156124805760405162461bcd60e51b815260206004820152601860248201527f45434453413a20696e76616c6964207369676e617475726500000000000000006044820152606401610896565b60028160048111156124a257634e487b7160e01b600052602160045260246000fd5b14156124f05760405162461bcd60e51b815260206004820152601f60248201527f45434453413a20696e76616c6964207369676e6174757265206c656e677468006044820152606401610896565b600381600481111561251257634e487b7160e01b600052602160045260246000fd5b141561256b5760405162461bcd60e51b815260206004820152602260248201527f45434453413a20696e76616c6964207369676e6174757265202773272076616c604482015261756560f01b6064820152608401610896565b600481600481111561258d57634e487b7160e01b600052602160045260246000fd5b14156109735760405162461bcd60e51b815260206004820152602260248201527f45434453413a20696e76616c6964207369676e6174757265202776272076616c604482015261756560f01b6064820152608401610896565b606083156125f55750816107ed565b8251156126055782518084602001fd5b8160405162461bcd60e51b81526004016108969190612aa3565b82805461262b90612c4d565b90600052602060002090601f01602090048101928261264d5760008555612693565b82601f1061266657805160ff1916838001178555612693565b82800160010185558215612693579182015b82811115612693578251825591602001919060010190612678565b5061269f9291506126a3565b5090565b5b8082111561269f57600081556001016126a4565b600067ffffffffffffffff808411156126d3576126d3612c98565b604051601f8501601f19908116603f011681019082821181831017156126fb576126fb612c98565b8160405280935085815286868601111561271457600080fd5b858560208301376000602087830101525050509392505050565b80356001600160a01b03811681146106de57600080fd5b600082601f830112612755578081fd5b6107ed838335602085016126b8565b600060208284031215612775578081fd5b6107ed8261272e565b60008060408385031215612790578081fd5b6127998361272e565b91506127a76020840161272e565b90509250929050565b6000806000606084860312156127c4578081fd5b6127cd8461272e565b92506127db6020850161272e565b9150604084013590509250925092565b600080600080600080600060e0888a031215612805578283fd5b61280e8861272e565b965061281c6020890161272e565b95506040880135945060608801359350608088013560ff8116811461283f578384fd5b9699959850939692959460a0840135945060c09093013592915050565b6000806040838503121561286e578182fd5b6128778361272e565b9150602083013567ffffffffffffffff811115612892578182fd5b8301601f810185136128a2578182fd5b6128b1858235602084016126b8565b9150509250929050565b600080604083850312156128cd578182fd5b6128d68361272e565b946020939093013593505050565b6000602082840312156128f5578081fd5b5035919050565b6000806040838503121561290e578182fd5b823591506127a76020840161272e565b60006020828403121561292f578081fd5b81356001600160e01b0319811681146107ed578182fd5b60008060008060008060c0878903121561295e578182fd5b863567ffffffffffffffff80821115612975578384fd5b6129818a838b01612745565b97506020890135915080821115612996578384fd5b506129a389828a01612745565b9550506129b26040880161272e565b93506129c06060880161272e565b9250608087013563ffffffff811681146129d8578283fd5b915060a087013580151581146129ec578182fd5b809150509295509295509295565b600060208284031215612a0b578081fd5b5051919050565b60008251612a24818460208701612c0a565b9190910192915050565b60007f416363657373436f6e74726f6c3a206163636f756e742000000000000000000082528351612a66816017850160208801612c0a565b7001034b99036b4b9b9b4b733903937b6329607d1b6017918401918201528351612a97816028840160208801612c0a565b01602801949350505050565b6000602082528251806020840152612ac2816040850160208701612c0a565b601f01601f19169190910160400192915050565b6020808252602c908201527f46756e6374696f6e206d7573742062652063616c6c6564207468726f7567682060408201526b19195b1959d85d1958d85b1b60a21b606082015260800190565b6020808252602c908201527f46756e6374696f6e206d7573742062652063616c6c6564207468726f7567682060408201526b6163746976652070726f787960a01b606082015260800190565b6020808252602e908201527f496e697469616c697a61626c653a20636f6e747261637420697320616c72656160408201526d191e481a5b9a5d1a585b1a5e995960921b606082015260800190565b60008219821115612bcf57612bcf612c82565b500190565b6000816000190483118215151615612bee57612bee612c82565b500290565b600082821015612c0557612c05612c82565b500390565b60005b83811015612c25578181015183820152602001612c0d565b8381111561138a5750506000910152565b600081612c4557612c45612c82565b506000190190565b600181811c90821680612c6157607f821691505b60208210811415611c1c57634e487b7160e01b600052602260045260246000fd5b634e487b7160e01b600052601160045260246000fd5b634e487b7160e01b600052604160045260246000fdfe416464726573733a206c6f772d6c6576656c2064656c65676174652063616c6c206661696c65649f2df0fed2c77648de5860a4cc508cd0818c85b8b8a1ab4ceeef8d981c8956a6a26469706673582212208d5b59840378f273a1ed9c82c2db60375a29cc5480d6f0c730d4ba21a3253dda64736f6c63430008030033",
  "linkReferences": {},
  "deployedLinkReferences": {}
}