{
  "_format": "hh-sol-artifact-1",
  "contractName": "YieldManagerAave_Implementation",
  "sourceName": "contracts/DeployContractImplementations/YieldManagerAave_Implementation.sol",
  "abi": [
    {
      "inputs": [],
      "stateMutability": "nonpayable",
      "type": "constructor"
    },
    {
      "anonymous": false,
      "inputs": [
        {
          "indexed": false,
          "internalType": "address",
          "name": "previousAdmin",
          "type": "address"
        },
        {
          "indexed": false,
          "internalType": "address",
          "name": "newAdmin",
          "type": "address"
        }
      ],
      "name": "AdminChanged",
      "type": "event"
    },
    {
      "anonymous": false,
      "inputs": [
        {
          "indexed": true,
          "internalType": "address",
          "name": "beacon",
          "type": "address"
        }
      ],
      "name": "BeaconUpgraded",
      "type": "event"
    },
    {
      "anonymous": false,
      "inputs": [
        {
          "indexed": false,
          "internalType": "uint256",
          "name": "amount",
          "type": "uint256"
        }
      ],
      "name": "ClaimAaveRewardTokenToTreasury",
      "type": "event"
    },
    {
      "anonymous": false,
      "inputs": [
        {
          "indexed": true,
          "internalType": "bytes32",
          "name": "role",
          "type": "bytes32"
        },
        {
          "indexed": true,
          "internalType": "bytes32",
          "name": "previousAdminRole",
          "type": "bytes32"
        },
        {
          "indexed": true,
          "internalType": "bytes32",
          "name": "newAdminRole",
          "type": "bytes32"
        }
      ],
      "name": "RoleAdminChanged",
      "type": "event"
    },
    {
      "anonymous": false,
      "inputs": [
        {
          "indexed": true,
          "internalType": "bytes32",
          "name": "role",
          "type": "bytes32"
        },
        {
          "indexed": true,
          "internalType": "address",
          "name": "account",
          "type": "address"
        },
        {
          "indexed": true,
          "internalType": "address",
          "name": "sender",
          "type": "address"
        }
      ],
      "name": "RoleGranted",
      "type": "event"
    },
    {
      "anonymous": false,
      "inputs": [
        {
          "indexed": true,
          "internalType": "bytes32",
          "name": "role",
          "type": "bytes32"
        },
        {
          "indexed": true,
          "internalType": "address",
          "name": "account",
          "type": "address"
        },
        {
          "indexed": true,
          "internalType": "address",
          "name": "sender",
          "type": "address"
        }
      ],
      "name": "RoleRevoked",
      "type": "event"
    },
    {
      "anonymous": false,
      "inputs": [
        {
          "indexed": true,
          "internalType": "address",
          "name": "implementation",
          "type": "address"
        }
      ],
      "name": "Upgraded",
      "type": "event"
    },
    {
      "anonymous": false,
      "inputs": [],
      "name": "WithdrawTreasuryFunds",
      "type": "event"
    },
    {
      "anonymous": false,
      "inputs": [
        {
          "indexed": false,
          "internalType": "uint256",
          "name": "unrealizedYield",
          "type": "uint256"
        },
        {
          "indexed": false,
          "internalType": "uint256",
          "name": "treasuryYieldPercent_e18",
          "type": "uint256"
        }
      ],
      "name": "YieldDistributed",
      "type": "event"
    },
    {
      "inputs": [],
      "name": "ADMIN_ROLE",
      "outputs": [
        {
          "internalType": "bytes32",
          "name": "",
          "type": "bytes32"
        }
      ],
      "stateMutability": "view",
      "type": "function"
    },
    {
      "inputs": [],
      "name": "DEFAULT_ADMIN_ROLE",
      "outputs": [
        {
          "internalType": "bytes32",
          "name": "",
          "type": "bytes32"
        }
      ],
      "stateMutability": "view",
      "type": "function"
    },
    {
      "inputs": [],
      "name": "UPGRADER_ROLE",
      "outputs": [
        {
          "internalType": "bytes32",
          "name": "",
          "type": "bytes32"
        }
      ],
      "stateMutability": "view",
      "type": "function"
    },
    {
      "inputs": [],
      "name": "aToken",
      "outputs": [
        {
          "internalType": "contract IERC20Upgradeable",
          "name": "",
          "type": "address"
        }
      ],
      "stateMutability": "view",
      "type": "function"
    },
    {
      "inputs": [],
      "name": "aaveIncentivesController",
      "outputs": [
        {
          "internalType": "contract IAaveIncentivesController",
          "name": "",
          "type": "address"
        }
      ],
      "stateMutability": "view",
      "type": "function"
    },
    {
      "inputs": [],
      "name": "amountReservedInCaseOfInsufficientAaveLiquidity",
      "outputs": [
        {
          "internalType": "uint256",
          "name": "",
          "type": "uint256"
        }
      ],
      "stateMutability": "view",
      "type": "function"
    },
    {
      "inputs": [],
      "name": "claimAaveRewardsToTreasury",
      "outputs": [],
      "stateMutability": "nonpayable",
      "type": "function"
    },
    {
      "inputs": [
        {
          "internalType": "uint256",
          "name": "amount",
          "type": "uint256"
        }
      ],
      "name": "depositPaymentToken",
      "outputs": [],
      "stateMutability": "nonpayable",
      "type": "function"
    },
    {
      "inputs": [
        {
          "internalType": "uint256",
          "name": "totalValueRealizedForMarket",
          "type": "uint256"
        },
        {
          "internalType": "uint256",
          "name": "treasuryYieldPercent_e18",
          "type": "uint256"
        }
      ],
      "name": "distributeYieldForTreasuryAndReturnMarketAllocation",
      "outputs": [
        {
          "internalType": "uint256",
          "name": "",
          "type": "uint256"
        }
      ],
      "stateMutability": "nonpayable",
      "type": "function"
    },
    {
      "inputs": [
        {
          "internalType": "bytes32",
          "name": "role",
          "type": "bytes32"
        }
      ],
      "name": "getRoleAdmin",
      "outputs": [
        {
          "internalType": "bytes32",
          "name": "",
          "type": "bytes32"
        }
      ],
      "stateMutability": "view",
      "type": "function"
    },
    {
      "inputs": [
        {
          "internalType": "bytes32",
          "name": "role",
          "type": "bytes32"
        },
        {
          "internalType": "address",
          "name": "account",
          "type": "address"
        }
      ],
      "name": "grantRole",
      "outputs": [],
      "stateMutability": "nonpayable",
      "type": "function"
    },
    {
      "inputs": [
        {
          "internalType": "bytes32",
          "name": "role",
          "type": "bytes32"
        },
        {
          "internalType": "address",
          "name": "account",
          "type": "address"
        }
      ],
      "name": "hasRole",
      "outputs": [
        {
          "internalType": "bool",
          "name": "",
          "type": "bool"
        }
      ],
      "stateMutability": "view",
      "type": "function"
    },
    {
      "inputs": [
        {
          "internalType": "address",
          "name": "_longShort",
          "type": "address"
        },
        {
          "internalType": "address",
          "name": "_treasury",
          "type": "address"
        },
        {
          "internalType": "address",
          "name": "_paymentToken",
          "type": "address"
        },
        {
          "internalType": "address",
          "name": "_aToken",
          "type": "address"
        },
        {
          "internalType": "address",
          "name": "_lendingPoolAddressesProvider",
          "type": "address"
        },
        {
          "internalType": "address",
          "name": "_aaveIncentivesController",
          "type": "address"
        },
        {
          "internalType": "uint16",
          "name": "_aaveReferralCode",
          "type": "uint16"
        },
        {
          "internalType": "address",
          "name": "_admin",
          "type": "address"
        }
      ],
      "name": "initialize",
      "outputs": [],
      "stateMutability": "nonpayable",
      "type": "function"
    },
    {
      "inputs": [],
      "name": "initializeForMarket",
      "outputs": [],
      "stateMutability": "nonpayable",
      "type": "function"
    },
    {
      "inputs": [],
      "name": "isInitialized",
      "outputs": [
        {
          "internalType": "bool",
          "name": "",
          "type": "bool"
        }
      ],
      "stateMutability": "view",
      "type": "function"
    },
    {
      "inputs": [],
      "name": "lendingPoolAddressesProvider",
      "outputs": [
        {
          "internalType": "contract ILendingPoolAddressesProvider",
          "name": "",
          "type": "address"
        }
      ],
      "stateMutability": "view",
      "type": "function"
    },
    {
      "inputs": [],
      "name": "longShort",
      "outputs": [
        {
          "internalType": "address",
          "name": "",
          "type": "address"
        }
      ],
      "stateMutability": "view",
      "type": "function"
    },
    {
      "inputs": [],
      "name": "paymentToken",
      "outputs": [
        {
          "internalType": "contract IERC20",
          "name": "",
          "type": "address"
        }
      ],
      "stateMutability": "view",
      "type": "function"
    },
    {
      "inputs": [
        {
          "internalType": "uint256",
          "name": "amount",
          "type": "uint256"
        }
      ],
      "name": "removePaymentTokenFromMarket",
      "outputs": [],
      "stateMutability": "nonpayable",
      "type": "function"
    },
    {
      "inputs": [
        {
          "internalType": "bytes32",
          "name": "role",
          "type": "bytes32"
        },
        {
          "internalType": "address",
          "name": "account",
          "type": "address"
        }
      ],
      "name": "renounceRole",
      "outputs": [],
      "stateMutability": "nonpayable",
      "type": "function"
    },
    {
      "inputs": [
        {
          "internalType": "bytes32",
          "name": "role",
          "type": "bytes32"
        },
        {
          "internalType": "address",
          "name": "account",
          "type": "address"
        }
      ],
      "name": "revokeRole",
      "outputs": [],
      "stateMutability": "nonpayable",
      "type": "function"
    },
    {
      "inputs": [
        {
          "internalType": "bytes4",
          "name": "interfaceId",
          "type": "bytes4"
        }
      ],
      "name": "supportsInterface",
      "outputs": [
        {
          "internalType": "bool",
          "name": "",
          "type": "bool"
        }
      ],
      "stateMutability": "view",
      "type": "function"
    },
    {
      "inputs": [],
      "name": "totalReservedForTreasury",
      "outputs": [
        {
          "internalType": "uint256",
          "name": "",
          "type": "uint256"
        }
      ],
      "stateMutability": "view",
      "type": "function"
    },
    {
      "inputs": [
        {
          "internalType": "address",
          "name": "user",
          "type": "address"
        },
        {
          "internalType": "uint256",
          "name": "amount",
          "type": "uint256"
        }
      ],
      "name": "transferPaymentTokensToUser",
      "outputs": [],
      "stateMutability": "nonpayable",
      "type": "function"
    },
    {
      "inputs": [],
      "name": "treasury",
      "outputs": [
        {
          "internalType": "address",
          "name": "",
          "type": "address"
        }
      ],
      "stateMutability": "view",
      "type": "function"
    },
    {
      "inputs": [],
      "name": "updateLatestLendingPoolAddress",
      "outputs": [],
      "stateMutability": "nonpayable",
      "type": "function"
    },
    {
      "inputs": [
        {
          "internalType": "address",
          "name": "newImplementation",
          "type": "address"
        }
      ],
      "name": "upgradeTo",
      "outputs": [],
      "stateMutability": "nonpayable",
      "type": "function"
    },
    {
      "inputs": [
        {
          "internalType": "address",
          "name": "newImplementation",
          "type": "address"
        },
        {
          "internalType": "bytes",
          "name": "data",
          "type": "bytes"
        }
      ],
      "name": "upgradeToAndCall",
      "outputs": [],
      "stateMutability": "payable",
      "type": "function"
    },
    {
      "inputs": [],
      "name": "withdrawTreasuryFunds",
      "outputs": [],
      "stateMutability": "nonpayable",
      "type": "function"
    }
  ],
  "bytecode": "0x60a06040523060601b6080523480156200001857600080fd5b5073f10a7f10a7f10a7f10a7f10a7f10a7f10a7f10a76200004181808080808060018162000048565b50620006af565b600054610100900460ff168062000062575060005460ff16155b620000ba5760405162461bcd60e51b815260206004820152602e602482015260008051602062002c8983398151915260448201526d191e481a5b9a5d1a585b1a5e995960921b60648201526084015b60405180910390fd5b600054610100900460ff16158015620000dd576000805461ffff19166101011790555b6001600160a01b03891615801590620000fe57506001600160a01b03881615155b80156200011357506001600160a01b03871615155b80156200012857506001600160a01b03861615155b80156200013d57506001600160a01b03851615155b80156200015257506001600160a01b03841615155b80156200016757506001600160a01b03821615155b6200017157600080fd5b60fb80546001600160a01b03808c166001600160a01b03199283161790925560fc8054928b1692909116919091179055620001ac826200022d565b610100805460fd80546001600160a01b03808c166001600160a01b03199283161790925560fe80548b841690831617905560ff80548a841690831617905590871661ffff8716600160a01b02919091166001600160b01b031990921691909117179055801562000222576000805461ff00191690555b505050505050505050565b600054610100900460ff168062000247575060005460ff16155b6200029b5760405162461bcd60e51b815260206004820152602e602482015260008051602062002c8983398151915260448201526d191e481a5b9a5d1a585b1a5e995960921b6064820152608401620000b1565b600054610100900460ff16158015620002be576000805461ffff19166101011790555b620002c8620002f4565b620002d2620003b9565b620002dd8262000453565b8015620002f0576000805461ff00191690555b5050565b600054610100900460ff16806200030e575060005460ff16155b620003625760405162461bcd60e51b815260206004820152602e602482015260008051602062002c8983398151915260448201526d191e481a5b9a5d1a585b1a5e995960921b6064820152608401620000b1565b600054610100900460ff1615801562000385576000805461ffff19166101011790555b6200038f6200055d565b620003996200055d565b620003a36200055d565b8015620003b6576000805461ff00191690555b50565b600054610100900460ff1680620003d3575060005460ff16155b620004275760405162461bcd60e51b815260206004820152602e602482015260008051602062002c8983398151915260448201526d191e481a5b9a5d1a585b1a5e995960921b6064820152608401620000b1565b600054610100900460ff161580156200038f576000805461ffff1916610101179055620003996200055d565b600054610100900460ff16806200046d575060005460ff16155b620004c15760405162461bcd60e51b815260206004820152602e602482015260008051602062002c8983398151915260448201526d191e481a5b9a5d1a585b1a5e995960921b6064820152608401620000b1565b600054610100900460ff16158015620004e4576000805461ffff19166101011790555b6001600160a01b038216620004f857600080fd5b6200050560008362000602565b620005317fa49807205ce4d355092ef5a8a18f56e8913cf4a201fbe287825b095693c217758362000602565b620002dd7f189ab7a9244df0848122154315af71fe140f3db0fe014031783b0946b8c9d2e38362000602565b600054610100900460ff168062000577575060005460ff16155b620005cb5760405162461bcd60e51b815260206004820152602e602482015260008051602062002c8983398151915260448201526d191e481a5b9a5d1a585b1a5e995960921b6064820152608401620000b1565b600054610100900460ff16158015620003a3576000805461ffff19166101011790558015620003b6576000805461ff001916905550565b60008281526065602090815260408083206001600160a01b0385168452909152902054620002f0908390839060ff16620002f05760008281526065602090815260408083206001600160a01b03851684529091529020805460ff191660011790556200066b3390565b6001600160a01b0316816001600160a01b0316837f2f8788117e7eff1d82e926ec794901d17c78024a50270940304540a733656f0d60405160405180910390a45050565b60805160601c6125a6620006e360003960008181610a7f01528181610abf01528181610c890152610cc901526125a66000f3fe6080604052600436106101c25760003560e01c80634f1ef286116100f757806391d1485411610095578063d547741f11610064578063d547741f146104ff578063eb6bffa21461051f578063edf565cc1461053f578063f72c0d8b14610554576101c2565b806391d148541461048a578063a0c1f15e146104aa578063a217fddf146104ca578063bba00ba5146104df576101c2565b806361d027b3116100d157806361d027b3146103f657806375b238fc146104165780638a5599b21461044a5780639063ee201461046a576101c2565b80634f1ef286146103a25780635d3a3890146103b55780635f2475ca146103d5576101c2565b80632f2ff15d1161016457806336568abe1161013e57806336568abe1461032c5780633659cfe61461034c578063392e53cd1461036c578063447479db1461038d576101c2565b80632f2ff15d146102d75780633013ce29146102f757806334944bb014610317576101c2565b80632429e535116101a05780632429e53514610233578063248a9ca31461025857806329949872146102885780632ae320cb146102c0576101c2565b806301ffc9a7146101c757806315429969146101fc5780631c499b5514610213575b600080fd5b3480156101d357600080fd5b506101e76101e23660046121bd565b610588565b60405190151581526020015b60405180910390f35b34801561020857600080fd5b506102116105bf565b005b34801561021f57600080fd5b5061021161022e366004612176565b6106ca565b34801561023f57600080fd5b5061024a6101015481565b6040519081526020016101f3565b34801561026457600080fd5b5061024a610273366004612176565b60009081526065602052604090206001015490565b34801561029457600080fd5b5060fb546102a8906001600160a01b031681565b6040516001600160a01b0390911681526020016101f3565b3480156102cc57600080fd5b5061024a6101025481565b3480156102e357600080fd5b506102116102f236600461218e565b61082c565b34801561030357600080fd5b5060fd546102a8906001600160a01b031681565b34801561032357600080fd5b50610211610858565b34801561033857600080fd5b5061021161034736600461218e565b6109fa565b34801561035857600080fd5b50610211610367366004611f86565b610a74565b34801561037857600080fd5b5060fc546101e790600160a01b900460ff1681565b34801561039957600080fd5b50610211610b3a565b6102116103b036600461206c565b610c7e565b3480156103c157600080fd5b506102116103d0366004611fbe565b610d34565b3480156103e157600080fd5b50610100546102a8906001600160a01b031681565b34801561040257600080fd5b5060fc546102a8906001600160a01b031681565b34801561042257600080fd5b5061024a7fa49807205ce4d355092ef5a8a18f56e8913cf4a201fbe287825b095693c2177581565b34801561045657600080fd5b5061024a6104653660046121fd565b610eba565b34801561047657600080fd5b50610211610485366004612176565b61102c565b34801561049657600080fd5b506101e76104a536600461218e565b61119c565b3480156104b657600080fd5b5060fe546102a8906001600160a01b031681565b3480156104d657600080fd5b5061024a600081565b3480156104eb57600080fd5b5060ff546102a8906001600160a01b031681565b34801561050b57600080fd5b5061021161051a36600461218e565b6111c7565b34801561052b57600080fd5b5061021161053a36600461212b565b6111ed565b34801561054b57600080fd5b506102116113ce565b34801561056057600080fd5b5061024a7f189ab7a9244df0848122154315af71fe140f3db0fe014031783b0946b8c9d2e381565b60006001600160e01b03198216637965db0b60e01b14806105b957506301ffc9a760e01b6001600160e01b03198316145b92915050565b60fd5460ff5460408051630261bf8b60e01b815290516001600160a01b039384169363095ea7b3931691630261bf8b916004808301926020929190829003018186803b15801561060e57600080fd5b505afa158015610622573d6000803e3d6000fd5b505050506040513d601f19601f820116820180604052508101906106469190611fa2565b6040516001600160e01b031960e084901b1681526001600160a01b0390911660048201526000196024820152604401602060405180830381600087803b15801561068f57600080fd5b505af11580156106a3573d6000803e3d6000fd5b505050506040513d601f19601f820116820180604052508101906106c79190612156565b50565b60fb546001600160a01b031633146106fd5760405162461bcd60e51b81526004016106f490612346565b60405180910390fd5b60ff60009054906101000a90046001600160a01b03166001600160a01b0316630261bf8b6040518163ffffffff1660e01b815260040160206040518083038186803b15801561074b57600080fd5b505afa15801561075f573d6000803e3d6000fd5b505050506040513d601f19601f820116820180604052508101906107839190611fa2565b60fd54604051631a4ca37b60e21b81526001600160a01b039182166004820152602481018490523060448201529116906369328dec90606401602060405180830381600087803b1580156107d657600080fd5b505af1925050508015610806575060408051601f3d908101601f19168201909252610803918101906121e5565b60015b6108285780610102600082825461081d9190612453565b909155506106c79050565b5050565b60008281526065602052604090206001015461084981335b611467565b61085383836114cb565b505050565b61010054604051630cc7d40f60e11b81523060048201526001600160a01b0390911690600090829063198fa81e9060240160206040518083038186803b1580156108a157600080fd5b505afa1580156108b5573d6000803e3d6000fd5b505050506040513d601f19601f820116820180604052508101906108d991906121e5565b6040805160018082528183019092529192506000919060208083019080368337505060fe5482519293506001600160a01b03169183915060009061092d57634e487b7160e01b600052603260045260246000fd5b6001600160a01b03928316602091820292909201015260fc54604051633111e7b360e01b815285831692633111e7b39261096f928692889216906004016122af565b602060405180830381600087803b15801561098957600080fd5b505af115801561099d573d6000803e3d6000fd5b505050506040513d601f19601f820116820180604052508101906109c191906121e5565b506040518281527fbdeb6031c2eac1ba6d1bd54a501b8942cf452ed6eb9f9a58512591a1faea22a49060200160405180910390a1505050565b6001600160a01b0381163314610a6a5760405162461bcd60e51b815260206004820152602f60248201527f416363657373436f6e74726f6c3a2063616e206f6e6c792072656e6f756e636560448201526e103937b632b9903337b91039b2b63360891b60648201526084016106f4565b6108288282611551565b306001600160a01b037f0000000000000000000000000000000000000000000000000000000000000000161415610abd5760405162461bcd60e51b81526004016106f49061236d565b7f00000000000000000000000000000000000000000000000000000000000000006001600160a01b0316610aef6115b8565b6001600160a01b031614610b155760405162461bcd60e51b81526004016106f4906123b9565b610b1e816115e6565b604080516000808252602082019092526106c791839190611611565b6101018054600090915560ff5460408051630261bf8b60e01b815290516001600160a01b0390921691630261bf8b91600480820192602092909190829003018186803b158015610b8957600080fd5b505afa158015610b9d573d6000803e3d6000fd5b505050506040513d601f19601f82011682018060405250810190610bc19190611fa2565b60fd5460fc54604051631a4ca37b60e21b81526001600160a01b0392831660048201526024810185905290821660448201529116906369328dec90606401602060405180830381600087803b158015610c1957600080fd5b505af1158015610c2d573d6000803e3d6000fd5b505050506040513d601f19601f82011682018060405250810190610c5191906121e5565b506040517f5b1d5b57337c7653ccd178787bc6e5aa6f8a6ee09b781e7a624d776e69d044cb90600090a150565b306001600160a01b037f0000000000000000000000000000000000000000000000000000000000000000161415610cc75760405162461bcd60e51b81526004016106f49061236d565b7f00000000000000000000000000000000000000000000000000000000000000006001600160a01b0316610cf96115b8565b6001600160a01b031614610d1f5760405162461bcd60e51b81526004016106f4906123b9565b610d28826115e6565b61082882826001611611565b600054610100900460ff1680610d4d575060005460ff16155b610d695760405162461bcd60e51b81526004016106f490612405565b600054610100900460ff16158015610d8b576000805461ffff19166101011790555b610d9b8989898989898989611755565b866001600160a01b031663095ea7b3866001600160a01b0316630261bf8b6040518163ffffffff1660e01b815260040160206040518083038186803b158015610de357600080fd5b505afa158015610df7573d6000803e3d6000fd5b505050506040513d601f19601f82011682018060405250810190610e1b9190611fa2565b6040516001600160e01b031960e084901b1681526001600160a01b0390911660048201526000196024820152604401602060405180830381600087803b158015610e6457600080fd5b505af1158015610e78573d6000803e3d6000fd5b505050506040513d601f19601f82011682018060405250810190610e9c9190612156565b508015610eaf576000805461ff00191690555b505050505050505050565b60fb546000906001600160a01b03163314610ee75760405162461bcd60e51b81526004016106f490612346565b60fe546040516370a0823160e01b81523060048201526000916001600160a01b0316906370a082319060240160206040518083038186803b158015610f2b57600080fd5b505afa158015610f3f573d6000803e3d6000fd5b505050506040513d601f19601f82011682018060405250810190610f6391906121e5565b610101546101025491925090600090610f7c8388612453565b610f869190612453565b905082811415610f9c57600093505050506105b9565b6000610fa882856124aa565b90506000670de0b6b3a7640000610fbf888461248b565b610fc9919061246b565b90506000610fd782846124aa565b9050610fe38286612453565b6101015560408051848152602081018a90527ffe4996cd48c364c468cee70dd6b9061874ff01b05c5ea49311cbcabd9b9cb615910160405180910390a198975050505050505050565b60fb546001600160a01b031633146110565760405162461bcd60e51b81526004016106f490612346565b61010254156110935780610102541061107c5780610102600082825461081d91906124aa565b6101025461108a90826124aa565b60006101025590505b60ff60009054906101000a90046001600160a01b03166001600160a01b0316630261bf8b6040518163ffffffff1660e01b815260040160206040518083038186803b1580156110e157600080fd5b505afa1580156110f5573d6000803e3d6000fd5b505050506040513d601f19601f820116820180604052508101906111199190611fa2565b60fd546101005460405163e8eda9df60e01b81526001600160a01b03928316600482015260248101859052306044820152600160a01b90910461ffff16606482015291169063e8eda9df90608401600060405180830381600087803b15801561118157600080fd5b505af1158015611195573d6000803e3d6000fd5b5050505050565b60009182526065602090815260408084206001600160a01b0393909316845291905290205460ff1690565b6000828152606560205260409020600101546111e38133610844565b6108538383611551565b60fb546001600160a01b031633146112175760405162461bcd60e51b81526004016106f490612346565b60fd5460405163a9059cbb60e01b81526001600160a01b038481166004830152602482018490529091169063a9059cbb90604401602060405180830381600087803b15801561126557600080fd5b505af1925050508015611295575060408051601f3d908101601f1916820190925261129291810190612156565b60015b61129e576112ac565b80156112aa5750610828565b505b8061010260008282546112bf91906124aa565b909155505060ff5460408051630261bf8b60e01b815290516001600160a01b0390921691630261bf8b91600480820192602092909190829003018186803b15801561130957600080fd5b505afa15801561131d573d6000803e3d6000fd5b505050506040513d601f19601f820116820180604052508101906113419190611fa2565b60fd54604051631a4ca37b60e21b81526001600160a01b0391821660048201526024810184905284821660448201529116906369328dec90606401602060405180830381600087803b15801561139657600080fd5b505af11580156113aa573d6000803e3d6000fd5b505050506040513d601f19601f8201168201806040525081019061085391906121e5565b60fb546001600160a01b031633146113f85760405162461bcd60e51b81526004016106f490612346565b60fc54600160a01b900460ff16156114525760405162461bcd60e51b815260206004820152601f60248201527f5969656c64204d616e6167657220697320616c726561647920696e207573650060448201526064016106f4565b60fc805460ff60a01b1916600160a01b179055565b611471828261119c565b61082857611489816001600160a01b031660146118f1565b6114948360206118f1565b6040516020016114a592919061223a565b60408051601f198184030181529082905262461bcd60e51b82526106f491600401612313565b6114d5828261119c565b6108285760008281526065602090815260408083206001600160a01b03851684529091529020805460ff1916600117905561150d3390565b6001600160a01b0316816001600160a01b0316837f2f8788117e7eff1d82e926ec794901d17c78024a50270940304540a733656f0d60405160405180910390a45050565b61155b828261119c565b156108285760008281526065602090815260408083206001600160a01b0385168085529252808320805460ff1916905551339285917ff6391f5c32d9c69d2a47ea670b442974b53935d1edc7fd64eb21e047a839171b9190a45050565b7f360894a13ba1a3210667c828492db98dca3e2076cc3735a920a3ca505d382bbc546001600160a01b031690565b7f189ab7a9244df0848122154315af71fe140f3db0fe014031783b0946b8c9d2e36108288133610844565b600061161b6115b8565b905061162684611ada565b6000835111806116335750815b15611644576116428484611b7f565b505b7f4910fdfa16fed3260ed0e7147f7cc6da11a60208b5b9406d12a635614ffd9143805460ff1661119557805460ff191660011781556040516001600160a01b03831660248201526116c390869060440160408051601f198184030181529190526020810180516001600160e01b0316631b2ce7f360e11b179052611b7f565b50805460ff191681556116d46115b8565b6001600160a01b0316826001600160a01b03161461174c5760405162461bcd60e51b815260206004820152602f60248201527f45524331393637557067726164653a207570677261646520627265616b73206660448201526e75727468657220757067726164657360881b60648201526084016106f4565b61119585611c6a565b600054610100900460ff168061176e575060005460ff16155b61178a5760405162461bcd60e51b81526004016106f490612405565b600054610100900460ff161580156117ac576000805461ffff19166101011790555b6001600160a01b038916158015906117cc57506001600160a01b03881615155b80156117e057506001600160a01b03871615155b80156117f457506001600160a01b03861615155b801561180857506001600160a01b03851615155b801561181c57506001600160a01b03841615155b801561183057506001600160a01b03821615155b61183957600080fd5b60fb80546001600160a01b03808c166001600160a01b03199283161790925560fc8054928b169290911691909117905561187282611caa565b610100805460fd80546001600160a01b03808c166001600160a01b03199283161790925560fe80548b841690831617905560ff80548a841690831617905590871661ffff8716600160a01b02919091166001600160b01b0319909216919091171790558015610eaf576000805461ff0019169055505050505050505050565b6060600061190083600261248b565b61190b906002612453565b67ffffffffffffffff81111561193157634e487b7160e01b600052604160045260246000fd5b6040519080825280601f01601f19166020018201604052801561195b576020820181803683370190505b509050600360fc1b8160008151811061198457634e487b7160e01b600052603260045260246000fd5b60200101906001600160f81b031916908160001a905350600f60fb1b816001815181106119c157634e487b7160e01b600052603260045260246000fd5b60200101906001600160f81b031916908160001a90535060006119e584600261248b565b6119f0906001612453565b90505b6001811115611a84576f181899199a1a9b1b9c1cb0b131b232b360811b85600f1660108110611a3257634e487b7160e01b600052603260045260246000fd5b1a60f81b828281518110611a5657634e487b7160e01b600052603260045260246000fd5b60200101906001600160f81b031916908160001a90535060049490941c93611a7d816124f1565b90506119f3565b508315611ad35760405162461bcd60e51b815260206004820181905260248201527f537472696e67733a20686578206c656e67746820696e73756666696369656e7460448201526064016106f4565b9392505050565b803b611b3e5760405162461bcd60e51b815260206004820152602d60248201527f455243313936373a206e657720696d706c656d656e746174696f6e206973206e60448201526c1bdd08184818dbdb9d1c9858dd609a1b60648201526084016106f4565b7f360894a13ba1a3210667c828492db98dca3e2076cc3735a920a3ca505d382bbc80546001600160a01b0319166001600160a01b0392909216919091179055565b6060823b611bde5760405162461bcd60e51b815260206004820152602660248201527f416464726573733a2064656c65676174652063616c6c20746f206e6f6e2d636f6044820152651b9d1c9858dd60d21b60648201526084016106f4565b600080846001600160a01b031684604051611bf9919061221e565b600060405180830381855af49150503d8060008114611c34576040519150601f19603f3d011682016040523d82523d6000602084013e611c39565b606091505b5091509150611c61828260405180606001604052806027815260200161254a60279139611d2f565b95945050505050565b611c7381611ada565b6040516001600160a01b038216907fbc7cd75a20ee27fd9adebab32041f755214dbc6bffa90cc0225b39da2e5c2d3b90600090a250565b600054610100900460ff1680611cc3575060005460ff16155b611cdf5760405162461bcd60e51b81526004016106f490612405565b600054610100900460ff16158015611d01576000805461ffff19166101011790555b611d09611d68565b611d11611deb565b611d1a82611e49565b8015610828576000805461ff00191690555050565b60608315611d3e575081611ad3565b825115611d4e5782518084602001fd5b8160405162461bcd60e51b81526004016106f49190612313565b600054610100900460ff1680611d81575060005460ff16155b611d9d5760405162461bcd60e51b81526004016106f490612405565b600054610100900460ff16158015611dbf576000805461ffff19166101011790555b611dc7611f12565b611dcf611f12565b611dd7611f12565b80156106c7576000805461ff001916905550565b600054610100900460ff1680611e04575060005460ff16155b611e205760405162461bcd60e51b81526004016106f490612405565b600054610100900460ff16158015611dc7576000805461ffff1916610101179055611dcf611f12565b600054610100900460ff1680611e62575060005460ff16155b611e7e5760405162461bcd60e51b81526004016106f490612405565b600054610100900460ff16158015611ea0576000805461ffff19166101011790555b6001600160a01b038216611eb357600080fd5b611ebe600083611f7c565b611ee87fa49807205ce4d355092ef5a8a18f56e8913cf4a201fbe287825b095693c2177583611f7c565b611d1a7f189ab7a9244df0848122154315af71fe140f3db0fe014031783b0946b8c9d2e383611f7c565b600054610100900460ff1680611f2b575060005460ff16155b611f475760405162461bcd60e51b81526004016106f490612405565b600054610100900460ff16158015611dd7576000805461ffff191661010117905580156106c7576000805461ff001916905550565b61082882826114cb565b600060208284031215611f97578081fd5b8135611ad381612534565b600060208284031215611fb3578081fd5b8151611ad381612534565b600080600080600080600080610100898b031215611fda578384fd5b8835611fe581612534565b97506020890135611ff581612534565b9650604089013561200581612534565b9550606089013561201581612534565b9450608089013561202581612534565b935060a089013561203581612534565b925060c089013561ffff8116811461204b578283fd5b915060e089013561205b81612534565b809150509295985092959890939650565b6000806040838503121561207e578182fd5b823561208981612534565b9150602083013567ffffffffffffffff808211156120a5578283fd5b818501915085601f8301126120b8578283fd5b8135818111156120ca576120ca61251e565b604051601f8201601f19908116603f011681019083821181831017156120f2576120f261251e565b8160405282815288602084870101111561210a578586fd5b82602086016020830137856020848301015280955050505050509250929050565b6000806040838503121561213d578182fd5b823561214881612534565b946020939093013593505050565b600060208284031215612167578081fd5b81518015158114611ad3578182fd5b600060208284031215612187578081fd5b5035919050565b600080604083850312156121a0578182fd5b8235915060208301356121b281612534565b809150509250929050565b6000602082840312156121ce578081fd5b81356001600160e01b031981168114611ad3578182fd5b6000602082840312156121f6578081fd5b5051919050565b6000806040838503121561220f578182fd5b50508035926020909101359150565b600082516122308184602087016124c1565b9190910192915050565b60007f416363657373436f6e74726f6c3a206163636f756e7420000000000000000000825283516122728160178501602088016124c1565b7001034b99036b4b9b9b4b733903937b6329607d1b60179184019182015283516122a38160288401602088016124c1565b01602801949350505050565b606080825284519082018190526000906020906080840190828801845b828110156122f15781516001600160a01b0316845292840192908401906001016122cc565b50505090830194909452506001600160a01b0391909116604090910152919050565b60006020825282518060208401526123328160408501602087016124c1565b601f01601f19169190910160400192915050565b6020808252600d908201526c139bdd081b1bdb99d4da1bdc9d609a1b604082015260600190565b6020808252602c908201527f46756e6374696f6e206d7573742062652063616c6c6564207468726f7567682060408201526b19195b1959d85d1958d85b1b60a21b606082015260800190565b6020808252602c908201527f46756e6374696f6e206d7573742062652063616c6c6564207468726f7567682060408201526b6163746976652070726f787960a01b606082015260800190565b6020808252602e908201527f496e697469616c697a61626c653a20636f6e747261637420697320616c72656160408201526d191e481a5b9a5d1a585b1a5e995960921b606082015260800190565b6000821982111561246657612466612508565b500190565b60008261248657634e487b7160e01b81526012600452602481fd5b500490565b60008160001904831182151516156124a5576124a5612508565b500290565b6000828210156124bc576124bc612508565b500390565b60005b838110156124dc5781810151838201526020016124c4565b838111156124eb576000848401525b50505050565b60008161250057612500612508565b506000190190565b634e487b7160e01b600052601160045260246000fd5b634e487b7160e01b600052604160045260246000fd5b6001600160a01b03811681146106c757600080fdfe416464726573733a206c6f772d6c6576656c2064656c65676174652063616c6c206661696c6564a2646970667358221220fa18fd35511afb3f2d2fe0f1df258a576a4459c904bbd704001ec4685bc6febd64736f6c63430008030033496e697469616c697a61626c653a20636f6e747261637420697320616c726561",
  "linkReferences": {},
  "deployedLinkReferences": {}
}