{
  "_format": "hh-sol-artifact-1",
  "contractName": "LongShort",
  "sourceName": "contracts/LongShort.sol",
  "abi": [
    {
      "anonymous": false,
      "inputs": [
        {
          "indexed": false,
          "internalType": "address",
          "name": "previousAdmin",
          "type": "address"
        },
        {
          "indexed": false,
          "internalType": "address",
          "name": "newAdmin",
          "type": "address"
        }
      ],
      "name": "AdminChanged",
      "type": "event"
    },
    {
      "anonymous": false,
      "inputs": [
        {
          "indexed": true,
          "internalType": "address",
          "name": "beacon",
          "type": "address"
        }
      ],
      "name": "BeaconUpgraded",
      "type": "event"
    },
    {
      "anonymous": false,
      "inputs": [
        {
          "indexed": false,
          "internalType": "address",
          "name": "user",
          "type": "address"
        },
        {
          "indexed": false,
          "internalType": "uint32",
          "name": "marketIndex",
          "type": "uint32"
        }
      ],
      "name": "ExecuteNextPriceSettlementsUser",
      "type": "event"
    },
    {
      "anonymous": false,
      "inputs": [
        {
          "indexed": false,
          "internalType": "address",
          "name": "admin",
          "type": "address"
        },
        {
          "indexed": false,
          "internalType": "address",
          "name": "tokenFactory",
          "type": "address"
        },
        {
          "indexed": false,
          "internalType": "address",
          "name": "staker",
          "type": "address"
        }
      ],
      "name": "LongShortV1",
      "type": "event"
    },
    {
      "anonymous": false,
      "inputs": [
        {
          "indexed": false,
          "internalType": "uint32",
          "name": "marketIndex",
          "type": "uint32"
        },
        {
          "indexed": false,
          "internalType": "uint256",
          "name": "initialSeed",
          "type": "uint256"
        },
        {
          "indexed": false,
          "internalType": "uint256",
          "name": "marketLeverage",
          "type": "uint256"
        }
      ],
      "name": "NewMarketLaunchedAndSeeded",
      "type": "event"
    },
    {
      "anonymous": false,
      "inputs": [
        {
          "indexed": false,
          "internalType": "uint32",
          "name": "marketIndex",
          "type": "uint32"
        },
        {
          "indexed": false,
          "internalType": "bool",
          "name": "isLong",
          "type": "bool"
        },
        {
          "indexed": false,
          "internalType": "uint256",
          "name": "depositAdded",
          "type": "uint256"
        },
        {
          "indexed": false,
          "internalType": "address",
          "name": "user",
          "type": "address"
        },
        {
          "indexed": false,
          "internalType": "uint256",
          "name": "oracleUpdateIndex",
          "type": "uint256"
        }
      ],
      "name": "NextPriceDeposit",
      "type": "event"
    },
    {
      "anonymous": false,
      "inputs": [
        {
          "indexed": false,
          "internalType": "uint32",
          "name": "marketIndex",
          "type": "uint32"
        },
        {
          "indexed": false,
          "internalType": "bool",
          "name": "isLong",
          "type": "bool"
        },
        {
          "indexed": false,
          "internalType": "uint256",
          "name": "synthRedeemed",
          "type": "uint256"
        },
        {
          "indexed": false,
          "internalType": "address",
          "name": "user",
          "type": "address"
        },
        {
          "indexed": false,
          "internalType": "uint256",
          "name": "oracleUpdateIndex",
          "type": "uint256"
        }
      ],
      "name": "NextPriceRedeem",
      "type": "event"
    },
    {
      "anonymous": false,
      "inputs": [
        {
          "indexed": false,
          "internalType": "uint32",
          "name": "marketIndex",
          "type": "uint32"
        },
        {
          "indexed": false,
          "internalType": "bool",
          "name": "isShiftFromLong",
          "type": "bool"
        },
        {
          "indexed": false,
          "internalType": "uint256",
          "name": "synthShifted",
          "type": "uint256"
        },
        {
          "indexed": false,
          "internalType": "address",
          "name": "user",
          "type": "address"
        },
        {
          "indexed": false,
          "internalType": "uint256",
          "name": "oracleUpdateIndex",
          "type": "uint256"
        }
      ],
      "name": "NextPriceSyntheticPositionShift",
      "type": "event"
    },
    {
      "anonymous": false,
      "inputs": [
        {
          "indexed": false,
          "internalType": "uint32",
          "name": "marketIndex",
          "type": "uint32"
        },
        {
          "indexed": false,
          "internalType": "address",
          "name": "oldOracleAddress",
          "type": "address"
        },
        {
          "indexed": false,
          "internalType": "address",
          "name": "newOracleAddress",
          "type": "address"
        }
      ],
      "name": "OracleUpdated",
      "type": "event"
    },
    {
      "anonymous": false,
      "inputs": [
        {
          "indexed": true,
          "internalType": "bytes32",
          "name": "role",
          "type": "bytes32"
        },
        {
          "indexed": true,
          "internalType": "bytes32",
          "name": "previousAdminRole",
          "type": "bytes32"
        },
        {
          "indexed": true,
          "internalType": "bytes32",
          "name": "newAdminRole",
          "type": "bytes32"
        }
      ],
      "name": "RoleAdminChanged",
      "type": "event"
    },
    {
      "anonymous": false,
      "inputs": [
        {
          "indexed": true,
          "internalType": "bytes32",
          "name": "role",
          "type": "bytes32"
        },
        {
          "indexed": true,
          "internalType": "address",
          "name": "account",
          "type": "address"
        },
        {
          "indexed": true,
          "internalType": "address",
          "name": "sender",
          "type": "address"
        }
      ],
      "name": "RoleGranted",
      "type": "event"
    },
    {
      "anonymous": false,
      "inputs": [
        {
          "indexed": true,
          "internalType": "bytes32",
          "name": "role",
          "type": "bytes32"
        },
        {
          "indexed": true,
          "internalType": "address",
          "name": "account",
          "type": "address"
        },
        {
          "indexed": true,
          "internalType": "address",
          "name": "sender",
          "type": "address"
        }
      ],
      "name": "RoleRevoked",
      "type": "event"
    },
    {
      "anonymous": false,
      "inputs": [
        {
          "indexed": false,
          "internalType": "uint32",
          "name": "marketIndex",
          "type": "uint32"
        },
        {
          "indexed": false,
          "internalType": "address",
          "name": "longTokenAddress",
          "type": "address"
        },
        {
          "indexed": false,
          "internalType": "address",
          "name": "shortTokenAddress",
          "type": "address"
        },
        {
          "indexed": false,
          "internalType": "address",
          "name": "paymentToken",
          "type": "address"
        },
        {
          "indexed": false,
          "internalType": "int256",
          "name": "initialAssetPrice",
          "type": "int256"
        },
        {
          "indexed": false,
          "internalType": "string",
          "name": "name",
          "type": "string"
        },
        {
          "indexed": false,
          "internalType": "string",
          "name": "symbol",
          "type": "string"
        },
        {
          "indexed": false,
          "internalType": "address",
          "name": "oracleAddress",
          "type": "address"
        },
        {
          "indexed": false,
          "internalType": "address",
          "name": "yieldManagerAddress",
          "type": "address"
        }
      ],
      "name": "SyntheticMarketCreated",
      "type": "event"
    },
    {
      "anonymous": false,
      "inputs": [
        {
          "indexed": false,
          "internalType": "uint32",
          "name": "marketIndex",
          "type": "uint32"
        },
        {
          "indexed": false,
          "internalType": "uint256",
          "name": "updateIndex",
          "type": "uint256"
        },
        {
          "indexed": false,
          "internalType": "int256",
          "name": "underlyingAssetPrice",
          "type": "int256"
        },
        {
          "indexed": false,
          "internalType": "uint256",
          "name": "longValue",
          "type": "uint256"
        },
        {
          "indexed": false,
          "internalType": "uint256",
          "name": "shortValue",
          "type": "uint256"
        },
        {
          "indexed": false,
          "internalType": "uint256",
          "name": "longPrice",
          "type": "uint256"
        },
        {
          "indexed": false,
          "internalType": "uint256",
          "name": "shortPrice",
          "type": "uint256"
        }
      ],
      "name": "SystemStateUpdated",
      "type": "event"
    },
    {
      "anonymous": false,
      "inputs": [
        {
          "indexed": true,
          "internalType": "address",
          "name": "implementation",
          "type": "address"
        }
      ],
      "name": "Upgraded",
      "type": "event"
    },
    {
      "inputs": [],
      "name": "ADMIN_ROLE",
      "outputs": [
        {
          "internalType": "bytes32",
          "name": "",
          "type": "bytes32"
        }
      ],
      "stateMutability": "view",
      "type": "function"
    },
    {
      "inputs": [],
      "name": "DEFAULT_ADMIN_ROLE",
      "outputs": [
        {
          "internalType": "bytes32",
          "name": "",
          "type": "bytes32"
        }
      ],
      "stateMutability": "view",
      "type": "function"
    },
    {
      "inputs": [],
      "name": "PERMANENT_INITIAL_LIQUIDITY_HOLDER",
      "outputs": [
        {
          "internalType": "address",
          "name": "",
          "type": "address"
        }
      ],
      "stateMutability": "view",
      "type": "function"
    },
    {
      "inputs": [],
      "name": "UPGRADER_ROLE",
      "outputs": [
        {
          "internalType": "bytes32",
          "name": "",
          "type": "bytes32"
        }
      ],
      "stateMutability": "view",
      "type": "function"
    },
    {
      "inputs": [
        {
          "internalType": "uint32",
          "name": "",
          "type": "uint32"
        }
      ],
      "name": "assetPrice",
      "outputs": [
        {
          "internalType": "int256",
          "name": "",
          "type": "int256"
        }
      ],
      "stateMutability": "view",
      "type": "function"
    },
    {
      "inputs": [
        {
          "internalType": "uint32",
          "name": "",
          "type": "uint32"
        },
        {
          "internalType": "bool",
          "name": "",
          "type": "bool"
        }
      ],
      "name": "batched_amountPaymentToken_deposit",
      "outputs": [
        {
          "internalType": "uint256",
          "name": "",
          "type": "uint256"
        }
      ],
      "stateMutability": "view",
      "type": "function"
    },
    {
      "inputs": [
        {
          "internalType": "uint32",
          "name": "",
          "type": "uint32"
        },
        {
          "internalType": "bool",
          "name": "",
          "type": "bool"
        }
      ],
      "name": "batched_amountSyntheticToken_redeem",
      "outputs": [
        {
          "internalType": "uint256",
          "name": "",
          "type": "uint256"
        }
      ],
      "stateMutability": "view",
      "type": "function"
    },
    {
      "inputs": [
        {
          "internalType": "uint32",
          "name": "",
          "type": "uint32"
        },
        {
          "internalType": "bool",
          "name": "",
          "type": "bool"
        }
      ],
      "name": "batched_amountSyntheticToken_toShiftAwayFrom_marketSide",
      "outputs": [
        {
          "internalType": "uint256",
          "name": "",
          "type": "uint256"
        }
      ],
      "stateMutability": "view",
      "type": "function"
    },
    {
      "inputs": [
        {
          "internalType": "uint32",
          "name": "marketIndex",
          "type": "uint32"
        },
        {
          "internalType": "uint256",
          "name": "_marketTreasurySplitGradient_e18",
          "type": "uint256"
        }
      ],
      "name": "changeMarketTreasurySplitGradient",
      "outputs": [],
      "stateMutability": "nonpayable",
      "type": "function"
    },
    {
      "inputs": [
        {
          "internalType": "string",
          "name": "syntheticName",
          "type": "string"
        },
        {
          "internalType": "string",
          "name": "syntheticSymbol",
          "type": "string"
        },
        {
          "internalType": "address",
          "name": "_paymentToken",
          "type": "address"
        },
        {
          "internalType": "address",
          "name": "_oracleManager",
          "type": "address"
        },
        {
          "internalType": "address",
          "name": "_yieldManager",
          "type": "address"
        }
      ],
      "name": "createNewSyntheticMarket",
      "outputs": [],
      "stateMutability": "nonpayable",
      "type": "function"
    },
    {
      "inputs": [
        {
          "internalType": "string",
          "name": "syntheticName",
          "type": "string"
        },
        {
          "internalType": "string",
          "name": "syntheticSymbol",
          "type": "string"
        },
        {
          "internalType": "address",
          "name": "_longToken",
          "type": "address"
        },
        {
          "internalType": "address",
          "name": "_shortToken",
          "type": "address"
        },
        {
          "internalType": "address",
          "name": "_paymentToken",
          "type": "address"
        },
        {
          "internalType": "address",
          "name": "_oracleManager",
          "type": "address"
        },
        {
          "internalType": "address",
          "name": "_yieldManager",
          "type": "address"
        }
      ],
      "name": "createNewSyntheticMarketExternalSyntheticTokens",
      "outputs": [],
      "stateMutability": "nonpayable",
      "type": "function"
    },
    {
      "inputs": [
        {
          "internalType": "address",
          "name": "user",
          "type": "address"
        },
        {
          "internalType": "uint32",
          "name": "marketIndex",
          "type": "uint32"
        }
      ],
      "name": "executeOutstandingNextPriceSettlementsUser",
      "outputs": [],
      "stateMutability": "nonpayable",
      "type": "function"
    },
    {
      "inputs": [
        {
          "internalType": "address",
          "name": "user",
          "type": "address"
        },
        {
          "internalType": "uint32[]",
          "name": "marketIndexes",
          "type": "uint32[]"
        }
      ],
      "name": "executeOutstandingNextPriceSettlementsUserMulti",
      "outputs": [],
      "stateMutability": "nonpayable",
      "type": "function"
    },
    {
      "inputs": [],
      "name": "gems",
      "outputs": [
        {
          "internalType": "address",
          "name": "",
          "type": "address"
        }
      ],
      "stateMutability": "view",
      "type": "function"
    },
    {
      "inputs": [
        {
          "internalType": "uint32",
          "name": "marketIndex",
          "type": "uint32"
        },
        {
          "internalType": "uint256",
          "name": "amountSyntheticToken_redeemOnOriginSide",
          "type": "uint256"
        },
        {
          "internalType": "bool",
          "name": "isShiftFromLong",
          "type": "bool"
        },
        {
          "internalType": "uint256",
          "name": "priceSnapshotIndex",
          "type": "uint256"
        }
      ],
      "name": "getAmountSyntheticTokenToMintOnTargetSide",
      "outputs": [
        {
          "internalType": "uint256",
          "name": "amountSyntheticTokensToMintOnTargetSide",
          "type": "uint256"
        }
      ],
      "stateMutability": "view",
      "type": "function"
    },
    {
      "inputs": [
        {
          "internalType": "bytes32",
          "name": "role",
          "type": "bytes32"
        }
      ],
      "name": "getRoleAdmin",
      "outputs": [
        {
          "internalType": "bytes32",
          "name": "",
          "type": "bytes32"
        }
      ],
      "stateMutability": "view",
      "type": "function"
    },
    {
      "inputs": [
        {
          "internalType": "address",
          "name": "user",
          "type": "address"
        },
        {
          "internalType": "uint32",
          "name": "marketIndex",
          "type": "uint32"
        },
        {
          "internalType": "bool",
          "name": "isLong",
          "type": "bool"
        }
      ],
      "name": "getUsersConfirmedButNotSettledSynthBalance",
      "outputs": [
        {
          "internalType": "uint256",
          "name": "confirmedButNotSettledBalance",
          "type": "uint256"
        }
      ],
      "stateMutability": "view",
      "type": "function"
    },
    {
      "inputs": [
        {
          "internalType": "bytes32",
          "name": "role",
          "type": "bytes32"
        },
        {
          "internalType": "address",
          "name": "account",
          "type": "address"
        }
      ],
      "name": "grantRole",
      "outputs": [],
      "stateMutability": "nonpayable",
      "type": "function"
    },
    {
      "inputs": [
        {
          "internalType": "bytes32",
          "name": "role",
          "type": "bytes32"
        },
        {
          "internalType": "address",
          "name": "account",
          "type": "address"
        }
      ],
      "name": "hasRole",
      "outputs": [
        {
          "internalType": "bool",
          "name": "",
          "type": "bool"
        }
      ],
      "stateMutability": "view",
      "type": "function"
    },
    {
      "inputs": [
        {
          "internalType": "address",
          "name": "_admin",
          "type": "address"
        },
        {
          "internalType": "address",
          "name": "_tokenFactory",
          "type": "address"
        },
        {
          "internalType": "address",
          "name": "_staker",
          "type": "address"
        },
        {
          "internalType": "address",
          "name": "_gems",
          "type": "address"
        }
      ],
      "name": "initialize",
      "outputs": [],
      "stateMutability": "nonpayable",
      "type": "function"
    },
    {
      "inputs": [
        {
          "internalType": "uint32",
          "name": "marketIndex",
          "type": "uint32"
        },
        {
          "internalType": "uint256",
          "name": "kInitialMultiplier",
          "type": "uint256"
        },
        {
          "internalType": "uint256",
          "name": "kPeriod",
          "type": "uint256"
        },
        {
          "internalType": "uint256",
          "name": "unstakeFee_e18",
          "type": "uint256"
        },
        {
          "internalType": "uint256",
          "name": "initialMarketSeedForEachMarketSide",
          "type": "uint256"
        },
        {
          "internalType": "uint256",
          "name": "balanceIncentiveCurve_exponent",
          "type": "uint256"
        },
        {
          "internalType": "int256",
          "name": "balanceIncentiveCurve_equilibriumOffset",
          "type": "int256"
        },
        {
          "internalType": "uint256",
          "name": "_marketTreasurySplitGradient_e18",
          "type": "uint256"
        },
        {
          "internalType": "uint256",
          "name": "marketLeverage",
          "type": "uint256"
        }
      ],
      "name": "initializeMarket",
      "outputs": [],
      "stateMutability": "nonpayable",
      "type": "function"
    },
    {
      "inputs": [],
      "name": "latestMarket",
      "outputs": [
        {
          "internalType": "uint32",
          "name": "",
          "type": "uint32"
        }
      ],
      "stateMutability": "view",
      "type": "function"
    },
    {
      "inputs": [
        {
          "internalType": "uint32",
          "name": "",
          "type": "uint32"
        }
      ],
      "name": "marketExists",
      "outputs": [
        {
          "internalType": "bool",
          "name": "",
          "type": "bool"
        }
      ],
      "stateMutability": "view",
      "type": "function"
    },
    {
      "inputs": [
        {
          "internalType": "uint32",
          "name": "",
          "type": "uint32"
        }
      ],
      "name": "marketLeverage_e18",
      "outputs": [
        {
          "internalType": "uint256",
          "name": "",
          "type": "uint256"
        }
      ],
      "stateMutability": "view",
      "type": "function"
    },
    {
      "inputs": [
        {
          "internalType": "uint32",
          "name": "",
          "type": "uint32"
        },
        {
          "internalType": "bool",
          "name": "",
          "type": "bool"
        }
      ],
      "name": "marketSideValueInPaymentToken",
      "outputs": [
        {
          "internalType": "uint256",
          "name": "",
          "type": "uint256"
        }
      ],
      "stateMutability": "view",
      "type": "function"
    },
    {
      "inputs": [
        {
          "internalType": "uint32",
          "name": "",
          "type": "uint32"
        }
      ],
      "name": "marketTreasurySplitGradient_e18",
      "outputs": [
        {
          "internalType": "uint256",
          "name": "",
          "type": "uint256"
        }
      ],
      "stateMutability": "view",
      "type": "function"
    },
    {
      "inputs": [
        {
          "internalType": "uint32",
          "name": "",
          "type": "uint32"
        }
      ],
      "name": "marketUpdateIndex",
      "outputs": [
        {
          "internalType": "uint256",
          "name": "",
          "type": "uint256"
        }
      ],
      "stateMutability": "view",
      "type": "function"
    },
    {
      "inputs": [
        {
          "internalType": "uint32",
          "name": "marketIndex",
          "type": "uint32"
        },
        {
          "internalType": "uint256",
          "name": "amount",
          "type": "uint256"
        }
      ],
      "name": "mintLongNextPrice",
      "outputs": [],
      "stateMutability": "nonpayable",
      "type": "function"
    },
    {
      "inputs": [
        {
          "internalType": "uint32",
          "name": "marketIndex",
          "type": "uint32"
        },
        {
          "internalType": "uint256",
          "name": "amount",
          "type": "uint256"
        }
      ],
      "name": "mintShortNextPrice",
      "outputs": [],
      "stateMutability": "nonpayable",
      "type": "function"
    },
    {
      "inputs": [
        {
          "internalType": "uint32",
          "name": "",
          "type": "uint32"
        }
      ],
      "name": "oracleManagers",
      "outputs": [
        {
          "internalType": "address",
          "name": "",
          "type": "address"
        }
      ],
      "stateMutability": "view",
      "type": "function"
    },
    {
      "inputs": [
        {
          "internalType": "uint32",
          "name": "",
          "type": "uint32"
        }
      ],
      "name": "paymentTokens",
      "outputs": [
        {
          "internalType": "address",
          "name": "",
          "type": "address"
        }
      ],
      "stateMutability": "view",
      "type": "function"
    },
    {
      "inputs": [
        {
          "internalType": "uint32",
          "name": "marketIndex",
          "type": "uint32"
        },
        {
          "internalType": "uint256",
          "name": "tokens_redeem",
          "type": "uint256"
        }
      ],
      "name": "redeemLongNextPrice",
      "outputs": [],
      "stateMutability": "nonpayable",
      "type": "function"
    },
    {
      "inputs": [
        {
          "internalType": "uint32",
          "name": "marketIndex",
          "type": "uint32"
        },
        {
          "internalType": "uint256",
          "name": "tokens_redeem",
          "type": "uint256"
        }
      ],
      "name": "redeemShortNextPrice",
      "outputs": [],
      "stateMutability": "nonpayable",
      "type": "function"
    },
    {
      "inputs": [
        {
          "internalType": "bytes32",
          "name": "role",
          "type": "bytes32"
        },
        {
          "internalType": "address",
          "name": "account",
          "type": "address"
        }
      ],
      "name": "renounceRole",
      "outputs": [],
      "stateMutability": "nonpayable",
      "type": "function"
    },
    {
      "inputs": [
        {
          "internalType": "bytes32",
          "name": "role",
          "type": "bytes32"
        },
        {
          "internalType": "address",
          "name": "account",
          "type": "address"
        }
      ],
      "name": "revokeRole",
      "outputs": [],
      "stateMutability": "nonpayable",
      "type": "function"
    },
    {
      "inputs": [
        {
          "internalType": "uint32",
          "name": "marketIndex",
          "type": "uint32"
        },
        {
          "internalType": "uint256",
          "name": "amountSyntheticTokensToShift",
          "type": "uint256"
        }
      ],
      "name": "shiftPositionFromLongNextPrice",
      "outputs": [],
      "stateMutability": "nonpayable",
      "type": "function"
    },
    {
      "inputs": [
        {
          "internalType": "uint32",
          "name": "marketIndex",
          "type": "uint32"
        },
        {
          "internalType": "uint256",
          "name": "amountSyntheticTokensToShift",
          "type": "uint256"
        }
      ],
      "name": "shiftPositionFromShortNextPrice",
      "outputs": [],
      "stateMutability": "nonpayable",
      "type": "function"
    },
    {
      "inputs": [
        {
          "internalType": "uint32",
          "name": "marketIndex",
          "type": "uint32"
        },
        {
          "internalType": "uint256",
          "name": "amountSyntheticTokensToShift",
          "type": "uint256"
        },
        {
          "internalType": "bool",
          "name": "isShiftFromLong",
          "type": "bool"
        }
      ],
      "name": "shiftPositionNextPrice",
      "outputs": [],
      "stateMutability": "nonpayable",
      "type": "function"
    },
    {
      "inputs": [],
      "name": "staker",
      "outputs": [
        {
          "internalType": "address",
          "name": "",
          "type": "address"
        }
      ],
      "stateMutability": "view",
      "type": "function"
    },
    {
      "inputs": [
        {
          "internalType": "bytes4",
          "name": "interfaceId",
          "type": "bytes4"
        }
      ],
      "name": "supportsInterface",
      "outputs": [
        {
          "internalType": "bool",
          "name": "",
          "type": "bool"
        }
      ],
      "stateMutability": "view",
      "type": "function"
    },
    {
      "inputs": [
        {
          "internalType": "uint32",
          "name": "",
          "type": "uint32"
        },
        {
          "internalType": "bool",
          "name": "",
          "type": "bool"
        },
        {
          "internalType": "uint256",
          "name": "",
          "type": "uint256"
        }
      ],
      "name": "syntheticToken_priceSnapshot",
      "outputs": [
        {
          "internalType": "uint256",
          "name": "",
          "type": "uint256"
        }
      ],
      "stateMutability": "view",
      "type": "function"
    },
    {
      "inputs": [
        {
          "internalType": "uint32",
          "name": "",
          "type": "uint32"
        },
        {
          "internalType": "bool",
          "name": "",
          "type": "bool"
        }
      ],
      "name": "syntheticTokens",
      "outputs": [
        {
          "internalType": "address",
          "name": "",
          "type": "address"
        }
      ],
      "stateMutability": "view",
      "type": "function"
    },
    {
      "inputs": [],
      "name": "tokenFactory",
      "outputs": [
        {
          "internalType": "address",
          "name": "",
          "type": "address"
        }
      ],
      "stateMutability": "view",
      "type": "function"
    },
    {
      "inputs": [
        {
          "internalType": "uint32",
          "name": "marketIndex",
          "type": "uint32"
        },
        {
          "internalType": "address",
          "name": "_newOracleManager",
          "type": "address"
        }
      ],
      "name": "updateMarketOracle",
      "outputs": [],
      "stateMutability": "nonpayable",
      "type": "function"
    },
    {
      "inputs": [
        {
          "internalType": "uint32",
          "name": "marketIndex",
          "type": "uint32"
        }
      ],
      "name": "updateSystemState",
      "outputs": [],
      "stateMutability": "nonpayable",
      "type": "function"
    },
    {
      "inputs": [
        {
          "internalType": "uint32[]",
          "name": "marketIndexes",
          "type": "uint32[]"
        }
      ],
      "name": "updateSystemStateMulti",
      "outputs": [],
      "stateMutability": "nonpayable",
      "type": "function"
    },
    {
      "inputs": [
        {
          "internalType": "address",
          "name": "newImplementation",
          "type": "address"
        }
      ],
      "name": "upgradeTo",
      "outputs": [],
      "stateMutability": "nonpayable",
      "type": "function"
    },
    {
      "inputs": [
        {
          "internalType": "address",
          "name": "newImplementation",
          "type": "address"
        },
        {
          "internalType": "bytes",
          "name": "data",
          "type": "bytes"
        }
      ],
      "name": "upgradeToAndCall",
      "outputs": [],
      "stateMutability": "payable",
      "type": "function"
    },
    {
      "inputs": [
        {
          "internalType": "uint32",
          "name": "",
          "type": "uint32"
        },
        {
          "internalType": "address",
          "name": "",
          "type": "address"
        }
      ],
      "name": "userNextPrice_currentUpdateIndex",
      "outputs": [
        {
          "internalType": "uint256",
          "name": "",
          "type": "uint256"
        }
      ],
      "stateMutability": "view",
      "type": "function"
    },
    {
      "inputs": [
        {
          "internalType": "uint32",
          "name": "",
          "type": "uint32"
        },
        {
          "internalType": "bool",
          "name": "",
          "type": "bool"
        },
        {
          "internalType": "address",
          "name": "",
          "type": "address"
        }
      ],
      "name": "userNextPrice_paymentToken_depositAmount",
      "outputs": [
        {
          "internalType": "uint256",
          "name": "",
          "type": "uint256"
        }
      ],
      "stateMutability": "view",
      "type": "function"
    },
    {
      "inputs": [
        {
          "internalType": "uint32",
          "name": "",
          "type": "uint32"
        },
        {
          "internalType": "bool",
          "name": "",
          "type": "bool"
        },
        {
          "internalType": "address",
          "name": "",
          "type": "address"
        }
      ],
      "name": "userNextPrice_syntheticToken_redeemAmount",
      "outputs": [
        {
          "internalType": "uint256",
          "name": "",
          "type": "uint256"
        }
      ],
      "stateMutability": "view",
      "type": "function"
    },
    {
      "inputs": [
        {
          "internalType": "uint32",
          "name": "",
          "type": "uint32"
        },
        {
          "internalType": "bool",
          "name": "",
          "type": "bool"
        },
        {
          "internalType": "address",
          "name": "",
          "type": "address"
        }
      ],
      "name": "userNextPrice_syntheticToken_toShiftAwayFrom_marketSide",
      "outputs": [
        {
          "internalType": "uint256",
          "name": "",
          "type": "uint256"
        }
      ],
      "stateMutability": "view",
      "type": "function"
    },
    {
      "inputs": [
        {
          "internalType": "uint32",
          "name": "",
          "type": "uint32"
        }
      ],
      "name": "yieldManagers",
      "outputs": [
        {
          "internalType": "address",
          "name": "",
          "type": "address"
        }
      ],
      "stateMutability": "view",
      "type": "function"
    }
  ],
  "bytecode": "0x60a06040523060601b60805234801561001757600080fd5b5060805160601c614ff461004b60003960008181610cea01528181610d2a01528181610fd701526110170152614ff46000f3fe60806040526004361061031a5760003560e01c8063867dfc6d116101ab578063c2b80072116100f7578063eeb0235211610095578063f72c0d8b1161006f578063f72c0d8b14610b3e578063f7cbb68714610b72578063f80c9b9214610b92578063f8c8765e14610bcb5761031a565b8063eeb0235214610ac7578063f41cb19514610ae7578063f68a327f14610b1e5761031a565b8063d88905c9116100d1578063d88905c914610a46578063da04ce1414610a66578063e6b604e014610a86578063e77772fe14610aa65761031a565b8063c2b80072146109c7578063c2e1247114610a06578063d547741f14610a265761031a565b80639c5b0ee311610164578063b054c4a11161013e578063b054c4a1146108f3578063b36f537414610935578063b3c7e21814610966578063bb0a45291461099f5761031a565b80639c5b0ee31461086e5780639dc39e0f146108a5578063a217fddf146108de5761031a565b8063867dfc6d146107a05780638900bdfa146107c0578063897a0786146107ee57806391a9fa611461080e57806391d148541461082e57806392f6fe801461084e5761031a565b80634f1ef2861161026a578063682ad286116102235780636f486c5b116101fd5780636f486c5b146106ed57806371fd96231461072c57806375b238fc1461074c5780637a0e94f0146107805761031a565b8063682ad2861461068c5780636c305055146106ac5780636c8d2b97146106cd5761031a565b80634f1ef286146105965780635ebaf1db146105a9578063602aabab146105d2578063636190c81461060057806364d16f531461063357806364e4a81d146106535761031a565b8063248a9ca3116102d757806334daaa25116102b157806334daaa25146104fd57806336568abe146105365780633659cfe6146105565780633d6a2b3f146105765761031a565b8063248a9ca31461046e5780632f2ff15d1461049e57806334898684146104be5761031a565b806301ffc9a71461031f57806305c8146f146103545780630e5140dc1461037657806314c88ffa146103c35780631badf5c0146103f157806321658e4814610440575b600080fd5b34801561032b57600080fd5b5061033f61033a3660046145b9565b610beb565b60405190151581526020015b60405180910390f35b34801561036057600080fd5b5061037461036f366004614769565b610c24565b005b34801561038257600080fd5b506103b56103913660046147d9565b6101c360209081526000938452604080852082529284528284209052825290205481565b60405190815260200161034b565b3480156103cf57600080fd5b506103b56103de366004614769565b61015a6020526000908152604090205481565b3480156103fd57600080fd5b5061042861040c366004614769565b61015f602052600090815260409020546001600160a01b031681565b6040516001600160a01b03909116815260200161034b565b34801561044c57600080fd5b506103b561045b366004614769565b61015b6020526000908152604090205481565b34801561047a57600080fd5b506103b5610489366004614572565b60009081526065602052604090206001015490565b3480156104aa57600080fd5b506103746104b936600461458a565b610c30565b3480156104ca57600080fd5b506103b56104d93660046147d9565b6101c260209081526000938452604080852082529284528284209052825290205481565b34801561050957600080fd5b506103b56105183660046147ae565b61019160209081526000928352604080842090915290825290205481565b34801561054257600080fd5b5061037461055136600461458a565b610c5c565b34801561056257600080fd5b50610374610571366004614271565b610cdf565b34801561058257600080fd5b5061037461059136600461469f565b610da5565b6103746105a43660046143c8565b610fcc565b3480156105b557600080fd5b50610128546104289064010000000090046001600160a01b031681565b3480156105de57600080fd5b506103b56105ed366004614769565b61015c6020526000908152604090205481565b34801561060c57600080fd5b506101285461061e9063ffffffff1681565b60405163ffffffff909116815260200161034b565b34801561063f57600080fd5b5061037461064e366004614783565b611082565b34801561065f57600080fd5b506103b561066e3660046147ae565b61019060209081526000928352604080842090915290825290205481565b34801561069857600080fd5b506103746106a7366004614854565b611108565b3480156106b857600080fd5b5061012a54610428906001600160a01b031681565b3480156106d957600080fd5b506103746106e83660046144e6565b611114565b3480156106f957600080fd5b506103b5610708366004614816565b61018f60209081526000938452604080852082529284528284209052825290205481565b34801561073857600080fd5b5061037461074736600461487d565b611175565b34801561075857600080fd5b506103b57fa49807205ce4d355092ef5a8a18f56e8913cf4a201fbe287825b095693c2177581565b34801561078c57600080fd5b5061037461079b366004614304565b61133c565b3480156107ac57600080fd5b506103746107bb366004614854565b61138c565b3480156107cc57600080fd5b506103b56107db366004614769565b6101596020526000908152604090205481565b3480156107fa57600080fd5b5061037461080936600461446a565b611398565b34801561081a57600080fd5b50610374610829366004614854565b6113a2565b34801561083a57600080fd5b5061033f61084936600461458a565b6113ae565b34801561085a57600080fd5b506103b56108693660046148b1565b6113d9565b34801561087a57600080fd5b50610428610889366004614769565b61015e602052600090815260409020546001600160a01b031681565b3480156108b157600080fd5b506103b56108c0366004614783565b6101c060209081526000928352604080842090915290825290205481565b3480156108ea57600080fd5b506103b5600081565b3480156108ff57600080fd5b5061042861090e3660046147ae565b61018d6020908152600092835260408084209091529082529020546001600160a01b031681565b34801561094157600080fd5b5061033f610950366004614769565b6101586020526000908152604090205460ff1681565b34801561097257600080fd5b506103b56109813660046147ae565b61018e60209081526000928352604080842090915290825290205481565b3480156109ab57600080fd5b5061042873f10a7f10a7f10a7f10a7f10a7f10a7f10a7f10a781565b3480156109d357600080fd5b506103b56109e23660046147d9565b6101c160209081526000938452604080852082529284528284209052825290205481565b348015610a1257600080fd5b50610374610a21366004614854565b61142f565b348015610a3257600080fd5b50610374610a4136600461458a565b61143b565b348015610a5257600080fd5b50610374610a613660046145f9565b611461565b348015610a7257600080fd5b50610374610a81366004614854565b61192f565b348015610a9257600080fd5b50610374610aa1366004614854565b611951565b348015610ab257600080fd5b5061012954610428906001600160a01b031681565b348015610ad357600080fd5b50610374610ae2366004614854565b61195d565b348015610af357600080fd5b50610428610b02366004614769565b61015d602052600090815260409020546001600160a01b031681565b348015610b2a57600080fd5b506103b5610b3936600461449e565b611969565b348015610b4a57600080fd5b506103b57f189ab7a9244df0848122154315af71fe140f3db0fe014031783b0946b8c9d2e381565b348015610b7e57600080fd5b50610374610b8d3660046148f6565b611ad5565b348015610b9e57600080fd5b506103b5610bad3660046147ae565b61019260209081526000928352604080842090915290825290205481565b348015610bd757600080fd5b50610374610be63660046142a9565b611e11565b60006001600160e01b03198216637965db0b60e01b1480610c1c57506301ffc9a760e01b6001600160e01b03198316145b90505b919050565b610c2d81611f73565b50565b600082815260656020526040902060010154610c4d81335b612325565b610c578383612389565b505050565b6001600160a01b0381163314610cd15760405162461bcd60e51b815260206004820152602f60248201527f416363657373436f6e74726f6c3a2063616e206f6e6c792072656e6f756e636560448201526e103937b632b9903337b91039b2b63360891b60648201526084015b60405180910390fd5b610cdb828261240f565b5050565b306001600160a01b037f0000000000000000000000000000000000000000000000000000000000000000161415610d285760405162461bcd60e51b8152600401610cc890614b34565b7f00000000000000000000000000000000000000000000000000000000000000006001600160a01b0316610d5a612476565b6001600160a01b031614610d805760405162461bcd60e51b8152600401610cc890614b80565b610d89816124a4565b60408051600080825260208201909252610c2d918391906124cf565b610dad612613565b6101288054600091908290610dc79063ffffffff16614ef4565b91906101000a81548163ffffffff021916908363ffffffff16021790559050816001600160a01b031663edf565cc6040518163ffffffff1660e01b8152600401600060405180830381600087803b158015610e2157600080fd5b505af1158015610e35573d6000803e3d6000fd5b5050505063ffffffff8116600081815261018d6020908152604080832060018452825280832080546001600160a01b03199081166001600160a01b038d811691909117909255848052828520805482168c841617905594845261015d8352818420805486168a831617905561015e83528184208054861688831617905561015f835281842080549095169088169081179094558051630ce74fc560e31b8152905163673a7e2893600480840194938390030190829087803b158015610ef957600080fd5b505af1158015610f0d573d6000803e3d6000fd5b505050506040513d601f19601f82011682018060405250810190610f3191906145e1565b61015960008363ffffffff1663ffffffff168152602001908152602001600020819055507f901e73890694712ca72bdc627d356f05f11be45e7ccf490a8d4924c393bcb5658187878761015960008763ffffffff1663ffffffff168152602001908152602001600020548f8f8f8f8c8c604051610fb89b9a99989796959493929190614c1a565b60405180910390a150505050505050505050565b306001600160a01b037f00000000000000000000000000000000000000000000000000000000000000001614156110155760405162461bcd60e51b8152600401610cc890614b34565b7f00000000000000000000000000000000000000000000000000000000000000006001600160a01b0316611047612476565b6001600160a01b03161461106d5760405162461bcd60e51b8152600401610cc890614b80565b611076826124a4565b610cdb828260016124cf565b61108a612613565b63ffffffff8216600081815261015f602090815260409182902080546001600160a01b038681166001600160a01b03198316811790935584519586521691840182905291830191909152907ffc4d69f373858d480cfc3f12e7cc7f9b12201291753ffc3babef0e7a8041979f906060015b60405180910390a1505050565b610cdb82826000611175565b8060005b8181101561116f5761115d84848381811061114357634e487b7160e01b600052603260045260246000fd5b90506020020160208101906111589190614769565b611f73565b8061116781614ed9565b915050611118565b50505050565b338361118081611f73565b61118a828261263f565b611192612740565b63ffffffff8516600090815261018d602090815260408083208615158452909152908190205490516323b872dd60e01b8152336004820152306024820152604481018690526001600160a01b03909116906323b872dd90606401602060405180830381600087803b15801561120657600080fd5b505af115801561121a573d6000803e3d6000fd5b505050506040513d601f19601f8201168201806040525081019061123e9190614556565b5063ffffffff851660009081526101c360209081526040808320861515845282528083203384529091528120805486929061127a908490614d44565b909155505063ffffffff8516600090815261015a60205260408120546112a1906001614d44565b63ffffffff871660008181526101c0602090815260408083203384528252808320859055928252610192815282822088151583529052908120805492935087929091906112ef908490614d44565b90915550506040517fd850f5d8405edb0730cd72e6bb9e228043c91fd591562543ea553efda14970b69061132c9088908790899033908790614c9e565b60405180910390a1505050505050565b805160005b8181101561116f5761137a8484838151811061136d57634e487b7160e01b600052603260045260246000fd5b602002602001015161263f565b8061138481614ed9565b915050611341565b610cdb828260016127b5565b610cdb828261263f565b610cdb828260006127b5565b60009182526065602090815260408084206001600160a01b0393909316845291905290205460ff1690565b63ffffffff8416600090815261018f602090815260408083208515801585528184528285208686528452828520549085529083528184208585529092528220546114248683836128d4565b979650505050505050565b610cdb828260016128f3565b6000828152606560205260409020600101546114578133610c48565b610c57838361240f565b611469612613565b6001600160a01b0383161580159061148957506001600160a01b03821615155b801561149d57506001600160a01b03811615155b6114a657600080fd5b61012880546000919082906114c09063ffffffff16614ef4565b91906101000a81548163ffffffff021916908363ffffffff16021790559050600061012860049054906101000a90046001600160a01b03169050826001600160a01b031663edf565cc6040518163ffffffff1660e01b8152600401600060405180830381600087803b15801561153557600080fd5b505af1158015611549573d6000803e3d6000fd5b5050610129546040516001600160a01b03909116925063e6d304679150611576908c908c90602001614aa6565b6040516020818303038152906040528989604051602001611598929190614a13565b604051602081830303815290604052848660016040518663ffffffff1660e01b81526004016115cb959493929190614ae0565b602060405180830381600087803b1580156115e557600080fd5b505af11580156115f9573d6000803e3d6000fd5b505050506040513d601f19601f8201168201806040525081019061161d919061428d565b63ffffffff8316600090815261018d602090815260408083206001845282529182902080546001600160a01b0319166001600160a01b03948516179055610129549151919092169163e6d3046791611679918d918d91016149eb565b604051602081830303815290604052898960405160200161169b9291906149cd565b604051602081830303815290604052848660006040518663ffffffff1660e01b81526004016116ce959493929190614ae0565b602060405180830381600087803b1580156116e857600080fd5b505af11580156116fc573d6000803e3d6000fd5b505050506040513d601f19601f82011682018060405250810190611720919061428d565b63ffffffff8316600081815261018d60209081526040808320838052825280832080546001600160a01b03199081166001600160a01b039788161790915593835261015d8252808320805485168b871617905561015e82528083208054851689871617905561015f825280832080549094169489169485179093558251630ce74fc560e31b8152925163673a7e2893600480820194918390030190829087803b1580156117cc57600080fd5b505af11580156117e0573d6000803e3d6000fd5b505050506040513d601f19601f8201168201806040525081019061180491906145e1565b61015960008463ffffffff1663ffffffff168152602001908152602001600020819055507f901e73890694712ca72bdc627d356f05f11be45e7ccf490a8d4924c393bcb5658261018d60008563ffffffff1663ffffffff1681526020019081526020016000206000600115151515815260200190815260200160002060009054906101000a90046001600160a01b031661018d60008663ffffffff1663ffffffff16815260200190815260200160002060008015151515815260200190815260200160002060009054906101000a90046001600160a01b03168861015960008863ffffffff1663ffffffff168152602001908152602001600020548e8e8e8e8d8d60405161191c9b9a99989796959493929190614c1a565b60405180910390a1505050505050505050565b611937612613565b63ffffffff909116600090815261015b6020526040902055565b610cdb828260006128f3565b610cdb82826001611175565b60008261197581612aaa565b63ffffffff8416600090815261015a60209081526040808320546101c083528184206001600160a01b038a1685529092529091205480158015906119b95750818111155b15611acb5763ffffffff861660009081526101c160209081526040808320881515845282528083206001600160a01b038b1684529091529020548015611a335763ffffffff8716600090815261018f6020908152604080832089151584528252808320858452909152902054611a2f8282612b07565b9550505b63ffffffff871660009081526101c3602090815260408083208915845282528083206001600160a01b038c1684529091529020548015611ac85763ffffffff8816600090815261018f602090815260408083208a158085528184528285208886528452828520549015855290835281842087855290925290912054611ab98383836128d4565b611ac39089614d44565b975050505b50505b5050509392505050565b611add612613565b8715801590611aeb57508515155b8015611af657508415155b8015611b0157508315155b8015611b0c57508115155b611b1557600080fd5b63ffffffff89166000908152610158602052604090205460ff1615611b725760405162461bcd60e51b8152602060048201526013602482015272185b1c9958591e481a5b9a5d1a585b1a5e9959606a1b6044820152606401610cc8565b6101285463ffffffff908116908a161115611bc05760405162461bcd60e51b815260206004820152600e60248201526d0d2dcc8caf040e8dede40d0d2ced60931b6044820152606401610cc8565b63ffffffff8916600090815261015860209081526040808320805460ff1916600190811790915561015b835281842086905561015a90925290912055611c06858a612b2d565b6802b5e3af16b18800008111158015611c27575067016345785d8a00008110155b611c685760405162461bcd60e51b8152602060048201526012602482015271496e636f7272656374206c6576657261676560701b6044820152606401610cc8565b63ffffffff8916600081815261015c602090815260408083208590556101285461018d835281842060018552909252808320548380529281902054905163b0956b5f60e01b815260048101949094526001600160a01b03928316602485015282166044840152606483018b9052608483018a905260a4830189905260c4830187905260e483018690526401000000009004169063b0956b5f9061010401600060405180830381600087803b158015611d1f57600080fd5b505af1158015611d33573d6000803e3d6000fd5b5050610128546040516317b4d3fb60e31b815263ffffffff8d16600482015260016024820152670de0b6b3a76400006044820181905260648201526084810189905260a481018990526401000000009091046001600160a01b0316925063bda69fd8915060c401600060405180830381600087803b158015611db457600080fd5b505af1158015611dc8573d6000803e3d6000fd5b50506040805163ffffffff8d168152602081018990529081018490527f95eeb1c33a758f56bd880588063c2f122e39c8885929e5fbbbd57418b97e58d09250606001905061191c565b600054610100900460ff1680611e2a575060005460ff16155b611e465760405162461bcd60e51b8152600401610cc890614bcc565b600054610100900460ff16158015611e68576000805461ffff19166101011790555b6001600160a01b03851615801590611e8857506001600160a01b03841615155b8015611e9c57506001600160a01b03831615155b8015611eb057506001600160a01b03821615155b611eb957600080fd5b611ec285612d76565b61012980546001600160a01b03199081166001600160a01b038781169182179093556101288054640100000000600160c01b0319166401000000008886169081029190911790915561012a80549093168685161790925560408051938916845260208401919091528201527f48aa6e6153c5dedbe00925ab3c8e28c6ce0c1a80652b3369f176065e797b45079060600160405180910390a18015611f6c576000805461ff00191690555b5050505050565b80611f7d81612aaa565b63ffffffff8216600090815261015f60209081526040808320548151630ce74fc560e31b815291516001600160a01b039091169263673a7e28926004808201939182900301818787803b158015611fd357600080fd5b505af1158015611fe7573d6000803e3d6000fd5b505050506040513d601f19601f8201168201806040525081019061200b91906145e1565b63ffffffff8416600090815261015a602090815260408083205461015990925290912054919250908214801590611f6c576000806120498786612dfb565b63ffffffff8916600090815261018d602090815260408083206001845282528083205481516318160ddd60e01b8152915195975093955091936120f29387936001600160a01b03909116926318160ddd9260048084019382900301818987803b1580156120b557600080fd5b505af11580156120c9573d6000803e3d6000fd5b505050506040513d601f19601f820116820180604052508101906120ed91906145e1565b612b07565b63ffffffff8916600090815261018d6020908152604080832083805282528083205481516318160ddd60e01b81529151949550929361215b9387936001600160a01b03909116926318160ddd926004808301939282900301818987803b1580156120b557600080fd5b63ffffffff8a1660009081526101596020526040902088905590508561218081614ed9565b63ffffffff8b16600090815261015a6020908152604080832084905561018f8252808320600184528083528184208585528352818420889055838052825280832084845290915281208490559097509050806121dd8b8585613022565b90925090506121ec8287614d03565b95506121f88186614d03565b63ffffffff8c16600081815261018e60209081526040808320600184529091528082208a9055818052908190208390556101285490516317b4d3fb60e31b81526004810192909252602482018b905260448201879052606482018690526084820189905260a482018390529196506401000000009091046001600160a01b03169063bda69fd89060c401600060405180830381600087803b15801561229c57600080fd5b505af11580156122b0573d6000803e3d6000fd5b50506040805163ffffffff8f168152602081018c90529081018c9052606081018990526080810188905260a0810187905260c081018690527f69e662f95898affac086a5bc1177755bdaf7f4a40a3880364c48012170ee57fe925060e001905060405180910390a15050505050505050505050565b61232f82826113ae565b610cdb57612347816001600160a01b03166014613321565b612352836020613321565b604051602001612363929190614a31565b60408051601f198184030181529082905262461bcd60e51b8252610cc891600401614acd565b61239382826113ae565b610cdb5760008281526065602090815260408083206001600160a01b03851684529091529020805460ff191660011790556123cb3390565b6001600160a01b0316816001600160a01b0316837f2f8788117e7eff1d82e926ec794901d17c78024a50270940304540a733656f0d60405160405180910390a45050565b61241982826113ae565b15610cdb5760008281526065602090815260408083206001600160a01b0385168085529252808320805460ff1916905551339285917ff6391f5c32d9c69d2a47ea670b442974b53935d1edc7fd64eb21e047a839171b9190a45050565b7f360894a13ba1a3210667c828492db98dca3e2076cc3735a920a3ca505d382bbc546001600160a01b031690565b7f189ab7a9244df0848122154315af71fe140f3db0fe014031783b0946b8c9d2e3610cdb8133610c48565b60006124d9612476565b90506124e484613503565b6000835111806124f15750815b156125025761250084846135a8565b505b7f4910fdfa16fed3260ed0e7147f7cc6da11a60208b5b9406d12a635614ffd9143805460ff16611f6c57805460ff191660011781556040516001600160a01b038316602482015261258190869060440160408051601f198184030181529190526020810180516001600160e01b0316631b2ce7f360e11b1790526135a8565b50805460ff19168155612592612476565b6001600160a01b0316826001600160a01b03161461260a5760405162461bcd60e51b815260206004820152602f60248201527f45524331393637557067726164653a207570677261646520627265616b73206660448201526e75727468657220757067726164657360881b6064820152608401610cc8565b611f6c85613693565b61263d7fa49807205ce4d355092ef5a8a18f56e8913cf4a201fbe287825b095693c2177533612325565b565b63ffffffff811660009081526101c0602090815260408083206001600160a01b0386168452909152902054801580159061268f575063ffffffff8216600090815261015a60205260409020548111155b15610c57576126a0828460016136d3565b6126ac828460006136d3565b6126b882846001613837565b6126c482846000613837565b6126d08284600161396d565b6126dc8284600061396d565b63ffffffff821660008181526101c0602090815260408083206001600160a01b038816808552908352818420939093558051928352908201929092527fe03aa867e2345cc967d98e4c81f6b0707b5ef082d9d20bac3dcf95540acdeae491016110fb565b6101285464010000000090046001600160a01b0316331461263d5761012a546040516324b4085360e21b81523360048201526001600160a01b03909116906392d0214c90602401600060405180830381600087803b1580156127a157600080fd5b505af115801561116f573d6000803e3d6000fd5b33836127c081611f73565b6127ca828261263f565b6127d2612740565b6127dc8585613ab7565b63ffffffff851660009081526101906020908152604080832086151584529091528120805486929061280f908490614d44565b909155505063ffffffff851660009081526101c160209081526040808320861515845282528083203384529091528120805486929061284f908490614d44565b909155505063ffffffff8516600090815261015a6020526040812054612876906001614d44565b63ffffffff871660009081526101c0602090815260408083203380855292529182902083905590519192507f50b8727b538cf16daeb79894e8bde5c1e975985071be8a8d7620675a5dddfc6b9161132c91899188918a918790614c9e565b6000816128e18486614e21565b6128eb9190614d8a565b949350505050565b33836128fe81611f73565b612908828261263f565b612910612740565b63ffffffff8516600090815261018d602090815260408083208615158452909152908190205490516323b872dd60e01b8152336004820152306024820152604481018690526001600160a01b03909116906323b872dd90606401602060405180830381600087803b15801561298457600080fd5b505af1158015612998573d6000803e3d6000fd5b505050506040513d601f19601f820116820180604052508101906129bc9190614556565b5063ffffffff851660009081526101c26020908152604080832086151584528252808320338452909152812080548692906129f8908490614d44565b909155505063ffffffff8516600090815261015a6020526040812054612a1f906001614d44565b63ffffffff871660008181526101c060209081526040808320338452825280832085905592825261019181528282208815158352905290812080549293508792909190612a6d908490614d44565b90915550506040517f191d5f0d51691cdc223884e5321013c9663c6b337a07d550c538d9dcbbd662039061132c9088908790899033908790614c9e565b63ffffffff81166000908152610158602052604090205460ff16610c2d5760405162461bcd60e51b81526020600482015260146024820152731b585c9ad95d08191bd95cdb89dd08195e1a5cdd60621b6044820152606401610cc8565b600081612b1c84670de0b6b3a7640000614e21565b612b269190614d8a565b9392505050565b670de0b6b3a7640000821015612b855760405162461bcd60e51b815260206004820152601860248201527f496e73756666696369656e74206d61726b6574207365656400000000000000006044820152606401610cc8565b6000612b92836002614e21565b9050612b9e8282613ab7565b63ffffffff8216600090815261015e6020526040908190205490516304831f7160e51b8152600481018390526001600160a01b0390911690639063ee2090602401600060405180830381600087803b158015612bf957600080fd5b505af1158015612c0d573d6000803e3d6000fd5b5050505063ffffffff8216600090815261018d6020908152604080832060018452909152908190205490516340c10f1960e01b815273f10a7f10a7f10a7f10a7f10a7f10a7f10a7f10a76004820152602481018590526001600160a01b03909116906340c10f1990604401600060405180830381600087803b158015612c9257600080fd5b505af1158015612ca6573d6000803e3d6000fd5b5050505063ffffffff8216600090815261018d60209081526040808320838052909152908190205490516340c10f1960e01b815273f10a7f10a7f10a7f10a7f10a7f10a7f10a7f10a76004820152602481018590526001600160a01b03909116906340c10f1990604401600060405180830381600087803b158015612d2a57600080fd5b505af1158015612d3e573d6000803e3d6000fd5b5050505063ffffffff91909116600090815261018e602090815260408083206001845290915280822084905581805290209190915550565b600054610100900460ff1680612d8f575060005460ff16155b612dab5760405162461bcd60e51b8152600401610cc890614bcc565b600054610100900460ff16158015612dcd576000805461ffff19166101011790555b612dd5613af8565b612ddd613b7b565b612de682613bd9565b8015610cdb576000805461ff00191690555050565b63ffffffff82166000908152610159602090815260408083205461018e835281842060018552808452828520548580529352908320549192612e3d8385614d44565b9050600080612e4e88878786613ca2565b63ffffffff8a16600090815261015e602052604080822054905163452accd960e11b81526004810188905260248101849052939550919350916001600160a01b0390911690638a5599b290604401602060405180830381600087803b158015612eb657600080fd5b505af1158015612eca573d6000803e3d6000fd5b505050506040513d601f19601f82011682018060405250810190612eee91906145e1565b90508015612f1a578215612f0d57612f068188614d44565b9650612f1a565b612f178187614d44565b95505b6000612f268888613d1a565b90506000612f3c87670de0b6b3a7640000614d9e565b63ffffffff8c16600090815261015c602052604090205483612f5e8a8e614e40565b612f689190614d9e565b612f729190614d9e565b612f7c9190614d5c565b90506000811215612fd557612f9081614f18565b905088811115612fb857620186a0612fab8a6201869f614d9e565b612fb59190614d5c565b90505b612fc2818a614e7f565b9850612fce8189614d44565b9750613014565b87811115612ffb57620186a0612fee896201869f614d9e565b612ff89190614d5c565b90505b613005818a614d44565b98506130118189614e7f565b97505b505050505050509250929050565b63ffffffff83166000908152610190602090815260408083206001845290915281205481908190819080156130845763ffffffff8816600090815261019060209081526040808320600184529091528120559350836130818188612b07565b92505b5063ffffffff871660009081526101906020908152604080832083805290915290205480156130df5763ffffffff88166000908152610190602090815260408083208380529091528120559250826130dc8187612b07565b91505b5063ffffffff87166000908152610192602090815260408083206001845290915290205480156131775760006131158289613d30565b90506131218187614e40565b955061312d8186614d03565b94506131398285614e40565b93506131468289896128d4565b6131509084614d03565b63ffffffff8a16600090815261019260209081526040808320600184529091528120559250505b5063ffffffff8716600090815261019260209081526040808320838052909152902054801561320d5760006131ac8288613d30565b90506131b88186614e40565b94506131c48187614d03565b95506131d08284614e40565b92506131dd82888a6128d4565b6131e79085614d03565b63ffffffff8a166000908152610192602090815260408083208380529091528120559350505b5063ffffffff871660009081526101916020908152604080832060018452909152902054801561327d576132418188613d30565b61324b9086614e40565b94506132578184614e40565b63ffffffff89166000908152610191602090815260408083206001845290915281205592505b5063ffffffff871660009081526101916020908152604080832083805290915290205480156132eb576132b08187613d30565b6132ba9085614e40565b93506132c68183614e40565b63ffffffff891660009081526101916020908152604080832083805290915281205591505b6132fe886132f98688614d03565b613d45565b61330a88600185613e49565b61331688600084613e49565b505050935093915050565b60606000613330836002614e21565b61333b906002614d44565b67ffffffffffffffff81111561336157634e487b7160e01b600052604160045260246000fd5b6040519080825280601f01601f19166020018201604052801561338b576020820181803683370190505b509050600360fc1b816000815181106133b457634e487b7160e01b600052603260045260246000fd5b60200101906001600160f81b031916908160001a905350600f60fb1b816001815181106133f157634e487b7160e01b600052603260045260246000fd5b60200101906001600160f81b031916908160001a9053506000613415846002614e21565b613420906001614d44565b90505b60018111156134b4576f181899199a1a9b1b9c1cb0b131b232b360811b85600f166010811061346257634e487b7160e01b600052603260045260246000fd5b1a60f81b82828151811061348657634e487b7160e01b600052603260045260246000fd5b60200101906001600160f81b031916908160001a90535060049490941c936134ad81614ec2565b9050613423565b508315612b265760405162461bcd60e51b815260206004820181905260248201527f537472696e67733a20686578206c656e67746820696e73756666696369656e746044820152606401610cc8565b803b6135675760405162461bcd60e51b815260206004820152602d60248201527f455243313936373a206e657720696d706c656d656e746174696f6e206973206e60448201526c1bdd08184818dbdb9d1c9858dd609a1b6064820152608401610cc8565b7f360894a13ba1a3210667c828492db98dca3e2076cc3735a920a3ca505d382bbc80546001600160a01b0319166001600160a01b0392909216919091179055565b6060823b6136075760405162461bcd60e51b815260206004820152602660248201527f416464726573733a2064656c65676174652063616c6c20746f206e6f6e2d636f6044820152651b9d1c9858dd60d21b6064820152608401610cc8565b600080846001600160a01b03168460405161362291906149b1565b600060405180830381855af49150503d806000811461365d576040519150601f19603f3d011682016040523d82523d6000602084013e613662565b606091505b509150915061368a8282604051806060016040528060278152602001614f9860279139613f76565b95945050505050565b61369c81613503565b6040516001600160a01b038216907fbc7cd75a20ee27fd9adebab32041f755214dbc6bffa90cc0225b39da2e5c2d3b90600090a250565b63ffffffff831660009081526101c160209081526040808320841515845282528083206001600160a01b0386168452909152902054801561116f5763ffffffff841660008181526101c1602090815260408083208615158085529083528184206001600160a01b03891680865290845282852085905585855261018f84528285209185529083528184209484526101c08352818420908452825280832054835292905290812054613785908390612b07565b63ffffffff8616600090815261018d6020908152604080832087151584529091529081902054905163a9059cbb60e01b81526001600160a01b0387811660048301526024820184905292935091169063a9059cbb90604401602060405180830381600087803b1580156137f757600080fd5b505af115801561380b573d6000803e3d6000fd5b505050506040513d601f19601f8201168201806040525081019061382f9190614556565b505050505050565b63ffffffff831660009081526101c260209081526040808320841515845282528083206001600160a01b0386168452909152902054801561116f5763ffffffff841660008181526101c2602090815260408083208615158085529083528184206001600160a01b03891680865290845282852085905585855261018f84528285209185529083528184209484526101c083528184209084528252808320548352929052908120546138e9908390613d30565b63ffffffff8616600090815261015e6020526040908190205490516375b5ffd160e11b81526001600160a01b0387811660048301526024820184905292935091169063eb6bffa290604401600060405180830381600087803b15801561394e57600080fd5b505af1158015613962573d6000803e3d6000fd5b505050505050505050565b63ffffffff831660009081526101c360209081526040808320841515845282528083206001600160a01b0386168452909152902054801561116f5763ffffffff841660009081526101c0602090815260408083206001600160a01b03871684529091528120546139e2908690849086906113d9565b63ffffffff861660008181526101c3602090815260408083208815801585529083528184206001600160a01b038b811680875291855283862086905595855261018d845282852091855292529182902054915163a9059cbb60e01b8152600481019190915260248101849052929350169063a9059cbb90604401602060405180830381600087803b158015613a7657600080fd5b505af1158015613a8a573d6000803e3d6000fd5b505050506040513d601f19601f82011682018060405250810190613aae9190614556565b611f6c57600080fd5b63ffffffff808316600090815261015e602090815260408083205461015d90925290912054610cdb926001600160a01b0391821692339216908590613faf16565b600054610100900460ff1680613b11575060005460ff16155b613b2d5760405162461bcd60e51b8152600401610cc890614bcc565b600054610100900460ff16158015613b4f576000805461ffff19166101011790555b613b57614009565b613b5f614009565b613b67614009565b8015610c2d576000805461ff001916905550565b600054610100900460ff1680613b94575060005460ff16155b613bb05760405162461bcd60e51b8152600401610cc890614bcc565b600054610100900460ff16158015613b57576000805461ffff1916610101179055613b5f614009565b600054610100900460ff1680613bf2575060005460ff16155b613c0e5760405162461bcd60e51b8152600401610cc890614bcc565b600054610100900460ff16158015613c30576000805461ffff19166101011790555b6001600160a01b038216613c4357600080fd5b613c4e600083614073565b613c787fa49807205ce4d355092ef5a8a18f56e8913cf4a201fbe287825b095693c2177583614073565b612de67f189ab7a9244df0848122154315af71fe140f3db0fe014031783b0946b8c9d2e383614073565b8183106000808215613cb75750848403613cbc565b508385035b63ffffffff8716600090815261015b60205260408120548590613cdf9084614e21565b613ce99190614d8a565b90506000613cff82670de0b6b3a7640000613d1a565b905080670de0b6b3a764000003935050505094509492505050565b6000818310613d295781612b26565b5090919050565b6000670de0b6b3a7640000612b1c8385614e21565b6000811315613dc65763ffffffff8216600090815261015e6020526040908190205490516304831f7160e51b8152600481018390526001600160a01b0390911690639063ee2090602401600060405180830381600087803b158015613da957600080fd5b505af1158015613dbd573d6000803e3d6000fd5b50505050610cdb565b6000811215610cdb5763ffffffff8216600090815261015e60205260409020546001600160a01b0316631c499b55613dfd83614f18565b6040518263ffffffff1660e01b8152600401613e1b91815260200190565b600060405180830381600087803b158015613e3557600080fd5b505af115801561382f573d6000803e3d6000fd5b6000811315613edd5763ffffffff8316600090815261018d602090815260408083208515158452909152908190205490516340c10f1960e01b8152306004820152602481018390526001600160a01b03909116906340c10f1990604401600060405180830381600087803b158015613ec057600080fd5b505af1158015613ed4573d6000803e3d6000fd5b50505050610c57565b6000811215610c575763ffffffff8316600090815261018d6020908152604080832085151584529091529020546001600160a01b03166342966c68613f2183614f18565b6040518263ffffffff1660e01b8152600401613f3f91815260200190565b600060405180830381600087803b158015613f5957600080fd5b505af1158015613f6d573d6000803e3d6000fd5b50505050505050565b60608315613f85575081612b26565b825115613f955782518084602001fd5b8160405162461bcd60e51b8152600401610cc89190614acd565b604080516001600160a01b0385811660248301528416604482015260648082018490528251808303909101815260849091019091526020810180516001600160e01b03166323b872dd60e01b17905261116f90859061407d565b600054610100900460ff1680614022575060005460ff16155b61403e5760405162461bcd60e51b8152600401610cc890614bcc565b600054610100900460ff16158015613b67576000805461ffff19166101011790558015610c2d576000805461ff001916905550565b610cdb8282612389565b60006140d2826040518060400160405280602081526020017f5361666545524332303a206c6f772d6c6576656c2063616c6c206661696c6564815250856001600160a01b031661414f9092919063ffffffff16565b805190915015610c5757808060200190518101906140f09190614556565b610c575760405162461bcd60e51b815260206004820152602a60248201527f5361666545524332303a204552433230206f7065726174696f6e20646964206e6044820152691bdd081cdd58d8d9595960b21b6064820152608401610cc8565b60606128eb848460008585843b6141a85760405162461bcd60e51b815260206004820152601d60248201527f416464726573733a2063616c6c20746f206e6f6e2d636f6e74726163740000006044820152606401610cc8565b600080866001600160a01b031685876040516141c491906149b1565b60006040518083038185875af1925050503d8060008114614201576040519150601f19603f3d011682016040523d82523d6000602084013e614206565b606091505b5091509150611424828286613f76565b60008083601f840112614227578182fd5b50813567ffffffffffffffff81111561423e578182fd5b60208301915083602082850101111561425657600080fd5b9250929050565b803563ffffffff81168114610c1f57600080fd5b600060208284031215614282578081fd5b8135612b2681614f74565b60006020828403121561429e578081fd5b8151612b2681614f74565b600080600080608085870312156142be578283fd5b84356142c981614f74565b935060208501356142d981614f74565b925060408501356142e981614f74565b915060608501356142f981614f74565b939692955090935050565b60008060408385031215614316578182fd5b823561432181614f74565b915060208381013567ffffffffffffffff8082111561433e578384fd5b818601915086601f830112614351578384fd5b81358181111561436357614363614f5e565b8060051b9150614374848301614cd2565b8181528481019084860184860187018b101561438e578788fd5b8795505b838610156143b7576143a38161425d565b835260019590950194918601918601614392565b508096505050505050509250929050565b600080604083850312156143da578182fd5b82356143e581614f74565b915060208381013567ffffffffffffffff80821115614402578384fd5b818601915086601f830112614415578384fd5b81358181111561442757614427614f5e565b614439601f8201601f19168501614cd2565b9150808252878482850101111561444e578485fd5b8084840185840137810190920192909252919491935090915050565b6000806040838503121561447c578182fd5b823561448781614f74565b91506144956020840161425d565b90509250929050565b6000806000606084860312156144b2578283fd5b83356144bd81614f74565b92506144cb6020850161425d565b915060408401356144db81614f89565b809150509250925092565b600080602083850312156144f8578182fd5b823567ffffffffffffffff8082111561450f578384fd5b818501915085601f830112614522578384fd5b813581811115614530578485fd5b8660208260051b8501011115614544578485fd5b60209290920196919550909350505050565b600060208284031215614567578081fd5b8151612b2681614f89565b600060208284031215614583578081fd5b5035919050565b6000806040838503121561459c578182fd5b8235915060208301356145ae81614f74565b809150509250929050565b6000602082840312156145ca578081fd5b81356001600160e01b031981168114612b26578182fd5b6000602082840312156145f2578081fd5b5051919050565b600080600080600080600060a0888a031215614613578485fd5b873567ffffffffffffffff8082111561462a578687fd5b6146368b838c01614216565b909950975060208a013591508082111561464e578687fd5b5061465b8a828b01614216565b909650945050604088013561466f81614f74565b9250606088013561467f81614f74565b9150608088013561468f81614f74565b8091505092959891949750929550565b600080600080600080600080600060e08a8c0312156146bc578283fd5b893567ffffffffffffffff808211156146d3578485fd5b6146df8d838e01614216565b909b50995060208c01359150808211156146f7578485fd5b506147048c828d01614216565b90985096505060408a013561471881614f74565b945060608a013561472881614f74565b935060808a013561473881614f74565b925060a08a013561474881614f74565b915060c08a013561475881614f74565b809150509295985092959850929598565b60006020828403121561477a578081fd5b612b268261425d565b60008060408385031215614795578182fd5b61479e8361425d565b915060208301356145ae81614f74565b600080604083850312156147c0578182fd5b6147c98361425d565b915060208301356145ae81614f89565b6000806000606084860312156147ed578081fd5b6147f68461425d565b9250602084013561480681614f89565b915060408401356144db81614f74565b60008060006060848603121561482a578081fd5b6148338461425d565b9250602084013561484381614f89565b929592945050506040919091013590565b60008060408385031215614866578182fd5b61486f8361425d565b946020939093013593505050565b600080600060608486031215614891578081fd5b61489a8461425d565b92506020840135915060408401356144db81614f89565b600080600080608085870312156148c6578182fd5b6148cf8561425d565b93506020850135925060408501356148e681614f89565b9396929550929360600135925050565b60008060008060008060008060006101208a8c031215614914578283fd5b61491d8a61425d565b9b60208b01359b5060408b01359a60608101359a506080810135995060a0810135985060c0810135975060e081013596506101000135945092505050565b60008284528282602086013780602084860101526020601f19601f85011685010190509392505050565b6000815180845261499d816020860160208601614e96565b601f01601f19169290920160200192915050565b600082516149c3818460208701614e96565b9190910192915050565b600061667360f01b8252828460028401379101600201908152919050565b60006b0233637b0ba1029b437b93a160a51b82528284600c8401379101600c01908152919050565b600061199b60f21b8252828460028401379101600201908152919050565b60007f416363657373436f6e74726f6c3a206163636f756e742000000000000000000082528351614a69816017850160208801614e96565b7001034b99036b4b9b9b4b733903937b6329607d1b6017918401918201528351614a9a816028840160208801614e96565b01602801949350505050565b60006a0233637b0ba102637b733960ad1b82528284600b8401379101600b01908152919050565b600060208252612b266020830184614985565b600060a08252614af360a0830188614985565b8281036020840152614b058188614985565b6001600160a01b03969096166040840152505063ffffffff929092166060830152151560809091015292915050565b6020808252602c908201527f46756e6374696f6e206d7573742062652063616c6c6564207468726f7567682060408201526b19195b1959d85d1958d85b1b60a21b606082015260800190565b6020808252602c908201527f46756e6374696f6e206d7573742062652063616c6c6564207468726f7567682060408201526b6163746976652070726f787960a01b606082015260800190565b6020808252602e908201527f496e697469616c697a61626c653a20636f6e747261637420697320616c72656160408201526d191e481a5b9a5d1a585b1a5e995960921b606082015260800190565b63ffffffff8c1681526001600160a01b038b811660208301528a8116604083015289811660608301526080820189905261012060a08301819052600091614c648483018a8c61495b565b915083820360c0850152614c7982888a61495b565b925080861660e085015280851661010085015250509c9b505050505050505050505050565b63ffffffff959095168552921515602085015260408401919091526001600160a01b03166060830152608082015260a00190565b604051601f8201601f1916810167ffffffffffffffff81118282101715614cfb57614cfb614f5e565b604052919050565b600080821280156001600160ff1b0384900385131615614d2557614d25614f32565b600160ff1b8390038412811615614d3e57614d3e614f32565b50500190565b60008219821115614d5757614d57614f32565b500190565b600082614d6b57614d6b614f48565b600160ff1b821460001984141615614d8557614d85614f32565b500590565b600082614d9957614d99614f48565b500490565b60006001600160ff1b0381841382841380821686840486111615614dc457614dc4614f32565b600160ff1b84871282811687830589121615614de257614de2614f32565b858712925087820587128484161615614dfd57614dfd614f32565b87850587128184161615614e1357614e13614f32565b505050929093029392505050565b6000816000190483118215151615614e3b57614e3b614f32565b500290565b60008083128015600160ff1b850184121615614e5e57614e5e614f32565b6001600160ff1b0384018313811615614e7957614e79614f32565b50500390565b600082821015614e9157614e91614f32565b500390565b60005b83811015614eb1578181015183820152602001614e99565b8381111561116f5750506000910152565b600081614ed157614ed1614f32565b506000190190565b6000600019821415614eed57614eed614f32565b5060010190565b600063ffffffff80831681811415614f0e57614f0e614f32565b6001019392505050565b6000600160ff1b821415614f2e57614f2e614f32565b0390565b634e487b7160e01b600052601160045260246000fd5b634e487b7160e01b600052601260045260246000fd5b634e487b7160e01b600052604160045260246000fd5b6001600160a01b0381168114610c2d57600080fd5b8015158114610c2d57600080fdfe416464726573733a206c6f772d6c6576656c2064656c65676174652063616c6c206661696c6564a2646970667358221220fb907bc49a5fd4817a654af99826c4f66e486a820e47c147bd76cf3f94eb0eb764736f6c63430008030033",
  "linkReferences": {},
  "deployedLinkReferences": {}
}