{
  "_format": "hh-sol-artifact-1",
  "contractName": "Treasury_v0",
  "sourceName": "contracts/Treasury_v0.sol",
  "abi": [
    {
      "anonymous": false,
      "inputs": [
        {
          "indexed": false,
          "internalType": "address",
          "name": "previousAdmin",
          "type": "address"
        },
        {
          "indexed": false,
          "internalType": "address",
          "name": "newAdmin",
          "type": "address"
        }
      ],
      "name": "AdminChanged",
      "type": "event"
    },
    {
      "anonymous": false,
      "inputs": [
        {
          "indexed": true,
          "internalType": "address",
          "name": "beacon",
          "type": "address"
        }
      ],
      "name": "BeaconUpgraded",
      "type": "event"
    },
    {
      "anonymous": false,
      "inputs": [
        {
          "indexed": true,
          "internalType": "bytes32",
          "name": "role",
          "type": "bytes32"
        },
        {
          "indexed": true,
          "internalType": "bytes32",
          "name": "previousAdminRole",
          "type": "bytes32"
        },
        {
          "indexed": true,
          "internalType": "bytes32",
          "name": "newAdminRole",
          "type": "bytes32"
        }
      ],
      "name": "RoleAdminChanged",
      "type": "event"
    },
    {
      "anonymous": false,
      "inputs": [
        {
          "indexed": true,
          "internalType": "bytes32",
          "name": "role",
          "type": "bytes32"
        },
        {
          "indexed": true,
          "internalType": "address",
          "name": "account",
          "type": "address"
        },
        {
          "indexed": true,
          "internalType": "address",
          "name": "sender",
          "type": "address"
        }
      ],
      "name": "RoleGranted",
      "type": "event"
    },
    {
      "anonymous": false,
      "inputs": [
        {
          "indexed": true,
          "internalType": "bytes32",
          "name": "role",
          "type": "bytes32"
        },
        {
          "indexed": true,
          "internalType": "address",
          "name": "account",
          "type": "address"
        },
        {
          "indexed": true,
          "internalType": "address",
          "name": "sender",
          "type": "address"
        }
      ],
      "name": "RoleRevoked",
      "type": "event"
    },
    {
      "anonymous": false,
      "inputs": [
        {
          "indexed": true,
          "internalType": "address",
          "name": "implementation",
          "type": "address"
        }
      ],
      "name": "Upgraded",
      "type": "event"
    },
    {
      "inputs": [],
      "name": "ADMIN_ROLE",
      "outputs": [
        {
          "internalType": "bytes32",
          "name": "",
          "type": "bytes32"
        }
      ],
      "stateMutability": "view",
      "type": "function"
    },
    {
      "inputs": [],
      "name": "DEFAULT_ADMIN_ROLE",
      "outputs": [
        {
          "internalType": "bytes32",
          "name": "",
          "type": "bytes32"
        }
      ],
      "stateMutability": "view",
      "type": "function"
    },
    {
      "inputs": [],
      "name": "UPGRADER_ROLE",
      "outputs": [
        {
          "internalType": "bytes32",
          "name": "",
          "type": "bytes32"
        }
      ],
      "stateMutability": "view",
      "type": "function"
    },
    {
      "inputs": [
        {
          "internalType": "uint32",
          "name": "marketIndex",
          "type": "uint32"
        },
        {
          "internalType": "uint256",
          "name": "tokens_redeem",
          "type": "uint256"
        }
      ],
      "name": "convertSynthsToPaymentTokenNextPriceLong",
      "outputs": [],
      "stateMutability": "nonpayable",
      "type": "function"
    },
    {
      "inputs": [
        {
          "internalType": "uint32",
          "name": "marketIndex",
          "type": "uint32"
        },
        {
          "internalType": "uint256",
          "name": "tokens_redeem",
          "type": "uint256"
        }
      ],
      "name": "convertSynthsToPaymentTokenNextPriceShort",
      "outputs": [],
      "stateMutability": "nonpayable",
      "type": "function"
    },
    {
      "inputs": [],
      "name": "floatToken",
      "outputs": [
        {
          "internalType": "address",
          "name": "",
          "type": "address"
        }
      ],
      "stateMutability": "view",
      "type": "function"
    },
    {
      "inputs": [
        {
          "internalType": "bytes32",
          "name": "role",
          "type": "bytes32"
        }
      ],
      "name": "getRoleAdmin",
      "outputs": [
        {
          "internalType": "bytes32",
          "name": "",
          "type": "bytes32"
        }
      ],
      "stateMutability": "view",
      "type": "function"
    },
    {
      "inputs": [
        {
          "internalType": "bytes32",
          "name": "role",
          "type": "bytes32"
        },
        {
          "internalType": "address",
          "name": "account",
          "type": "address"
        }
      ],
      "name": "grantRole",
      "outputs": [],
      "stateMutability": "nonpayable",
      "type": "function"
    },
    {
      "inputs": [
        {
          "internalType": "bytes32",
          "name": "role",
          "type": "bytes32"
        },
        {
          "internalType": "address",
          "name": "account",
          "type": "address"
        }
      ],
      "name": "hasRole",
      "outputs": [
        {
          "internalType": "bool",
          "name": "",
          "type": "bool"
        }
      ],
      "stateMutability": "view",
      "type": "function"
    },
    {
      "inputs": [
        {
          "internalType": "address",
          "name": "_admin",
          "type": "address"
        },
        {
          "internalType": "address",
          "name": "_paymentToken",
          "type": "address"
        },
        {
          "internalType": "address",
          "name": "_floatToken",
          "type": "address"
        },
        {
          "internalType": "address",
          "name": "_longShort",
          "type": "address"
        }
      ],
      "name": "initialize",
      "outputs": [],
      "stateMutability": "nonpayable",
      "type": "function"
    },
    {
      "inputs": [],
      "name": "longShort",
      "outputs": [
        {
          "internalType": "address",
          "name": "",
          "type": "address"
        }
      ],
      "stateMutability": "view",
      "type": "function"
    },
    {
      "inputs": [],
      "name": "paymentToken",
      "outputs": [
        {
          "internalType": "address",
          "name": "",
          "type": "address"
        }
      ],
      "stateMutability": "view",
      "type": "function"
    },
    {
      "inputs": [
        {
          "internalType": "bytes32",
          "name": "role",
          "type": "bytes32"
        },
        {
          "internalType": "address",
          "name": "account",
          "type": "address"
        }
      ],
      "name": "renounceRole",
      "outputs": [],
      "stateMutability": "nonpayable",
      "type": "function"
    },
    {
      "inputs": [
        {
          "internalType": "bytes32",
          "name": "role",
          "type": "bytes32"
        },
        {
          "internalType": "address",
          "name": "account",
          "type": "address"
        }
      ],
      "name": "revokeRole",
      "outputs": [],
      "stateMutability": "nonpayable",
      "type": "function"
    },
    {
      "inputs": [
        {
          "internalType": "bytes4",
          "name": "interfaceId",
          "type": "bytes4"
        }
      ],
      "name": "supportsInterface",
      "outputs": [
        {
          "internalType": "bool",
          "name": "",
          "type": "bool"
        }
      ],
      "stateMutability": "view",
      "type": "function"
    },
    {
      "inputs": [
        {
          "internalType": "address",
          "name": "newImplementation",
          "type": "address"
        }
      ],
      "name": "upgradeTo",
      "outputs": [],
      "stateMutability": "nonpayable",
      "type": "function"
    },
    {
      "inputs": [
        {
          "internalType": "address",
          "name": "newImplementation",
          "type": "address"
        },
        {
          "internalType": "bytes",
          "name": "data",
          "type": "bytes"
        }
      ],
      "name": "upgradeToAndCall",
      "outputs": [],
      "stateMutability": "payable",
      "type": "function"
    }
  ],
  "bytecode": "0x60a06040523060601b60805234801561001757600080fd5b5060805160601c6115ad61004b600039600081816104e201528181610522015281816105ab01526105eb01526115ad6000f3fe6080604052600436106100fe5760003560e01c80634f1ef28611610095578063a217fddf11610064578063a217fddf146102d7578063d547741f146102ec578063eae5a8d91461030c578063f72c0d8b1461032c578063f8c8765e14610360576100fe565b80634f1ef2861461025057806375b238fc1461026357806391d14854146102975780639c005711146102b7576100fe565b80632f2ff15d116100d15780632f2ff15d146101d05780633013ce29146101f057806336568abe146102105780633659cfe614610230576100fe565b806301ffc9a7146101035780630e11b60e14610138578063248a9ca31461015a5780632994987214610198575b600080fd5b34801561010f57600080fd5b5061012361011e3660046112a1565b610380565b60405190151581526020015b60405180910390f35b34801561014457600080fd5b506101586101533660046112c9565b6103b9565b005b34801561016657600080fd5b5061018a61017536600461125e565b60009081526065602052604090206001015490565b60405190815260200161012f565b3480156101a457600080fd5b5060fd546101b8906001600160a01b031681565b6040516001600160a01b03909116815260200161012f565b3480156101dc57600080fd5b506101586101eb366004611276565b610428565b3480156101fc57600080fd5b5060fb546101b8906001600160a01b031681565b34801561021c57600080fd5b5061015861022b366004611276565b610454565b34801561023c57600080fd5b5061015861024b366004611134565b6104d7565b61015861025e3660046111a1565b6105a0565b34801561026f57600080fd5b5061018a7fa49807205ce4d355092ef5a8a18f56e8913cf4a201fbe287825b095693c2177581565b3480156102a357600080fd5b506101236102b2366004611276565b610656565b3480156102c357600080fd5b506101586102d23660046112c9565b610681565b3480156102e357600080fd5b5061018a600081565b3480156102f857600080fd5b50610158610307366004611276565b6106be565b34801561031857600080fd5b5060fc546101b8906001600160a01b031681565b34801561033857600080fd5b5061018a7f189ab7a9244df0848122154315af71fe140f3db0fe014031783b0946b8c9d2e381565b34801561036c57600080fd5b5061015861037b36600461114e565b6106e4565b60006001600160e01b03198216637965db0b60e01b14806103b157506301ffc9a760e01b6001600160e01b03198316145b90505b919050565b60fd5460405163c2e1247160e01b815263ffffffff84166004820152602481018390526001600160a01b039091169063c2e12471906044015b600060405180830381600087803b15801561040c57600080fd5b505af1158015610420573d6000803e3d6000fd5b505050505050565b60008281526065602052604090206001015461044581335b61079a565b61044f83836107fe565b505050565b6001600160a01b03811633146104c95760405162461bcd60e51b815260206004820152602f60248201527f416363657373436f6e74726f6c3a2063616e206f6e6c792072656e6f756e636560448201526e103937b632b9903337b91039b2b63360891b60648201526084015b60405180910390fd5b6104d38282610884565b5050565b306001600160a01b037f00000000000000000000000000000000000000000000000000000000000000001614156105205760405162461bcd60e51b81526004016104c0906113c0565b7f00000000000000000000000000000000000000000000000000000000000000006001600160a01b03166105526108eb565b6001600160a01b0316146105785760405162461bcd60e51b81526004016104c09061140c565b61058181610919565b6040805160008082526020820190925261059d91839190610944565b50565b306001600160a01b037f00000000000000000000000000000000000000000000000000000000000000001614156105e95760405162461bcd60e51b81526004016104c0906113c0565b7f00000000000000000000000000000000000000000000000000000000000000006001600160a01b031661061b6108eb565b6001600160a01b0316146106415760405162461bcd60e51b81526004016104c09061140c565b61064a82610919565b6104d382826001610944565b60009182526065602090815260408084206001600160a01b0393909316845291905290205460ff1690565b60fd54604051630735b02760e51b815263ffffffff84166004820152602481018390526001600160a01b039091169063e6b604e0906044016103f2565b6000828152606560205260409020600101546106da8133610440565b61044f8383610884565b600054610100900460ff16806106fd575060005460ff16155b6107195760405162461bcd60e51b81526004016104c090611458565b600054610100900460ff1615801561073b576000805461ffff19166101011790555b61074485610a88565b60fb80546001600160a01b038087166001600160a01b03199283161790925560fc805486841690831617905560fd8054928516929091169190911790558015610793576000805461ff00191690555b5050505050565b6107a48282610656565b6104d3576107bc816001600160a01b03166014610b0d565b6107c7836020610b0d565b6040516020016107d8929190611318565b60408051601f198184030181529082905262461bcd60e51b82526104c09160040161138d565b6108088282610656565b6104d35760008281526065602090815260408083206001600160a01b03851684529091529020805460ff191660011790556108403390565b6001600160a01b0316816001600160a01b0316837f2f8788117e7eff1d82e926ec794901d17c78024a50270940304540a733656f0d60405160405180910390a45050565b61088e8282610656565b156104d35760008281526065602090815260408083206001600160a01b0385168085529252808320805460ff1916905551339285917ff6391f5c32d9c69d2a47ea670b442974b53935d1edc7fd64eb21e047a839171b9190a45050565b7f360894a13ba1a3210667c828492db98dca3e2076cc3735a920a3ca505d382bbc546001600160a01b031690565b7f189ab7a9244df0848122154315af71fe140f3db0fe014031783b0946b8c9d2e36104d38133610440565b600061094e6108eb565b905061095984610cf6565b6000835111806109665750815b15610977576109758484610d9b565b505b7f4910fdfa16fed3260ed0e7147f7cc6da11a60208b5b9406d12a635614ffd9143805460ff1661079357805460ff191660011781556040516001600160a01b03831660248201526109f690869060440160408051601f198184030181529190526020810180516001600160e01b0316631b2ce7f360e11b179052610d9b565b50805460ff19168155610a076108eb565b6001600160a01b0316826001600160a01b031614610a7f5760405162461bcd60e51b815260206004820152602f60248201527f45524331393637557067726164653a207570677261646520627265616b73206660448201526e75727468657220757067726164657360881b60648201526084016104c0565b61079385610e86565b600054610100900460ff1680610aa1575060005460ff16155b610abd5760405162461bcd60e51b81526004016104c090611458565b600054610100900460ff16158015610adf576000805461ffff19166101011790555b610ae7610ec6565b610aef610f49565b610af882610fa7565b80156104d3576000805461ff00191690555050565b60606000610b1c8360026114be565b610b279060026114a6565b67ffffffffffffffff811115610b4d57634e487b7160e01b600052604160045260246000fd5b6040519080825280601f01601f191660200182016040528015610b77576020820181803683370190505b509050600360fc1b81600081518110610ba057634e487b7160e01b600052603260045260246000fd5b60200101906001600160f81b031916908160001a905350600f60fb1b81600181518110610bdd57634e487b7160e01b600052603260045260246000fd5b60200101906001600160f81b031916908160001a9053506000610c018460026114be565b610c0c9060016114a6565b90505b6001811115610ca0576f181899199a1a9b1b9c1cb0b131b232b360811b85600f1660108110610c4e57634e487b7160e01b600052603260045260246000fd5b1a60f81b828281518110610c7257634e487b7160e01b600052603260045260246000fd5b60200101906001600160f81b031916908160001a90535060049490941c93610c998161150d565b9050610c0f565b508315610cef5760405162461bcd60e51b815260206004820181905260248201527f537472696e67733a20686578206c656e67746820696e73756666696369656e7460448201526064016104c0565b9392505050565b803b610d5a5760405162461bcd60e51b815260206004820152602d60248201527f455243313936373a206e657720696d706c656d656e746174696f6e206973206e60448201526c1bdd08184818dbdb9d1c9858dd609a1b60648201526084016104c0565b7f360894a13ba1a3210667c828492db98dca3e2076cc3735a920a3ca505d382bbc80546001600160a01b0319166001600160a01b0392909216919091179055565b6060823b610dfa5760405162461bcd60e51b815260206004820152602660248201527f416464726573733a2064656c65676174652063616c6c20746f206e6f6e2d636f6044820152651b9d1c9858dd60d21b60648201526084016104c0565b600080846001600160a01b031684604051610e1591906112fc565b600060405180830381855af49150503d8060008114610e50576040519150601f19603f3d011682016040523d82523d6000602084013e610e55565b606091505b5091509150610e7d828260405180606001604052806027815260200161155160279139611070565b95945050505050565b610e8f81610cf6565b6040516001600160a01b038216907fbc7cd75a20ee27fd9adebab32041f755214dbc6bffa90cc0225b39da2e5c2d3b90600090a250565b600054610100900460ff1680610edf575060005460ff16155b610efb5760405162461bcd60e51b81526004016104c090611458565b600054610100900460ff16158015610f1d576000805461ffff19166101011790555b610f256110a9565b610f2d6110a9565b610f356110a9565b801561059d576000805461ff001916905550565b600054610100900460ff1680610f62575060005460ff16155b610f7e5760405162461bcd60e51b81526004016104c090611458565b600054610100900460ff16158015610f25576000805461ffff1916610101179055610f2d6110a9565b600054610100900460ff1680610fc0575060005460ff16155b610fdc5760405162461bcd60e51b81526004016104c090611458565b600054610100900460ff16158015610ffe576000805461ffff19166101011790555b6001600160a01b03821661101157600080fd5b61101c600083611113565b6110467fa49807205ce4d355092ef5a8a18f56e8913cf4a201fbe287825b095693c2177583611113565b610af87f189ab7a9244df0848122154315af71fe140f3db0fe014031783b0946b8c9d2e383611113565b6060831561107f575081610cef565b82511561108f5782518084602001fd5b8160405162461bcd60e51b81526004016104c0919061138d565b600054610100900460ff16806110c2575060005460ff16155b6110de5760405162461bcd60e51b81526004016104c090611458565b600054610100900460ff16158015610f35576000805461ffff1916610101179055801561059d576000805461ff001916905550565b6104d382826107fe565b80356001600160a01b03811681146103b457600080fd5b600060208284031215611145578081fd5b610cef8261111d565b60008060008060808587031215611163578283fd5b61116c8561111d565b935061117a6020860161111d565b92506111886040860161111d565b91506111966060860161111d565b905092959194509250565b600080604083850312156111b3578182fd5b6111bc8361111d565b9150602083013567ffffffffffffffff808211156111d8578283fd5b818501915085601f8301126111eb578283fd5b8135818111156111fd576111fd61153a565b604051601f8201601f19908116603f011681019083821181831017156112255761122561153a565b8160405282815288602084870101111561123d578586fd5b82602086016020830137856020848301015280955050505050509250929050565b60006020828403121561126f578081fd5b5035919050565b60008060408385031215611288578182fd5b823591506112986020840161111d565b90509250929050565b6000602082840312156112b2578081fd5b81356001600160e01b031981168114610cef578182fd5b600080604083850312156112db578182fd5b823563ffffffff811681146112ee578283fd5b946020939093013593505050565b6000825161130e8184602087016114dd565b9190910192915050565b60007f416363657373436f6e74726f6c3a206163636f756e7420000000000000000000825283516113508160178501602088016114dd565b7001034b99036b4b9b9b4b733903937b6329607d1b60179184019182015283516113818160288401602088016114dd565b01602801949350505050565b60006020825282518060208401526113ac8160408501602087016114dd565b601f01601f19169190910160400192915050565b6020808252602c908201527f46756e6374696f6e206d7573742062652063616c6c6564207468726f7567682060408201526b19195b1959d85d1958d85b1b60a21b606082015260800190565b6020808252602c908201527f46756e6374696f6e206d7573742062652063616c6c6564207468726f7567682060408201526b6163746976652070726f787960a01b606082015260800190565b6020808252602e908201527f496e697469616c697a61626c653a20636f6e747261637420697320616c72656160408201526d191e481a5b9a5d1a585b1a5e995960921b606082015260800190565b600082198211156114b9576114b9611524565b500190565b60008160001904831182151516156114d8576114d8611524565b500290565b60005b838110156114f85781810151838201526020016114e0565b83811115611507576000848401525b50505050565b60008161151c5761151c611524565b506000190190565b634e487b7160e01b600052601160045260246000fd5b634e487b7160e01b600052604160045260246000fdfe416464726573733a206c6f772d6c6576656c2064656c65676174652063616c6c206661696c6564a2646970667358221220f98655b7522d9ffd12af22453ba3bd16e13f680f42bd481e6997159794cc721364736f6c63430008030033",
  "linkReferences": {},
  "deployedLinkReferences": {}
}