{
  "_format": "hh-sol-artifact-1",
  "contractName": "YieldManagerMock",
  "sourceName": "contracts/mocks/YieldManagerMock.sol",
  "abi": [
    {
      "inputs": [
        {
          "internalType": "address",
          "name": "_longShort",
          "type": "address"
        },
        {
          "internalType": "address",
          "name": "_treasury",
          "type": "address"
        },
        {
          "internalType": "address",
          "name": "_token",
          "type": "address"
        }
      ],
      "stateMutability": "nonpayable",
      "type": "constructor"
    },
    {
      "anonymous": false,
      "inputs": [
        {
          "indexed": false,
          "internalType": "uint256",
          "name": "amount",
          "type": "uint256"
        }
      ],
      "name": "ClaimAaveRewardTokenToTreasury",
      "type": "event"
    },
    {
      "anonymous": false,
      "inputs": [],
      "name": "WithdrawTreasuryFunds",
      "type": "event"
    },
    {
      "anonymous": false,
      "inputs": [
        {
          "indexed": false,
          "internalType": "uint256",
          "name": "unrealizedYield",
          "type": "uint256"
        },
        {
          "indexed": false,
          "internalType": "uint256",
          "name": "treasuryYieldPercent_e18",
          "type": "uint256"
        }
      ],
      "name": "YieldDistributed",
      "type": "event"
    },
    {
      "inputs": [],
      "name": "TEN_TO_THE_18",
      "outputs": [
        {
          "internalType": "uint256",
          "name": "",
          "type": "uint256"
        }
      ],
      "stateMutability": "view",
      "type": "function"
    },
    {
      "inputs": [],
      "name": "admin",
      "outputs": [
        {
          "internalType": "address",
          "name": "",
          "type": "address"
        }
      ],
      "stateMutability": "view",
      "type": "function"
    },
    {
      "inputs": [
        {
          "internalType": "uint256",
          "name": "amount",
          "type": "uint256"
        }
      ],
      "name": "depositPaymentToken",
      "outputs": [],
      "stateMutability": "nonpayable",
      "type": "function"
    },
    {
      "inputs": [
        {
          "internalType": "uint256",
          "name": "totalValueRealizedForMarket",
          "type": "uint256"
        },
        {
          "internalType": "uint256",
          "name": "treasuryYieldPercent_e18",
          "type": "uint256"
        }
      ],
      "name": "distributeYieldForTreasuryAndReturnMarketAllocation",
      "outputs": [
        {
          "internalType": "uint256",
          "name": "",
          "type": "uint256"
        }
      ],
      "stateMutability": "nonpayable",
      "type": "function"
    },
    {
      "inputs": [],
      "name": "initializeForMarket",
      "outputs": [],
      "stateMutability": "nonpayable",
      "type": "function"
    },
    {
      "inputs": [],
      "name": "isInitialized",
      "outputs": [
        {
          "internalType": "bool",
          "name": "",
          "type": "bool"
        }
      ],
      "stateMutability": "view",
      "type": "function"
    },
    {
      "inputs": [],
      "name": "lastSettled",
      "outputs": [
        {
          "internalType": "uint256",
          "name": "",
          "type": "uint256"
        }
      ],
      "stateMutability": "view",
      "type": "function"
    },
    {
      "inputs": [],
      "name": "longShort",
      "outputs": [
        {
          "internalType": "address",
          "name": "",
          "type": "address"
        }
      ],
      "stateMutability": "view",
      "type": "function"
    },
    {
      "inputs": [
        {
          "internalType": "uint256",
          "name": "amount",
          "type": "uint256"
        }
      ],
      "name": "removePaymentTokenFromMarket",
      "outputs": [],
      "stateMutability": "nonpayable",
      "type": "function"
    },
    {
      "inputs": [
        {
          "internalType": "uint256",
          "name": "_yieldRate",
          "type": "uint256"
        }
      ],
      "name": "setYieldRate",
      "outputs": [],
      "stateMutability": "nonpayable",
      "type": "function"
    },
    {
      "inputs": [],
      "name": "settle",
      "outputs": [],
      "stateMutability": "nonpayable",
      "type": "function"
    },
    {
      "inputs": [
        {
          "internalType": "uint256",
          "name": "totalYield",
          "type": "uint256"
        }
      ],
      "name": "settleWithYieldAbsolute",
      "outputs": [],
      "stateMutability": "nonpayable",
      "type": "function"
    },
    {
      "inputs": [
        {
          "internalType": "uint256",
          "name": "yieldPercent",
          "type": "uint256"
        }
      ],
      "name": "settleWithYieldPercent",
      "outputs": [],
      "stateMutability": "nonpayable",
      "type": "function"
    },
    {
      "inputs": [],
      "name": "token",
      "outputs": [
        {
          "internalType": "contract ERC20PresetMinterPauser",
          "name": "",
          "type": "address"
        }
      ],
      "stateMutability": "view",
      "type": "function"
    },
    {
      "inputs": [],
      "name": "tokenOtherRewardERC20",
      "outputs": [
        {
          "internalType": "contract ERC20PresetMinterPauser",
          "name": "",
          "type": "address"
        }
      ],
      "stateMutability": "view",
      "type": "function"
    },
    {
      "inputs": [],
      "name": "totalHeld",
      "outputs": [
        {
          "internalType": "uint256",
          "name": "",
          "type": "uint256"
        }
      ],
      "stateMutability": "view",
      "type": "function"
    },
    {
      "inputs": [],
      "name": "totalReservedForTreasury",
      "outputs": [
        {
          "internalType": "uint256",
          "name": "",
          "type": "uint256"
        }
      ],
      "stateMutability": "view",
      "type": "function"
    },
    {
      "inputs": [
        {
          "internalType": "address",
          "name": "user",
          "type": "address"
        },
        {
          "internalType": "uint256",
          "name": "amount",
          "type": "uint256"
        }
      ],
      "name": "transferPaymentTokensToUser",
      "outputs": [],
      "stateMutability": "nonpayable",
      "type": "function"
    },
    {
      "inputs": [],
      "name": "treasury",
      "outputs": [
        {
          "internalType": "address",
          "name": "",
          "type": "address"
        }
      ],
      "stateMutability": "view",
      "type": "function"
    },
    {
      "inputs": [],
      "name": "withdrawTreasuryFunds",
      "outputs": [],
      "stateMutability": "nonpayable",
      "type": "function"
    },
    {
      "inputs": [],
      "name": "yieldRate",
      "outputs": [
        {
          "internalType": "uint256",
          "name": "",
          "type": "uint256"
        }
      ],
      "stateMutability": "view",
      "type": "function"
    }
  ],
  "bytecode": "0x60806040526002805460ff60a01b1916905534801561001d57600080fd5b5060405161099f38038061099f83398101604081905261003c9161009e565b600180546001600160a01b039485166001600160a01b031991821617909155600280549385169382169390931790925560038054919093169116179055426008556100e0565b80516001600160a01b038116811461009957600080fd5b919050565b6000806000606084860312156100b2578283fd5b6100bb84610082565b92506100c960208501610082565b91506100d760408501610082565b90509250925092565b6108b0806100ef6000396000f3fe608060405234801561001057600080fd5b50600436106101375760003560e01c80638a5599b2116100b8578063e33247841161007c578063e33247841461025f578063eb6bffa214610272578063edf565cc14610285578063f43cc7731461028d578063f851a44014610296578063fc0c546a146102a957610137565b80638a5599b2146102045780639063ee2014610217578063b97206421461022a578063cbcb4d9d1461023d578063d2d2ef761461025057610137565b8063392e53cd116100ff578063392e53cd146101b3578063447479db146101d7578063509f5c32146101df57806361d027b3146101e85780636999ac93146101fb57610137565b806311da60b41461013c5780631411dab0146101465780631c499b55146101595780632429e5351461016c5780632994987214610188575b600080fd5b6101446102bc565b005b610144610154366004610796565b600755565b610144610167366004610796565b610386565b61017560055481565b6040519081526020015b60405180910390f35b60015461019b906001600160a01b031681565b6040516001600160a01b03909116815260200161017f565b6002546101c790600160a01b900460ff1681565b604051901515815260200161017f565b6101446103e4565b61017560085481565b60025461019b906001600160a01b031681565b61017560075481565b6101756102123660046107ae565b610410565b610144610225366004610796565b6104bd565b610144610238366004610796565b6104fd565b61014461024b366004610796565b610579565b610175670de0b6b3a764000081565b60045461019b906001600160a01b031681565b610144610280366004610739565b6105eb565b6101446106a0565b61017560065481565b60005461019b906001600160a01b031681565b60035461019b906001600160a01b031681565b6000600854426102cc919061084d565b6007546102d9919061082e565b90506000670de0b6b3a7640000826006546102f4919061082e565b6102fe919061080e565b426008556006549091506103139082906107f6565b6006558015610382576003546040516340c10f1960e01b8152306004820152602481018390526001600160a01b03909116906340c10f19906044015b600060405180830381600087803b15801561036957600080fd5b505af115801561037d573d6000803e3d6000fd5b505050505b5050565b6001546001600160a01b031633146103b95760405162461bcd60e51b81526004016103b0906107cf565b60405180910390fd5b6103c16102bc565b6006548111156103d057600080fd5b806006546103de919061084d565b60065550565b6001546001600160a01b0316331461040e5760405162461bcd60e51b81526004016103b0906107cf565b565b6001546000906001600160a01b0316331461043d5760405162461bcd60e51b81526004016103b0906107cf565b600060055484600654610450919061084d565b61045a919061084d565b90508061046b5760009150506104b7565b6000670de0b6b3a7640000610480858461082e565b61048a919061080e565b90506000610498828461084d565b905081600560008282546104ac91906107f6565b909155509093505050505b92915050565b6001546001600160a01b031633146104e75760405162461bcd60e51b81526004016103b0906107cf565b6104ef6102bc565b806006546103de91906107f6565b4260085560065461050f9082906107f6565b6006556003546040516340c10f1960e01b8152306004820152602481018390526001600160a01b03909116906340c10f1990604401600060405180830381600087803b15801561055e57600080fd5b505af1158015610572573d6000803e3d6000fd5b5050505050565b6000670de0b6b3a764000082600654610592919061082e565b61059c919061080e565b426008556006549091506105b19082906107f6565b6006556003546040516340c10f1960e01b8152306004820152602481018390526001600160a01b03909116906340c10f199060440161034f565b6001546001600160a01b031633146106155760405162461bcd60e51b81526004016103b0906107cf565b60035460405163a9059cbb60e01b81526001600160a01b038481166004830152602482018490529091169063a9059cbb90604401602060405180830381600087803b15801561066357600080fd5b505af1158015610677573d6000803e3d6000fd5b505050506040513d601f19601f8201168201806040525081019061069b919061076f565b505050565b6001546001600160a01b031633146106ca5760405162461bcd60e51b81526004016103b0906107cf565b600254600160a01b900460ff16156107245760405162461bcd60e51b815260206004820152601f60248201527f5969656c64204d616e6167657220697320616c726561647920696e207573650060448201526064016103b0565b6002805460ff60a01b1916600160a01b179055565b6000806040838503121561074b578182fd5b82356001600160a01b0381168114610761578283fd5b946020939093013593505050565b600060208284031215610780578081fd5b8151801515811461078f578182fd5b9392505050565b6000602082840312156107a7578081fd5b5035919050565b600080604083850312156107c0578182fd5b50508035926020909101359150565b6020808252600d908201526c139bdd081b1bdb99d4da1bdc9d609a1b604082015260600190565b6000821982111561080957610809610864565b500190565b60008261082957634e487b7160e01b81526012600452602481fd5b500490565b600081600019048311821515161561084857610848610864565b500290565b60008282101561085f5761085f610864565b500390565b634e487b7160e01b600052601160045260246000fdfea2646970667358221220b199c7420e18cc8e40e8bf9d9fd79cae570aa57222f76368422a2c79e51f600964736f6c63430008030033",
  "linkReferences": {},
  "deployedLinkReferences": {}
}