{
  "_format": "hh-sol-artifact-1",
  "contractName": "TreasuryAlpha",
  "sourceName": "contracts/TreasuryAlpha.sol",
  "abi": [
    {
      "anonymous": false,
      "inputs": [
        {
          "indexed": false,
          "internalType": "address",
          "name": "previousAdmin",
          "type": "address"
        },
        {
          "indexed": false,
          "internalType": "address",
          "name": "newAdmin",
          "type": "address"
        }
      ],
      "name": "AdminChanged",
      "type": "event"
    },
    {
      "anonymous": false,
      "inputs": [
        {
          "indexed": false,
          "internalType": "uint256",
          "name": "newBasePrice",
          "type": "uint256"
        }
      ],
      "name": "BasePriceUpdated",
      "type": "event"
    },
    {
      "anonymous": false,
      "inputs": [
        {
          "indexed": true,
          "internalType": "address",
          "name": "beacon",
          "type": "address"
        }
      ],
      "name": "BeaconUpgraded",
      "type": "event"
    },
    {
      "anonymous": false,
      "inputs": [
        {
          "indexed": true,
          "internalType": "bytes32",
          "name": "role",
          "type": "bytes32"
        },
        {
          "indexed": true,
          "internalType": "bytes32",
          "name": "previousAdminRole",
          "type": "bytes32"
        },
        {
          "indexed": true,
          "internalType": "bytes32",
          "name": "newAdminRole",
          "type": "bytes32"
        }
      ],
      "name": "RoleAdminChanged",
      "type": "event"
    },
    {
      "anonymous": false,
      "inputs": [
        {
          "indexed": true,
          "internalType": "bytes32",
          "name": "role",
          "type": "bytes32"
        },
        {
          "indexed": true,
          "internalType": "address",
          "name": "account",
          "type": "address"
        },
        {
          "indexed": true,
          "internalType": "address",
          "name": "sender",
          "type": "address"
        }
      ],
      "name": "RoleGranted",
      "type": "event"
    },
    {
      "anonymous": false,
      "inputs": [
        {
          "indexed": true,
          "internalType": "bytes32",
          "name": "role",
          "type": "bytes32"
        },
        {
          "indexed": true,
          "internalType": "address",
          "name": "account",
          "type": "address"
        },
        {
          "indexed": true,
          "internalType": "address",
          "name": "sender",
          "type": "address"
        }
      ],
      "name": "RoleRevoked",
      "type": "event"
    },
    {
      "anonymous": false,
      "inputs": [
        {
          "indexed": true,
          "internalType": "address",
          "name": "implementation",
          "type": "address"
        }
      ],
      "name": "Upgraded",
      "type": "event"
    },
    {
      "inputs": [],
      "name": "ADMIN_ROLE",
      "outputs": [
        {
          "internalType": "bytes32",
          "name": "",
          "type": "bytes32"
        }
      ],
      "stateMutability": "view",
      "type": "function"
    },
    {
      "inputs": [],
      "name": "DEFAULT_ADMIN_ROLE",
      "outputs": [
        {
          "internalType": "bytes32",
          "name": "",
          "type": "bytes32"
        }
      ],
      "stateMutability": "view",
      "type": "function"
    },
    {
      "inputs": [],
      "name": "UPGRADER_ROLE",
      "outputs": [
        {
          "internalType": "bytes32",
          "name": "",
          "type": "bytes32"
        }
      ],
      "stateMutability": "view",
      "type": "function"
    },
    {
      "inputs": [],
      "name": "activateRedemptions",
      "outputs": [],
      "stateMutability": "nonpayable",
      "type": "function"
    },
    {
      "inputs": [],
      "name": "basePrice",
      "outputs": [
        {
          "internalType": "uint256",
          "name": "",
          "type": "uint256"
        }
      ],
      "stateMutability": "view",
      "type": "function"
    },
    {
      "inputs": [
        {
          "internalType": "uint256",
          "name": "amountOfFloatToBurn",
          "type": "uint256"
        }
      ],
      "name": "burnFloatForShareOfTreasury",
      "outputs": [],
      "stateMutability": "nonpayable",
      "type": "function"
    },
    {
      "inputs": [
        {
          "internalType": "uint32",
          "name": "marketIndex",
          "type": "uint32"
        },
        {
          "internalType": "uint256",
          "name": "tokens_redeem",
          "type": "uint256"
        }
      ],
      "name": "convertSynthsToPaymentTokenNextPriceLong",
      "outputs": [],
      "stateMutability": "nonpayable",
      "type": "function"
    },
    {
      "inputs": [
        {
          "internalType": "uint32",
          "name": "marketIndex",
          "type": "uint32"
        },
        {
          "internalType": "uint256",
          "name": "tokens_redeem",
          "type": "uint256"
        }
      ],
      "name": "convertSynthsToPaymentTokenNextPriceShort",
      "outputs": [],
      "stateMutability": "nonpayable",
      "type": "function"
    },
    {
      "inputs": [],
      "name": "floatToken",
      "outputs": [
        {
          "internalType": "address",
          "name": "",
          "type": "address"
        }
      ],
      "stateMutability": "view",
      "type": "function"
    },
    {
      "inputs": [
        {
          "internalType": "bytes32",
          "name": "role",
          "type": "bytes32"
        }
      ],
      "name": "getRoleAdmin",
      "outputs": [
        {
          "internalType": "bytes32",
          "name": "",
          "type": "bytes32"
        }
      ],
      "stateMutability": "view",
      "type": "function"
    },
    {
      "inputs": [
        {
          "internalType": "bytes32",
          "name": "role",
          "type": "bytes32"
        },
        {
          "internalType": "address",
          "name": "account",
          "type": "address"
        }
      ],
      "name": "grantRole",
      "outputs": [],
      "stateMutability": "nonpayable",
      "type": "function"
    },
    {
      "inputs": [
        {
          "internalType": "bytes32",
          "name": "role",
          "type": "bytes32"
        },
        {
          "internalType": "address",
          "name": "account",
          "type": "address"
        }
      ],
      "name": "hasRole",
      "outputs": [
        {
          "internalType": "bool",
          "name": "",
          "type": "bool"
        }
      ],
      "stateMutability": "view",
      "type": "function"
    },
    {
      "inputs": [
        {
          "internalType": "address",
          "name": "_admin",
          "type": "address"
        },
        {
          "internalType": "address",
          "name": "_paymentToken",
          "type": "address"
        },
        {
          "internalType": "address",
          "name": "_floatToken",
          "type": "address"
        },
        {
          "internalType": "address",
          "name": "_longShort",
          "type": "address"
        }
      ],
      "name": "initialize",
      "outputs": [],
      "stateMutability": "nonpayable",
      "type": "function"
    },
    {
      "inputs": [],
      "name": "longShort",
      "outputs": [
        {
          "internalType": "address",
          "name": "",
          "type": "address"
        }
      ],
      "stateMutability": "view",
      "type": "function"
    },
    {
      "inputs": [],
      "name": "paymentToken",
      "outputs": [
        {
          "internalType": "address",
          "name": "",
          "type": "address"
        }
      ],
      "stateMutability": "view",
      "type": "function"
    },
    {
      "inputs": [],
      "name": "redemptionsActivated",
      "outputs": [
        {
          "internalType": "bool",
          "name": "",
          "type": "bool"
        }
      ],
      "stateMutability": "view",
      "type": "function"
    },
    {
      "inputs": [
        {
          "internalType": "bytes32",
          "name": "role",
          "type": "bytes32"
        },
        {
          "internalType": "address",
          "name": "account",
          "type": "address"
        }
      ],
      "name": "renounceRole",
      "outputs": [],
      "stateMutability": "nonpayable",
      "type": "function"
    },
    {
      "inputs": [
        {
          "internalType": "bytes32",
          "name": "role",
          "type": "bytes32"
        },
        {
          "internalType": "address",
          "name": "account",
          "type": "address"
        }
      ],
      "name": "revokeRole",
      "outputs": [],
      "stateMutability": "nonpayable",
      "type": "function"
    },
    {
      "inputs": [
        {
          "internalType": "bytes4",
          "name": "interfaceId",
          "type": "bytes4"
        }
      ],
      "name": "supportsInterface",
      "outputs": [
        {
          "internalType": "bool",
          "name": "",
          "type": "bool"
        }
      ],
      "stateMutability": "view",
      "type": "function"
    },
    {
      "inputs": [
        {
          "internalType": "uint256",
          "name": "newBasePrice",
          "type": "uint256"
        }
      ],
      "name": "updateBasePrice",
      "outputs": [],
      "stateMutability": "nonpayable",
      "type": "function"
    },
    {
      "inputs": [
        {
          "internalType": "address",
          "name": "newImplementation",
          "type": "address"
        }
      ],
      "name": "upgradeTo",
      "outputs": [],
      "stateMutability": "nonpayable",
      "type": "function"
    },
    {
      "inputs": [
        {
          "internalType": "address",
          "name": "newImplementation",
          "type": "address"
        },
        {
          "internalType": "bytes",
          "name": "data",
          "type": "bytes"
        }
      ],
      "name": "upgradeToAndCall",
      "outputs": [],
      "stateMutability": "payable",
      "type": "function"
    }
  ],
  "bytecode": "0x60a06040523060601b60805234801561001757600080fd5b5060805160601c611c0661004b6000396000818161059d015281816105dd0152818161066601526106a60152611c066000f3fe6080604052600436106101355760003560e01c8063941e670f116100ab578063c7876ea41161006f578063c7876ea414610371578063d547741f14610387578063eae5a8d9146103a7578063f72c0d8b146103c7578063f8c8765e146103fb578063fd5baa881461041b57610135565b8063941e670f146102ee5780639c0057111461030e578063a217fddf1461032e578063b18c00bd14610343578063ba311ae61461035c57610135565b80633013ce29116100fd5780633013ce291461022757806336568abe146102475780633659cfe6146102675780634f1ef2861461028757806375b238fc1461029a57806391d14854146102ce57610135565b806301ffc9a71461013a5780630e11b60e1461016f578063248a9ca31461019157806329949872146101cf5780632f2ff15d14610207575b600080fd5b34801561014657600080fd5b5061015a6101553660046118c6565b61043b565b60405190151581526020015b60405180910390f35b34801561017b57600080fd5b5061018f61018a366004611906565b610474565b005b34801561019d57600080fd5b506101c16101ac366004611883565b60009081526065602052604090206001015490565b604051908152602001610166565b3480156101db57600080fd5b5060fd546101ef906001600160a01b031681565b6040516001600160a01b039091168152602001610166565b34801561021357600080fd5b5061018f61022236600461189b565b6104e3565b34801561023357600080fd5b5060fb546101ef906001600160a01b031681565b34801561025357600080fd5b5061018f61026236600461189b565b61050f565b34801561027357600080fd5b5061018f610282366004611739565b610592565b61018f6102953660046117a6565b61065b565b3480156102a657600080fd5b506101c17fa49807205ce4d355092ef5a8a18f56e8913cf4a201fbe287825b095693c2177581565b3480156102da57600080fd5b5061015a6102e936600461189b565b610711565b3480156102fa57600080fd5b5061018f610309366004611883565b61073c565b34801561031a57600080fd5b5061018f610329366004611906565b61087a565b34801561033a57600080fd5b506101c1600081565b34801561034f57600080fd5b5060ff805461015a911681565b34801561036857600080fd5b5061018f6108b7565b34801561037d57600080fd5b506101c160fe5481565b34801561039357600080fd5b5061018f6103a236600461189b565b6108ce565b3480156103b357600080fd5b5060fc546101ef906001600160a01b031681565b3480156103d357600080fd5b506101c17f189ab7a9244df0848122154315af71fe140f3db0fe014031783b0946b8c9d2e381565b34801561040757600080fd5b5061018f610416366004611753565b6108f4565b34801561042757600080fd5b5061018f610436366004611883565b6109aa565b60006001600160e01b03198216637965db0b60e01b148061046c57506301ffc9a760e01b6001600160e01b03198316145b90505b919050565b60fd5460405163c2e1247160e01b815263ffffffff84166004820152602481018390526001600160a01b039091169063c2e12471906044015b600060405180830381600087803b1580156104c757600080fd5b505af11580156104db573d6000803e3d6000fd5b505050505050565b60008281526065602052604090206001015461050081335b610a39565b61050a8383610a9d565b505050565b6001600160a01b03811633146105845760405162461bcd60e51b815260206004820152602f60248201527f416363657373436f6e74726f6c3a2063616e206f6e6c792072656e6f756e636560448201526e103937b632b9903337b91039b2b63360891b60648201526084015b60405180910390fd5b61058e8282610b23565b5050565b306001600160a01b037f00000000000000000000000000000000000000000000000000000000000000001614156105db5760405162461bcd60e51b815260040161057b906119fd565b7f00000000000000000000000000000000000000000000000000000000000000006001600160a01b031661060d610b8a565b6001600160a01b0316146106335760405162461bcd60e51b815260040161057b90611a49565b61063c81610bb8565b6040805160008082526020820190925261065891839190610be3565b50565b306001600160a01b037f00000000000000000000000000000000000000000000000000000000000000001614156106a45760405162461bcd60e51b815260040161057b906119fd565b7f00000000000000000000000000000000000000000000000000000000000000006001600160a01b03166106d6610b8a565b6001600160a01b0316146106fc5760405162461bcd60e51b815260040161057b90611a49565b61070582610bb8565b61058e82826001610be3565b60009182526065602090815260408084206001600160a01b0393909316845291905290205460ff1690565b60ff8054166107985760405162461bcd60e51b815260206004820152602260248201527f726564656d7074696f6e7320686176656e2774206265656e2061637469766174604482015261195960f21b606482015260840161057b565b60006107a2610d27565b6107aa610da9565b6107bc90670de0b6b3a7640000611b1b565b6107c69190611afb565b905060006107d68260fe54610ded565b90506000670de0b6b3a76400006107ed8584611b1b565b6107f79190611afb565b60fc5460405163079cc67960e41b8152336004820152602481018790529192506001600160a01b0316906379cc679090604401600060405180830381600087803b15801561084457600080fd5b505af1158015610858573d6000803e3d6000fd5b505060fb5461087492506001600160a01b031690503383610e05565b50505050565b60fd54604051630735b02760e51b815263ffffffff84166004820152602481018390526001600160a01b039091169063e6b604e0906044016104ad565b6108bf610e57565b60ff805460ff19166001179055565b6000828152606560205260409020600101546108ea81336104fb565b61050a8383610b23565b600054610100900460ff168061090d575060005460ff16155b6109295760405162461bcd60e51b815260040161057b90611a95565b600054610100900460ff1615801561094b576000805461ffff19166101011790555b61095485610e83565b60fb80546001600160a01b038087166001600160a01b03199283161790925560fc805486841690831617905560fd80549285169290911691909117905580156109a3576000805461ff00191690555b5050505050565b6109b2610e57565b6702c68af0bb14000081116109fe5760405162461bcd60e51b81526020600482015260126024820152716261736520707269636520746f6f206c6f7760701b604482015260640161057b565b60fe8190556040518181527ffab5bcbec79a8b5888e114fd4b378427aa58d9b237d85056f0ee5b3ea57df8c59060200160405180910390a150565b610a438282610711565b61058e57610a5b816001600160a01b03166014610f08565b610a66836020610f08565b604051602001610a77929190611955565b60408051601f198184030181529082905262461bcd60e51b825261057b916004016119ca565b610aa78282610711565b61058e5760008281526065602090815260408083206001600160a01b03851684529091529020805460ff19166001179055610adf3390565b6001600160a01b0316816001600160a01b0316837f2f8788117e7eff1d82e926ec794901d17c78024a50270940304540a733656f0d60405160405180910390a45050565b610b2d8282610711565b1561058e5760008281526065602090815260408083206001600160a01b0385168085529252808320805460ff1916905551339285917ff6391f5c32d9c69d2a47ea670b442974b53935d1edc7fd64eb21e047a839171b9190a45050565b7f360894a13ba1a3210667c828492db98dca3e2076cc3735a920a3ca505d382bbc546001600160a01b031690565b7f189ab7a9244df0848122154315af71fe140f3db0fe014031783b0946b8c9d2e361058e81336104fb565b6000610bed610b8a565b9050610bf8846110ea565b600083511180610c055750815b15610c1657610c14848461118f565b505b7f4910fdfa16fed3260ed0e7147f7cc6da11a60208b5b9406d12a635614ffd9143805460ff166109a357805460ff191660011781556040516001600160a01b0383166024820152610c9590869060440160408051601f198184030181529190526020810180516001600160e01b0316631b2ce7f360e11b17905261118f565b50805460ff19168155610ca6610b8a565b6001600160a01b0316826001600160a01b031614610d1e5760405162461bcd60e51b815260206004820152602f60248201527f45524331393637557067726164653a207570677261646520627265616b73206660448201526e75727468657220757067726164657360881b606482015260840161057b565b6109a38561127a565b60fc54604080516318160ddd60e01b815290516000926001600160a01b0316916318160ddd916004808301926020929190829003018186803b158015610d6c57600080fd5b505afa158015610d80573d6000803e3d6000fd5b505050506040513d601f19601f82011682018060405250810190610da491906118ee565b905090565b60fb546040516370a0823160e01b81523060048201526000916001600160a01b0316906370a082319060240160206040518083038186803b158015610d6c57600080fd5b6000818310610dfc5781610dfe565b825b9392505050565b604080516001600160a01b038416602482015260448082018490528251808303909101815260649091019091526020810180516001600160e01b031663a9059cbb60e01b17905261050a9084906112ba565b610e817fa49807205ce4d355092ef5a8a18f56e8913cf4a201fbe287825b095693c2177533610a39565b565b600054610100900460ff1680610e9c575060005460ff16155b610eb85760405162461bcd60e51b815260040161057b90611a95565b600054610100900460ff16158015610eda576000805461ffff19166101011790555b610ee261138c565b610eea61140f565b610ef38261146d565b801561058e576000805461ff00191690555050565b60606000610f17836002611b1b565b610f22906002611ae3565b67ffffffffffffffff811115610f4857634e487b7160e01b600052604160045260246000fd5b6040519080825280601f01601f191660200182016040528015610f72576020820181803683370190505b509050600360fc1b81600081518110610f9b57634e487b7160e01b600052603260045260246000fd5b60200101906001600160f81b031916908160001a905350600f60fb1b81600181518110610fd857634e487b7160e01b600052603260045260246000fd5b60200101906001600160f81b031916908160001a9053506000610ffc846002611b1b565b611007906001611ae3565b90505b600181111561109b576f181899199a1a9b1b9c1cb0b131b232b360811b85600f166010811061104957634e487b7160e01b600052603260045260246000fd5b1a60f81b82828151811061106d57634e487b7160e01b600052603260045260246000fd5b60200101906001600160f81b031916908160001a90535060049490941c9361109481611b66565b905061100a565b508315610dfe5760405162461bcd60e51b815260206004820181905260248201527f537472696e67733a20686578206c656e67746820696e73756666696369656e74604482015260640161057b565b803b61114e5760405162461bcd60e51b815260206004820152602d60248201527f455243313936373a206e657720696d706c656d656e746174696f6e206973206e60448201526c1bdd08184818dbdb9d1c9858dd609a1b606482015260840161057b565b7f360894a13ba1a3210667c828492db98dca3e2076cc3735a920a3ca505d382bbc80546001600160a01b0319166001600160a01b0392909216919091179055565b6060823b6111ee5760405162461bcd60e51b815260206004820152602660248201527f416464726573733a2064656c65676174652063616c6c20746f206e6f6e2d636f6044820152651b9d1c9858dd60d21b606482015260840161057b565b600080846001600160a01b0316846040516112099190611939565b600060405180830381855af49150503d8060008114611244576040519150601f19603f3d011682016040523d82523d6000602084013e611249565b606091505b50915091506112718282604051806060016040528060278152602001611baa60279139611536565b95945050505050565b611283816110ea565b6040516001600160a01b038216907fbc7cd75a20ee27fd9adebab32041f755214dbc6bffa90cc0225b39da2e5c2d3b90600090a250565b600061130f826040518060400160405280602081526020017f5361666545524332303a206c6f772d6c6576656c2063616c6c206661696c6564815250856001600160a01b031661156f9092919063ffffffff16565b80519091501561050a578080602001905181019061132d9190611863565b61050a5760405162461bcd60e51b815260206004820152602a60248201527f5361666545524332303a204552433230206f7065726174696f6e20646964206e6044820152691bdd081cdd58d8d9595960b21b606482015260840161057b565b600054610100900460ff16806113a5575060005460ff16155b6113c15760405162461bcd60e51b815260040161057b90611a95565b600054610100900460ff161580156113e3576000805461ffff19166101011790555b6113eb611586565b6113f3611586565b6113fb611586565b8015610658576000805461ff001916905550565b600054610100900460ff1680611428575060005460ff16155b6114445760405162461bcd60e51b815260040161057b90611a95565b600054610100900460ff161580156113eb576000805461ffff19166101011790556113f3611586565b600054610100900460ff1680611486575060005460ff16155b6114a25760405162461bcd60e51b815260040161057b90611a95565b600054610100900460ff161580156114c4576000805461ffff19166101011790555b6001600160a01b0382166114d757600080fd5b6114e26000836115f0565b61150c7fa49807205ce4d355092ef5a8a18f56e8913cf4a201fbe287825b095693c21775836115f0565b610ef37f189ab7a9244df0848122154315af71fe140f3db0fe014031783b0946b8c9d2e3836115f0565b60608315611545575081610dfe565b8251156115555782518084602001fd5b8160405162461bcd60e51b815260040161057b91906119ca565b606061157e84846000856115fa565b949350505050565b600054610100900460ff168061159f575060005460ff16155b6115bb5760405162461bcd60e51b815260040161057b90611a95565b600054610100900460ff161580156113fb576000805461ffff19166101011790558015610658576000805461ff001916905550565b61058e8282610a9d565b60608247101561165b5760405162461bcd60e51b815260206004820152602660248201527f416464726573733a20696e73756666696369656e742062616c616e636520666f6044820152651c8818d85b1b60d21b606482015260840161057b565b843b6116a95760405162461bcd60e51b815260206004820152601d60248201527f416464726573733a2063616c6c20746f206e6f6e2d636f6e7472616374000000604482015260640161057b565b600080866001600160a01b031685876040516116c59190611939565b60006040518083038185875af1925050503d8060008114611702576040519150601f19603f3d011682016040523d82523d6000602084013e611707565b606091505b5091509150611717828286611536565b979650505050505050565b80356001600160a01b038116811461046f57600080fd5b60006020828403121561174a578081fd5b610dfe82611722565b60008060008060808587031215611768578283fd5b61177185611722565b935061177f60208601611722565b925061178d60408601611722565b915061179b60608601611722565b905092959194509250565b600080604083850312156117b8578182fd5b6117c183611722565b9150602083013567ffffffffffffffff808211156117dd578283fd5b818501915085601f8301126117f0578283fd5b81358181111561180257611802611b93565b604051601f8201601f19908116603f0116810190838211818310171561182a5761182a611b93565b81604052828152886020848701011115611842578586fd5b82602086016020830137856020848301015280955050505050509250929050565b600060208284031215611874578081fd5b81518015158114610dfe578182fd5b600060208284031215611894578081fd5b5035919050565b600080604083850312156118ad578182fd5b823591506118bd60208401611722565b90509250929050565b6000602082840312156118d7578081fd5b81356001600160e01b031981168114610dfe578182fd5b6000602082840312156118ff578081fd5b5051919050565b60008060408385031215611918578182fd5b823563ffffffff8116811461192b578283fd5b946020939093013593505050565b6000825161194b818460208701611b3a565b9190910192915050565b60007f416363657373436f6e74726f6c3a206163636f756e74200000000000000000008252835161198d816017850160208801611b3a565b7001034b99036b4b9b9b4b733903937b6329607d1b60179184019182015283516119be816028840160208801611b3a565b01602801949350505050565b60006020825282518060208401526119e9816040850160208701611b3a565b601f01601f19169190910160400192915050565b6020808252602c908201527f46756e6374696f6e206d7573742062652063616c6c6564207468726f7567682060408201526b19195b1959d85d1958d85b1b60a21b606082015260800190565b6020808252602c908201527f46756e6374696f6e206d7573742062652063616c6c6564207468726f7567682060408201526b6163746976652070726f787960a01b606082015260800190565b6020808252602e908201527f496e697469616c697a61626c653a20636f6e747261637420697320616c72656160408201526d191e481a5b9a5d1a585b1a5e995960921b606082015260800190565b60008219821115611af657611af6611b7d565b500190565b600082611b1657634e487b7160e01b81526012600452602481fd5b500490565b6000816000190483118215151615611b3557611b35611b7d565b500290565b60005b83811015611b55578181015183820152602001611b3d565b838111156108745750506000910152565b600081611b7557611b75611b7d565b506000190190565b634e487b7160e01b600052601160045260246000fd5b634e487b7160e01b600052604160045260246000fdfe416464726573733a206c6f772d6c6576656c2064656c65676174652063616c6c206661696c6564a264697066735822122074991043f8763adaa53b4199eb907ed54ef12b27367549d8f045f5f2f7e8c93564736f6c63430008030033",
  "linkReferences": {},
  "deployedLinkReferences": {}
}