{
  "_format": "hh-sol-artifact-1",
  "contractName": "StakingStrategy",
  "sourceName": "contracts/StakingStrategy.sol",
  "abi": [
    {
      "anonymous": false,
      "inputs": [
        {
          "indexed": false,
          "internalType": "address",
          "name": "previousAdmin",
          "type": "address"
        },
        {
          "indexed": false,
          "internalType": "address",
          "name": "newAdmin",
          "type": "address"
        }
      ],
      "name": "AdminChanged",
      "type": "event"
    },
    {
      "anonymous": false,
      "inputs": [
        {
          "indexed": true,
          "internalType": "address",
          "name": "beacon",
          "type": "address"
        }
      ],
      "name": "BeaconUpgraded",
      "type": "event"
    },
    {
      "anonymous": false,
      "inputs": [
        {
          "indexed": true,
          "internalType": "bytes32",
          "name": "role",
          "type": "bytes32"
        },
        {
          "indexed": true,
          "internalType": "bytes32",
          "name": "previousAdminRole",
          "type": "bytes32"
        },
        {
          "indexed": true,
          "internalType": "bytes32",
          "name": "newAdminRole",
          "type": "bytes32"
        }
      ],
      "name": "RoleAdminChanged",
      "type": "event"
    },
    {
      "anonymous": false,
      "inputs": [
        {
          "indexed": true,
          "internalType": "bytes32",
          "name": "role",
          "type": "bytes32"
        },
        {
          "indexed": true,
          "internalType": "address",
          "name": "account",
          "type": "address"
        },
        {
          "indexed": true,
          "internalType": "address",
          "name": "sender",
          "type": "address"
        }
      ],
      "name": "RoleGranted",
      "type": "event"
    },
    {
      "anonymous": false,
      "inputs": [
        {
          "indexed": true,
          "internalType": "bytes32",
          "name": "role",
          "type": "bytes32"
        },
        {
          "indexed": true,
          "internalType": "address",
          "name": "account",
          "type": "address"
        },
        {
          "indexed": true,
          "internalType": "address",
          "name": "sender",
          "type": "address"
        }
      ],
      "name": "RoleRevoked",
      "type": "event"
    },
    {
      "anonymous": false,
      "inputs": [
        {
          "indexed": true,
          "internalType": "address",
          "name": "implementation",
          "type": "address"
        }
      ],
      "name": "Upgraded",
      "type": "event"
    },
    {
      "inputs": [],
      "name": "DEFAULT_ADMIN_ROLE",
      "outputs": [
        {
          "internalType": "bytes32",
          "name": "",
          "type": "bytes32"
        }
      ],
      "stateMutability": "view",
      "type": "function"
    },
    {
      "inputs": [],
      "name": "UPGRADER_ROLE",
      "outputs": [
        {
          "internalType": "bytes32",
          "name": "",
          "type": "bytes32"
        }
      ],
      "stateMutability": "view",
      "type": "function"
    },
    {
      "inputs": [
        {
          "internalType": "uint32",
          "name": "marketIndex",
          "type": "uint32"
        },
        {
          "internalType": "uint256",
          "name": "amountToken",
          "type": "uint256"
        },
        {
          "internalType": "bool",
          "name": "isLong",
          "type": "bool"
        }
      ],
      "name": "depositLongAndShortTokens",
      "outputs": [],
      "stateMutability": "nonpayable",
      "type": "function"
    },
    {
      "inputs": [
        {
          "internalType": "bytes32",
          "name": "role",
          "type": "bytes32"
        }
      ],
      "name": "getRoleAdmin",
      "outputs": [
        {
          "internalType": "bytes32",
          "name": "",
          "type": "bytes32"
        }
      ],
      "stateMutability": "view",
      "type": "function"
    },
    {
      "inputs": [
        {
          "internalType": "bytes32",
          "name": "role",
          "type": "bytes32"
        },
        {
          "internalType": "address",
          "name": "account",
          "type": "address"
        }
      ],
      "name": "grantRole",
      "outputs": [],
      "stateMutability": "nonpayable",
      "type": "function"
    },
    {
      "inputs": [
        {
          "internalType": "bytes32",
          "name": "role",
          "type": "bytes32"
        },
        {
          "internalType": "address",
          "name": "account",
          "type": "address"
        }
      ],
      "name": "hasRole",
      "outputs": [
        {
          "internalType": "bool",
          "name": "",
          "type": "bool"
        }
      ],
      "stateMutability": "view",
      "type": "function"
    },
    {
      "inputs": [
        {
          "internalType": "string",
          "name": "name",
          "type": "string"
        },
        {
          "internalType": "string",
          "name": "symbol",
          "type": "string"
        },
        {
          "internalType": "address",
          "name": "_longShort",
          "type": "address"
        },
        {
          "internalType": "address",
          "name": "_staker",
          "type": "address"
        }
      ],
      "name": "initialize",
      "outputs": [],
      "stateMutability": "nonpayable",
      "type": "function"
    },
    {
      "inputs": [],
      "name": "longShort",
      "outputs": [
        {
          "internalType": "address",
          "name": "",
          "type": "address"
        }
      ],
      "stateMutability": "view",
      "type": "function"
    },
    {
      "inputs": [
        {
          "internalType": "uint32",
          "name": "marketIndex",
          "type": "uint32"
        }
      ],
      "name": "performShiftingStrategy",
      "outputs": [],
      "stateMutability": "nonpayable",
      "type": "function"
    },
    {
      "inputs": [
        {
          "internalType": "bytes32",
          "name": "role",
          "type": "bytes32"
        },
        {
          "internalType": "address",
          "name": "account",
          "type": "address"
        }
      ],
      "name": "renounceRole",
      "outputs": [],
      "stateMutability": "nonpayable",
      "type": "function"
    },
    {
      "inputs": [
        {
          "internalType": "bytes32",
          "name": "role",
          "type": "bytes32"
        },
        {
          "internalType": "address",
          "name": "account",
          "type": "address"
        }
      ],
      "name": "revokeRole",
      "outputs": [],
      "stateMutability": "nonpayable",
      "type": "function"
    },
    {
      "inputs": [],
      "name": "staker",
      "outputs": [
        {
          "internalType": "address",
          "name": "",
          "type": "address"
        }
      ],
      "stateMutability": "view",
      "type": "function"
    },
    {
      "inputs": [],
      "name": "strategyToken",
      "outputs": [
        {
          "internalType": "contract StrategyToken",
          "name": "",
          "type": "address"
        }
      ],
      "stateMutability": "view",
      "type": "function"
    },
    {
      "inputs": [
        {
          "internalType": "bytes4",
          "name": "interfaceId",
          "type": "bytes4"
        }
      ],
      "name": "supportsInterface",
      "outputs": [
        {
          "internalType": "bool",
          "name": "",
          "type": "bool"
        }
      ],
      "stateMutability": "view",
      "type": "function"
    },
    {
      "inputs": [
        {
          "internalType": "address",
          "name": "newImplementation",
          "type": "address"
        }
      ],
      "name": "upgradeTo",
      "outputs": [],
      "stateMutability": "nonpayable",
      "type": "function"
    },
    {
      "inputs": [
        {
          "internalType": "address",
          "name": "newImplementation",
          "type": "address"
        },
        {
          "internalType": "bytes",
          "name": "data",
          "type": "bytes"
        }
      ],
      "name": "upgradeToAndCall",
      "outputs": [],
      "stateMutability": "payable",
      "type": "function"
    }
  ],
  "bytecode": "0x60a06040523060601b60805234801561001757600080fd5b5060805160601c6136b161004b60003960008181610494015281816104d70152818161056901526105ac01526136b16000f3fe6080604052600436106200010a5760003560e01c806372bb1059116200009757806391d14854116200006157806391d148541462000302578063a217fddf1462000327578063d547741f146200033e578063f72c0d8b1462000363576200010a565b806372bb10591462000271578063747efea11462000296578063798fe14a14620002b85780638f15b41414620002dd576200010a565b806336568abe11620000d957806336568abe14620001ee5780633659cfe614620002135780634f1ef28614620002385780635ebaf1db146200024f576200010a565b806301ffc9a7146200010f578063248a9ca3146200014957806329949872146200018c5780632f2ff15d14620001c7575b600080fd5b3480156200011c57600080fd5b50620001346200012e366004620020de565b62000399565b60405190151581526020015b60405180910390f35b3480156200015657600080fd5b506200017d6200016836600462002093565b600090815260c9602052604090206001015490565b60405190815260200162000140565b3480156200019957600080fd5b5060fb54620001ae906001600160a01b031681565b6040516001600160a01b03909116815260200162000140565b348015620001d457600080fd5b50620001ec620001e6366004620020ac565b620003d3565b005b348015620001fb57600080fd5b50620001ec6200020d366004620020ac565b62000403565b3480156200022057600080fd5b50620001ec6200023236600462001f6b565b62000489565b620001ec6200024936600462001fa9565b6200055e565b3480156200025c57600080fd5b5060fc54620001ae906001600160a01b031681565b3480156200027e57600080fd5b50620001ec62000290366004620021be565b62000620565b348015620002a357600080fd5b5060fd54620001ae906001600160a01b031681565b348015620002c557600080fd5b50620001ec620002d7366004620021db565b6200078a565b348015620002ea57600080fd5b50620001ec620002fc36600462002108565b62000f08565b3480156200030f57600080fd5b506200013462000321366004620020ac565b62001059565b3480156200033457600080fd5b506200017d600081565b3480156200034b57600080fd5b50620001ec6200035d366004620020ac565b62001084565b3480156200037057600080fd5b506200017d7f189ab7a9244df0848122154315af71fe140f3db0fe014031783b0946b8c9d2e381565b60006001600160e01b03198216637965db0b60e01b1480620003cb57506301ffc9a760e01b6001600160e01b03198316145b90505b919050565b600082815260c96020526040902060010154620003f281335b620010ae565b620003fe83836200111d565b505050565b6001600160a01b0381163314620004795760405162461bcd60e51b815260206004820152602f60248201527f416363657373436f6e74726f6c3a2063616e206f6e6c792072656e6f756e636560448201526e103937b632b9903337b91039b2b63360891b60648201526084015b60405180910390fd5b620004858282620011a7565b5050565b306001600160a01b037f0000000000000000000000000000000000000000000000000000000000000000161415620004d55760405162461bcd60e51b815260040162000470906200234b565b7f00000000000000000000000000000000000000000000000000000000000000006001600160a01b03166200050962001211565b6001600160a01b031614620005325760405162461bcd60e51b8152600401620004709062002397565b6200053d816200123f565b604080516000808252602082019092526200055b918391906200126c565b50565b306001600160a01b037f0000000000000000000000000000000000000000000000000000000000000000161415620005aa5760405162461bcd60e51b815260040162000470906200234b565b7f00000000000000000000000000000000000000000000000000000000000000006001600160a01b0316620005de62001211565b6001600160a01b031614620006075760405162461bcd60e51b8152600401620004709062002397565b62000612826200123f565b62000485828260016200126c565b60fb5460405163b054c4a160e01b815263ffffffff83166004820152600160248201526000916001600160a01b03169063b054c4a19060440160206040518083038186803b1580156200067257600080fd5b505afa15801562000687573d6000803e3d6000fd5b505050506040513d601f19601f82011682018060405250810190620006ad919062001f8a565b60fb5460405163b054c4a160e01b815263ffffffff851660048201526000602482018190529293506001600160a01b039091169063b054c4a19060440160206040518083038186803b1580156200070357600080fd5b505afa15801562000718573d6000803e3d6000fd5b505050506040513d601f19601f820116820180604052508101906200073e919062001f8a565b90506000806200074e85620013c8565b915091506000806200076487878787876200158d565b9150915081600114620007815762000781878288888888620016ab565b50505050505050565b60fb5460405163b054c4a160e01b815263ffffffff85166004820152600160248201526001600160a01b0390911690600090829063b054c4a19060440160206040518083038186803b158015620007e057600080fd5b505afa158015620007f5573d6000803e3d6000fd5b505050506040513d601f19601f820116820180604052508101906200081b919062001f8a565b60405163b054c4a160e01b815263ffffffff871660048201526000602482018190529192506001600160a01b0384169063b054c4a19060440160206040518083038186803b1580156200086d57600080fd5b505afa15801562000882573d6000803e3d6000fd5b505050506040513d601f19601f82011682018060405250810190620008a8919062001f8a565b9050600080620008b888620013c8565b91509150600080620008ce8a878787876200158d565b91509150600080620008e28c89896200184f565b9150915060008a156200090357620008fb858d6200244c565b905062000912565b6200090f858d6200246d565b90505b60405163b054c4a160e01b815263ffffffff8e1660048201528b151560248201526001600160a01b038b169063b054c4a19060440160206040518083038186803b1580156200096057600080fd5b505afa15801562000975573d6000803e3d6000fd5b505050506040513d601f19601f820116820180604052508101906200099b919062001f8a565b6040516323b872dd60e01b8152336004820152306024820152604481018e90526001600160a01b0391909116906323b872dd90606401602060405180830381600087803b158015620009ec57600080fd5b505af115801562000a01573d6000803e3d6000fd5b505050506040513d601f19601f8201168201806040525081019062000a27919062002074565b5060405163b054c4a160e01b815263ffffffff8e1660048201528b1560248201526001600160a01b038b169063b054c4a19060440160206040518083038186803b15801562000a7557600080fd5b505afa15801562000a8a573d6000803e3d6000fd5b505050506040513d601f19601f8201168201806040525081019062000ab0919062001f8a565b6040516323b872dd60e01b8152336004820152306024820152604481018390526001600160a01b0391909116906323b872dd90606401602060405180830381600087803b15801562000b0157600080fd5b505af115801562000b16573d6000803e3d6000fd5b505050506040513d601f19601f8201168201806040525081019062000b3c919062002074565b5060405163b054c4a160e01b815263ffffffff8e1660048201528b151560248201526001600160a01b038b169063b054c4a19060440160206040518083038186803b15801562000b8b57600080fd5b505afa15801562000ba0573d6000803e3d6000fd5b505050506040513d601f19601f8201168201806040525081019062000bc6919062001f8a565b6001600160a01b031663a694fc3a8d6040518263ffffffff1660e01b815260040162000bf491815260200190565b600060405180830381600087803b15801562000c0f57600080fd5b505af115801562000c24573d6000803e3d6000fd5b50505050896001600160a01b031663b054c4a18e8d156040518363ffffffff1660e01b815260040162000c6b92919063ffffffff9290921682521515602082015260400190565b60206040518083038186803b15801562000c8457600080fd5b505afa15801562000c99573d6000803e3d6000fd5b505050506040513d601f19601f8201168201806040525081019062000cbf919062001f8a565b6001600160a01b031663a694fc3a826040518263ffffffff1660e01b815260040162000ced91815260200190565b600060405180830381600087803b15801562000d0857600080fd5b505af115801562000d1d573d6000803e3d6000fd5b5050505060008062000d338f8c8c8c8c6200158d565b915091508160011462000d505762000d508f828d8d8d8d620016ab565b60fd54604080516318160ddd60e01b815290516000926001600160a01b0316916318160ddd916004808301926020929190829003018186803b15801562000d9657600080fd5b505afa15801562000dab573d6000803e3d6000fd5b505050506040513d601f19601f8201168201806040525081019062000dd19190620021a5565b62000dde57508062000e90565b60fd60009054906101000a90046001600160a01b03166001600160a01b03166318160ddd6040518163ffffffff1660e01b815260040160206040518083038186803b15801562000e2d57600080fd5b505afa15801562000e42573d6000803e3d6000fd5b505050506040513d601f19601f8201168201806040525081019062000e689190620021a5565b8762000e7581856200248f565b62000e8191906200246d565b62000e8d91906200244c565b90505b60fd546040516340c10f1960e01b8152336004820152602481018390526001600160a01b03909116906340c10f1990604401600060405180830381600087803b15801562000edd57600080fd5b505af115801562000ef2573d6000803e3d6000fd5b5050505050505050505050505050505050505050565b600054610100900460ff168062000f22575060005460ff16155b62000f415760405162461bcd60e51b81526004016200047090620023e3565b600054610100900460ff1615801562000f64576000805461ffff19166101011790555b62000f6e62001976565b62000f7862001a05565b60fb80546001600160a01b0319166001600160a01b038516179055604051879087908790879062000fa99062001efe565b62000fb89493929190620022e0565b604051809103906000f08015801562000fd5573d6000803e3d6000fd5b5060fd80546001600160a01b03199081166001600160a01b039384161790915560fc8054909116918416919091179055620010317f189ab7a9244df0848122154315af71fe140f3db0fe014031783b0946b8c9d2e33362001a6a565b6200103e600033620003d3565b801562000781576000805461ff001916905550505050505050565b600091825260c9602090815260408084206001600160a01b0393909316845291905290205460ff1690565b600082815260c96020526040902060010154620010a28133620003ec565b620003fe8383620011a7565b620010ba828262001059565b6200048557620010d5816001600160a01b0316601462001a76565b620010e283602062001a76565b604051602001620010f592919062002267565b60408051601f198184030181529082905262461bcd60e51b8252620004709160040162002316565b62001129828262001059565b6200048557600082815260c9602090815260408083206001600160a01b03851684529091529020805460ff19166001179055620011633390565b6001600160a01b0316816001600160a01b0316837f2f8788117e7eff1d82e926ec794901d17c78024a50270940304540a733656f0d60405160405180910390a45050565b620011b3828262001059565b156200048557600082815260c9602090815260408083206001600160a01b0385168085529252808320805460ff1916905551339285917ff6391f5c32d9c69d2a47ea670b442974b53935d1edc7fd64eb21e047a839171b9190a45050565b7f360894a13ba1a3210667c828492db98dca3e2076cc3735a920a3ca505d382bbc546001600160a01b031690565b7f189ab7a9244df0848122154315af71fe140f3db0fe014031783b0946b8c9d2e3620004858133620003ec565b60006200127862001211565b9050620012858462001c73565b600083511180620012935750815b15620012a757620012a5848462001d1a565b505b7f4910fdfa16fed3260ed0e7147f7cc6da11a60208b5b9406d12a635614ffd9143805460ff16620013c157805460ff191660011781556040516001600160a01b03831660248201526200132990869060440160408051601f198184030181529190526020810180516001600160e01b0316631b2ce7f360e11b17905262001d1a565b50805460ff191681556200133c62001211565b6001600160a01b0316826001600160a01b031614620013b65760405162461bcd60e51b815260206004820152602f60248201527f45524331393637557067726164653a207570677261646520627265616b73206660448201526e75727468657220757067726164657360881b606482015260840162000470565b620013c18562001e0e565b5050505050565b60fb54604051630a6447fd60e11b815263ffffffff83166004820152600091829182916001600160a01b0316906314c88ffa9060240160206040518083038186803b1580156200141757600080fd5b505afa1580156200142c573d6000803e3d6000fd5b505050506040513d601f19601f82011682018060405250810190620014529190620021a5565b60fb54604051636f486c5b60e01b815263ffffffff8716600482015260016024820152604481018390529192506000916001600160a01b0390911690636f486c5b9060640160206040518083038186803b158015620014b057600080fd5b505afa158015620014c5573d6000803e3d6000fd5b505050506040513d601f19601f82011682018060405250810190620014eb9190620021a5565b60fb54604051636f486c5b60e01b815263ffffffff88166004820152600060248201819052604482018690529293506001600160a01b0390911690636f486c5b9060640160206040518083038186803b1580156200154857600080fd5b505afa1580156200155d573d6000803e3d6000fd5b505050506040513d601f19601f82011682018060405250810190620015839190620021a5565b9050505050915091565b60fb54604051630a6447fd60e11b815263ffffffff87166004820152600091829182916001600160a01b0316906314c88ffa9060240160206040518083038186803b158015620015dc57600080fd5b505afa158015620015f1573d6000803e3d6000fd5b505050506040513d601f19601f82011682018060405250810190620016179190620021a5565b9050600080620016298a8a8a6200184f565b90925090506000670de0b6b3a76400006200164589856200246d565b6200165191906200244c565b90506000670de0b6b3a76400006200166a89856200246d565b6200167691906200244c565b905060006200168682846200244c565b9050600062001696838562002431565b919e919d50909b505050505050505050505050565b600080620016bb8887876200184f565b9092509050600084620016d060028a6200244c565b620016e490670de0b6b3a76400006200246d565b620016f091906200244c565b90506000846200170260028b6200244c565b6200171690670de0b6b3a76400006200246d565b6200172291906200244c565b905081841115620017b65760fc546001600160a01b031663edb010d76200174a84876200248f565b6040516001600160e01b031960e084901b168152600481019190915263ffffffff8d16602482015260016044820152606401600060405180830381600087803b1580156200179757600080fd5b505af1158015620017ac573d6000803e3d6000fd5b5050505062001843565b80831115620018435760fc546001600160a01b031663edb010d7620017dc83866200248f565b6040516001600160e01b031960e084901b168152600481019190915263ffffffff8d16602482015260006044820152606401600060405180830381600087803b1580156200182957600080fd5b505af11580156200183e573d6000803e3d6000fd5b505050505b50505050505050505050565b60fc5460405163c17f8ce960e01b81526001600160a01b03848116600483015230602483015260009283929116908290829063c17f8ce99060440160206040518083038186803b158015620018a357600080fd5b505afa158015620018b8573d6000803e3d6000fd5b505050506040513d601f19601f82011682018060405250810190620018de9190620021a5565b60405163c17f8ce960e01b81526001600160a01b03878116600483015230602483015291925060009184169063c17f8ce99060440160206040518083038186803b1580156200192c57600080fd5b505afa15801562001941573d6000803e3d6000fd5b505050506040513d601f19601f82011682018060405250810190620019679190620021a5565b91989197509095505050505050565b600054610100900460ff168062001990575060005460ff16155b620019af5760405162461bcd60e51b81526004016200047090620023e3565b600054610100900460ff16158015620019d2576000805461ffff19166101011790555b620019dc62001e50565b620019e662001e50565b620019f062001e50565b80156200055b576000805461ff001916905550565b600054610100900460ff168062001a1f575060005460ff16155b62001a3e5760405162461bcd60e51b81526004016200047090620023e3565b600054610100900460ff16158015620019dc576000805461ffff1916610101179055620019e662001e50565b6200048582826200111d565b6060600062001a878360026200246d565b62001a9490600262002431565b67ffffffffffffffff81111562001abb57634e487b7160e01b600052604160045260246000fd5b6040519080825280601f01601f19166020018201604052801562001ae6576020820181803683370190505b509050600360fc1b8160008151811062001b1057634e487b7160e01b600052603260045260246000fd5b60200101906001600160f81b031916908160001a905350600f60fb1b8160018151811062001b4e57634e487b7160e01b600052603260045260246000fd5b60200101906001600160f81b031916908160001a905350600062001b748460026200246d565b62001b8190600162002431565b90505b600181111562001c1b576f181899199a1a9b1b9c1cb0b131b232b360811b85600f166010811062001bc557634e487b7160e01b600052603260045260246000fd5b1a60f81b82828151811062001bea57634e487b7160e01b600052603260045260246000fd5b60200101906001600160f81b031916908160001a90535060049490941c9362001c1381620024dc565b905062001b84565b50831562001c6c5760405162461bcd60e51b815260206004820181905260248201527f537472696e67733a20686578206c656e67746820696e73756666696369656e74604482015260640162000470565b9392505050565b803b62001cd95760405162461bcd60e51b815260206004820152602d60248201527f455243313936373a206e657720696d706c656d656e746174696f6e206973206e60448201526c1bdd08184818dbdb9d1c9858dd609a1b606482015260840162000470565b7f360894a13ba1a3210667c828492db98dca3e2076cc3735a920a3ca505d382bbc80546001600160a01b0319166001600160a01b0392909216919091179055565b6060823b62001d7b5760405162461bcd60e51b815260206004820152602660248201527f416464726573733a2064656c65676174652063616c6c20746f206e6f6e2d636f6044820152651b9d1c9858dd60d21b606482015260840162000470565b600080846001600160a01b03168460405162001d98919062002249565b600060405180830381855af49150503d806000811462001dd5576040519150601f19603f3d011682016040523d82523d6000602084013e62001dda565b606091505b509150915062001e058282604051806060016040528060278152602001620036556027913962001ec0565b95945050505050565b62001e198162001c73565b6040516001600160a01b038216907fbc7cd75a20ee27fd9adebab32041f755214dbc6bffa90cc0225b39da2e5c2d3b90600090a250565b600054610100900460ff168062001e6a575060005460ff16155b62001e895760405162461bcd60e51b81526004016200047090620023e3565b600054610100900460ff16158015620019f0576000805461ffff191661010117905580156200055b576000805461ff001916905550565b6060831562001ed157508162001c6c565b82511562001ee25782518084602001fd5b8160405162461bcd60e51b815260040162000470919062002316565b61110d806200254883390190565b60008083601f84011262001f1e578182fd5b50813567ffffffffffffffff81111562001f36578182fd5b60208301915083602082850101111562001f4f57600080fd5b9250929050565b803563ffffffff81168114620003ce57600080fd5b60006020828403121562001f7d578081fd5b813562001c6c8162002522565b60006020828403121562001f9c578081fd5b815162001c6c8162002522565b6000806040838503121562001fbc578081fd5b823562001fc98162002522565b9150602083013567ffffffffffffffff8082111562001fe6578283fd5b818501915085601f83011262001ffa578283fd5b8135818111156200200f576200200f6200250c565b604051601f8201601f19908116603f011681019083821181831017156200203a576200203a6200250c565b8160405282815288602084870101111562002053578586fd5b82602086016020830137856020848301015280955050505050509250929050565b60006020828403121562002086578081fd5b815162001c6c8162002538565b600060208284031215620020a5578081fd5b5035919050565b60008060408385031215620020bf578182fd5b823591506020830135620020d38162002522565b809150509250929050565b600060208284031215620020f0578081fd5b81356001600160e01b03198116811462001c6c578182fd5b6000806000806000806080878903121562002121578182fd5b863567ffffffffffffffff8082111562002139578384fd5b620021478a838b0162001f0c565b9098509650602089013591508082111562002160578384fd5b506200216f89828a0162001f0c565b9095509350506040870135620021858162002522565b91506060870135620021978162002522565b809150509295509295509295565b600060208284031215620021b7578081fd5b5051919050565b600060208284031215620021d0578081fd5b62001c6c8262001f56565b600080600060608486031215620021f0578283fd5b620021fb8462001f56565b9250602084013591506040840135620022148162002538565b809150509250925092565b60008284528282602086013780602084860101526020601f19601f85011685010190509392505050565b600082516200225d818460208701620024a9565b9190910192915050565b60007f416363657373436f6e74726f6c3a206163636f756e742000000000000000000082528351620022a1816017850160208801620024a9565b7001034b99036b4b9b9b4b733903937b6329607d1b6017918401918201528351620022d4816028840160208801620024a9565b01602801949350505050565b600060408252620022f66040830186886200221f565b82810360208401526200230b8185876200221f565b979650505050505050565b600060208252825180602084015262002337816040850160208701620024a9565b601f01601f19169190910160400192915050565b6020808252602c908201527f46756e6374696f6e206d7573742062652063616c6c6564207468726f7567682060408201526b19195b1959d85d1958d85b1b60a21b606082015260800190565b6020808252602c908201527f46756e6374696f6e206d7573742062652063616c6c6564207468726f7567682060408201526b6163746976652070726f787960a01b606082015260800190565b6020808252602e908201527f496e697469616c697a61626c653a20636f6e747261637420697320616c72656160408201526d191e481a5b9a5d1a585b1a5e995960921b606082015260800190565b60008219821115620024475762002447620024f6565b500190565b6000826200246857634e487b7160e01b81526012600452602481fd5b500490565b60008160001904831182151516156200248a576200248a620024f6565b500290565b600082821015620024a457620024a4620024f6565b500390565b60005b83811015620024c6578181015183820152602001620024ac565b83811115620024d6576000848401525b50505050565b600081620024ee57620024ee620024f6565b506000190190565b634e487b7160e01b600052601160045260246000fd5b634e487b7160e01b600052604160045260246000fd5b6001600160a01b03811681146200055b57600080fd5b80151581146200055b57600080fdfe60806040523480156200001157600080fd5b506040516200110d3803806200110d8339810160408190526200003491620003df565b62000040828262000048565b505062000499565b600054610100900460ff168062000062575060005460ff16155b620000ba5760405162461bcd60e51b815260206004820152602e6024820152600080516020620010ed83398151915260448201526d191e481a5b9a5d1a585b1a5e995960921b60648201526084015b60405180910390fd5b600054610100900460ff16158015620000dd576000805461ffff19166101011790555b620000e76200010b565b620000f38383620001b2565b801562000106576000805461ff00191690555b505050565b600054610100900460ff168062000125575060005460ff16155b620001795760405162461bcd60e51b815260206004820152602e6024820152600080516020620010ed83398151915260448201526d191e481a5b9a5d1a585b1a5e995960921b6064820152608401620000b1565b600054610100900460ff161580156200019c576000805461ffff19166101011790555b8015620001af576000805461ff00191690555b50565b600054610100900460ff1680620001cc575060005460ff16155b620002205760405162461bcd60e51b815260206004820152602e6024820152600080516020620010ed83398151915260448201526d191e481a5b9a5d1a585b1a5e995960921b6064820152608401620000b1565b600054610100900460ff1615801562000243576000805461ffff19166101011790555b82516200025890603690602086019062000286565b5081516200026e90603790602085019062000286565b50801562000106576000805461ff0019169055505050565b828054620002949062000446565b90600052602060002090601f016020900481019282620002b8576000855562000303565b82601f10620002d357805160ff191683800117855562000303565b8280016001018555821562000303579182015b8281111562000303578251825591602001919060010190620002e6565b506200031192915062000315565b5090565b5b8082111562000311576000815560010162000316565b600082601f8301126200033d578081fd5b81516001600160401b03808211156200035a576200035a62000483565b604051601f8301601f19908116603f0116810190828211818310171562000385576200038562000483565b81604052838152602092508683858801011115620003a1578485fd5b8491505b83821015620003c45785820183015181830184015290820190620003a5565b83821115620003d557848385830101525b9695505050505050565b60008060408385031215620003f2578182fd5b82516001600160401b038082111562000409578384fd5b62000417868387016200032c565b935060208501519150808211156200042d578283fd5b506200043c858286016200032c565b9150509250929050565b600181811c908216806200045b57607f821691505b602082108114156200047d57634e487b7160e01b600052602260045260246000fd5b50919050565b634e487b7160e01b600052604160045260246000fd5b610c4480620004a96000396000f3fe608060405234801561001057600080fd5b50600436106100ea5760003560e01c806342966c681161008c57806395d89b411161006657806395d89b41146101c5578063a457c2d7146101cd578063a9059cbb146101e0578063dd62ed3e146101f3576100ea565b806342966c681461018c57806370a082311461019f57806379cc6790146101b2576100ea565b806323b872dd116100c857806323b872dd14610142578063313ce56714610155578063395093511461016457806340c10f1914610177576100ea565b806306fdde03146100ef578063095ea7b31461010d57806318160ddd14610130575b600080fd5b6100f761022c565b6040516101049190610b3b565b60405180910390f35b61012061011b366004610afa565b6102be565b6040519015158152602001610104565b6035545b604051908152602001610104565b610120610150366004610abf565b6102d4565b60405160128152602001610104565b610120610172366004610afa565b610383565b61018a610185366004610afa565b6103bf565b005b61018a61019a366004610b23565b6103cd565b6101346101ad366004610a6c565b6103da565b61018a6101c0366004610afa565b6103f9565b6100f761047f565b6101206101db366004610afa565b61048e565b6101206101ee366004610afa565b610527565b610134610201366004610a8d565b6001600160a01b03918216600090815260346020908152604080832093909416825291909152205490565b60606036805461023b90610bbd565b80601f016020809104026020016040519081016040528092919081815260200182805461026790610bbd565b80156102b45780601f10610289576101008083540402835291602001916102b4565b820191906000526020600020905b81548152906001019060200180831161029757829003601f168201915b5050505050905090565b60006102cb338484610534565b50600192915050565b60006102e1848484610658565b6001600160a01b03841660009081526034602090815260408083203384529091529020548281101561036b5760405162461bcd60e51b815260206004820152602860248201527f45524332303a207472616e7366657220616d6f756e74206578636565647320616044820152676c6c6f77616e636560c01b60648201526084015b60405180910390fd5b6103788533858403610534565b506001949350505050565b3360008181526034602090815260408083206001600160a01b038716845290915281205490916102cb9185906103ba908690610b8e565b610534565b6103c98282610827565b5050565b6103d73382610907565b50565b6001600160a01b0381166000908152603360205260409020545b919050565b60006104058333610201565b9050818110156104635760405162461bcd60e51b8152602060048201526024808201527f45524332303a206275726e20616d6f756e74206578636565647320616c6c6f77604482015263616e636560e01b6064820152608401610362565b6104708333848403610534565b61047a8383610907565b505050565b60606037805461023b90610bbd565b3360009081526034602090815260408083206001600160a01b0386168452909152812054828110156105105760405162461bcd60e51b815260206004820152602560248201527f45524332303a2064656372656173656420616c6c6f77616e63652062656c6f77604482015264207a65726f60d81b6064820152608401610362565b61051d3385858403610534565b5060019392505050565b60006102cb338484610658565b6001600160a01b0383166105965760405162461bcd60e51b8152602060048201526024808201527f45524332303a20617070726f76652066726f6d20746865207a65726f206164646044820152637265737360e01b6064820152608401610362565b6001600160a01b0382166105f75760405162461bcd60e51b815260206004820152602260248201527f45524332303a20617070726f766520746f20746865207a65726f206164647265604482015261737360f01b6064820152608401610362565b6001600160a01b0383811660008181526034602090815260408083209487168084529482529182902085905590518481527f8c5be1e5ebec7d5bd14f71427d1e84f3dd0314c0f7b2291e5b200ac8c7c3b925910160405180910390a3505050565b6001600160a01b0383166106bc5760405162461bcd60e51b815260206004820152602560248201527f45524332303a207472616e736665722066726f6d20746865207a65726f206164604482015264647265737360d81b6064820152608401610362565b6001600160a01b03821661071e5760405162461bcd60e51b815260206004820152602360248201527f45524332303a207472616e7366657220746f20746865207a65726f206164647260448201526265737360e81b6064820152608401610362565b6001600160a01b038316600090815260336020526040902054818110156107965760405162461bcd60e51b815260206004820152602660248201527f45524332303a207472616e7366657220616d6f756e7420657863656564732062604482015265616c616e636560d01b6064820152608401610362565b6001600160a01b038085166000908152603360205260408082208585039055918516815290812080548492906107cd908490610b8e565b92505081905550826001600160a01b0316846001600160a01b03167fddf252ad1be2c89b69c2b068fc378daa952ba7f163c4a11628f55a4df523b3ef8460405161081991815260200190565b60405180910390a350505050565b6001600160a01b03821661087d5760405162461bcd60e51b815260206004820152601f60248201527f45524332303a206d696e7420746f20746865207a65726f2061646472657373006044820152606401610362565b806035600082825461088f9190610b8e565b90915550506001600160a01b038216600090815260336020526040812080548392906108bc908490610b8e565b90915550506040518181526001600160a01b038316906000907fddf252ad1be2c89b69c2b068fc378daa952ba7f163c4a11628f55a4df523b3ef9060200160405180910390a36103c9565b6001600160a01b0382166109675760405162461bcd60e51b815260206004820152602160248201527f45524332303a206275726e2066726f6d20746865207a65726f206164647265736044820152607360f81b6064820152608401610362565b6001600160a01b038216600090815260336020526040902054818110156109db5760405162461bcd60e51b815260206004820152602260248201527f45524332303a206275726e20616d6f756e7420657863656564732062616c616e604482015261636560f01b6064820152608401610362565b6001600160a01b0383166000908152603360205260408120838303905560358054849290610a0a908490610ba6565b90915550506040518281526000906001600160a01b038516907fddf252ad1be2c89b69c2b068fc378daa952ba7f163c4a11628f55a4df523b3ef9060200160405180910390a361047a565b80356001600160a01b03811681146103f457600080fd5b600060208284031215610a7d578081fd5b610a8682610a55565b9392505050565b60008060408385031215610a9f578081fd5b610aa883610a55565b9150610ab660208401610a55565b90509250929050565b600080600060608486031215610ad3578081fd5b610adc84610a55565b9250610aea60208501610a55565b9150604084013590509250925092565b60008060408385031215610b0c578182fd5b610b1583610a55565b946020939093013593505050565b600060208284031215610b34578081fd5b5035919050565b6000602080835283518082850152825b81811015610b6757858101830151858201604001528201610b4b565b81811115610b785783604083870101525b50601f01601f1916929092016040019392505050565b60008219821115610ba157610ba1610bf8565b500190565b600082821015610bb857610bb8610bf8565b500390565b600181811c90821680610bd157607f821691505b60208210811415610bf257634e487b7160e01b600052602260045260246000fd5b50919050565b634e487b7160e01b600052601160045260246000fdfea2646970667358221220ec0b2e0f75493b46407afe9bd85460358a03c69edc7c04529b94270be81ce91964736f6c63430008030033496e697469616c697a61626c653a20636f6e747261637420697320616c726561416464726573733a206c6f772d6c6576656c2064656c65676174652063616c6c206661696c6564a2646970667358221220e2d7edc4325b8817692a2ebff7bcfb013fb2c8b2ae1d86e0b065e0bcc5113f3a64736f6c63430008030033",
  "linkReferences": {},
  "deployedLinkReferences": {}
}