{
  "_format": "hh-sol-artifact-1",
  "contractName": "FloatCapital_v0",
  "sourceName": "contracts/FloatCapital_v0.sol",
  "abi": [
    {
      "anonymous": false,
      "inputs": [
        {
          "indexed": false,
          "internalType": "address",
          "name": "previousAdmin",
          "type": "address"
        },
        {
          "indexed": false,
          "internalType": "address",
          "name": "newAdmin",
          "type": "address"
        }
      ],
      "name": "AdminChanged",
      "type": "event"
    },
    {
      "anonymous": false,
      "inputs": [
        {
          "indexed": true,
          "internalType": "address",
          "name": "beacon",
          "type": "address"
        }
      ],
      "name": "BeaconUpgraded",
      "type": "event"
    },
    {
      "anonymous": false,
      "inputs": [
        {
          "indexed": true,
          "internalType": "bytes32",
          "name": "role",
          "type": "bytes32"
        },
        {
          "indexed": true,
          "internalType": "bytes32",
          "name": "previousAdminRole",
          "type": "bytes32"
        },
        {
          "indexed": true,
          "internalType": "bytes32",
          "name": "newAdminRole",
          "type": "bytes32"
        }
      ],
      "name": "RoleAdminChanged",
      "type": "event"
    },
    {
      "anonymous": false,
      "inputs": [
        {
          "indexed": true,
          "internalType": "bytes32",
          "name": "role",
          "type": "bytes32"
        },
        {
          "indexed": true,
          "internalType": "address",
          "name": "account",
          "type": "address"
        },
        {
          "indexed": true,
          "internalType": "address",
          "name": "sender",
          "type": "address"
        }
      ],
      "name": "RoleGranted",
      "type": "event"
    },
    {
      "anonymous": false,
      "inputs": [
        {
          "indexed": true,
          "internalType": "bytes32",
          "name": "role",
          "type": "bytes32"
        },
        {
          "indexed": true,
          "internalType": "address",
          "name": "account",
          "type": "address"
        },
        {
          "indexed": true,
          "internalType": "address",
          "name": "sender",
          "type": "address"
        }
      ],
      "name": "RoleRevoked",
      "type": "event"
    },
    {
      "anonymous": false,
      "inputs": [
        {
          "indexed": true,
          "internalType": "address",
          "name": "implementation",
          "type": "address"
        }
      ],
      "name": "Upgraded",
      "type": "event"
    },
    {
      "inputs": [],
      "name": "ADMIN_ROLE",
      "outputs": [
        {
          "internalType": "bytes32",
          "name": "",
          "type": "bytes32"
        }
      ],
      "stateMutability": "view",
      "type": "function"
    },
    {
      "inputs": [],
      "name": "DEFAULT_ADMIN_ROLE",
      "outputs": [
        {
          "internalType": "bytes32",
          "name": "",
          "type": "bytes32"
        }
      ],
      "stateMutability": "view",
      "type": "function"
    },
    {
      "inputs": [],
      "name": "UPGRADER_ROLE",
      "outputs": [
        {
          "internalType": "bytes32",
          "name": "",
          "type": "bytes32"
        }
      ],
      "stateMutability": "view",
      "type": "function"
    },
    {
      "inputs": [
        {
          "internalType": "bytes32",
          "name": "role",
          "type": "bytes32"
        }
      ],
      "name": "getRoleAdmin",
      "outputs": [
        {
          "internalType": "bytes32",
          "name": "",
          "type": "bytes32"
        }
      ],
      "stateMutability": "view",
      "type": "function"
    },
    {
      "inputs": [
        {
          "internalType": "bytes32",
          "name": "role",
          "type": "bytes32"
        },
        {
          "internalType": "address",
          "name": "account",
          "type": "address"
        }
      ],
      "name": "grantRole",
      "outputs": [],
      "stateMutability": "nonpayable",
      "type": "function"
    },
    {
      "inputs": [
        {
          "internalType": "bytes32",
          "name": "role",
          "type": "bytes32"
        },
        {
          "internalType": "address",
          "name": "account",
          "type": "address"
        }
      ],
      "name": "hasRole",
      "outputs": [
        {
          "internalType": "bool",
          "name": "",
          "type": "bool"
        }
      ],
      "stateMutability": "view",
      "type": "function"
    },
    {
      "inputs": [
        {
          "internalType": "address",
          "name": "_admin",
          "type": "address"
        }
      ],
      "name": "initialize",
      "outputs": [],
      "stateMutability": "nonpayable",
      "type": "function"
    },
    {
      "inputs": [
        {
          "internalType": "bytes32",
          "name": "role",
          "type": "bytes32"
        },
        {
          "internalType": "address",
          "name": "account",
          "type": "address"
        }
      ],
      "name": "renounceRole",
      "outputs": [],
      "stateMutability": "nonpayable",
      "type": "function"
    },
    {
      "inputs": [
        {
          "internalType": "bytes32",
          "name": "role",
          "type": "bytes32"
        },
        {
          "internalType": "address",
          "name": "account",
          "type": "address"
        }
      ],
      "name": "revokeRole",
      "outputs": [],
      "stateMutability": "nonpayable",
      "type": "function"
    },
    {
      "inputs": [
        {
          "internalType": "bytes4",
          "name": "interfaceId",
          "type": "bytes4"
        }
      ],
      "name": "supportsInterface",
      "outputs": [
        {
          "internalType": "bool",
          "name": "",
          "type": "bool"
        }
      ],
      "stateMutability": "view",
      "type": "function"
    },
    {
      "inputs": [
        {
          "internalType": "address",
          "name": "newImplementation",
          "type": "address"
        }
      ],
      "name": "upgradeTo",
      "outputs": [],
      "stateMutability": "nonpayable",
      "type": "function"
    },
    {
      "inputs": [
        {
          "internalType": "address",
          "name": "newImplementation",
          "type": "address"
        },
        {
          "internalType": "bytes",
          "name": "data",
          "type": "bytes"
        }
      ],
      "name": "upgradeToAndCall",
      "outputs": [],
      "stateMutability": "payable",
      "type": "function"
    }
  ],
  "bytecode": "0x60a06040523060601b60805234801561001757600080fd5b5060805160601c61131d61004b60003960008181610364015281816103a40152818161042d015261046d015261131d6000f3fe6080604052600436106100a75760003560e01c806375b238fc1161006457806375b238fc1461019457806391d14854146101c8578063a217fddf146101e8578063c4d66de8146101fd578063d547741f1461021d578063f72c0d8b1461023d576100a7565b806301ffc9a7146100ac578063248a9ca3146100e15780632f2ff15d1461011f57806336568abe146101415780633659cfe6146101615780634f1ef28614610181575b600080fd5b3480156100b857600080fd5b506100cc6100c7366004611044565b610271565b60405190151581526020015b60405180910390f35b3480156100ed57600080fd5b506101116100fc366004611001565b60009081526065602052604090206001015490565b6040519081526020016100d8565b34801561012b57600080fd5b5061013f61013a366004611019565b6102aa565b005b34801561014d57600080fd5b5061013f61015c366004611019565b6102d6565b34801561016d57600080fd5b5061013f61017c366004610f2a565b610359565b61013f61018f366004610f44565b610422565b3480156101a057600080fd5b506101117fa49807205ce4d355092ef5a8a18f56e8913cf4a201fbe287825b095693c2177581565b3480156101d457600080fd5b506100cc6101e3366004611019565b6104d8565b3480156101f457600080fd5b50610111600081565b34801561020957600080fd5b5061013f610218366004610f2a565b610503565b34801561022957600080fd5b5061013f610238366004611019565b610578565b34801561024957600080fd5b506101117f189ab7a9244df0848122154315af71fe140f3db0fe014031783b0946b8c9d2e381565b60006001600160e01b03198216637965db0b60e01b14806102a257506301ffc9a760e01b6001600160e01b03198316145b90505b919050565b6000828152606560205260409020600101546102c781335b61059e565b6102d18383610602565b505050565b6001600160a01b038116331461034b5760405162461bcd60e51b815260206004820152602f60248201527f416363657373436f6e74726f6c3a2063616e206f6e6c792072656e6f756e636560448201526e103937b632b9903337b91039b2b63360891b60648201526084015b60405180910390fd5b6103558282610688565b5050565b306001600160a01b037f00000000000000000000000000000000000000000000000000000000000000001614156103a25760405162461bcd60e51b815260040161034290611130565b7f00000000000000000000000000000000000000000000000000000000000000006001600160a01b03166103d46106ef565b6001600160a01b0316146103fa5760405162461bcd60e51b81526004016103429061117c565b6104038161071d565b6040805160008082526020820190925261041f91839190610748565b50565b306001600160a01b037f000000000000000000000000000000000000000000000000000000000000000016141561046b5760405162461bcd60e51b815260040161034290611130565b7f00000000000000000000000000000000000000000000000000000000000000006001600160a01b031661049d6106ef565b6001600160a01b0316146104c35760405162461bcd60e51b81526004016103429061117c565b6104cc8261071d565b61035582826001610748565b60009182526065602090815260408084206001600160a01b0393909316845291905290205460ff1690565b600054610100900460ff168061051c575060005460ff16155b6105385760405162461bcd60e51b8152600401610342906111c8565b600054610100900460ff1615801561055a576000805461ffff19166101011790555b61056382610893565b8015610355576000805461ff00191690555050565b60008281526065602052604090206001015461059481336102c2565b6102d18383610688565b6105a882826104d8565b610355576105c0816001600160a01b03166014610903565b6105cb836020610903565b6040516020016105dc929190611088565b60408051601f198184030181529082905262461bcd60e51b8252610342916004016110fd565b61060c82826104d8565b6103555760008281526065602090815260408083206001600160a01b03851684529091529020805460ff191660011790556106443390565b6001600160a01b0316816001600160a01b0316837f2f8788117e7eff1d82e926ec794901d17c78024a50270940304540a733656f0d60405160405180910390a45050565b61069282826104d8565b156103555760008281526065602090815260408083206001600160a01b0385168085529252808320805460ff1916905551339285917ff6391f5c32d9c69d2a47ea670b442974b53935d1edc7fd64eb21e047a839171b9190a45050565b7f360894a13ba1a3210667c828492db98dca3e2076cc3735a920a3ca505d382bbc546001600160a01b031690565b7f189ab7a9244df0848122154315af71fe140f3db0fe014031783b0946b8c9d2e361035581336102c2565b60006107526106ef565b905061075d84610aec565b60008351118061076a5750815b1561077b576107798484610b91565b505b7f4910fdfa16fed3260ed0e7147f7cc6da11a60208b5b9406d12a635614ffd9143805460ff1661088c57805460ff191660011781556040516001600160a01b03831660248201526107fa90869060440160408051601f198184030181529190526020810180516001600160e01b0316631b2ce7f360e11b179052610b91565b50805460ff1916815561080b6106ef565b6001600160a01b0316826001600160a01b0316146108835760405162461bcd60e51b815260206004820152602f60248201527f45524331393637557067726164653a207570677261646520627265616b73206660448201526e75727468657220757067726164657360881b6064820152608401610342565b61088c85610c7c565b5050505050565b600054610100900460ff16806108ac575060005460ff16155b6108c85760405162461bcd60e51b8152600401610342906111c8565b600054610100900460ff161580156108ea576000805461ffff19166101011790555b6108f2610cbc565b6108fa610d3f565b61056382610d9d565b6060600061091283600261122e565b61091d906002611216565b67ffffffffffffffff81111561094357634e487b7160e01b600052604160045260246000fd5b6040519080825280601f01601f19166020018201604052801561096d576020820181803683370190505b509050600360fc1b8160008151811061099657634e487b7160e01b600052603260045260246000fd5b60200101906001600160f81b031916908160001a905350600f60fb1b816001815181106109d357634e487b7160e01b600052603260045260246000fd5b60200101906001600160f81b031916908160001a90535060006109f784600261122e565b610a02906001611216565b90505b6001811115610a96576f181899199a1a9b1b9c1cb0b131b232b360811b85600f1660108110610a4457634e487b7160e01b600052603260045260246000fd5b1a60f81b828281518110610a6857634e487b7160e01b600052603260045260246000fd5b60200101906001600160f81b031916908160001a90535060049490941c93610a8f8161127d565b9050610a05565b508315610ae55760405162461bcd60e51b815260206004820181905260248201527f537472696e67733a20686578206c656e67746820696e73756666696369656e746044820152606401610342565b9392505050565b803b610b505760405162461bcd60e51b815260206004820152602d60248201527f455243313936373a206e657720696d706c656d656e746174696f6e206973206e60448201526c1bdd08184818dbdb9d1c9858dd609a1b6064820152608401610342565b7f360894a13ba1a3210667c828492db98dca3e2076cc3735a920a3ca505d382bbc80546001600160a01b0319166001600160a01b0392909216919091179055565b6060823b610bf05760405162461bcd60e51b815260206004820152602660248201527f416464726573733a2064656c65676174652063616c6c20746f206e6f6e2d636f6044820152651b9d1c9858dd60d21b6064820152608401610342565b600080846001600160a01b031684604051610c0b919061106c565b600060405180830381855af49150503d8060008114610c46576040519150601f19603f3d011682016040523d82523d6000602084013e610c4b565b606091505b5091509150610c7382826040518060600160405280602781526020016112c160279139610e66565b95945050505050565b610c8581610aec565b6040516001600160a01b038216907fbc7cd75a20ee27fd9adebab32041f755214dbc6bffa90cc0225b39da2e5c2d3b90600090a250565b600054610100900460ff1680610cd5575060005460ff16155b610cf15760405162461bcd60e51b8152600401610342906111c8565b600054610100900460ff16158015610d13576000805461ffff19166101011790555b610d1b610e9f565b610d23610e9f565b610d2b610e9f565b801561041f576000805461ff001916905550565b600054610100900460ff1680610d58575060005460ff16155b610d745760405162461bcd60e51b8152600401610342906111c8565b600054610100900460ff16158015610d1b576000805461ffff1916610101179055610d23610e9f565b600054610100900460ff1680610db6575060005460ff16155b610dd25760405162461bcd60e51b8152600401610342906111c8565b600054610100900460ff16158015610df4576000805461ffff19166101011790555b6001600160a01b038216610e0757600080fd5b610e12600083610f09565b610e3c7fa49807205ce4d355092ef5a8a18f56e8913cf4a201fbe287825b095693c2177583610f09565b6105637f189ab7a9244df0848122154315af71fe140f3db0fe014031783b0946b8c9d2e383610f09565b60608315610e75575081610ae5565b825115610e855782518084602001fd5b8160405162461bcd60e51b815260040161034291906110fd565b600054610100900460ff1680610eb8575060005460ff16155b610ed45760405162461bcd60e51b8152600401610342906111c8565b600054610100900460ff16158015610d2b576000805461ffff1916610101179055801561041f576000805461ff001916905550565b6103558282610602565b80356001600160a01b03811681146102a557600080fd5b600060208284031215610f3b578081fd5b610ae582610f13565b60008060408385031215610f56578081fd5b610f5f83610f13565b9150602083013567ffffffffffffffff80821115610f7b578283fd5b818501915085601f830112610f8e578283fd5b813581811115610fa057610fa06112aa565b604051601f8201601f19908116603f01168101908382118183101715610fc857610fc86112aa565b81604052828152886020848701011115610fe0578586fd5b82602086016020830137856020848301015280955050505050509250929050565b600060208284031215611012578081fd5b5035919050565b6000806040838503121561102b578182fd5b8235915061103b60208401610f13565b90509250929050565b600060208284031215611055578081fd5b81356001600160e01b031981168114610ae5578182fd5b6000825161107e81846020870161124d565b9190910192915050565b60007f416363657373436f6e74726f6c3a206163636f756e7420000000000000000000825283516110c081601785016020880161124d565b7001034b99036b4b9b9b4b733903937b6329607d1b60179184019182015283516110f181602884016020880161124d565b01602801949350505050565b600060208252825180602084015261111c81604085016020870161124d565b601f01601f19169190910160400192915050565b6020808252602c908201527f46756e6374696f6e206d7573742062652063616c6c6564207468726f7567682060408201526b19195b1959d85d1958d85b1b60a21b606082015260800190565b6020808252602c908201527f46756e6374696f6e206d7573742062652063616c6c6564207468726f7567682060408201526b6163746976652070726f787960a01b606082015260800190565b6020808252602e908201527f496e697469616c697a61626c653a20636f6e747261637420697320616c72656160408201526d191e481a5b9a5d1a585b1a5e995960921b606082015260800190565b6000821982111561122957611229611294565b500190565b600081600019048311821515161561124857611248611294565b500290565b60005b83811015611268578181015183820152602001611250565b83811115611277576000848401525b50505050565b60008161128c5761128c611294565b506000190190565b634e487b7160e01b600052601160045260246000fd5b634e487b7160e01b600052604160045260246000fdfe416464726573733a206c6f772d6c6576656c2064656c65676174652063616c6c206661696c6564a264697066735822122079f697267ee5c90b2c22eb505c0acc126b7e8691e059285948571bc5d2cf25d664736f6c63430008030033",
  "linkReferences": {},
  "deployedLinkReferences": {}
}