{
  "_format": "hh-sol-artifact-1",
  "contractName": "GEMS_Implementation",
  "sourceName": "contracts/DeployContractImplementations/GEMS_Implementation.sol",
  "abi": [
    {
      "inputs": [],
      "stateMutability": "nonpayable",
      "type": "constructor"
    },
    {
      "anonymous": false,
      "inputs": [
        {
          "indexed": false,
          "internalType": "address",
          "name": "previousAdmin",
          "type": "address"
        },
        {
          "indexed": false,
          "internalType": "address",
          "name": "newAdmin",
          "type": "address"
        }
      ],
      "name": "AdminChanged",
      "type": "event"
    },
    {
      "anonymous": false,
      "inputs": [
        {
          "indexed": true,
          "internalType": "address",
          "name": "beacon",
          "type": "address"
        }
      ],
      "name": "BeaconUpgraded",
      "type": "event"
    },
    {
      "anonymous": false,
      "inputs": [
        {
          "indexed": false,
          "internalType": "address",
          "name": "user",
          "type": "address"
        },
        {
          "indexed": false,
          "internalType": "uint256",
          "name": "gems",
          "type": "uint256"
        },
        {
          "indexed": false,
          "internalType": "uint256",
          "name": "streak",
          "type": "uint256"
        }
      ],
      "name": "GemsCollected",
      "type": "event"
    },
    {
      "anonymous": false,
      "inputs": [
        {
          "indexed": true,
          "internalType": "bytes32",
          "name": "role",
          "type": "bytes32"
        },
        {
          "indexed": true,
          "internalType": "bytes32",
          "name": "previousAdminRole",
          "type": "bytes32"
        },
        {
          "indexed": true,
          "internalType": "bytes32",
          "name": "newAdminRole",
          "type": "bytes32"
        }
      ],
      "name": "RoleAdminChanged",
      "type": "event"
    },
    {
      "anonymous": false,
      "inputs": [
        {
          "indexed": true,
          "internalType": "bytes32",
          "name": "role",
          "type": "bytes32"
        },
        {
          "indexed": true,
          "internalType": "address",
          "name": "account",
          "type": "address"
        },
        {
          "indexed": true,
          "internalType": "address",
          "name": "sender",
          "type": "address"
        }
      ],
      "name": "RoleGranted",
      "type": "event"
    },
    {
      "anonymous": false,
      "inputs": [
        {
          "indexed": true,
          "internalType": "bytes32",
          "name": "role",
          "type": "bytes32"
        },
        {
          "indexed": true,
          "internalType": "address",
          "name": "account",
          "type": "address"
        },
        {
          "indexed": true,
          "internalType": "address",
          "name": "sender",
          "type": "address"
        }
      ],
      "name": "RoleRevoked",
      "type": "event"
    },
    {
      "anonymous": false,
      "inputs": [
        {
          "indexed": true,
          "internalType": "address",
          "name": "implementation",
          "type": "address"
        }
      ],
      "name": "Upgraded",
      "type": "event"
    },
    {
      "inputs": [],
      "name": "ADMIN_ROLE",
      "outputs": [
        {
          "internalType": "bytes32",
          "name": "",
          "type": "bytes32"
        }
      ],
      "stateMutability": "view",
      "type": "function"
    },
    {
      "inputs": [],
      "name": "DEFAULT_ADMIN_ROLE",
      "outputs": [
        {
          "internalType": "bytes32",
          "name": "",
          "type": "bytes32"
        }
      ],
      "stateMutability": "view",
      "type": "function"
    },
    {
      "inputs": [],
      "name": "GEM_ROLE",
      "outputs": [
        {
          "internalType": "bytes32",
          "name": "",
          "type": "bytes32"
        }
      ],
      "stateMutability": "view",
      "type": "function"
    },
    {
      "inputs": [],
      "name": "UPGRADER_ROLE",
      "outputs": [
        {
          "internalType": "bytes32",
          "name": "",
          "type": "bytes32"
        }
      ],
      "stateMutability": "view",
      "type": "function"
    },
    {
      "inputs": [
        {
          "internalType": "address",
          "name": "account",
          "type": "address"
        }
      ],
      "name": "balanceOf",
      "outputs": [
        {
          "internalType": "uint256",
          "name": "",
          "type": "uint256"
        }
      ],
      "stateMutability": "view",
      "type": "function"
    },
    {
      "inputs": [
        {
          "internalType": "address",
          "name": "",
          "type": "address"
        }
      ],
      "name": "gems",
      "outputs": [
        {
          "internalType": "uint256",
          "name": "",
          "type": "uint256"
        }
      ],
      "stateMutability": "view",
      "type": "function"
    },
    {
      "inputs": [
        {
          "internalType": "bytes32",
          "name": "role",
          "type": "bytes32"
        }
      ],
      "name": "getRoleAdmin",
      "outputs": [
        {
          "internalType": "bytes32",
          "name": "",
          "type": "bytes32"
        }
      ],
      "stateMutability": "view",
      "type": "function"
    },
    {
      "inputs": [
        {
          "internalType": "address",
          "name": "user",
          "type": "address"
        }
      ],
      "name": "gm",
      "outputs": [],
      "stateMutability": "nonpayable",
      "type": "function"
    },
    {
      "inputs": [
        {
          "internalType": "bytes32",
          "name": "role",
          "type": "bytes32"
        },
        {
          "internalType": "address",
          "name": "account",
          "type": "address"
        }
      ],
      "name": "grantRole",
      "outputs": [],
      "stateMutability": "nonpayable",
      "type": "function"
    },
    {
      "inputs": [
        {
          "internalType": "bytes32",
          "name": "role",
          "type": "bytes32"
        },
        {
          "internalType": "address",
          "name": "account",
          "type": "address"
        }
      ],
      "name": "hasRole",
      "outputs": [
        {
          "internalType": "bool",
          "name": "",
          "type": "bool"
        }
      ],
      "stateMutability": "view",
      "type": "function"
    },
    {
      "inputs": [
        {
          "internalType": "address",
          "name": "_admin",
          "type": "address"
        },
        {
          "internalType": "address",
          "name": "_longShort",
          "type": "address"
        },
        {
          "internalType": "address",
          "name": "_staker",
          "type": "address"
        }
      ],
      "name": "initialize",
      "outputs": [],
      "stateMutability": "nonpayable",
      "type": "function"
    },
    {
      "inputs": [
        {
          "internalType": "address",
          "name": "",
          "type": "address"
        }
      ],
      "name": "lastAction",
      "outputs": [
        {
          "internalType": "uint256",
          "name": "",
          "type": "uint256"
        }
      ],
      "stateMutability": "view",
      "type": "function"
    },
    {
      "inputs": [
        {
          "internalType": "bytes32",
          "name": "role",
          "type": "bytes32"
        },
        {
          "internalType": "address",
          "name": "account",
          "type": "address"
        }
      ],
      "name": "renounceRole",
      "outputs": [],
      "stateMutability": "nonpayable",
      "type": "function"
    },
    {
      "inputs": [
        {
          "internalType": "bytes32",
          "name": "role",
          "type": "bytes32"
        },
        {
          "internalType": "address",
          "name": "account",
          "type": "address"
        }
      ],
      "name": "revokeRole",
      "outputs": [],
      "stateMutability": "nonpayable",
      "type": "function"
    },
    {
      "inputs": [
        {
          "internalType": "address",
          "name": "",
          "type": "address"
        }
      ],
      "name": "streak",
      "outputs": [
        {
          "internalType": "uint256",
          "name": "",
          "type": "uint256"
        }
      ],
      "stateMutability": "view",
      "type": "function"
    },
    {
      "inputs": [
        {
          "internalType": "bytes4",
          "name": "interfaceId",
          "type": "bytes4"
        }
      ],
      "name": "supportsInterface",
      "outputs": [
        {
          "internalType": "bool",
          "name": "",
          "type": "bool"
        }
      ],
      "stateMutability": "view",
      "type": "function"
    },
    {
      "inputs": [
        {
          "internalType": "address",
          "name": "newImplementation",
          "type": "address"
        }
      ],
      "name": "upgradeTo",
      "outputs": [],
      "stateMutability": "nonpayable",
      "type": "function"
    },
    {
      "inputs": [
        {
          "internalType": "address",
          "name": "newImplementation",
          "type": "address"
        },
        {
          "internalType": "bytes",
          "name": "data",
          "type": "bytes"
        }
      ],
      "name": "upgradeToAndCall",
      "outputs": [],
      "stateMutability": "payable",
      "type": "function"
    }
  ],
  "bytecode": "0x60a06040523060601b6080523480156200001857600080fd5b5073f10a7f10a7f10a7f10a7f10a7f10a7f10a7f10a76200003b81808062000042565b50620005b6565b600054610100900460ff16806200005c575060005460ff16155b620000b45760405162461bcd60e51b815260206004820152602e602482015260008051602062001c8483398151915260448201526d191e481a5b9a5d1a585b1a5e995960921b60648201526084015b60405180910390fd5b600054610100900460ff16158015620000d7576000805461ffff19166101011790555b620000e28462000131565b620000fd60008051602062001ca483398151915284620001f8565b6200011860008051602062001ca483398151915283620001f8565b80156200012b576000805461ff00191690555b50505050565b600054610100900460ff16806200014b575060005460ff16155b6200019f5760405162461bcd60e51b815260206004820152602e602482015260008051602062001c8483398151915260448201526d191e481a5b9a5d1a585b1a5e995960921b6064820152608401620000ab565b600054610100900460ff16158015620001c2576000805461ffff19166101011790555b620001cc62000204565b620001d6620002c9565b620001e18262000363565b8015620001f4576000805461ff00191690555b5050565b620001f482826200046d565b600054610100900460ff16806200021e575060005460ff16155b620002725760405162461bcd60e51b815260206004820152602e602482015260008051602062001c8483398151915260448201526d191e481a5b9a5d1a585b1a5e995960921b6064820152608401620000ab565b600054610100900460ff1615801562000295576000805461ffff19166101011790555b6200029f62000511565b620002a962000511565b620002b362000511565b8015620002c6576000805461ff00191690555b50565b600054610100900460ff1680620002e3575060005460ff16155b620003375760405162461bcd60e51b815260206004820152602e602482015260008051602062001c8483398151915260448201526d191e481a5b9a5d1a585b1a5e995960921b6064820152608401620000ab565b600054610100900460ff161580156200029f576000805461ffff1916610101179055620002a962000511565b600054610100900460ff16806200037d575060005460ff16155b620003d15760405162461bcd60e51b815260206004820152602e602482015260008051602062001c8483398151915260448201526d191e481a5b9a5d1a585b1a5e995960921b6064820152608401620000ab565b600054610100900460ff16158015620003f4576000805461ffff19166101011790555b6001600160a01b0382166200040857600080fd5b62000415600083620001f8565b620004417fa49807205ce4d355092ef5a8a18f56e8913cf4a201fbe287825b095693c2177583620001f8565b620001e17f189ab7a9244df0848122154315af71fe140f3db0fe014031783b0946b8c9d2e383620001f8565b60008281526065602090815260408083206001600160a01b038516845290915290205460ff16620001f45760008281526065602090815260408083206001600160a01b03851684529091529020805460ff19166001179055620004cd3390565b6001600160a01b0316816001600160a01b0316837f2f8788117e7eff1d82e926ec794901d17c78024a50270940304540a733656f0d60405160405180910390a45050565b600054610100900460ff16806200052b575060005460ff16155b6200057f5760405162461bcd60e51b815260206004820152602e602482015260008051602062001c8483398151915260448201526d191e481a5b9a5d1a585b1a5e995960921b6064820152608401620000ab565b600054610100900460ff16158015620002b3576000805461ffff19166101011790558015620002c6576000805461ff001916905550565b60805160601c61169a620005ea600039600081816104c5015281816105050152818161058e01526105ce015261169a6000f3fe6080604052600436106101095760003560e01c806370a0823111610095578063a217fddf11610064578063a217fddf14610327578063c0c53b8b1461033c578063d547741f1461035c578063f4e5f7061461037c578063f72c0d8b1461039e57610109565b806370a082311461027d57806375b238fc146102b357806391d14854146102e757806392d0214c1461030757610109565b80633659cfe6116100dc5780633659cfe6146101c35780633809467e146101e35780634f1ef286146102105780636a2a65181461022357806370720d1f1461025057610109565b806301ffc9a71461010e578063248a9ca3146101435780632f2ff15d1461018157806336568abe146101a3575b600080fd5b34801561011a57600080fd5b5061012e61012936600461138e565b6103d2565b60405190151581526020015b60405180910390f35b34801561014f57600080fd5b5061017361015e36600461134b565b60009081526065602052604090206001015490565b60405190815260200161013a565b34801561018d57600080fd5b506101a161019c366004611363565b61040b565b005b3480156101af57600080fd5b506101a16101be366004611363565b610437565b3480156101cf57600080fd5b506101a16101de366004611232565b6104ba565b3480156101ef57600080fd5b506101736101fe366004611232565b60fb6020526000908152604090205481565b6101a161021e36600461128e565b610583565b34801561022f57600080fd5b5061017361023e366004611232565b60fc6020526000908152604090205481565b34801561025c57600080fd5b5061017361026b366004611232565b60fd6020526000908152604090205481565b34801561028957600080fd5b50610173610298366004611232565b6001600160a01b0316600090815260fb602052604090205490565b3480156102bf57600080fd5b506101737fa49807205ce4d355092ef5a8a18f56e8913cf4a201fbe287825b095693c2177581565b3480156102f357600080fd5b5061012e610302366004611363565b610639565b34801561031357600080fd5b506101a1610322366004611232565b610664565b34801561033357600080fd5b50610173600081565b34801561034857600080fd5b506101a161035736600461124c565b6107c3565b34801561036857600080fd5b506101a1610377366004611363565b61086b565b34801561038857600080fd5b5061017360008051602061161e83398151915281565b3480156103aa57600080fd5b506101737f189ab7a9244df0848122154315af71fe140f3db0fe014031783b0946b8c9d2e381565b60006001600160e01b03198216637965db0b60e01b148061040357506301ffc9a760e01b6001600160e01b03198316145b90505b919050565b60008281526065602052604090206001015461042881335b610891565b61043283836108f5565b505050565b6001600160a01b03811633146104ac5760405162461bcd60e51b815260206004820152602f60248201527f416363657373436f6e74726f6c3a2063616e206f6e6c792072656e6f756e636560448201526e103937b632b9903337b91039b2b63360891b60648201526084015b60405180910390fd5b6104b6828261097b565b5050565b306001600160a01b037f00000000000000000000000000000000000000000000000000000000000000001614156105035760405162461bcd60e51b81526004016104a39061147a565b7f00000000000000000000000000000000000000000000000000000000000000006001600160a01b03166105356109e2565b6001600160a01b03161461055b5760405162461bcd60e51b81526004016104a3906114c6565b61056481610a10565b6040805160008082526020820190925261058091839190610a3b565b50565b306001600160a01b037f00000000000000000000000000000000000000000000000000000000000000001614156105cc5760405162461bcd60e51b81526004016104a39061147a565b7f00000000000000000000000000000000000000000000000000000000000000006001600160a01b03166105fe6109e2565b6001600160a01b0316146106245760405162461bcd60e51b81526004016104a3906114c6565b61062d82610a10565b6104b682826001610a3b565b60009182526065602090815260408084206001600160a01b0393909316845291905290205460ff1690565b61067c60008051602061161e83398151915233610639565b15610580576001600160a01b038116600090815260fd602052604090205442620151806106a98383611597565b10610432576001600160a01b038316600090815260fb602052604081208054680d8d726b7177a8000092906106df908490611560565b909155506106f39050620151806002611578565b6106fd8383611597565b1015610737576001600160a01b038316600090815260fc6020526040812080546001929061072c908490611560565b909155506107549050565b6001600160a01b038316600090815260fc60205260409020600190555b6001600160a01b038316600081815260fd6020908152604080832085905560fb82528083205460fc8352928190205481519485529184019290925282820152517f6f4864c954777b623ffcb477ee1875e76a6345a6ca1588bcc781048e8674e5ee9181900360600190a1505050565b600054610100900460ff16806107dc575060005460ff16155b6107f85760405162461bcd60e51b81526004016104a390611512565b600054610100900460ff1615801561081a576000805461ffff19166101011790555b61082384610b86565b61083b60008051602061161e83398151915284610c0b565b61085360008051602061161e83398151915283610c0b565b8015610865576000805461ff00191690555b50505050565b6000828152606560205260409020600101546108878133610423565b610432838361097b565b61089b8282610639565b6104b6576108b3816001600160a01b03166014610c15565b6108be836020610c15565b6040516020016108cf9291906113d2565b60408051601f198184030181529082905262461bcd60e51b82526104a391600401611447565b6108ff8282610639565b6104b65760008281526065602090815260408083206001600160a01b03851684529091529020805460ff191660011790556109373390565b6001600160a01b0316816001600160a01b0316837f2f8788117e7eff1d82e926ec794901d17c78024a50270940304540a733656f0d60405160405180910390a45050565b6109858282610639565b156104b65760008281526065602090815260408083206001600160a01b0385168085529252808320805460ff1916905551339285917ff6391f5c32d9c69d2a47ea670b442974b53935d1edc7fd64eb21e047a839171b9190a45050565b7f360894a13ba1a3210667c828492db98dca3e2076cc3735a920a3ca505d382bbc546001600160a01b031690565b7f189ab7a9244df0848122154315af71fe140f3db0fe014031783b0946b8c9d2e36104b68133610423565b6000610a456109e2565b9050610a5084610dfe565b600083511180610a5d5750815b15610a6e57610a6c8484610ea3565b505b7f4910fdfa16fed3260ed0e7147f7cc6da11a60208b5b9406d12a635614ffd9143805460ff16610b7f57805460ff191660011781556040516001600160a01b0383166024820152610aed90869060440160408051601f198184030181529190526020810180516001600160e01b0316631b2ce7f360e11b179052610ea3565b50805460ff19168155610afe6109e2565b6001600160a01b0316826001600160a01b031614610b765760405162461bcd60e51b815260206004820152602f60248201527f45524331393637557067726164653a207570677261646520627265616b73206660448201526e75727468657220757067726164657360881b60648201526084016104a3565b610b7f85610f8e565b5050505050565b600054610100900460ff1680610b9f575060005460ff16155b610bbb5760405162461bcd60e51b81526004016104a390611512565b600054610100900460ff16158015610bdd576000805461ffff19166101011790555b610be5610fce565b610bed611051565b610bf6826110af565b80156104b6576000805461ff00191690555050565b6104b682826108f5565b60606000610c24836002611578565b610c2f906002611560565b67ffffffffffffffff811115610c5557634e487b7160e01b600052604160045260246000fd5b6040519080825280601f01601f191660200182016040528015610c7f576020820181803683370190505b509050600360fc1b81600081518110610ca857634e487b7160e01b600052603260045260246000fd5b60200101906001600160f81b031916908160001a905350600f60fb1b81600181518110610ce557634e487b7160e01b600052603260045260246000fd5b60200101906001600160f81b031916908160001a9053506000610d09846002611578565b610d14906001611560565b90505b6001811115610da8576f181899199a1a9b1b9c1cb0b131b232b360811b85600f1660108110610d5657634e487b7160e01b600052603260045260246000fd5b1a60f81b828281518110610d7a57634e487b7160e01b600052603260045260246000fd5b60200101906001600160f81b031916908160001a90535060049490941c93610da1816115da565b9050610d17565b508315610df75760405162461bcd60e51b815260206004820181905260248201527f537472696e67733a20686578206c656e67746820696e73756666696369656e7460448201526064016104a3565b9392505050565b803b610e625760405162461bcd60e51b815260206004820152602d60248201527f455243313936373a206e657720696d706c656d656e746174696f6e206973206e60448201526c1bdd08184818dbdb9d1c9858dd609a1b60648201526084016104a3565b7f360894a13ba1a3210667c828492db98dca3e2076cc3735a920a3ca505d382bbc80546001600160a01b0319166001600160a01b0392909216919091179055565b6060823b610f025760405162461bcd60e51b815260206004820152602660248201527f416464726573733a2064656c65676174652063616c6c20746f206e6f6e2d636f6044820152651b9d1c9858dd60d21b60648201526084016104a3565b600080846001600160a01b031684604051610f1d91906113b6565b600060405180830381855af49150503d8060008114610f58576040519150601f19603f3d011682016040523d82523d6000602084013e610f5d565b606091505b5091509150610f85828260405180606001604052806027815260200161163e60279139611178565b95945050505050565b610f9781610dfe565b6040516001600160a01b038216907fbc7cd75a20ee27fd9adebab32041f755214dbc6bffa90cc0225b39da2e5c2d3b90600090a250565b600054610100900460ff1680610fe7575060005460ff16155b6110035760405162461bcd60e51b81526004016104a390611512565b600054610100900460ff16158015611025576000805461ffff19166101011790555b61102d6111b1565b6110356111b1565b61103d6111b1565b8015610580576000805461ff001916905550565b600054610100900460ff168061106a575060005460ff16155b6110865760405162461bcd60e51b81526004016104a390611512565b600054610100900460ff1615801561102d576000805461ffff19166101011790556110356111b1565b600054610100900460ff16806110c8575060005460ff16155b6110e45760405162461bcd60e51b81526004016104a390611512565b600054610100900460ff16158015611106576000805461ffff19166101011790555b6001600160a01b03821661111957600080fd5b611124600083610c0b565b61114e7fa49807205ce4d355092ef5a8a18f56e8913cf4a201fbe287825b095693c2177583610c0b565b610bf67f189ab7a9244df0848122154315af71fe140f3db0fe014031783b0946b8c9d2e383610c0b565b60608315611187575081610df7565b8251156111975782518084602001fd5b8160405162461bcd60e51b81526004016104a39190611447565b600054610100900460ff16806111ca575060005460ff16155b6111e65760405162461bcd60e51b81526004016104a390611512565b600054610100900460ff1615801561103d576000805461ffff19166101011790558015610580576000805461ff001916905550565b80356001600160a01b038116811461040657600080fd5b600060208284031215611243578081fd5b610df78261121b565b600080600060608486031215611260578182fd5b6112698461121b565b92506112776020850161121b565b91506112856040850161121b565b90509250925092565b600080604083850312156112a0578182fd5b6112a98361121b565b9150602083013567ffffffffffffffff808211156112c5578283fd5b818501915085601f8301126112d8578283fd5b8135818111156112ea576112ea611607565b604051601f8201601f19908116603f0116810190838211818310171561131257611312611607565b8160405282815288602084870101111561132a578586fd5b82602086016020830137856020848301015280955050505050509250929050565b60006020828403121561135c578081fd5b5035919050565b60008060408385031215611375578182fd5b823591506113856020840161121b565b90509250929050565b60006020828403121561139f578081fd5b81356001600160e01b031981168114610df7578182fd5b600082516113c88184602087016115ae565b9190910192915050565b60007f416363657373436f6e74726f6c3a206163636f756e74200000000000000000008252835161140a8160178501602088016115ae565b7001034b99036b4b9b9b4b733903937b6329607d1b601791840191820152835161143b8160288401602088016115ae565b01602801949350505050565b60006020825282518060208401526114668160408501602087016115ae565b601f01601f19169190910160400192915050565b6020808252602c908201527f46756e6374696f6e206d7573742062652063616c6c6564207468726f7567682060408201526b19195b1959d85d1958d85b1b60a21b606082015260800190565b6020808252602c908201527f46756e6374696f6e206d7573742062652063616c6c6564207468726f7567682060408201526b6163746976652070726f787960a01b606082015260800190565b6020808252602e908201527f496e697469616c697a61626c653a20636f6e747261637420697320616c72656160408201526d191e481a5b9a5d1a585b1a5e995960921b606082015260800190565b60008219821115611573576115736115f1565b500190565b6000816000190483118215151615611592576115926115f1565b500290565b6000828210156115a9576115a96115f1565b500390565b60005b838110156115c95781810151838201526020016115b1565b838111156108655750506000910152565b6000816115e9576115e96115f1565b506000190190565b634e487b7160e01b600052601160045260246000fd5b634e487b7160e01b600052604160045260246000fdfefbb0a55d3bd620b175b4b5ed8e54b15ee857894bb1d3baf3b9219271d425d7f9416464726573733a206c6f772d6c6576656c2064656c65676174652063616c6c206661696c6564a2646970667358221220ea57f87f1c946b3252536ac091ad018d18d7fe9064b810211b9cb3c2d7a05ecd64736f6c63430008030033496e697469616c697a61626c653a20636f6e747261637420697320616c726561fbb0a55d3bd620b175b4b5ed8e54b15ee857894bb1d3baf3b9219271d425d7f9",
  "linkReferences": {},
  "deployedLinkReferences": {}
}