{
  "_format": "hh-sol-artifact-1",
  "contractName": "ERC20Mock",
  "sourceName": "contracts/mocks/ERC20Mock.sol",
  "abi": [
    {
      "inputs": [
        {
          "internalType": "string",
          "name": "name",
          "type": "string"
        },
        {
          "internalType": "string",
          "name": "symbol",
          "type": "string"
        }
      ],
      "stateMutability": "nonpayable",
      "type": "constructor"
    },
    {
      "anonymous": false,
      "inputs": [
        {
          "indexed": true,
          "internalType": "address",
          "name": "owner",
          "type": "address"
        },
        {
          "indexed": true,
          "internalType": "address",
          "name": "spender",
          "type": "address"
        },
        {
          "indexed": false,
          "internalType": "uint256",
          "name": "value",
          "type": "uint256"
        }
      ],
      "name": "Approval",
      "type": "event"
    },
    {
      "anonymous": false,
      "inputs": [
        {
          "indexed": false,
          "internalType": "address",
          "name": "account",
          "type": "address"
        }
      ],
      "name": "Paused",
      "type": "event"
    },
    {
      "anonymous": false,
      "inputs": [
        {
          "indexed": true,
          "internalType": "bytes32",
          "name": "role",
          "type": "bytes32"
        },
        {
          "indexed": true,
          "internalType": "bytes32",
          "name": "previousAdminRole",
          "type": "bytes32"
        },
        {
          "indexed": true,
          "internalType": "bytes32",
          "name": "newAdminRole",
          "type": "bytes32"
        }
      ],
      "name": "RoleAdminChanged",
      "type": "event"
    },
    {
      "anonymous": false,
      "inputs": [
        {
          "indexed": true,
          "internalType": "bytes32",
          "name": "role",
          "type": "bytes32"
        },
        {
          "indexed": true,
          "internalType": "address",
          "name": "account",
          "type": "address"
        },
        {
          "indexed": true,
          "internalType": "address",
          "name": "sender",
          "type": "address"
        }
      ],
      "name": "RoleGranted",
      "type": "event"
    },
    {
      "anonymous": false,
      "inputs": [
        {
          "indexed": true,
          "internalType": "bytes32",
          "name": "role",
          "type": "bytes32"
        },
        {
          "indexed": true,
          "internalType": "address",
          "name": "account",
          "type": "address"
        },
        {
          "indexed": true,
          "internalType": "address",
          "name": "sender",
          "type": "address"
        }
      ],
      "name": "RoleRevoked",
      "type": "event"
    },
    {
      "anonymous": false,
      "inputs": [
        {
          "indexed": true,
          "internalType": "address",
          "name": "from",
          "type": "address"
        },
        {
          "indexed": true,
          "internalType": "address",
          "name": "to",
          "type": "address"
        },
        {
          "indexed": false,
          "internalType": "uint256",
          "name": "value",
          "type": "uint256"
        }
      ],
      "name": "Transfer",
      "type": "event"
    },
    {
      "anonymous": false,
      "inputs": [
        {
          "indexed": false,
          "internalType": "address",
          "name": "sender",
          "type": "address"
        },
        {
          "indexed": false,
          "internalType": "address",
          "name": "recipient",
          "type": "address"
        },
        {
          "indexed": false,
          "internalType": "uint256",
          "name": "amount",
          "type": "uint256"
        }
      ],
      "name": "TransferCalled",
      "type": "event"
    },
    {
      "anonymous": false,
      "inputs": [
        {
          "indexed": false,
          "internalType": "address",
          "name": "account",
          "type": "address"
        }
      ],
      "name": "Unpaused",
      "type": "event"
    },
    {
      "inputs": [],
      "name": "DEFAULT_ADMIN_ROLE",
      "outputs": [
        {
          "internalType": "bytes32",
          "name": "",
          "type": "bytes32"
        }
      ],
      "stateMutability": "view",
      "type": "function"
    },
    {
      "inputs": [],
      "name": "MINTER_ROLE",
      "outputs": [
        {
          "internalType": "bytes32",
          "name": "",
          "type": "bytes32"
        }
      ],
      "stateMutability": "view",
      "type": "function"
    },
    {
      "inputs": [],
      "name": "PAUSER_ROLE",
      "outputs": [
        {
          "internalType": "bytes32",
          "name": "",
          "type": "bytes32"
        }
      ],
      "stateMutability": "view",
      "type": "function"
    },
    {
      "inputs": [
        {
          "internalType": "address",
          "name": "owner",
          "type": "address"
        },
        {
          "internalType": "address",
          "name": "spender",
          "type": "address"
        }
      ],
      "name": "allowance",
      "outputs": [
        {
          "internalType": "uint256",
          "name": "",
          "type": "uint256"
        }
      ],
      "stateMutability": "view",
      "type": "function"
    },
    {
      "inputs": [
        {
          "internalType": "address",
          "name": "spender",
          "type": "address"
        },
        {
          "internalType": "uint256",
          "name": "amount",
          "type": "uint256"
        }
      ],
      "name": "approve",
      "outputs": [
        {
          "internalType": "bool",
          "name": "",
          "type": "bool"
        }
      ],
      "stateMutability": "nonpayable",
      "type": "function"
    },
    {
      "inputs": [
        {
          "internalType": "address",
          "name": "account",
          "type": "address"
        }
      ],
      "name": "balanceOf",
      "outputs": [
        {
          "internalType": "uint256",
          "name": "",
          "type": "uint256"
        }
      ],
      "stateMutability": "view",
      "type": "function"
    },
    {
      "inputs": [
        {
          "internalType": "uint256",
          "name": "amount",
          "type": "uint256"
        }
      ],
      "name": "burn",
      "outputs": [],
      "stateMutability": "nonpayable",
      "type": "function"
    },
    {
      "inputs": [
        {
          "internalType": "address",
          "name": "account",
          "type": "address"
        },
        {
          "internalType": "uint256",
          "name": "amount",
          "type": "uint256"
        }
      ],
      "name": "burnFrom",
      "outputs": [],
      "stateMutability": "nonpayable",
      "type": "function"
    },
    {
      "inputs": [],
      "name": "decimals",
      "outputs": [
        {
          "internalType": "uint8",
          "name": "",
          "type": "uint8"
        }
      ],
      "stateMutability": "view",
      "type": "function"
    },
    {
      "inputs": [
        {
          "internalType": "address",
          "name": "spender",
          "type": "address"
        },
        {
          "internalType": "uint256",
          "name": "subtractedValue",
          "type": "uint256"
        }
      ],
      "name": "decreaseAllowance",
      "outputs": [
        {
          "internalType": "bool",
          "name": "",
          "type": "bool"
        }
      ],
      "stateMutability": "nonpayable",
      "type": "function"
    },
    {
      "inputs": [
        {
          "internalType": "bytes32",
          "name": "role",
          "type": "bytes32"
        }
      ],
      "name": "getRoleAdmin",
      "outputs": [
        {
          "internalType": "bytes32",
          "name": "",
          "type": "bytes32"
        }
      ],
      "stateMutability": "view",
      "type": "function"
    },
    {
      "inputs": [
        {
          "internalType": "bytes32",
          "name": "role",
          "type": "bytes32"
        },
        {
          "internalType": "uint256",
          "name": "index",
          "type": "uint256"
        }
      ],
      "name": "getRoleMember",
      "outputs": [
        {
          "internalType": "address",
          "name": "",
          "type": "address"
        }
      ],
      "stateMutability": "view",
      "type": "function"
    },
    {
      "inputs": [
        {
          "internalType": "bytes32",
          "name": "role",
          "type": "bytes32"
        }
      ],
      "name": "getRoleMemberCount",
      "outputs": [
        {
          "internalType": "uint256",
          "name": "",
          "type": "uint256"
        }
      ],
      "stateMutability": "view",
      "type": "function"
    },
    {
      "inputs": [
        {
          "internalType": "bytes32",
          "name": "role",
          "type": "bytes32"
        },
        {
          "internalType": "address",
          "name": "account",
          "type": "address"
        }
      ],
      "name": "grantRole",
      "outputs": [],
      "stateMutability": "nonpayable",
      "type": "function"
    },
    {
      "inputs": [
        {
          "internalType": "bytes32",
          "name": "role",
          "type": "bytes32"
        },
        {
          "internalType": "address",
          "name": "account",
          "type": "address"
        }
      ],
      "name": "hasRole",
      "outputs": [
        {
          "internalType": "bool",
          "name": "",
          "type": "bool"
        }
      ],
      "stateMutability": "view",
      "type": "function"
    },
    {
      "inputs": [
        {
          "internalType": "address",
          "name": "spender",
          "type": "address"
        },
        {
          "internalType": "uint256",
          "name": "addedValue",
          "type": "uint256"
        }
      ],
      "name": "increaseAllowance",
      "outputs": [
        {
          "internalType": "bool",
          "name": "",
          "type": "bool"
        }
      ],
      "stateMutability": "nonpayable",
      "type": "function"
    },
    {
      "inputs": [
        {
          "internalType": "address",
          "name": "to",
          "type": "address"
        },
        {
          "internalType": "uint256",
          "name": "amount",
          "type": "uint256"
        }
      ],
      "name": "mint",
      "outputs": [],
      "stateMutability": "nonpayable",
      "type": "function"
    },
    {
      "inputs": [],
      "name": "name",
      "outputs": [
        {
          "internalType": "string",
          "name": "",
          "type": "string"
        }
      ],
      "stateMutability": "view",
      "type": "function"
    },
    {
      "inputs": [],
      "name": "pause",
      "outputs": [],
      "stateMutability": "nonpayable",
      "type": "function"
    },
    {
      "inputs": [],
      "name": "paused",
      "outputs": [
        {
          "internalType": "bool",
          "name": "",
          "type": "bool"
        }
      ],
      "stateMutability": "view",
      "type": "function"
    },
    {
      "inputs": [
        {
          "internalType": "bytes32",
          "name": "role",
          "type": "bytes32"
        },
        {
          "internalType": "address",
          "name": "account",
          "type": "address"
        }
      ],
      "name": "renounceRole",
      "outputs": [],
      "stateMutability": "nonpayable",
      "type": "function"
    },
    {
      "inputs": [
        {
          "internalType": "bytes32",
          "name": "role",
          "type": "bytes32"
        },
        {
          "internalType": "address",
          "name": "account",
          "type": "address"
        }
      ],
      "name": "revokeRole",
      "outputs": [],
      "stateMutability": "nonpayable",
      "type": "function"
    },
    {
      "inputs": [
        {
          "internalType": "bool",
          "name": "_value",
          "type": "bool"
        }
      ],
      "name": "setShouldMockTransfer",
      "outputs": [],
      "stateMutability": "nonpayable",
      "type": "function"
    },
    {
      "inputs": [
        {
          "internalType": "bytes4",
          "name": "interfaceId",
          "type": "bytes4"
        }
      ],
      "name": "supportsInterface",
      "outputs": [
        {
          "internalType": "bool",
          "name": "",
          "type": "bool"
        }
      ],
      "stateMutability": "view",
      "type": "function"
    },
    {
      "inputs": [],
      "name": "symbol",
      "outputs": [
        {
          "internalType": "string",
          "name": "",
          "type": "string"
        }
      ],
      "stateMutability": "view",
      "type": "function"
    },
    {
      "inputs": [],
      "name": "totalSupply",
      "outputs": [
        {
          "internalType": "uint256",
          "name": "",
          "type": "uint256"
        }
      ],
      "stateMutability": "view",
      "type": "function"
    },
    {
      "inputs": [
        {
          "internalType": "address",
          "name": "recipient",
          "type": "address"
        },
        {
          "internalType": "uint256",
          "name": "amount",
          "type": "uint256"
        }
      ],
      "name": "transfer",
      "outputs": [
        {
          "internalType": "bool",
          "name": "",
          "type": "bool"
        }
      ],
      "stateMutability": "nonpayable",
      "type": "function"
    },
    {
      "inputs": [
        {
          "internalType": "address",
          "name": "sender",
          "type": "address"
        },
        {
          "internalType": "address",
          "name": "recipient",
          "type": "address"
        },
        {
          "internalType": "uint256",
          "name": "amount",
          "type": "uint256"
        }
      ],
      "name": "transferFrom",
      "outputs": [
        {
          "internalType": "bool",
          "name": "",
          "type": "bool"
        }
      ],
      "stateMutability": "nonpayable",
      "type": "function"
    },
    {
      "inputs": [],
      "name": "unpause",
      "outputs": [],
      "stateMutability": "nonpayable",
      "type": "function"
    }
  ],
  "bytecode": "0x60806040526007805461ff0019166101001790553480156200002057600080fd5b5060405162001f1638038062001f168339810160408190526200004391620003b0565b8181818181600590805190602001906200005f92919062000257565b5080516200007590600690602084019062000257565b50506007805460ff1916905550620000906000335b620000f2565b620000bc7f9f2df0fed2c77648de5860a4cc508cd0818c85b8b8a1ab4ceeef8d981c8956a6336200008a565b620000e87f65d7a28e3265b37a6474929f336521b332c1681b933f6cb9f3376673440d862a336200008a565b505050506200046a565b6200010982826200013560201b62000a881760201c565b60008281526001602090815260409091206200013091839062000a9262000145821b17901c565b505050565b62000141828262000165565b5050565b60006200015c836001600160a01b03841662000205565b90505b92915050565b6000828152602081815260408083206001600160a01b038516845290915290205460ff1662000141576000828152602081815260408083206001600160a01b03851684529091529020805460ff19166001179055620001c13390565b6001600160a01b0316816001600160a01b0316837f2f8788117e7eff1d82e926ec794901d17c78024a50270940304540a733656f0d60405160405180910390a45050565b60008181526001830160205260408120546200024e575081546001818101845560008481526020808220909301849055845484825282860190935260409020919091556200015f565b5060006200015f565b828054620002659062000417565b90600052602060002090601f016020900481019282620002895760008555620002d4565b82601f10620002a457805160ff1916838001178555620002d4565b82800160010185558215620002d4579182015b82811115620002d4578251825591602001919060010190620002b7565b50620002e2929150620002e6565b5090565b5b80821115620002e25760008155600101620002e7565b600082601f8301126200030e578081fd5b81516001600160401b03808211156200032b576200032b62000454565b604051601f8301601f19908116603f0116810190828211818310171562000356576200035662000454565b8160405283815260209250868385880101111562000372578485fd5b8491505b8382101562000395578582018301518183018401529082019062000376565b83821115620003a657848385830101525b9695505050505050565b60008060408385031215620003c3578182fd5b82516001600160401b0380821115620003da578384fd5b620003e886838701620002fd565b93506020850151915080821115620003fe578283fd5b506200040d85828601620002fd565b9150509250929050565b600181811c908216806200042c57607f821691505b602082108114156200044e57634e487b7160e01b600052602260045260246000fd5b50919050565b634e487b7160e01b600052604160045260246000fd5b611a9c806200047a6000396000f3fe608060405234801561001057600080fd5b50600436106101cf5760003560e01c80635c975abb11610104578063a217fddf116100a2578063d539139311610071578063d5391393146103e2578063d547741f14610409578063dd62ed3e1461041c578063e63ab1e914610455576101cf565b8063a217fddf146103a1578063a457c2d7146103a9578063a9059cbb146103bc578063ca15c873146103cf576101cf565b80638456cb59116100de5780638456cb59146103535780639010d07c1461035b57806391d148541461038657806395d89b4114610399576101cf565b80635c975abb1461030c57806370a082311461031757806379cc679014610340576101cf565b80632f2ff15d11610171578063395093511161014b57806339509351146102cb5780633f4ba83a146102de57806340c10f19146102e657806342966c68146102f9576101cf565b80632f2ff15d14610296578063313ce567146102a957806336568abe146102b8576101cf565b806318160ddd116101ad57806318160ddd146102245780631fa2fdc81461023657806323b872dd14610260578063248a9ca314610273576101cf565b806301ffc9a7146101d457806306fdde03146101fc578063095ea7b314610211575b600080fd5b6101e76101e23660046118b4565b61047c565b60405190151581526020015b60405180910390f35b6102046104a9565b6040516101f39190611951565b6101e761021f366004611810565b61053b565b6004545b6040519081526020016101f3565b61025e610244366004611839565b600780549115156101000261ff0019909216919091179055565b005b6101e761026e3660046117d5565b610552565b610228610281366004611859565b60009081526020819052604090206001015490565b61025e6102a4366004611871565b610601565b604051601281526020016101f3565b61025e6102c6366004611871565b610628565b6101e76102d9366004611810565b61064a565b61025e610686565b61025e6102f4366004611810565b61072c565b61025e610307366004611859565b6107cf565b60075460ff166101e7565b610228610325366004611789565b6001600160a01b031660009081526002602052604090205490565b61025e61034e366004611810565b6107dc565b61025e61085d565b61036e610369366004611893565b610901565b6040516001600160a01b0390911681526020016101f3565b6101e7610394366004611871565b610920565b610204610949565b610228600081565b6101e76103b7366004611810565b610958565b6101e76103ca366004611810565b6109f1565b6102286103dd366004611859565b610a67565b6102287f9f2df0fed2c77648de5860a4cc508cd0818c85b8b8a1ab4ceeef8d981c8956a681565b61025e610417366004611871565b610a7e565b61022861042a3660046117a3565b6001600160a01b03918216600090815260036020908152604080832093909416825291909152205490565b6102287f65d7a28e3265b37a6474929f336521b332c1681b933f6cb9f3376673440d862a81565b60006001600160e01b03198216635a05180f60e01b14806104a157506104a182610aa7565b90505b919050565b6060600580546104b890611a15565b80601f01602080910402602001604051908101604052809291908181526020018280546104e490611a15565b80156105315780601f1061050657610100808354040283529160200191610531565b820191906000526020600020905b81548152906001019060200180831161051457829003601f168201915b5050505050905090565b6000610548338484610adc565b5060015b92915050565b600061055f848484610c00565b6001600160a01b0384166000908152600360209081526040808320338452909152902054828110156105e95760405162461bcd60e51b815260206004820152602860248201527f45524332303a207472616e7366657220616d6f756e74206578636565647320616044820152676c6c6f77616e636560c01b60648201526084015b60405180910390fd5b6105f68533858403610adc565b506001949350505050565b61060b8282610ddb565b60008281526001602052604090206106239082610a92565b505050565b6106328282610e02565b60008281526001602052604090206106239082610e7c565b3360008181526003602090815260408083206001600160a01b03871684529091528120549091610548918590610681908690611984565b610adc565b6106b07f65d7a28e3265b37a6474929f336521b332c1681b933f6cb9f3376673440d862a33610394565b6107225760405162461bcd60e51b815260206004820152603960248201527f45524332305072657365744d696e7465725061757365723a206d75737420686160448201527f76652070617573657220726f6c6520746f20756e70617573650000000000000060648201526084016105e0565b61072a610e91565b565b6107567f9f2df0fed2c77648de5860a4cc508cd0818c85b8b8a1ab4ceeef8d981c8956a633610394565b6107c15760405162461bcd60e51b815260206004820152603660248201527f45524332305072657365744d696e7465725061757365723a206d7573742068616044820152751d99481b5a5b9d195c881c9bdb19481d1bc81b5a5b9d60521b60648201526084016105e0565b6107cb8282610f24565b5050565b6107d93382611010565b50565b60006107e8833361042a565b9050818110156108465760405162461bcd60e51b8152602060048201526024808201527f45524332303a206275726e20616d6f756e74206578636565647320616c6c6f77604482015263616e636560e01b60648201526084016105e0565b6108538333848403610adc565b6106238383611010565b6108877f65d7a28e3265b37a6474929f336521b332c1681b933f6cb9f3376673440d862a33610394565b6108f95760405162461bcd60e51b815260206004820152603760248201527f45524332305072657365744d696e7465725061757365723a206d75737420686160448201527f76652070617573657220726f6c6520746f20706175736500000000000000000060648201526084016105e0565b61072a61116a565b600082815260016020526040812061091990836111e5565b9392505050565b6000918252602082815260408084206001600160a01b0393909316845291905290205460ff1690565b6060600680546104b890611a15565b3360009081526003602090815260408083206001600160a01b0386168452909152812054828110156109da5760405162461bcd60e51b815260206004820152602560248201527f45524332303a2064656372656173656420616c6c6f77616e63652062656c6f77604482015264207a65726f60d81b60648201526084016105e0565b6109e73385858403610adc565b5060019392505050565b60007f286606583dd2410f16b66e57030d4c8f5d5035d0186ee360ce3cffaa3109abd233604080516001600160a01b0392831681529186166020830152810184905260600160405180910390a1600754610100900460ff1615610a565750600161054c565b610a6083836111f1565b905061054c565b60008181526001602052604081206104a1906111fe565b6106328282611208565b6107cb828261122e565b6000610919836001600160a01b0384166112b2565b60006001600160e01b03198216637965db0b60e01b14806104a157506301ffc9a760e01b6001600160e01b03198316146104a1565b6001600160a01b038316610b3e5760405162461bcd60e51b8152602060048201526024808201527f45524332303a20617070726f76652066726f6d20746865207a65726f206164646044820152637265737360e01b60648201526084016105e0565b6001600160a01b038216610b9f5760405162461bcd60e51b815260206004820152602260248201527f45524332303a20617070726f766520746f20746865207a65726f206164647265604482015261737360f01b60648201526084016105e0565b6001600160a01b0383811660008181526003602090815260408083209487168084529482529182902085905590518481527f8c5be1e5ebec7d5bd14f71427d1e84f3dd0314c0f7b2291e5b200ac8c7c3b925910160405180910390a3505050565b6001600160a01b038316610c645760405162461bcd60e51b815260206004820152602560248201527f45524332303a207472616e736665722066726f6d20746865207a65726f206164604482015264647265737360d81b60648201526084016105e0565b6001600160a01b038216610cc65760405162461bcd60e51b815260206004820152602360248201527f45524332303a207472616e7366657220746f20746865207a65726f206164647260448201526265737360e81b60648201526084016105e0565b610cd1838383611301565b6001600160a01b03831660009081526002602052604090205481811015610d495760405162461bcd60e51b815260206004820152602660248201527f45524332303a207472616e7366657220616d6f756e7420657863656564732062604482015265616c616e636560d01b60648201526084016105e0565b6001600160a01b03808516600090815260026020526040808220858503905591851681529081208054849290610d80908490611984565b92505081905550826001600160a01b0316846001600160a01b03167fddf252ad1be2c89b69c2b068fc378daa952ba7f163c4a11628f55a4df523b3ef84604051610dcc91815260200190565b60405180910390a35b50505050565b600082815260208190526040902060010154610df881335b61130c565b610623838361122e565b6001600160a01b0381163314610e725760405162461bcd60e51b815260206004820152602f60248201527f416363657373436f6e74726f6c3a2063616e206f6e6c792072656e6f756e636560448201526e103937b632b9903337b91039b2b63360891b60648201526084016105e0565b6107cb8282611370565b6000610919836001600160a01b0384166113d5565b60075460ff16610eda5760405162461bcd60e51b815260206004820152601460248201527314185d5cd8589b194e881b9bdd081c185d5cd95960621b60448201526064016105e0565b6007805460ff191690557f5db9ee0a495bf2e6ff9c91a7834c1ba4fdd244a5e8aa4e537bd38aeae4b073aa335b6040516001600160a01b03909116815260200160405180910390a1565b6001600160a01b038216610f7a5760405162461bcd60e51b815260206004820152601f60248201527f45524332303a206d696e7420746f20746865207a65726f20616464726573730060448201526064016105e0565b610f8660008383611301565b8060046000828254610f989190611984565b90915550506001600160a01b03821660009081526002602052604081208054839290610fc5908490611984565b90915550506040518181526001600160a01b038316906000907fddf252ad1be2c89b69c2b068fc378daa952ba7f163c4a11628f55a4df523b3ef9060200160405180910390a36107cb565b6001600160a01b0382166110705760405162461bcd60e51b815260206004820152602160248201527f45524332303a206275726e2066726f6d20746865207a65726f206164647265736044820152607360f81b60648201526084016105e0565b61107c82600083611301565b6001600160a01b038216600090815260026020526040902054818110156110f05760405162461bcd60e51b815260206004820152602260248201527f45524332303a206275726e20616d6f756e7420657863656564732062616c616e604482015261636560f01b60648201526084016105e0565b6001600160a01b038316600090815260026020526040812083830390556004805484929061111f9084906119bb565b90915550506040518281526000906001600160a01b038516907fddf252ad1be2c89b69c2b068fc378daa952ba7f163c4a11628f55a4df523b3ef9060200160405180910390a3610623565b60075460ff16156111b05760405162461bcd60e51b815260206004820152601060248201526f14185d5cd8589b194e881c185d5cd95960821b60448201526064016105e0565b6007805460ff191660011790557f62e78cea01bee320cd4e420270b5ea74000d11b0c9f74754ebdbfc544b05a258610f073390565b600061091983836114f2565b6000610548338484610c00565b60006104a1825490565b6000828152602081905260409020600101546112248133610df3565b6106238383611370565b6112388282610920565b6107cb576000828152602081815260408083206001600160a01b03851684529091529020805460ff1916600117905561126e3390565b6001600160a01b0316816001600160a01b0316837f2f8788117e7eff1d82e926ec794901d17c78024a50270940304540a733656f0d60405160405180910390a45050565b60008181526001830160205260408120546112f95750815460018181018455600084815260208082209093018490558454848252828601909352604090209190915561054c565b50600061054c565b61062383838361152a565b6113168282610920565b6107cb5761132e816001600160a01b03166014611590565b611339836020611590565b60405160200161134a9291906118dc565b60408051601f198184030181529082905262461bcd60e51b82526105e091600401611951565b61137a8282610920565b156107cb576000828152602081815260408083206001600160a01b0385168085529252808320805460ff1916905551339285917ff6391f5c32d9c69d2a47ea670b442974b53935d1edc7fd64eb21e047a839171b9190a45050565b600081815260018301602052604081205480156114e85760006113f96001836119bb565b855490915060009061140d906001906119bb565b905081811461148e57600086600001828154811061143b57634e487b7160e01b600052603260045260246000fd5b906000526020600020015490508087600001848154811061146c57634e487b7160e01b600052603260045260246000fd5b6000918252602080832090910192909255918252600188019052604090208390555b85548690806114ad57634e487b7160e01b600052603160045260246000fd5b60019003818190600052602060002001600090559055856001016000868152602001908152602001600020600090556001935050505061054c565b600091505061054c565b600082600001828154811061151757634e487b7160e01b600052603260045260246000fd5b9060005260206000200154905092915050565b60075460ff16156106235760405162461bcd60e51b815260206004820152602a60248201527f45524332305061757361626c653a20746f6b656e207472616e736665722077686044820152691a5b19481c185d5cd95960b21b60648201526084016105e0565b6060600061159f83600261199c565b6115aa906002611984565b67ffffffffffffffff8111156115d057634e487b7160e01b600052604160045260246000fd5b6040519080825280601f01601f1916602001820160405280156115fa576020820181803683370190505b509050600360fc1b8160008151811061162357634e487b7160e01b600052603260045260246000fd5b60200101906001600160f81b031916908160001a905350600f60fb1b8160018151811061166057634e487b7160e01b600052603260045260246000fd5b60200101906001600160f81b031916908160001a905350600061168484600261199c565b61168f906001611984565b90505b6001811115611723576f181899199a1a9b1b9c1cb0b131b232b360811b85600f16601081106116d157634e487b7160e01b600052603260045260246000fd5b1a60f81b8282815181106116f557634e487b7160e01b600052603260045260246000fd5b60200101906001600160f81b031916908160001a90535060049490941c9361171c816119fe565b9050611692565b5083156109195760405162461bcd60e51b815260206004820181905260248201527f537472696e67733a20686578206c656e67746820696e73756666696369656e7460448201526064016105e0565b80356001600160a01b03811681146104a457600080fd5b60006020828403121561179a578081fd5b61091982611772565b600080604083850312156117b5578081fd5b6117be83611772565b91506117cc60208401611772565b90509250929050565b6000806000606084860312156117e9578081fd5b6117f284611772565b925061180060208501611772565b9150604084013590509250925092565b60008060408385031215611822578182fd5b61182b83611772565b946020939093013593505050565b60006020828403121561184a578081fd5b81358015158114610919578182fd5b60006020828403121561186a578081fd5b5035919050565b60008060408385031215611883578182fd5b823591506117cc60208401611772565b600080604083850312156118a5578182fd5b50508035926020909101359150565b6000602082840312156118c5578081fd5b81356001600160e01b031981168114610919578182fd5b60007f416363657373436f6e74726f6c3a206163636f756e7420000000000000000000825283516119148160178501602088016119d2565b7001034b99036b4b9b9b4b733903937b6329607d1b60179184019182015283516119458160288401602088016119d2565b01602801949350505050565b60006020825282518060208401526119708160408501602087016119d2565b601f01601f19169190910160400192915050565b6000821982111561199757611997611a50565b500190565b60008160001904831182151516156119b6576119b6611a50565b500290565b6000828210156119cd576119cd611a50565b500390565b60005b838110156119ed5781810151838201526020016119d5565b83811115610dd55750506000910152565b600081611a0d57611a0d611a50565b506000190190565b600181811c90821680611a2957607f821691505b60208210811415611a4a57634e487b7160e01b600052602260045260246000fd5b50919050565b634e487b7160e01b600052601160045260246000fdfea2646970667358221220f9579b6bdf9ad9fbe5f1abf7e78dbe2f2a4c1986b482d27f8d405a14dd21429a64736f6c63430008030033",
  "linkReferences": {},
  "deployedLinkReferences": {}
}