{
  "_format": "hh-sol-artifact-1",
  "contractName": "Oracle",
  "sourceName": "contracts/Oracle.sol",
  "abi": [
    {
      "inputs": [
        {
          "internalType": "address",
          "name": "pool",
          "type": "address"
        },
        {
          "internalType": "uint32",
          "name": "period",
          "type": "uint32"
        }
      ],
      "name": "consult",
      "outputs": [
        {
          "internalType": "int24",
          "name": "timeWeightedAverageTick",
          "type": "int24"
        }
      ],
      "stateMutability": "view",
      "type": "function"
    }
  ],
  "bytecode": "0x608060405234801561001057600080fd5b50610437806100206000396000f3fe608060405234801561001057600080fd5b506004361061002b5760003560e01c80638241348914610030575b600080fd5b6100626004803603604081101561004657600080fd5b5080356001600160a01b0316906020013563ffffffff16610079565b6040805160029290920b8252519081900360200190f35b60008060006100888585610092565b5095945050505050565b60008063ffffffff83166100d2576040805162461bcd60e51b8152602060048201526002602482015261042560f41b604482015290519081900360640190fd5b604080516002808252606082018352600092602083019080368337019050509050838160008151811061010157fe5b602002602001019063ffffffff16908163ffffffff168152505060008160018151811061012a57fe5b63ffffffff90921660209283029190910182015260405163883bdbfd60e01b81526004810182815283516024830152835160009384936001600160a01b038b169363883bdbfd9388939192839260449091019185820191028083838b5b8381101561019f578181015183820152602001610187565b505050509050019250505060006040518083038186803b1580156101c257600080fd5b505afa1580156101d6573d6000803e3d6000fd5b505050506040513d6000823e601f3d908101601f1916820160409081528110156101ff57600080fd5b810190808051604051939291908464010000000082111561021f57600080fd5b90830190602082018581111561023457600080fd5b825186602082028301116401000000008211171561025157600080fd5b82525081516020918201928201910280838360005b8381101561027e578181015183820152602001610266565b50505050905001604052602001805160405193929190846401000000008211156102a757600080fd5b9083019060208201858111156102bc57600080fd5b82518660208202830111640100000000821117156102d957600080fd5b82525081516020918201928201910280838360005b838110156103065781810151838201526020016102ee565b505050509050016040525050509150915060008260008151811061032657fe5b60200260200101518360018151811061033b57fe5b602002602001015103905060008260008151811061035557fe5b60200260200101518360018151811061036a57fe5b60200260200101510390508763ffffffff168260060b8161038757fe5b05965060008260060b1280156103b157508763ffffffff168260060b816103aa57fe5b0760060b15155b156103be57600019909601955b63ffffffff88166001600160a01b0302640100000000600160c01b03602083901b166001600160c01b038216816103f157fe5b049650505050505050925092905056fea2646970667358221220f3d7c0232b3ad0d6dbfe52a625778b069858fc60e5bceb45ba61e031b58816c364736f6c63430007060033",
  "linkReferences": {},
  "deployedLinkReferences": {}
}